{
  "abi": [
    {
      "inputs": [],
      "stateMutability": "nonpayable",
      "type": "constructor"
    },
    {
      "anonymous": false,
      "inputs": [
        {
          "indexed": true,
          "internalType": "address",
          "name": "member_address",
          "type": "address"
        },
        {
          "indexed": false,
          "internalType": "uint256",
          "name": "tokenId",
          "type": "uint256"
        }
      ],
      "name": "DaoJoined",
      "type": "event"
    },
    {
      "anonymous": false,
      "inputs": [],
      "name": "DeviceListed",
      "type": "event"
    },
    {
      "anonymous": false,
      "inputs": [
        {
          "indexed": true,
          "internalType": "address",
          "name": "owner",
          "type": "address"
        }
      ],
      "name": "DeviceSold",
      "type": "event"
    },
    {
      "anonymous": false,
      "inputs": [
        {
          "indexed": false,
          "internalType": "address",
          "name": "nftContract",
          "type": "address"
        },
        {
          "indexed": false,
          "internalType": "uint256",
          "name": "tokenId",
          "type": "uint256"
        },
        {
          "indexed": false,
          "internalType": "address",
          "name": "seller",
          "type": "address"
        },
        {
          "indexed": false,
          "internalType": "address",
          "name": "owner",
          "type": "address"
        },
        {
          "indexed": false,
          "internalType": "uint256",
          "name": "price",
          "type": "uint256"
        }
      ],
      "name": "NFTListed",
      "type": "event"
    },
    {
      "anonymous": false,
      "inputs": [
        {
          "indexed": false,
          "internalType": "address",
          "name": "nftContract",
          "type": "address"
        },
        {
          "indexed": false,
          "internalType": "uint256",
          "name": "tokenId",
          "type": "uint256"
        },
        {
          "indexed": false,
          "internalType": "address",
          "name": "seller",
          "type": "address"
        },
        {
          "indexed": true,
          "internalType": "address",
          "name": "owner",
          "type": "address"
        },
        {
          "indexed": false,
          "internalType": "uint256",
          "name": "price",
          "type": "uint256"
        }
      ],
      "name": "NFTSold",
      "type": "event"
    },
    {
      "anonymous": false,
      "inputs": [],
      "name": "NewDAO",
      "type": "event"
    },
    {
      "anonymous": false,
      "inputs": [
        {
          "indexed": false,
          "internalType": "address",
          "name": "",
          "type": "address"
        },
        {
          "indexed": false,
          "internalType": "uint256",
          "name": "",
          "type": "uint256"
        }
      ],
      "name": "Received",
      "type": "event"
    },
    {
      "inputs": [],
      "name": "LISTING_FEE",
      "outputs": [
        {
          "internalType": "uint256",
          "name": "",
          "type": "uint256"
        }
      ],
      "stateMutability": "view",
      "type": "function"
    },
    {
      "inputs": [
        {
          "internalType": "address",
          "name": "_nftContract",
          "type": "address"
        },
        {
          "internalType": "uint256",
          "name": "_tokenId",
          "type": "uint256"
        }
      ],
      "name": "buyDevice",
      "outputs": [],
      "stateMutability": "payable",
      "type": "function"
    },
    {
      "inputs": [
        {
          "internalType": "address",
          "name": "_nftContract",
          "type": "address"
        },
        {
          "internalType": "uint256",
          "name": "_tokenId",
          "type": "uint256"
        }
      ],
      "name": "buyNft",
      "outputs": [],
      "stateMutability": "payable",
      "type": "function"
    },
    {
      "inputs": [
        {
          "internalType": "uint256",
          "name": "_tokenId",
          "type": "uint256"
        }
      ],
      "name": "getDaoMembers",
      "outputs": [
        {
          "internalType": "address[]",
          "name": "",
          "type": "address[]"
        }
      ],
      "stateMutability": "view",
      "type": "function"
    },
    {
      "inputs": [],
      "name": "getJoinedDaos",
      "outputs": [
        {
          "components": [
            {
              "internalType": "address",
              "name": "nftContract",
              "type": "address"
            },
            {
              "internalType": "uint256",
              "name": "tokenId",
              "type": "uint256"
            },
            {
              "internalType": "string",
              "name": "desc_uri",
              "type": "string"
            },
            {
              "internalType": "contract DaoMembers",
              "name": "members",
              "type": "address"
            },
            {
              "internalType": "uint256",
              "name": "marketPlaceId",
              "type": "uint256"
            }
          ],
          "internalType": "struct OaseesMarketplace.DAO[]",
          "name": "",
          "type": "tuple[]"
        }
      ],
      "stateMutability": "view",
      "type": "function"
    },
    {
      "inputs": [],
      "name": "getListedDevices",
      "outputs": [
        {
          "components": [
            {
              "internalType": "address",
              "name": "nftContract",
              "type": "address"
            },
            {
              "internalType": "uint256",
              "name": "tokenId",
              "type": "uint256"
            },
            {
              "internalType": "address payable",
              "name": "seller",
              "type": "address"
            },
            {
              "internalType": "address payable",
              "name": "owner",
              "type": "address"
            },
            {
              "internalType": "uint256",
              "name": "price",
              "type": "uint256"
            },
            {
              "internalType": "string",
              "name": "desc_uri",
              "type": "string"
            },
            {
              "internalType": "bool",
              "name": "listed",
              "type": "bool"
            },
            {
              "internalType": "uint256",
              "name": "marketPlaceId",
              "type": "uint256"
            }
          ],
          "internalType": "struct OaseesMarketplace.DEVICE[]",
          "name": "",
          "type": "tuple[]"
        }
      ],
      "stateMutability": "view",
      "type": "function"
    },
    {
      "inputs": [],
      "name": "getListedNfts",
      "outputs": [
        {
          "components": [
            {
              "internalType": "address",
              "name": "nftContract",
              "type": "address"
            },
            {
              "internalType": "uint256",
              "name": "tokenId",
              "type": "uint256"
            },
            {
              "internalType": "address payable",
              "name": "seller",
              "type": "address"
            },
            {
              "internalType": "address payable",
              "name": "owner",
              "type": "address"
            },
            {
              "internalType": "uint256",
              "name": "price",
              "type": "uint256"
            },
            {
              "internalType": "string",
              "name": "desc_uri",
              "type": "string"
            },
            {
              "internalType": "bool",
              "name": "listed",
              "type": "bool"
            },
            {
              "internalType": "uint256",
              "name": "marketPlaceId",
              "type": "uint256"
            }
          ],
          "internalType": "struct OaseesMarketplace.NFT[]",
          "name": "",
          "type": "tuple[]"
        }
      ],
      "stateMutability": "view",
      "type": "function"
    },
    {
      "inputs": [],
      "name": "getMyDevices",
      "outputs": [
        {
          "components": [
            {
              "internalType": "address",
              "name": "nftContract",
              "type": "address"
            },
            {
              "internalType": "uint256",
              "name": "tokenId",
              "type": "uint256"
            },
            {
              "internalType": "address payable",
              "name": "seller",
              "type": "address"
            },
            {
              "internalType": "address payable",
              "name": "owner",
              "type": "address"
            },
            {
              "internalType": "uint256",
              "name": "price",
              "type": "uint256"
            },
            {
              "internalType": "string",
              "name": "desc_uri",
              "type": "string"
            },
            {
              "internalType": "bool",
              "name": "listed",
              "type": "bool"
            },
            {
              "internalType": "uint256",
              "name": "marketPlaceId",
              "type": "uint256"
            }
          ],
          "internalType": "struct OaseesMarketplace.DEVICE[]",
          "name": "",
          "type": "tuple[]"
        }
      ],
      "stateMutability": "view",
      "type": "function"
    },
    {
      "inputs": [],
      "name": "getMyListedNfts",
      "outputs": [
        {
          "components": [
            {
              "internalType": "address",
              "name": "nftContract",
              "type": "address"
            },
            {
              "internalType": "uint256",
              "name": "tokenId",
              "type": "uint256"
            },
            {
              "internalType": "address payable",
              "name": "seller",
              "type": "address"
            },
            {
              "internalType": "address payable",
              "name": "owner",
              "type": "address"
            },
            {
              "internalType": "uint256",
              "name": "price",
              "type": "uint256"
            },
            {
              "internalType": "string",
              "name": "desc_uri",
              "type": "string"
            },
            {
              "internalType": "bool",
              "name": "listed",
              "type": "bool"
            },
            {
              "internalType": "uint256",
              "name": "marketPlaceId",
              "type": "uint256"
            }
          ],
          "internalType": "struct OaseesMarketplace.NFT[]",
          "name": "",
          "type": "tuple[]"
        }
      ],
      "stateMutability": "view",
      "type": "function"
    },
    {
      "inputs": [],
      "name": "getMyNfts",
      "outputs": [
        {
          "components": [
            {
              "internalType": "address",
              "name": "nftContract",
              "type": "address"
            },
            {
              "internalType": "uint256",
              "name": "tokenId",
              "type": "uint256"
            },
            {
              "internalType": "address payable",
              "name": "seller",
              "type": "address"
            },
            {
              "internalType": "address payable",
              "name": "owner",
              "type": "address"
            },
            {
              "internalType": "uint256",
              "name": "price",
              "type": "uint256"
            },
            {
              "internalType": "string",
              "name": "desc_uri",
              "type": "string"
            },
            {
              "internalType": "bool",
              "name": "listed",
              "type": "bool"
            },
            {
              "internalType": "uint256",
              "name": "marketPlaceId",
              "type": "uint256"
            }
          ],
          "internalType": "struct OaseesMarketplace.NFT[]",
          "name": "",
          "type": "tuple[]"
        }
      ],
      "stateMutability": "view",
      "type": "function"
    },
    {
      "inputs": [],
      "name": "getlistedDaos",
      "outputs": [
        {
          "components": [
            {
              "internalType": "address",
              "name": "nftContract",
              "type": "address"
            },
            {
              "internalType": "uint256",
              "name": "tokenId",
              "type": "uint256"
            },
            {
              "internalType": "string",
              "name": "desc_uri",
              "type": "string"
            },
            {
              "internalType": "contract DaoMembers",
              "name": "members",
              "type": "address"
            },
            {
              "internalType": "uint256",
              "name": "marketPlaceId",
              "type": "uint256"
            }
          ],
          "internalType": "struct OaseesMarketplace.DAO[]",
          "name": "",
          "type": "tuple[]"
        }
      ],
      "stateMutability": "view",
      "type": "function"
    },
    {
      "inputs": [
        {
          "internalType": "uint256",
          "name": "_tokenId",
          "type": "uint256"
        }
      ],
      "name": "joinDao",
      "outputs": [],
      "stateMutability": "payable",
      "type": "function"
    },
    {
      "inputs": [
        {
          "internalType": "address",
          "name": "_nftContract",
          "type": "address"
        },
        {
          "internalType": "uint256",
          "name": "_tokenId",
          "type": "uint256"
        },
        {
          "internalType": "string",
          "name": "_desc_uri",
          "type": "string"
        }
      ],
      "name": "makeDao",
      "outputs": [],
      "stateMutability": "payable",
      "type": "function"
    },
    {
      "inputs": [
        {
          "internalType": "address",
          "name": "_nftContract",
          "type": "address"
        },
        {
          "internalType": "uint256",
          "name": "_tokenId",
          "type": "uint256"
        },
        {
          "internalType": "uint256",
          "name": "_price",
          "type": "uint256"
        },
        {
          "internalType": "string",
          "name": "_desc_uri",
          "type": "string"
        },
        {
          "internalType": "bool",
          "name": "listed",
          "type": "bool"
        }
      ],
      "name": "makeDevice",
      "outputs": [],
      "stateMutability": "payable",
      "type": "function"
    },
    {
      "inputs": [
        {
          "internalType": "address",
          "name": "_nftContract",
          "type": "address"
        },
        {
          "internalType": "uint256",
          "name": "_tokenId",
          "type": "uint256"
        },
        {
          "internalType": "uint256",
          "name": "_price",
          "type": "uint256"
        },
        {
          "internalType": "string",
          "name": "_desc_uri",
          "type": "string"
        }
      ],
      "name": "makeItem",
      "outputs": [],
      "stateMutability": "payable",
      "type": "function"
    },
    {
      "inputs": [
        {
          "internalType": "address",
          "name": "deviceAddress",
          "type": "address"
        },
        {
          "internalType": "uint256",
          "name": "_tokenId",
          "type": "uint256"
        }
      ],
      "name": "registerDeviceToDao",
      "outputs": [],
      "stateMutability": "nonpayable",
      "type": "function"
    }
  ],
  "bytecode": "6080604052655af3107a400060055534801561001a57600080fd5b506001600055600680546001600160a01b03191633179055612b65806100416000396000f3fe6080604052600436106100f35760003560e01c80634ddf4f8f1161008a578063be7335d611610059578063be7335d614610238578063e05c09bf14610265578063e400843714610278578063eb0cddec1461028b57600080fd5b80634ddf4f8f146101ea5780638c08c9fb146101fd5780638d6cb3fb14610210578063b9f67dec1461022557600080fd5b80632c895a6d116100c65780632c895a6d1461017157806330331f141461019157806338c91f6e146101b357806347a21ff9146101d557600080fd5b8063047b07bf146100f857806318084fd9146101235780631f4cc4db146101385780632b86ae381461014d575b600080fd5b34801561010457600080fd5b5061010d6102a0565b60405161011a91906120ea565b60405180910390f35b61013661013136600461214e565b6104f7565b005b34801561014457600080fd5b5061010d6105e4565b34801561015957600080fd5b5061016360055481565b60405190815260200161011a565b34801561017d57600080fd5b5061013661018c36600461217f565b61088f565b34801561019d57600080fd5b506101a6610953565b60405161011a91906121ab565b3480156101bf57600080fd5b506101c8610c49565b60405161011a9190612256565b3480156101e157600080fd5b506101c8610e96565b6101366101f836600461217f565b6110d5565b61013661020b366004612370565b61126d565b34801561021c57600080fd5b5061010d61148b565b61013661023336600461217f565b611693565b34801561024457600080fd5b5061025861025336600461214e565b6117ee565b60405161011a91906123e7565b610136610273366004612434565b611873565b61013661028636600461248c565b6119cd565b34801561029757600080fd5b506101a6611cb5565b606060006102ad60025490565b90506000805b828110156103035733600760006102cb846001612504565b81526020810191909152604001600020600301546001600160a01b0316036102fb57816102f781612517565b9250505b6001016102b3565b506000816001600160401b0381111561031e5761031e6122ad565b60405190808252806020026020018201604052801561035757816020015b610344611f9a565b81526020019060019003908161033c5790505b5090506000805b848110156104ed573360076000610376846001612504565b81526020810191909152604001600020600301546001600160a01b0316036104e557600760006103a7836001612504565b8152602080820192909252604090810160002081516101008101835281546001600160a01b0390811682526001830154948201949094526002820154841692810192909252600381015490921660608201526004820154608082015260058201805491929160a08401919061041b90612530565b80601f016020809104026020016040519081016040528092919081815260200182805461044790612530565b80156104945780601f1061046957610100808354040283529160200191610494565b820191906000526020600020905b81548152906001019060200180831161047757829003601f168201915b5050509183525050600682015460ff161515602082015260079091015460409091015283518490849081106104cb576104cb61256a565b602002602001018190525081806104e190612517565b9250505b60010161035e565b5090949350505050565b6002600054036105225760405162461bcd60e51b815260040161051990612580565b60405180910390fd5b60026000908155818152600960205260409081902060030154905163329b55b760e21b81523360048201526001600160a01b039091169063ca6d56dc90602401600060405180830381600087803b15801561057c57600080fd5b505af1158015610590573d6000803e3d6000fd5b5050506000828152600960209081526040918290206001015491519182523392507ff6c8a903be321d0b647f22e72ab01bff4ff7e43b77ca3d547b71e7165f3e58ab910160405180910390a2506001600055565b606060006105f160025490565b90506000805b8281101561067657336007600061060f846001612504565b81526020810191909152604001600020600201546001600160a01b031614801561065b575060076000610643836001612504565b815260208101919091526040016000206006015460ff165b1561066e578161066a81612517565b9250505b6001016105f7565b506000816001600160401b03811115610691576106916122ad565b6040519080825280602002602001820160405280156106ca57816020015b6106b7611f9a565b8152602001906001900390816106af5790505b5090506000805b848110156104ed5733600760006106e9846001612504565b81526020810191909152604001600020600201546001600160a01b031614801561073557506007600061071d836001612504565b815260208101919091526040016000206006015460ff165b156108875760076000610749836001612504565b8152602080820192909252604090810160002081516101008101835281546001600160a01b0390811682526001830154948201949094526002820154841692810192909252600381015490921660608201526004820154608082015260058201805491929160a0840191906107bd90612530565b80601f01602080910402602001604051908101604052809291908181526020018280546107e990612530565b80156108365780601f1061080b57610100808354040283529160200191610836565b820191906000526020600020905b81548152906001019060200180831161081957829003601f168201915b5050509183525050600682015460ff1615156020820152600790910154604090910152835184908490811061086d5761086d61256a565b6020026020010181905250818061088390612517565b9250505b6001016106d1565b6000818152600960205260409081902060030154905163329b55b760e21b81526001600160a01b0384811660048301529091169063ca6d56dc90602401600060405180830381600087803b1580156108e657600080fd5b505af11580156108fa573d6000803e3d6000fd5b5050506000828152600960209081526040918290206001015491519182526001600160a01b03851692507ff6c8a903be321d0b647f22e72ab01bff4ff7e43b77ca3d547b71e7165f3e58ab910160405180910390a25050565b6060600061096060045490565b90506000805b82811015610a16576009600061097d836001612504565b81526020810191909152604090810160002060030154905163288c314960e21b81523360048201526001600160a01b039091169063a230c52490602401602060405180830381865afa1580156109d7573d6000803e3d6000fd5b505050506040513d601f19601f820116820180604052508101906109fb91906125b7565b15610a0e5781610a0a81612517565b9250505b600101610966565b50600080610a2483856125db565b6001600160401b03811115610a3b57610a3b6122ad565b604051908082528060200260200182016040528015610a7457816020015b610a61611fdd565b815260200190600190039081610a595790505b50905060005b84811015610c405760096000610a91836001612504565b81526020810191909152604090810160002060030154905163288c314960e21b81523360048201526001600160a01b039091169063a230c52490602401602060405180830381865afa158015610aeb573d6000803e3d6000fd5b505050506040513d601f19601f82011682018060405250810190610b0f91906125b7565b610c385760096000610b22836001612504565b81526020808201929092526040908101600020815160a08101835281546001600160a01b031681526001820154938101939093526002810180549192840191610b6a90612530565b80601f0160208091040260200160405190810160405280929190818152602001828054610b9690612530565b8015610be35780601f10610bb857610100808354040283529160200191610be3565b820191906000526020600020905b815481529060010190602001808311610bc657829003601f168201915b505050918352505060038201546001600160a01b031660208201526004909101546040909101528251839085908110610c1e57610c1e61256a565b60200260200101819052508280610c3490612517565b9350505b600101610a7a565b50949350505050565b60606000610c5660035490565b90506000805b82811015610cac573360086000610c74846001612504565b81526020810191909152604001600020600301546001600160a01b031603610ca45781610ca081612517565b9250505b600101610c5c565b506000816001600160401b03811115610cc757610cc76122ad565b604051908082528060200260200182016040528015610d0057816020015b610ced611f9a565b815260200190600190039081610ce55790505b5090506000805b848110156104ed573360086000610d1f846001612504565b81526020810191909152604001600020600301546001600160a01b031603610e8e5760086000610d50836001612504565b8152602080820192909252604090810160002081516101008101835281546001600160a01b0390811682526001830154948201949094526002820154841692810192909252600381015490921660608201526004820154608082015260058201805491929160a084019190610dc490612530565b80601f0160208091040260200160405190810160405280929190818152602001828054610df090612530565b8015610e3d5780601f10610e1257610100808354040283529160200191610e3d565b820191906000526020600020905b815481529060010190602001808311610e2057829003601f168201915b5050509183525050600682015460ff16151560208201526007909101546040909101528351849084908110610e7457610e7461256a565b60200260200101819052508180610e8a90612517565b9250505b600101610d07565b60606000610ea360035490565b90506000805b82811015610ef25760086000610ec0836001612504565b815260208101919091526040016000206006015460ff1615610eea5781610ee681612517565b9250505b600101610ea9565b506000816001600160401b03811115610f0d57610f0d6122ad565b604051908082528060200260200182016040528015610f4657816020015b610f33611f9a565b815260200190600190039081610f2b5790505b5090506000805b848110156104ed5760086000610f64836001612504565b815260208101919091526040016000206006015460ff16156110cd5760086000610f8f836001612504565b8152602080820192909252604090810160002081516101008101835281546001600160a01b0390811682526001830154948201949094526002820154841692810192909252600381015490921660608201526004820154608082015260058201805491929160a08401919061100390612530565b80601f016020809104026020016040519081016040528092919081815260200182805461102f90612530565b801561107c5780601f106110515761010080835404028352916020019161107c565b820191906000526020600020905b81548152906001019060200180831161105f57829003601f168201915b5050509183525050600682015460ff161515602082015260079091015460409091015283518490849081106110b3576110b361256a565b602002602001018190525081806110c990612517565b9250505b600101610f4d565b6002600054036110f75760405162461bcd60e51b815260040161051990612580565b60026000908155818152600760205260409020600481015434101561112e5760405162461bcd60e51b8152600401610519906125ee565b600281015460405133916001600160a01b0316903480156108fc02916000818181858888f19350505050158015611169573d6000803e3d6000fd5b5060018201546040516323b872dd60e01b81526001600160a01b038616916323b872dd9161119e913091869190600401612634565b600060405180830381600087803b1580156111b857600080fd5b505af11580156111cc573d6000803e3d6000fd5b505050506003820180546001600160a01b0319166001600160a01b03831617905560068201805460ff19169055600180548101905560018201546002830154604080516001600160a01b038881168252602082019490945291831690820152346060820152908216907f16f1dbd97e6bf646d429ed186cce832f1f7fd9907814293b83181e9970ab7bd29060800160405180910390a2505060016000555050565b60026000540361128f5760405162461bcd60e51b815260040161051990612580565b600260005533806112a4600380546001019055565b604051806101000160405280886001600160a01b03168152602001878152602001826001600160a01b03168152602001836001600160a01b03168152602001868152602001858152602001841515815260200161130060035490565b90526008600061130f60035490565b81526020808201929092526040908101600020835181546001600160a01b03199081166001600160a01b0392831617835593850151600183015591840151600282018054851691841691909117905560608401516003820180549094169216919091179091556080820151600482015560a0820151600582019061139390826126a9565b5060c082015160068201805460ff191691151591909117905560e0909101516007909101558215611451576040516323b872dd60e01b81526001600160a01b038816906323b872dd906113ee90339030908b90600401612634565b600060405180830381600087803b15801561140857600080fd5b505af115801561141c573d6000803e3d6000fd5b50506040513094507f3c7ada5f75657056231fba463ce7726c722fb5e9879490e912901d83224be710925060009150a161147d565b60405133907f5c48c5aa6afec31404a1252fcd350b9c72cf469130a46555ec2a5d974713bd1f90600090a25b505060016000555050505050565b6060600061149860025490565b905060006114a560015490565b6114af90836125db565b90506000816001600160401b038111156114cb576114cb6122ad565b60405190808252806020026020018201604052801561150457816020015b6114f1611f9a565b8152602001906001900390816114e95790505b5090506000805b848110156104ed5760076000611522836001612504565b815260208101919091526040016000206006015460ff161561168b576007600061154d836001612504565b8152602080820192909252604090810160002081516101008101835281546001600160a01b0390811682526001830154948201949094526002820154841692810192909252600381015490921660608201526004820154608082015260058201805491929160a0840191906115c190612530565b80601f01602080910402602001604051908101604052809291908181526020018280546115ed90612530565b801561163a5780601f1061160f5761010080835404028352916020019161163a565b820191906000526020600020905b81548152906001019060200180831161161d57829003601f168201915b5050509183525050600682015460ff161515602082015260079091015460409091015283518490849081106116715761167161256a565b6020026020010181905250818061168790612517565b9250505b60010161150b565b6002600054036116b55760405162461bcd60e51b815260040161051990612580565b6002600090815581815260086020526040902060048101543410156116ec5760405162461bcd60e51b8152600401610519906125ee565b600281015460405133916001600160a01b0316903480156108fc02916000818181858888f19350505050158015611727573d6000803e3d6000fd5b5060018201546040516323b872dd60e01b81526001600160a01b038616916323b872dd9161175c913091869190600401612634565b600060405180830381600087803b15801561177657600080fd5b505af115801561178a573d6000803e3d6000fd5b505050506003820180546001600160a01b0319166001600160a01b03831690811790915560068301805460ff191690556040517f5c48c5aa6afec31404a1252fcd350b9c72cf469130a46555ec2a5d974713bd1f90600090a2505060016000555050565b600081815260096020526040808220600301548151639eab525360e01b815291516060936001600160a01b0390921692639eab52539260048083019391928290030181865afa158015611845573d6000803e3d6000fd5b505050506040513d6000823e601f3d908101601f1916820160405261186d9190810190612768565b92915050565b6002600054036118955760405162461bcd60e51b815260040161051990612580565b60026000556118a8600480546001019055565b6040518060a00160405280846001600160a01b031681526020018381526020018281526020016040516118da9061201e565b604051809103906000f0801580156118f6573d6000803e3d6000fd5b506001600160a01b0316815260200161190e60045490565b90526009600061191d60045490565b81526020808201929092526040908101600020835181546001600160a01b0319166001600160a01b03909116178155918301516001830155820151600282019061196790826126a9565b5060608201516003820180546001600160a01b0319166001600160a01b039092169190911790556080909101516004909101556040517f5137a78362092f7cf16d4e108864b61a73042511dfec3a474022e5a2fa3d326f90600090a15050600160005550565b6002600054036119ef5760405162461bcd60e51b815260040161051990612580565b600260005581611a415760405162461bcd60e51b815260206004820152601c60248201527f5072696365206d757374206265206174206c65617374203120776569000000006044820152606401610519565b6005543414611a925760405162461bcd60e51b815260206004820181905260248201527f4e6f7420656e6f75676820657468657220666f72206c697374696e67206665656044820152606401610519565b6040516323b872dd60e01b81526001600160a01b038516906323b872dd90611ac290339030908890600401612634565b600060405180830381600087803b158015611adc57600080fd5b505af1158015611af0573d6000803e3d6000fd5b50506006546005546040516001600160a01b03909216935080156108fc029250906000818181858888f19350505050158015611b30573d6000803e3d6000fd5b50611b3f600280546001019055565b604051806101000160405280856001600160a01b03168152602001848152602001336001600160a01b03168152602001306001600160a01b03168152602001838152602001828152602001600115158152602001611b9c60025490565b905260076000611bab60025490565b81526020808201929092526040908101600020835181546001600160a01b03199081166001600160a01b0392831617835593850151600183015591840151600282018054851691841691909117905560608401516003820180549094169216919091179091556080820151600482015560a08201516005820190611c2f90826126a9565b5060c082015160068201805460ff191691151591909117905560e090910151600790910155604080516001600160a01b03861681526020810185905233818301523060608201526080810184905290517fa0c6c0d02d86fdacecbaa5fdf5894bab204e31a778250474108540733a9b8d199160a0908290030190a1505060016000555050565b60606000611cc260045490565b90506000805b82811015611d785760096000611cdf836001612504565b81526020810191909152604090810160002060030154905163288c314960e21b81523360048201526001600160a01b039091169063a230c52490602401602060405180830381865afa158015611d39573d6000803e3d6000fd5b505050506040513d601f19601f82011682018060405250810190611d5d91906125b7565b15611d705781611d6c81612517565b9250505b600101611cc8565b50600080826001600160401b03811115611d9457611d946122ad565b604051908082528060200260200182016040528015611dcd57816020015b611dba611fdd565b815260200190600190039081611db25790505b50905060005b84811015610c405760096000611dea836001612504565b81526020810191909152604090810160002060030154905163288c314960e21b81523360048201526001600160a01b039091169063a230c52490602401602060405180830381865afa158015611e44573d6000803e3d6000fd5b505050506040513d601f19601f82011682018060405250810190611e6891906125b7565b15611f925760096000611e7c836001612504565b81526020808201929092526040908101600020815160a08101835281546001600160a01b031681526001820154938101939093526002810180549192840191611ec490612530565b80601f0160208091040260200160405190810160405280929190818152602001828054611ef090612530565b8015611f3d5780601f10611f1257610100808354040283529160200191611f3d565b820191906000526020600020905b815481529060010190602001808311611f2057829003601f168201915b505050918352505060038201546001600160a01b031660208201526004909101546040909101528251839085908110611f7857611f7861256a565b60200260200101819052508280611f8e90612517565b9350505b600101611dd3565b604080516101008101825260008082526020820181905291810182905260608082018390526080820183905260a082015260c0810182905260e081019190915290565b6040518060a0016040528060006001600160a01b03168152602001600081526020016060815260200160006001600160a01b03168152602001600081525090565b6103168061281a83390190565b6000815180845260005b8181101561205157602081850181015186830182015201612035565b506000602082860101526020601f19601f83011685010191505092915050565b600061010060018060a01b0380845116855260208401516020860152806040850151166040860152806060850151166060860152506080830151608085015260a08301518160a08601526120c78286018261202b565b91505060c0830151151560c085015260e083015160e08501528091505092915050565b600060208083016020845280855180835260408601915060408160051b87010192506020870160005b8281101561214157603f1988860301845261212f858351612071565b94509285019290850190600101612113565b5092979650505050505050565b60006020828403121561216057600080fd5b5035919050565b6001600160a01b038116811461217c57600080fd5b50565b6000806040838503121561219257600080fd5b823561219d81612167565b946020939093013593505050565b600060208083018184528085518083526040925060408601915060408160051b87010184880160005b8381101561224857888303603f19018552815180516001600160a01b03908116855288820151898601528782015160a089870181905291906122188388018261202b565b606085810151909316928801929092525060809283015192909501919091525093860193908601906001016121d4565b509098975050505050505050565b600060208083016020845280855180835260408601915060408160051b87010192506020870160005b8281101561214157603f1988860301845261229b858351612071565b9450928501929085019060010161227f565b634e487b7160e01b600052604160045260246000fd5b604051601f8201601f191681016001600160401b03811182821017156122eb576122eb6122ad565b604052919050565b600082601f83011261230457600080fd5b81356001600160401b0381111561231d5761231d6122ad565b612330601f8201601f19166020016122c3565b81815284602083860101111561234557600080fd5b816020850160208301376000918101602001919091529392505050565b801515811461217c57600080fd5b600080600080600060a0868803121561238857600080fd5b853561239381612167565b9450602086013593506040860135925060608601356001600160401b038111156123bc57600080fd5b6123c8888289016122f3565b92505060808601356123d981612362565b809150509295509295909350565b6020808252825182820181905260009190848201906040850190845b818110156124285783516001600160a01b031683529284019291840191600101612403565b50909695505050505050565b60008060006060848603121561244957600080fd5b833561245481612167565b92506020840135915060408401356001600160401b0381111561247657600080fd5b612482868287016122f3565b9150509250925092565b600080600080608085870312156124a257600080fd5b84356124ad81612167565b9350602085013592506040850135915060608501356001600160401b038111156124d657600080fd5b6124e2878288016122f3565b91505092959194509250565b634e487b7160e01b600052601160045260246000fd5b8082018082111561186d5761186d6124ee565b600060018201612529576125296124ee565b5060010190565b600181811c9082168061254457607f821691505b60208210810361256457634e487b7160e01b600052602260045260246000fd5b50919050565b634e487b7160e01b600052603260045260246000fd5b6020808252601f908201527f5265656e7472616e637947756172643a207265656e7472616e742063616c6c00604082015260600190565b6000602082840312156125c957600080fd5b81516125d481612362565b9392505050565b8181038181111561186d5761186d6124ee565b60208082526026908201527f4e6f7420656e6f75676820657468657220746f20636f7665722061736b696e6760408201526520707269636560d01b606082015260800190565b6001600160a01b039384168152919092166020820152604081019190915260600190565b601f8211156126a4576000816000526020600020601f850160051c810160208610156126815750805b601f850160051c820191505b818110156126a05782815560010161268d565b5050505b505050565b81516001600160401b038111156126c2576126c26122ad565b6126d6816126d08454612530565b84612658565b602080601f83116001811461270b57600084156126f35750858301515b600019600386901b1c1916600185901b1785556126a0565b600085815260208120601f198616915b8281101561273a5788860151825594840194600190910190840161271b565b50858210156127585787850151600019600388901b60f8161c191681555b5050505050600190811b01905550565b6000602080838503121561277b57600080fd5b82516001600160401b038082111561279257600080fd5b818501915085601f8301126127a657600080fd5b8151818111156127b8576127b86122ad565b8060051b91506127c98483016122c3565b81815291830184019184810190888411156127e357600080fd5b938501935b8385101561280d57845192506127fd83612167565b82825293850193908501906127e8565b9897505050505050505056fe608060405234801561001057600080fd5b506102f6806100206000396000f3fe608060405234801561001057600080fd5b50600436106100575760003560e01c80632db78d931461005c5780635daf08ca1461008f5780639eab5253146100ba578063a230c524146100cf578063ca6d56dc1461010a575b600080fd5b61007c61006a36600461022a565b60016020526000908152604090205481565b6040519081526020015b60405180910390f35b6100a261009d36600461025a565b61011f565b6040516001600160a01b039091168152602001610086565b6100c2610149565b6040516100869190610273565b6100fa6100dd36600461022a565b6001600160a01b0316600090815260016020526040902054151590565b6040519015158152602001610086565b61011d61011836600461022a565b6101ab565b005b6000818154811061012f57600080fd5b6000918252602090912001546001600160a01b0316905081565b606060008054806020026020016040519081016040528092919081815260200182805480156101a157602002820191906000526020600020905b81546001600160a01b03168152600190910190602001808311610183575b5050505050905090565b6001600160a01b03811660009081526001602052604081205490036102275760008054600180820183557f290decd9548b62a8d60345a988386fc84ba6bc95484008f6362f93160ef3e56390910180546001600160a01b0319166001600160a01b03851690811790915582549083526020919091526040909120555b50565b60006020828403121561023c57600080fd5b81356001600160a01b038116811461025357600080fd5b9392505050565b60006020828403121561026c57600080fd5b5035919050565b6020808252825182820181905260009190848201906040850190845b818110156102b45783516001600160a01b03168352928401929184019160010161028f565b5090969550505050505056fea2646970667358221220da788f7592813331d818de1fc5ef03200ecb6f6b624fa1acce347f4365dba5f964736f6c63430008170033a2646970667358221220b66348acc52840da3a234ed0b17a2a6f97ae1eb12aa897bd51707df95a2b33cb64736f6c63430008170033",
  "bytecodeSha1": "9cf94bbd059fdea5c0581ba450344b773b0006c1",
  "compiler": {
    "evm_version": "istanbul",
    "optimizer": {
      "enabled": true,
      "runs": 200
    },
    "version": "0.8.23+commit.f704f362"
  },
  "contractName": "OaseesMarketplace",
  "language": "Solidity",
  "natspec": {
    "kind": "dev",
    "methods": {},
    "version": 1
  },
  "opcodes": "PUSH1 0x80 PUSH1 0x40 MSTORE PUSH1 0x4 CALLDATASIZE LT PUSH2 0xF3 JUMPI PUSH1 0x0 CALLDATALOAD PUSH1 0xE0 SHR DUP1 PUSH4 0x4DDF4F8F GT PUSH2 0x8A JUMPI DUP1 PUSH4 0xBE7335D6 GT PUSH2 0x59 JUMPI DUP1 PUSH4 0xBE7335D6 EQ PUSH2 0x238 JUMPI DUP1 PUSH4 0xE05C09BF EQ PUSH2 0x265 JUMPI DUP1 PUSH4 0xE4008437 EQ PUSH2 0x278 JUMPI DUP1 PUSH4 0xEB0CDDEC EQ PUSH2 0x28B JUMPI PUSH1 0x0 DUP1 REVERT JUMPDEST DUP1 PUSH4 0x4DDF4F8F EQ PUSH2 0x1EA JUMPI DUP1 PUSH4 0x8C08C9FB EQ PUSH2 0x1FD JUMPI DUP1 PUSH4 0x8D6CB3FB EQ PUSH2 0x210 JUMPI DUP1 PUSH4 0xB9F67DEC EQ PUSH2 0x225 JUMPI PUSH1 0x0 DUP1 REVERT JUMPDEST DUP1 PUSH4 0x2C895A6D GT PUSH2 0xC6 JUMPI DUP1 PUSH4 0x2C895A6D EQ PUSH2 0x171 JUMPI DUP1 PUSH4 0x30331F14 EQ PUSH2 0x191 JUMPI DUP1 PUSH4 0x38C91F6E EQ PUSH2 0x1B3 JUMPI DUP1 PUSH4 0x47A21FF9 EQ PUSH2 0x1D5 JUMPI PUSH1 0x0 DUP1 REVERT JUMPDEST DUP1 PUSH4 0x47B07BF EQ PUSH2 0xF8 JUMPI DUP1 PUSH4 0x18084FD9 EQ PUSH2 0x123 JUMPI DUP1 PUSH4 0x1F4CC4DB EQ PUSH2 0x138 JUMPI DUP1 PUSH4 0x2B86AE38 EQ PUSH2 0x14D JUMPI JUMPDEST PUSH1 0x0 DUP1 REVERT JUMPDEST CALLVALUE DUP1 ISZERO PUSH2 0x104 JUMPI PUSH1 0x0 DUP1 REVERT JUMPDEST POP PUSH2 0x10D PUSH2 0x2A0 JUMP JUMPDEST PUSH1 0x40 MLOAD PUSH2 0x11A SWAP2 SWAP1 PUSH2 0x20EA JUMP JUMPDEST PUSH1 0x40 MLOAD DUP1 SWAP2 SUB SWAP1 RETURN JUMPDEST PUSH2 0x136 PUSH2 0x131 CALLDATASIZE PUSH1 0x4 PUSH2 0x214E JUMP JUMPDEST PUSH2 0x4F7 JUMP JUMPDEST STOP JUMPDEST CALLVALUE DUP1 ISZERO PUSH2 0x144 JUMPI PUSH1 0x0 DUP1 REVERT JUMPDEST POP PUSH2 0x10D PUSH2 0x5E4 JUMP JUMPDEST CALLVALUE DUP1 ISZERO PUSH2 0x159 JUMPI PUSH1 0x0 DUP1 REVERT JUMPDEST POP PUSH2 0x163 PUSH1 0x5 SLOAD DUP2 JUMP JUMPDEST PUSH1 0x40 MLOAD SWAP1 DUP2 MSTORE PUSH1 0x20 ADD PUSH2 0x11A JUMP JUMPDEST CALLVALUE DUP1 ISZERO PUSH2 0x17D JUMPI PUSH1 0x0 DUP1 REVERT JUMPDEST POP PUSH2 0x136 PUSH2 0x18C CALLDATASIZE PUSH1 0x4 PUSH2 0x217F JUMP JUMPDEST PUSH2 0x88F JUMP JUMPDEST CALLVALUE DUP1 ISZERO PUSH2 0x19D JUMPI PUSH1 0x0 DUP1 REVERT JUMPDEST POP PUSH2 0x1A6 PUSH2 0x953 JUMP JUMPDEST PUSH1 0x40 MLOAD PUSH2 0x11A SWAP2 SWAP1 PUSH2 0x21AB JUMP JUMPDEST CALLVALUE DUP1 ISZERO PUSH2 0x1BF JUMPI PUSH1 0x0 DUP1 REVERT JUMPDEST POP PUSH2 0x1C8 PUSH2 0xC49 JUMP JUMPDEST PUSH1 0x40 MLOAD PUSH2 0x11A SWAP2 SWAP1 PUSH2 0x2256 JUMP JUMPDEST CALLVALUE DUP1 ISZERO PUSH2 0x1E1 JUMPI PUSH1 0x0 DUP1 REVERT JUMPDEST POP PUSH2 0x1C8 PUSH2 0xE96 JUMP JUMPDEST PUSH2 0x136 PUSH2 0x1F8 CALLDATASIZE PUSH1 0x4 PUSH2 0x217F JUMP JUMPDEST PUSH2 0x10D5 JUMP JUMPDEST PUSH2 0x136 PUSH2 0x20B CALLDATASIZE PUSH1 0x4 PUSH2 0x2370 JUMP JUMPDEST PUSH2 0x126D JUMP JUMPDEST CALLVALUE DUP1 ISZERO PUSH2 0x21C JUMPI PUSH1 0x0 DUP1 REVERT JUMPDEST POP PUSH2 0x10D PUSH2 0x148B JUMP JUMPDEST PUSH2 0x136 PUSH2 0x233 CALLDATASIZE PUSH1 0x4 PUSH2 0x217F JUMP JUMPDEST PUSH2 0x1693 JUMP JUMPDEST CALLVALUE DUP1 ISZERO PUSH2 0x244 JUMPI PUSH1 0x0 DUP1 REVERT JUMPDEST POP PUSH2 0x258 PUSH2 0x253 CALLDATASIZE PUSH1 0x4 PUSH2 0x214E JUMP JUMPDEST PUSH2 0x17EE JUMP JUMPDEST PUSH1 0x40 MLOAD PUSH2 0x11A SWAP2 SWAP1 PUSH2 0x23E7 JUMP JUMPDEST PUSH2 0x136 PUSH2 0x273 CALLDATASIZE PUSH1 0x4 PUSH2 0x2434 JUMP JUMPDEST PUSH2 0x1873 JUMP JUMPDEST PUSH2 0x136 PUSH2 0x286 CALLDATASIZE PUSH1 0x4 PUSH2 0x248C JUMP JUMPDEST PUSH2 0x19CD JUMP JUMPDEST CALLVALUE DUP1 ISZERO PUSH2 0x297 JUMPI PUSH1 0x0 DUP1 REVERT JUMPDEST POP PUSH2 0x1A6 PUSH2 0x1CB5 JUMP JUMPDEST PUSH1 0x60 PUSH1 0x0 PUSH2 0x2AD PUSH1 0x2 SLOAD SWAP1 JUMP JUMPDEST SWAP1 POP PUSH1 0x0 DUP1 JUMPDEST DUP3 DUP2 LT ISZERO PUSH2 0x303 JUMPI CALLER PUSH1 0x7 PUSH1 0x0 PUSH2 0x2CB DUP5 PUSH1 0x1 PUSH2 0x2504 JUMP JUMPDEST DUP2 MSTORE PUSH1 0x20 DUP2 ADD SWAP2 SWAP1 SWAP2 MSTORE PUSH1 0x40 ADD PUSH1 0x0 KECCAK256 PUSH1 0x3 ADD SLOAD PUSH1 0x1 PUSH1 0x1 PUSH1 0xA0 SHL SUB AND SUB PUSH2 0x2FB JUMPI DUP2 PUSH2 0x2F7 DUP2 PUSH2 0x2517 JUMP JUMPDEST SWAP3 POP POP JUMPDEST PUSH1 0x1 ADD PUSH2 0x2B3 JUMP JUMPDEST POP PUSH1 0x0 DUP2 PUSH1 0x1 PUSH1 0x1 PUSH1 0x40 SHL SUB DUP2 GT ISZERO PUSH2 0x31E JUMPI PUSH2 0x31E PUSH2 0x22AD JUMP JUMPDEST PUSH1 0x40 MLOAD SWAP1 DUP1 DUP3 MSTORE DUP1 PUSH1 0x20 MUL PUSH1 0x20 ADD DUP3 ADD PUSH1 0x40 MSTORE DUP1 ISZERO PUSH2 0x357 JUMPI DUP2 PUSH1 0x20 ADD JUMPDEST PUSH2 0x344 PUSH2 0x1F9A JUMP JUMPDEST DUP2 MSTORE PUSH1 0x20 ADD SWAP1 PUSH1 0x1 SWAP1 SUB SWAP1 DUP2 PUSH2 0x33C JUMPI SWAP1 POP JUMPDEST POP SWAP1 POP PUSH1 0x0 DUP1 JUMPDEST DUP5 DUP2 LT ISZERO PUSH2 0x4ED JUMPI CALLER PUSH1 0x7 PUSH1 0x0 PUSH2 0x376 DUP5 PUSH1 0x1 PUSH2 0x2504 JUMP JUMPDEST DUP2 MSTORE PUSH1 0x20 DUP2 ADD SWAP2 SWAP1 SWAP2 MSTORE PUSH1 0x40 ADD PUSH1 0x0 KECCAK256 PUSH1 0x3 ADD SLOAD PUSH1 0x1 PUSH1 0x1 PUSH1 0xA0 SHL SUB AND SUB PUSH2 0x4E5 JUMPI PUSH1 0x7 PUSH1 0x0 PUSH2 0x3A7 DUP4 PUSH1 0x1 PUSH2 0x2504 JUMP JUMPDEST DUP2 MSTORE PUSH1 0x20 DUP1 DUP3 ADD SWAP3 SWAP1 SWAP3 MSTORE PUSH1 0x40 SWAP1 DUP2 ADD PUSH1 0x0 KECCAK256 DUP2 MLOAD PUSH2 0x100 DUP2 ADD DUP4 MSTORE DUP2 SLOAD PUSH1 0x1 PUSH1 0x1 PUSH1 0xA0 SHL SUB SWAP1 DUP2 AND DUP3 MSTORE PUSH1 0x1 DUP4 ADD SLOAD SWAP5 DUP3 ADD SWAP5 SWAP1 SWAP5 MSTORE PUSH1 0x2 DUP3 ADD SLOAD DUP5 AND SWAP3 DUP2 ADD SWAP3 SWAP1 SWAP3 MSTORE PUSH1 0x3 DUP2 ADD SLOAD SWAP1 SWAP3 AND PUSH1 0x60 DUP3 ADD MSTORE PUSH1 0x4 DUP3 ADD SLOAD PUSH1 0x80 DUP3 ADD MSTORE PUSH1 0x5 DUP3 ADD DUP1 SLOAD SWAP2 SWAP3 SWAP2 PUSH1 0xA0 DUP5 ADD SWAP2 SWAP1 PUSH2 0x41B SWAP1 PUSH2 0x2530 JUMP JUMPDEST DUP1 PUSH1 0x1F ADD PUSH1 0x20 DUP1 SWAP2 DIV MUL PUSH1 0x20 ADD PUSH1 0x40 MLOAD SWAP1 DUP2 ADD PUSH1 0x40 MSTORE DUP1 SWAP3 SWAP2 SWAP1 DUP2 DUP2 MSTORE PUSH1 0x20 ADD DUP3 DUP1 SLOAD PUSH2 0x447 SWAP1 PUSH2 0x2530 JUMP JUMPDEST DUP1 ISZERO PUSH2 0x494 JUMPI DUP1 PUSH1 0x1F LT PUSH2 0x469 JUMPI PUSH2 0x100 DUP1 DUP4 SLOAD DIV MUL DUP4 MSTORE SWAP2 PUSH1 0x20 ADD SWAP2 PUSH2 0x494 JUMP JUMPDEST DUP3 ADD SWAP2 SWAP1 PUSH1 0x0 MSTORE PUSH1 0x20 PUSH1 0x0 KECCAK256 SWAP1 JUMPDEST DUP2 SLOAD DUP2 MSTORE SWAP1 PUSH1 0x1 ADD SWAP1 PUSH1 0x20 ADD DUP1 DUP4 GT PUSH2 0x477 JUMPI DUP3 SWAP1 SUB PUSH1 0x1F AND DUP3 ADD SWAP2 JUMPDEST POP POP POP SWAP2 DUP4 MSTORE POP POP PUSH1 0x6 DUP3 ADD SLOAD PUSH1 0xFF AND ISZERO ISZERO PUSH1 0x20 DUP3 ADD MSTORE PUSH1 0x7 SWAP1 SWAP2 ADD SLOAD PUSH1 0x40 SWAP1 SWAP2 ADD MSTORE DUP4 MLOAD DUP5 SWAP1 DUP5 SWAP1 DUP2 LT PUSH2 0x4CB JUMPI PUSH2 0x4CB PUSH2 0x256A JUMP JUMPDEST PUSH1 0x20 MUL PUSH1 0x20 ADD ADD DUP2 SWAP1 MSTORE POP DUP2 DUP1 PUSH2 0x4E1 SWAP1 PUSH2 0x2517 JUMP JUMPDEST SWAP3 POP POP JUMPDEST PUSH1 0x1 ADD PUSH2 0x35E JUMP JUMPDEST POP SWAP1 SWAP5 SWAP4 POP POP POP POP JUMP JUMPDEST PUSH1 0x2 PUSH1 0x0 SLOAD SUB PUSH2 0x522 JUMPI PUSH1 0x40 MLOAD PUSH3 0x461BCD PUSH1 0xE5 SHL DUP2 MSTORE PUSH1 0x4 ADD PUSH2 0x519 SWAP1 PUSH2 0x2580 JUMP JUMPDEST PUSH1 0x40 MLOAD DUP1 SWAP2 SUB SWAP1 REVERT JUMPDEST PUSH1 0x2 PUSH1 0x0 SWAP1 DUP2 SSTORE DUP2 DUP2 MSTORE PUSH1 0x9 PUSH1 0x20 MSTORE PUSH1 0x40 SWAP1 DUP2 SWAP1 KECCAK256 PUSH1 0x3 ADD SLOAD SWAP1 MLOAD PUSH4 0x329B55B7 PUSH1 0xE2 SHL DUP2 MSTORE CALLER PUSH1 0x4 DUP3 ADD MSTORE PUSH1 0x1 PUSH1 0x1 PUSH1 0xA0 SHL SUB SWAP1 SWAP2 AND SWAP1 PUSH4 0xCA6D56DC SWAP1 PUSH1 0x24 ADD PUSH1 0x0 PUSH1 0x40 MLOAD DUP1 DUP4 SUB DUP2 PUSH1 0x0 DUP8 DUP1 EXTCODESIZE ISZERO DUP1 ISZERO PUSH2 0x57C JUMPI PUSH1 0x0 DUP1 REVERT JUMPDEST POP GAS CALL ISZERO DUP1 ISZERO PUSH2 0x590 JUMPI RETURNDATASIZE PUSH1 0x0 DUP1 RETURNDATACOPY RETURNDATASIZE PUSH1 0x0 REVERT JUMPDEST POP POP POP PUSH1 0x0 DUP3 DUP2 MSTORE PUSH1 0x9 PUSH1 0x20 SWAP1 DUP2 MSTORE PUSH1 0x40 SWAP2 DUP3 SWAP1 KECCAK256 PUSH1 0x1 ADD SLOAD SWAP2 MLOAD SWAP2 DUP3 MSTORE CALLER SWAP3 POP PUSH32 0xF6C8A903BE321D0B647F22E72AB01BFF4FF7E43B77CA3D547B71E7165F3E58AB SWAP2 ADD PUSH1 0x40 MLOAD DUP1 SWAP2 SUB SWAP1 LOG2 POP PUSH1 0x1 PUSH1 0x0 SSTORE JUMP JUMPDEST PUSH1 0x60 PUSH1 0x0 PUSH2 0x5F1 PUSH1 0x2 SLOAD SWAP1 JUMP JUMPDEST SWAP1 POP PUSH1 0x0 DUP1 JUMPDEST DUP3 DUP2 LT ISZERO PUSH2 0x676 JUMPI CALLER PUSH1 0x7 PUSH1 0x0 PUSH2 0x60F DUP5 PUSH1 0x1 PUSH2 0x2504 JUMP JUMPDEST DUP2 MSTORE PUSH1 0x20 DUP2 ADD SWAP2 SWAP1 SWAP2 MSTORE PUSH1 0x40 ADD PUSH1 0x0 KECCAK256 PUSH1 0x2 ADD SLOAD PUSH1 0x1 PUSH1 0x1 PUSH1 0xA0 SHL SUB AND EQ DUP1 ISZERO PUSH2 0x65B JUMPI POP PUSH1 0x7 PUSH1 0x0 PUSH2 0x643 DUP4 PUSH1 0x1 PUSH2 0x2504 JUMP JUMPDEST DUP2 MSTORE PUSH1 0x20 DUP2 ADD SWAP2 SWAP1 SWAP2 MSTORE PUSH1 0x40 ADD PUSH1 0x0 KECCAK256 PUSH1 0x6 ADD SLOAD PUSH1 0xFF AND JUMPDEST ISZERO PUSH2 0x66E JUMPI DUP2 PUSH2 0x66A DUP2 PUSH2 0x2517 JUMP JUMPDEST SWAP3 POP POP JUMPDEST PUSH1 0x1 ADD PUSH2 0x5F7 JUMP JUMPDEST POP PUSH1 0x0 DUP2 PUSH1 0x1 PUSH1 0x1 PUSH1 0x40 SHL SUB DUP2 GT ISZERO PUSH2 0x691 JUMPI PUSH2 0x691 PUSH2 0x22AD JUMP JUMPDEST PUSH1 0x40 MLOAD SWAP1 DUP1 DUP3 MSTORE DUP1 PUSH1 0x20 MUL PUSH1 0x20 ADD DUP3 ADD PUSH1 0x40 MSTORE DUP1 ISZERO PUSH2 0x6CA JUMPI DUP2 PUSH1 0x20 ADD JUMPDEST PUSH2 0x6B7 PUSH2 0x1F9A JUMP JUMPDEST DUP2 MSTORE PUSH1 0x20 ADD SWAP1 PUSH1 0x1 SWAP1 SUB SWAP1 DUP2 PUSH2 0x6AF JUMPI SWAP1 POP JUMPDEST POP SWAP1 POP PUSH1 0x0 DUP1 JUMPDEST DUP5 DUP2 LT ISZERO PUSH2 0x4ED JUMPI CALLER PUSH1 0x7 PUSH1 0x0 PUSH2 0x6E9 DUP5 PUSH1 0x1 PUSH2 0x2504 JUMP JUMPDEST DUP2 MSTORE PUSH1 0x20 DUP2 ADD SWAP2 SWAP1 SWAP2 MSTORE PUSH1 0x40 ADD PUSH1 0x0 KECCAK256 PUSH1 0x2 ADD SLOAD PUSH1 0x1 PUSH1 0x1 PUSH1 0xA0 SHL SUB AND EQ DUP1 ISZERO PUSH2 0x735 JUMPI POP PUSH1 0x7 PUSH1 0x0 PUSH2 0x71D DUP4 PUSH1 0x1 PUSH2 0x2504 JUMP JUMPDEST DUP2 MSTORE PUSH1 0x20 DUP2 ADD SWAP2 SWAP1 SWAP2 MSTORE PUSH1 0x40 ADD PUSH1 0x0 KECCAK256 PUSH1 0x6 ADD SLOAD PUSH1 0xFF AND JUMPDEST ISZERO PUSH2 0x887 JUMPI PUSH1 0x7 PUSH1 0x0 PUSH2 0x749 DUP4 PUSH1 0x1 PUSH2 0x2504 JUMP JUMPDEST DUP2 MSTORE PUSH1 0x20 DUP1 DUP3 ADD SWAP3 SWAP1 SWAP3 MSTORE PUSH1 0x40 SWAP1 DUP2 ADD PUSH1 0x0 KECCAK256 DUP2 MLOAD PUSH2 0x100 DUP2 ADD DUP4 MSTORE DUP2 SLOAD PUSH1 0x1 PUSH1 0x1 PUSH1 0xA0 SHL SUB SWAP1 DUP2 AND DUP3 MSTORE PUSH1 0x1 DUP4 ADD SLOAD SWAP5 DUP3 ADD SWAP5 SWAP1 SWAP5 MSTORE PUSH1 0x2 DUP3 ADD SLOAD DUP5 AND SWAP3 DUP2 ADD SWAP3 SWAP1 SWAP3 MSTORE PUSH1 0x3 DUP2 ADD SLOAD SWAP1 SWAP3 AND PUSH1 0x60 DUP3 ADD MSTORE PUSH1 0x4 DUP3 ADD SLOAD PUSH1 0x80 DUP3 ADD MSTORE PUSH1 0x5 DUP3 ADD DUP1 SLOAD SWAP2 SWAP3 SWAP2 PUSH1 0xA0 DUP5 ADD SWAP2 SWAP1 PUSH2 0x7BD SWAP1 PUSH2 0x2530 JUMP JUMPDEST DUP1 PUSH1 0x1F ADD PUSH1 0x20 DUP1 SWAP2 DIV MUL PUSH1 0x20 ADD PUSH1 0x40 MLOAD SWAP1 DUP2 ADD PUSH1 0x40 MSTORE DUP1 SWAP3 SWAP2 SWAP1 DUP2 DUP2 MSTORE PUSH1 0x20 ADD DUP3 DUP1 SLOAD PUSH2 0x7E9 SWAP1 PUSH2 0x2530 JUMP JUMPDEST DUP1 ISZERO PUSH2 0x836 JUMPI DUP1 PUSH1 0x1F LT PUSH2 0x80B JUMPI PUSH2 0x100 DUP1 DUP4 SLOAD DIV MUL DUP4 MSTORE SWAP2 PUSH1 0x20 ADD SWAP2 PUSH2 0x836 JUMP JUMPDEST DUP3 ADD SWAP2 SWAP1 PUSH1 0x0 MSTORE PUSH1 0x20 PUSH1 0x0 KECCAK256 SWAP1 JUMPDEST DUP2 SLOAD DUP2 MSTORE SWAP1 PUSH1 0x1 ADD SWAP1 PUSH1 0x20 ADD DUP1 DUP4 GT PUSH2 0x819 JUMPI DUP3 SWAP1 SUB PUSH1 0x1F AND DUP3 ADD SWAP2 JUMPDEST POP POP POP SWAP2 DUP4 MSTORE POP POP PUSH1 0x6 DUP3 ADD SLOAD PUSH1 0xFF AND ISZERO ISZERO PUSH1 0x20 DUP3 ADD MSTORE PUSH1 0x7 SWAP1 SWAP2 ADD SLOAD PUSH1 0x40 SWAP1 SWAP2 ADD MSTORE DUP4 MLOAD DUP5 SWAP1 DUP5 SWAP1 DUP2 LT PUSH2 0x86D JUMPI PUSH2 0x86D PUSH2 0x256A JUMP JUMPDEST PUSH1 0x20 MUL PUSH1 0x20 ADD ADD DUP2 SWAP1 MSTORE POP DUP2 DUP1 PUSH2 0x883 SWAP1 PUSH2 0x2517 JUMP JUMPDEST SWAP3 POP POP JUMPDEST PUSH1 0x1 ADD PUSH2 0x6D1 JUMP JUMPDEST PUSH1 0x0 DUP2 DUP2 MSTORE PUSH1 0x9 PUSH1 0x20 MSTORE PUSH1 0x40 SWAP1 DUP2 SWAP1 KECCAK256 PUSH1 0x3 ADD SLOAD SWAP1 MLOAD PUSH4 0x329B55B7 PUSH1 0xE2 SHL DUP2 MSTORE PUSH1 0x1 PUSH1 0x1 PUSH1 0xA0 SHL SUB DUP5 DUP2 AND PUSH1 0x4 DUP4 ADD MSTORE SWAP1 SWAP2 AND SWAP1 PUSH4 0xCA6D56DC SWAP1 PUSH1 0x24 ADD PUSH1 0x0 PUSH1 0x40 MLOAD DUP1 DUP4 SUB DUP2 PUSH1 0x0 DUP8 DUP1 EXTCODESIZE ISZERO DUP1 ISZERO PUSH2 0x8E6 JUMPI PUSH1 0x0 DUP1 REVERT JUMPDEST POP GAS CALL ISZERO DUP1 ISZERO PUSH2 0x8FA JUMPI RETURNDATASIZE PUSH1 0x0 DUP1 RETURNDATACOPY RETURNDATASIZE PUSH1 0x0 REVERT JUMPDEST POP POP POP PUSH1 0x0 DUP3 DUP2 MSTORE PUSH1 0x9 PUSH1 0x20 SWAP1 DUP2 MSTORE PUSH1 0x40 SWAP2 DUP3 SWAP1 KECCAK256 PUSH1 0x1 ADD SLOAD SWAP2 MLOAD SWAP2 DUP3 MSTORE PUSH1 0x1 PUSH1 0x1 PUSH1 0xA0 SHL SUB DUP6 AND SWAP3 POP PUSH32 0xF6C8A903BE321D0B647F22E72AB01BFF4FF7E43B77CA3D547B71E7165F3E58AB SWAP2 ADD PUSH1 0x40 MLOAD DUP1 SWAP2 SUB SWAP1 LOG2 POP POP JUMP JUMPDEST PUSH1 0x60 PUSH1 0x0 PUSH2 0x960 PUSH1 0x4 SLOAD SWAP1 JUMP JUMPDEST SWAP1 POP PUSH1 0x0 DUP1 JUMPDEST DUP3 DUP2 LT ISZERO PUSH2 0xA16 JUMPI PUSH1 0x9 PUSH1 0x0 PUSH2 0x97D DUP4 PUSH1 0x1 PUSH2 0x2504 JUMP JUMPDEST DUP2 MSTORE PUSH1 0x20 DUP2 ADD SWAP2 SWAP1 SWAP2 MSTORE PUSH1 0x40 SWAP1 DUP2 ADD PUSH1 0x0 KECCAK256 PUSH1 0x3 ADD SLOAD SWAP1 MLOAD PUSH4 0x288C3149 PUSH1 0xE2 SHL DUP2 MSTORE CALLER PUSH1 0x4 DUP3 ADD MSTORE PUSH1 0x1 PUSH1 0x1 PUSH1 0xA0 SHL SUB SWAP1 SWAP2 AND SWAP1 PUSH4 0xA230C524 SWAP1 PUSH1 0x24 ADD PUSH1 0x20 PUSH1 0x40 MLOAD DUP1 DUP4 SUB DUP2 DUP7 GAS STATICCALL ISZERO DUP1 ISZERO PUSH2 0x9D7 JUMPI RETURNDATASIZE PUSH1 0x0 DUP1 RETURNDATACOPY RETURNDATASIZE PUSH1 0x0 REVERT JUMPDEST POP POP POP POP PUSH1 0x40 MLOAD RETURNDATASIZE PUSH1 0x1F NOT PUSH1 0x1F DUP3 ADD AND DUP3 ADD DUP1 PUSH1 0x40 MSTORE POP DUP2 ADD SWAP1 PUSH2 0x9FB SWAP2 SWAP1 PUSH2 0x25B7 JUMP JUMPDEST ISZERO PUSH2 0xA0E JUMPI DUP2 PUSH2 0xA0A DUP2 PUSH2 0x2517 JUMP JUMPDEST SWAP3 POP POP JUMPDEST PUSH1 0x1 ADD PUSH2 0x966 JUMP JUMPDEST POP PUSH1 0x0 DUP1 PUSH2 0xA24 DUP4 DUP6 PUSH2 0x25DB JUMP JUMPDEST PUSH1 0x1 PUSH1 0x1 PUSH1 0x40 SHL SUB DUP2 GT ISZERO PUSH2 0xA3B JUMPI PUSH2 0xA3B PUSH2 0x22AD JUMP JUMPDEST PUSH1 0x40 MLOAD SWAP1 DUP1 DUP3 MSTORE DUP1 PUSH1 0x20 MUL PUSH1 0x20 ADD DUP3 ADD PUSH1 0x40 MSTORE DUP1 ISZERO PUSH2 0xA74 JUMPI DUP2 PUSH1 0x20 ADD JUMPDEST PUSH2 0xA61 PUSH2 0x1FDD JUMP JUMPDEST DUP2 MSTORE PUSH1 0x20 ADD SWAP1 PUSH1 0x1 SWAP1 SUB SWAP1 DUP2 PUSH2 0xA59 JUMPI SWAP1 POP JUMPDEST POP SWAP1 POP PUSH1 0x0 JUMPDEST DUP5 DUP2 LT ISZERO PUSH2 0xC40 JUMPI PUSH1 0x9 PUSH1 0x0 PUSH2 0xA91 DUP4 PUSH1 0x1 PUSH2 0x2504 JUMP JUMPDEST DUP2 MSTORE PUSH1 0x20 DUP2 ADD SWAP2 SWAP1 SWAP2 MSTORE PUSH1 0x40 SWAP1 DUP2 ADD PUSH1 0x0 KECCAK256 PUSH1 0x3 ADD SLOAD SWAP1 MLOAD PUSH4 0x288C3149 PUSH1 0xE2 SHL DUP2 MSTORE CALLER PUSH1 0x4 DUP3 ADD MSTORE PUSH1 0x1 PUSH1 0x1 PUSH1 0xA0 SHL SUB SWAP1 SWAP2 AND SWAP1 PUSH4 0xA230C524 SWAP1 PUSH1 0x24 ADD PUSH1 0x20 PUSH1 0x40 MLOAD DUP1 DUP4 SUB DUP2 DUP7 GAS STATICCALL ISZERO DUP1 ISZERO PUSH2 0xAEB JUMPI RETURNDATASIZE PUSH1 0x0 DUP1 RETURNDATACOPY RETURNDATASIZE PUSH1 0x0 REVERT JUMPDEST POP POP POP POP PUSH1 0x40 MLOAD RETURNDATASIZE PUSH1 0x1F NOT PUSH1 0x1F DUP3 ADD AND DUP3 ADD DUP1 PUSH1 0x40 MSTORE POP DUP2 ADD SWAP1 PUSH2 0xB0F SWAP2 SWAP1 PUSH2 0x25B7 JUMP JUMPDEST PUSH2 0xC38 JUMPI PUSH1 0x9 PUSH1 0x0 PUSH2 0xB22 DUP4 PUSH1 0x1 PUSH2 0x2504 JUMP JUMPDEST DUP2 MSTORE PUSH1 0x20 DUP1 DUP3 ADD SWAP3 SWAP1 SWAP3 MSTORE PUSH1 0x40 SWAP1 DUP2 ADD PUSH1 0x0 KECCAK256 DUP2 MLOAD PUSH1 0xA0 DUP2 ADD DUP4 MSTORE DUP2 SLOAD PUSH1 0x1 PUSH1 0x1 PUSH1 0xA0 SHL SUB AND DUP2 MSTORE PUSH1 0x1 DUP3 ADD SLOAD SWAP4 DUP2 ADD SWAP4 SWAP1 SWAP4 MSTORE PUSH1 0x2 DUP2 ADD DUP1 SLOAD SWAP2 SWAP3 DUP5 ADD SWAP2 PUSH2 0xB6A SWAP1 PUSH2 0x2530 JUMP JUMPDEST DUP1 PUSH1 0x1F ADD PUSH1 0x20 DUP1 SWAP2 DIV MUL PUSH1 0x20 ADD PUSH1 0x40 MLOAD SWAP1 DUP2 ADD PUSH1 0x40 MSTORE DUP1 SWAP3 SWAP2 SWAP1 DUP2 DUP2 MSTORE PUSH1 0x20 ADD DUP3 DUP1 SLOAD PUSH2 0xB96 SWAP1 PUSH2 0x2530 JUMP JUMPDEST DUP1 ISZERO PUSH2 0xBE3 JUMPI DUP1 PUSH1 0x1F LT PUSH2 0xBB8 JUMPI PUSH2 0x100 DUP1 DUP4 SLOAD DIV MUL DUP4 MSTORE SWAP2 PUSH1 0x20 ADD SWAP2 PUSH2 0xBE3 JUMP JUMPDEST DUP3 ADD SWAP2 SWAP1 PUSH1 0x0 MSTORE PUSH1 0x20 PUSH1 0x0 KECCAK256 SWAP1 JUMPDEST DUP2 SLOAD DUP2 MSTORE SWAP1 PUSH1 0x1 ADD SWAP1 PUSH1 0x20 ADD DUP1 DUP4 GT PUSH2 0xBC6 JUMPI DUP3 SWAP1 SUB PUSH1 0x1F AND DUP3 ADD SWAP2 JUMPDEST POP POP POP SWAP2 DUP4 MSTORE POP POP PUSH1 0x3 DUP3 ADD SLOAD PUSH1 0x1 PUSH1 0x1 PUSH1 0xA0 SHL SUB AND PUSH1 0x20 DUP3 ADD MSTORE PUSH1 0x4 SWAP1 SWAP2 ADD SLOAD PUSH1 0x40 SWAP1 SWAP2 ADD MSTORE DUP3 MLOAD DUP4 SWAP1 DUP6 SWAP1 DUP2 LT PUSH2 0xC1E JUMPI PUSH2 0xC1E PUSH2 0x256A JUMP JUMPDEST PUSH1 0x20 MUL PUSH1 0x20 ADD ADD DUP2 SWAP1 MSTORE POP DUP3 DUP1 PUSH2 0xC34 SWAP1 PUSH2 0x2517 JUMP JUMPDEST SWAP4 POP POP JUMPDEST PUSH1 0x1 ADD PUSH2 0xA7A JUMP JUMPDEST POP SWAP5 SWAP4 POP POP POP POP JUMP JUMPDEST PUSH1 0x60 PUSH1 0x0 PUSH2 0xC56 PUSH1 0x3 SLOAD SWAP1 JUMP JUMPDEST SWAP1 POP PUSH1 0x0 DUP1 JUMPDEST DUP3 DUP2 LT ISZERO PUSH2 0xCAC JUMPI CALLER PUSH1 0x8 PUSH1 0x0 PUSH2 0xC74 DUP5 PUSH1 0x1 PUSH2 0x2504 JUMP JUMPDEST DUP2 MSTORE PUSH1 0x20 DUP2 ADD SWAP2 SWAP1 SWAP2 MSTORE PUSH1 0x40 ADD PUSH1 0x0 KECCAK256 PUSH1 0x3 ADD SLOAD PUSH1 0x1 PUSH1 0x1 PUSH1 0xA0 SHL SUB AND SUB PUSH2 0xCA4 JUMPI DUP2 PUSH2 0xCA0 DUP2 PUSH2 0x2517 JUMP JUMPDEST SWAP3 POP POP JUMPDEST PUSH1 0x1 ADD PUSH2 0xC5C JUMP JUMPDEST POP PUSH1 0x0 DUP2 PUSH1 0x1 PUSH1 0x1 PUSH1 0x40 SHL SUB DUP2 GT ISZERO PUSH2 0xCC7 JUMPI PUSH2 0xCC7 PUSH2 0x22AD JUMP JUMPDEST PUSH1 0x40 MLOAD SWAP1 DUP1 DUP3 MSTORE DUP1 PUSH1 0x20 MUL PUSH1 0x20 ADD DUP3 ADD PUSH1 0x40 MSTORE DUP1 ISZERO PUSH2 0xD00 JUMPI DUP2 PUSH1 0x20 ADD JUMPDEST PUSH2 0xCED PUSH2 0x1F9A JUMP JUMPDEST DUP2 MSTORE PUSH1 0x20 ADD SWAP1 PUSH1 0x1 SWAP1 SUB SWAP1 DUP2 PUSH2 0xCE5 JUMPI SWAP1 POP JUMPDEST POP SWAP1 POP PUSH1 0x0 DUP1 JUMPDEST DUP5 DUP2 LT ISZERO PUSH2 0x4ED JUMPI CALLER PUSH1 0x8 PUSH1 0x0 PUSH2 0xD1F DUP5 PUSH1 0x1 PUSH2 0x2504 JUMP JUMPDEST DUP2 MSTORE PUSH1 0x20 DUP2 ADD SWAP2 SWAP1 SWAP2 MSTORE PUSH1 0x40 ADD PUSH1 0x0 KECCAK256 PUSH1 0x3 ADD SLOAD PUSH1 0x1 PUSH1 0x1 PUSH1 0xA0 SHL SUB AND SUB PUSH2 0xE8E JUMPI PUSH1 0x8 PUSH1 0x0 PUSH2 0xD50 DUP4 PUSH1 0x1 PUSH2 0x2504 JUMP JUMPDEST DUP2 MSTORE PUSH1 0x20 DUP1 DUP3 ADD SWAP3 SWAP1 SWAP3 MSTORE PUSH1 0x40 SWAP1 DUP2 ADD PUSH1 0x0 KECCAK256 DUP2 MLOAD PUSH2 0x100 DUP2 ADD DUP4 MSTORE DUP2 SLOAD PUSH1 0x1 PUSH1 0x1 PUSH1 0xA0 SHL SUB SWAP1 DUP2 AND DUP3 MSTORE PUSH1 0x1 DUP4 ADD SLOAD SWAP5 DUP3 ADD SWAP5 SWAP1 SWAP5 MSTORE PUSH1 0x2 DUP3 ADD SLOAD DUP5 AND SWAP3 DUP2 ADD SWAP3 SWAP1 SWAP3 MSTORE PUSH1 0x3 DUP2 ADD SLOAD SWAP1 SWAP3 AND PUSH1 0x60 DUP3 ADD MSTORE PUSH1 0x4 DUP3 ADD SLOAD PUSH1 0x80 DUP3 ADD MSTORE PUSH1 0x5 DUP3 ADD DUP1 SLOAD SWAP2 SWAP3 SWAP2 PUSH1 0xA0 DUP5 ADD SWAP2 SWAP1 PUSH2 0xDC4 SWAP1 PUSH2 0x2530 JUMP JUMPDEST DUP1 PUSH1 0x1F ADD PUSH1 0x20 DUP1 SWAP2 DIV MUL PUSH1 0x20 ADD PUSH1 0x40 MLOAD SWAP1 DUP2 ADD PUSH1 0x40 MSTORE DUP1 SWAP3 SWAP2 SWAP1 DUP2 DUP2 MSTORE PUSH1 0x20 ADD DUP3 DUP1 SLOAD PUSH2 0xDF0 SWAP1 PUSH2 0x2530 JUMP JUMPDEST DUP1 ISZERO PUSH2 0xE3D JUMPI DUP1 PUSH1 0x1F LT PUSH2 0xE12 JUMPI PUSH2 0x100 DUP1 DUP4 SLOAD DIV MUL DUP4 MSTORE SWAP2 PUSH1 0x20 ADD SWAP2 PUSH2 0xE3D JUMP JUMPDEST DUP3 ADD SWAP2 SWAP1 PUSH1 0x0 MSTORE PUSH1 0x20 PUSH1 0x0 KECCAK256 SWAP1 JUMPDEST DUP2 SLOAD DUP2 MSTORE SWAP1 PUSH1 0x1 ADD SWAP1 PUSH1 0x20 ADD DUP1 DUP4 GT PUSH2 0xE20 JUMPI DUP3 SWAP1 SUB PUSH1 0x1F AND DUP3 ADD SWAP2 JUMPDEST POP POP POP SWAP2 DUP4 MSTORE POP POP PUSH1 0x6 DUP3 ADD SLOAD PUSH1 0xFF AND ISZERO ISZERO PUSH1 0x20 DUP3 ADD MSTORE PUSH1 0x7 SWAP1 SWAP2 ADD SLOAD PUSH1 0x40 SWAP1 SWAP2 ADD MSTORE DUP4 MLOAD DUP5 SWAP1 DUP5 SWAP1 DUP2 LT PUSH2 0xE74 JUMPI PUSH2 0xE74 PUSH2 0x256A JUMP JUMPDEST PUSH1 0x20 MUL PUSH1 0x20 ADD ADD DUP2 SWAP1 MSTORE POP DUP2 DUP1 PUSH2 0xE8A SWAP1 PUSH2 0x2517 JUMP JUMPDEST SWAP3 POP POP JUMPDEST PUSH1 0x1 ADD PUSH2 0xD07 JUMP JUMPDEST PUSH1 0x60 PUSH1 0x0 PUSH2 0xEA3 PUSH1 0x3 SLOAD SWAP1 JUMP JUMPDEST SWAP1 POP PUSH1 0x0 DUP1 JUMPDEST DUP3 DUP2 LT ISZERO PUSH2 0xEF2 JUMPI PUSH1 0x8 PUSH1 0x0 PUSH2 0xEC0 DUP4 PUSH1 0x1 PUSH2 0x2504 JUMP JUMPDEST DUP2 MSTORE PUSH1 0x20 DUP2 ADD SWAP2 SWAP1 SWAP2 MSTORE PUSH1 0x40 ADD PUSH1 0x0 KECCAK256 PUSH1 0x6 ADD SLOAD PUSH1 0xFF AND ISZERO PUSH2 0xEEA JUMPI DUP2 PUSH2 0xEE6 DUP2 PUSH2 0x2517 JUMP JUMPDEST SWAP3 POP POP JUMPDEST PUSH1 0x1 ADD PUSH2 0xEA9 JUMP JUMPDEST POP PUSH1 0x0 DUP2 PUSH1 0x1 PUSH1 0x1 PUSH1 0x40 SHL SUB DUP2 GT ISZERO PUSH2 0xF0D JUMPI PUSH2 0xF0D PUSH2 0x22AD JUMP JUMPDEST PUSH1 0x40 MLOAD SWAP1 DUP1 DUP3 MSTORE DUP1 PUSH1 0x20 MUL PUSH1 0x20 ADD DUP3 ADD PUSH1 0x40 MSTORE DUP1 ISZERO PUSH2 0xF46 JUMPI DUP2 PUSH1 0x20 ADD JUMPDEST PUSH2 0xF33 PUSH2 0x1F9A JUMP JUMPDEST DUP2 MSTORE PUSH1 0x20 ADD SWAP1 PUSH1 0x1 SWAP1 SUB SWAP1 DUP2 PUSH2 0xF2B JUMPI SWAP1 POP JUMPDEST POP SWAP1 POP PUSH1 0x0 DUP1 JUMPDEST DUP5 DUP2 LT ISZERO PUSH2 0x4ED JUMPI PUSH1 0x8 PUSH1 0x0 PUSH2 0xF64 DUP4 PUSH1 0x1 PUSH2 0x2504 JUMP JUMPDEST DUP2 MSTORE PUSH1 0x20 DUP2 ADD SWAP2 SWAP1 SWAP2 MSTORE PUSH1 0x40 ADD PUSH1 0x0 KECCAK256 PUSH1 0x6 ADD SLOAD PUSH1 0xFF AND ISZERO PUSH2 0x10CD JUMPI PUSH1 0x8 PUSH1 0x0 PUSH2 0xF8F DUP4 PUSH1 0x1 PUSH2 0x2504 JUMP JUMPDEST DUP2 MSTORE PUSH1 0x20 DUP1 DUP3 ADD SWAP3 SWAP1 SWAP3 MSTORE PUSH1 0x40 SWAP1 DUP2 ADD PUSH1 0x0 KECCAK256 DUP2 MLOAD PUSH2 0x100 DUP2 ADD DUP4 MSTORE DUP2 SLOAD PUSH1 0x1 PUSH1 0x1 PUSH1 0xA0 SHL SUB SWAP1 DUP2 AND DUP3 MSTORE PUSH1 0x1 DUP4 ADD SLOAD SWAP5 DUP3 ADD SWAP5 SWAP1 SWAP5 MSTORE PUSH1 0x2 DUP3 ADD SLOAD DUP5 AND SWAP3 DUP2 ADD SWAP3 SWAP1 SWAP3 MSTORE PUSH1 0x3 DUP2 ADD SLOAD SWAP1 SWAP3 AND PUSH1 0x60 DUP3 ADD MSTORE PUSH1 0x4 DUP3 ADD SLOAD PUSH1 0x80 DUP3 ADD MSTORE PUSH1 0x5 DUP3 ADD DUP1 SLOAD SWAP2 SWAP3 SWAP2 PUSH1 0xA0 DUP5 ADD SWAP2 SWAP1 PUSH2 0x1003 SWAP1 PUSH2 0x2530 JUMP JUMPDEST DUP1 PUSH1 0x1F ADD PUSH1 0x20 DUP1 SWAP2 DIV MUL PUSH1 0x20 ADD PUSH1 0x40 MLOAD SWAP1 DUP2 ADD PUSH1 0x40 MSTORE DUP1 SWAP3 SWAP2 SWAP1 DUP2 DUP2 MSTORE PUSH1 0x20 ADD DUP3 DUP1 SLOAD PUSH2 0x102F SWAP1 PUSH2 0x2530 JUMP JUMPDEST DUP1 ISZERO PUSH2 0x107C JUMPI DUP1 PUSH1 0x1F LT PUSH2 0x1051 JUMPI PUSH2 0x100 DUP1 DUP4 SLOAD DIV MUL DUP4 MSTORE SWAP2 PUSH1 0x20 ADD SWAP2 PUSH2 0x107C JUMP JUMPDEST DUP3 ADD SWAP2 SWAP1 PUSH1 0x0 MSTORE PUSH1 0x20 PUSH1 0x0 KECCAK256 SWAP1 JUMPDEST DUP2 SLOAD DUP2 MSTORE SWAP1 PUSH1 0x1 ADD SWAP1 PUSH1 0x20 ADD DUP1 DUP4 GT PUSH2 0x105F JUMPI DUP3 SWAP1 SUB PUSH1 0x1F AND DUP3 ADD SWAP2 JUMPDEST POP POP POP SWAP2 DUP4 MSTORE POP POP PUSH1 0x6 DUP3 ADD SLOAD PUSH1 0xFF AND ISZERO ISZERO PUSH1 0x20 DUP3 ADD MSTORE PUSH1 0x7 SWAP1 SWAP2 ADD SLOAD PUSH1 0x40 SWAP1 SWAP2 ADD MSTORE DUP4 MLOAD DUP5 SWAP1 DUP5 SWAP1 DUP2 LT PUSH2 0x10B3 JUMPI PUSH2 0x10B3 PUSH2 0x256A JUMP JUMPDEST PUSH1 0x20 MUL PUSH1 0x20 ADD ADD DUP2 SWAP1 MSTORE POP DUP2 DUP1 PUSH2 0x10C9 SWAP1 PUSH2 0x2517 JUMP JUMPDEST SWAP3 POP POP JUMPDEST PUSH1 0x1 ADD PUSH2 0xF4D JUMP JUMPDEST PUSH1 0x2 PUSH1 0x0 SLOAD SUB PUSH2 0x10F7 JUMPI PUSH1 0x40 MLOAD PUSH3 0x461BCD PUSH1 0xE5 SHL DUP2 MSTORE PUSH1 0x4 ADD PUSH2 0x519 SWAP1 PUSH2 0x2580 JUMP JUMPDEST PUSH1 0x2 PUSH1 0x0 SWAP1 DUP2 SSTORE DUP2 DUP2 MSTORE PUSH1 0x7 PUSH1 0x20 MSTORE PUSH1 0x40 SWAP1 KECCAK256 PUSH1 0x4 DUP2 ADD SLOAD CALLVALUE LT ISZERO PUSH2 0x112E JUMPI PUSH1 0x40 MLOAD PUSH3 0x461BCD PUSH1 0xE5 SHL DUP2 MSTORE PUSH1 0x4 ADD PUSH2 0x519 SWAP1 PUSH2 0x25EE JUMP JUMPDEST PUSH1 0x2 DUP2 ADD SLOAD PUSH1 0x40 MLOAD CALLER SWAP2 PUSH1 0x1 PUSH1 0x1 PUSH1 0xA0 SHL SUB AND SWAP1 CALLVALUE DUP1 ISZERO PUSH2 0x8FC MUL SWAP2 PUSH1 0x0 DUP2 DUP2 DUP2 DUP6 DUP9 DUP9 CALL SWAP4 POP POP POP POP ISZERO DUP1 ISZERO PUSH2 0x1169 JUMPI RETURNDATASIZE PUSH1 0x0 DUP1 RETURNDATACOPY RETURNDATASIZE PUSH1 0x0 REVERT JUMPDEST POP PUSH1 0x1 DUP3 ADD SLOAD PUSH1 0x40 MLOAD PUSH4 0x23B872DD PUSH1 0xE0 SHL DUP2 MSTORE PUSH1 0x1 PUSH1 0x1 PUSH1 0xA0 SHL SUB DUP7 AND SWAP2 PUSH4 0x23B872DD SWAP2 PUSH2 0x119E SWAP2 ADDRESS SWAP2 DUP7 SWAP2 SWAP1 PUSH1 0x4 ADD PUSH2 0x2634 JUMP JUMPDEST PUSH1 0x0 PUSH1 0x40 MLOAD DUP1 DUP4 SUB DUP2 PUSH1 0x0 DUP8 DUP1 EXTCODESIZE ISZERO DUP1 ISZERO PUSH2 0x11B8 JUMPI PUSH1 0x0 DUP1 REVERT JUMPDEST POP GAS CALL ISZERO DUP1 ISZERO PUSH2 0x11CC JUMPI RETURNDATASIZE PUSH1 0x0 DUP1 RETURNDATACOPY RETURNDATASIZE PUSH1 0x0 REVERT JUMPDEST POP POP POP POP PUSH1 0x3 DUP3 ADD DUP1 SLOAD PUSH1 0x1 PUSH1 0x1 PUSH1 0xA0 SHL SUB NOT AND PUSH1 0x1 PUSH1 0x1 PUSH1 0xA0 SHL SUB DUP4 AND OR SWAP1 SSTORE PUSH1 0x6 DUP3 ADD DUP1 SLOAD PUSH1 0xFF NOT AND SWAP1 SSTORE PUSH1 0x1 DUP1 SLOAD DUP2 ADD SWAP1 SSTORE PUSH1 0x1 DUP3 ADD SLOAD PUSH1 0x2 DUP4 ADD SLOAD PUSH1 0x40 DUP1 MLOAD PUSH1 0x1 PUSH1 0x1 PUSH1 0xA0 SHL SUB DUP9 DUP2 AND DUP3 MSTORE PUSH1 0x20 DUP3 ADD SWAP5 SWAP1 SWAP5 MSTORE SWAP2 DUP4 AND SWAP1 DUP3 ADD MSTORE CALLVALUE PUSH1 0x60 DUP3 ADD MSTORE SWAP1 DUP3 AND SWAP1 PUSH32 0x16F1DBD97E6BF646D429ED186CCE832F1F7FD9907814293B83181E9970AB7BD2 SWAP1 PUSH1 0x80 ADD PUSH1 0x40 MLOAD DUP1 SWAP2 SUB SWAP1 LOG2 POP POP PUSH1 0x1 PUSH1 0x0 SSTORE POP POP JUMP JUMPDEST PUSH1 0x2 PUSH1 0x0 SLOAD SUB PUSH2 0x128F JUMPI PUSH1 0x40 MLOAD PUSH3 0x461BCD PUSH1 0xE5 SHL DUP2 MSTORE PUSH1 0x4 ADD PUSH2 0x519 SWAP1 PUSH2 0x2580 JUMP JUMPDEST PUSH1 0x2 PUSH1 0x0 SSTORE CALLER DUP1 PUSH2 0x12A4 PUSH1 0x3 DUP1 SLOAD PUSH1 0x1 ADD SWAP1 SSTORE JUMP JUMPDEST PUSH1 0x40 MLOAD DUP1 PUSH2 0x100 ADD PUSH1 0x40 MSTORE DUP1 DUP9 PUSH1 0x1 PUSH1 0x1 PUSH1 0xA0 SHL SUB AND DUP2 MSTORE PUSH1 0x20 ADD DUP8 DUP2 MSTORE PUSH1 0x20 ADD DUP3 PUSH1 0x1 PUSH1 0x1 PUSH1 0xA0 SHL SUB AND DUP2 MSTORE PUSH1 0x20 ADD DUP4 PUSH1 0x1 PUSH1 0x1 PUSH1 0xA0 SHL SUB AND DUP2 MSTORE PUSH1 0x20 ADD DUP7 DUP2 MSTORE PUSH1 0x20 ADD DUP6 DUP2 MSTORE PUSH1 0x20 ADD DUP5 ISZERO ISZERO DUP2 MSTORE PUSH1 0x20 ADD PUSH2 0x1300 PUSH1 0x3 SLOAD SWAP1 JUMP JUMPDEST SWAP1 MSTORE PUSH1 0x8 PUSH1 0x0 PUSH2 0x130F PUSH1 0x3 SLOAD SWAP1 JUMP JUMPDEST DUP2 MSTORE PUSH1 0x20 DUP1 DUP3 ADD SWAP3 SWAP1 SWAP3 MSTORE PUSH1 0x40 SWAP1 DUP2 ADD PUSH1 0x0 KECCAK256 DUP4 MLOAD DUP2 SLOAD PUSH1 0x1 PUSH1 0x1 PUSH1 0xA0 SHL SUB NOT SWAP1 DUP2 AND PUSH1 0x1 PUSH1 0x1 PUSH1 0xA0 SHL SUB SWAP3 DUP4 AND OR DUP4 SSTORE SWAP4 DUP6 ADD MLOAD PUSH1 0x1 DUP4 ADD SSTORE SWAP2 DUP5 ADD MLOAD PUSH1 0x2 DUP3 ADD DUP1 SLOAD DUP6 AND SWAP2 DUP5 AND SWAP2 SWAP1 SWAP2 OR SWAP1 SSTORE PUSH1 0x60 DUP5 ADD MLOAD PUSH1 0x3 DUP3 ADD DUP1 SLOAD SWAP1 SWAP5 AND SWAP3 AND SWAP2 SWAP1 SWAP2 OR SWAP1 SWAP2 SSTORE PUSH1 0x80 DUP3 ADD MLOAD PUSH1 0x4 DUP3 ADD SSTORE PUSH1 0xA0 DUP3 ADD MLOAD PUSH1 0x5 DUP3 ADD SWAP1 PUSH2 0x1393 SWAP1 DUP3 PUSH2 0x26A9 JUMP JUMPDEST POP PUSH1 0xC0 DUP3 ADD MLOAD PUSH1 0x6 DUP3 ADD DUP1 SLOAD PUSH1 0xFF NOT AND SWAP2 ISZERO ISZERO SWAP2 SWAP1 SWAP2 OR SWAP1 SSTORE PUSH1 0xE0 SWAP1 SWAP2 ADD MLOAD PUSH1 0x7 SWAP1 SWAP2 ADD SSTORE DUP3 ISZERO PUSH2 0x1451 JUMPI PUSH1 0x40 MLOAD PUSH4 0x23B872DD PUSH1 0xE0 SHL DUP2 MSTORE PUSH1 0x1 PUSH1 0x1 PUSH1 0xA0 SHL SUB DUP9 AND SWAP1 PUSH4 0x23B872DD SWAP1 PUSH2 0x13EE SWAP1 CALLER SWAP1 ADDRESS SWAP1 DUP12 SWAP1 PUSH1 0x4 ADD PUSH2 0x2634 JUMP JUMPDEST PUSH1 0x0 PUSH1 0x40 MLOAD DUP1 DUP4 SUB DUP2 PUSH1 0x0 DUP8 DUP1 EXTCODESIZE ISZERO DUP1 ISZERO PUSH2 0x1408 JUMPI PUSH1 0x0 DUP1 REVERT JUMPDEST POP GAS CALL ISZERO DUP1 ISZERO PUSH2 0x141C JUMPI RETURNDATASIZE PUSH1 0x0 DUP1 RETURNDATACOPY RETURNDATASIZE PUSH1 0x0 REVERT JUMPDEST POP POP PUSH1 0x40 MLOAD ADDRESS SWAP5 POP PUSH32 0x3C7ADA5F75657056231FBA463CE7726C722FB5E9879490E912901D83224BE710 SWAP3 POP PUSH1 0x0 SWAP2 POP LOG1 PUSH2 0x147D JUMP JUMPDEST PUSH1 0x40 MLOAD CALLER SWAP1 PUSH32 0x5C48C5AA6AFEC31404A1252FCD350B9C72CF469130A46555EC2A5D974713BD1F SWAP1 PUSH1 0x0 SWAP1 LOG2 JUMPDEST POP POP PUSH1 0x1 PUSH1 0x0 SSTORE POP POP POP POP POP JUMP JUMPDEST PUSH1 0x60 PUSH1 0x0 PUSH2 0x1498 PUSH1 0x2 SLOAD SWAP1 JUMP JUMPDEST SWAP1 POP PUSH1 0x0 PUSH2 0x14A5 PUSH1 0x1 SLOAD SWAP1 JUMP JUMPDEST PUSH2 0x14AF SWAP1 DUP4 PUSH2 0x25DB JUMP JUMPDEST SWAP1 POP PUSH1 0x0 DUP2 PUSH1 0x1 PUSH1 0x1 PUSH1 0x40 SHL SUB DUP2 GT ISZERO PUSH2 0x14CB JUMPI PUSH2 0x14CB PUSH2 0x22AD JUMP JUMPDEST PUSH1 0x40 MLOAD SWAP1 DUP1 DUP3 MSTORE DUP1 PUSH1 0x20 MUL PUSH1 0x20 ADD DUP3 ADD PUSH1 0x40 MSTORE DUP1 ISZERO PUSH2 0x1504 JUMPI DUP2 PUSH1 0x20 ADD JUMPDEST PUSH2 0x14F1 PUSH2 0x1F9A JUMP JUMPDEST DUP2 MSTORE PUSH1 0x20 ADD SWAP1 PUSH1 0x1 SWAP1 SUB SWAP1 DUP2 PUSH2 0x14E9 JUMPI SWAP1 POP JUMPDEST POP SWAP1 POP PUSH1 0x0 DUP1 JUMPDEST DUP5 DUP2 LT ISZERO PUSH2 0x4ED JUMPI PUSH1 0x7 PUSH1 0x0 PUSH2 0x1522 DUP4 PUSH1 0x1 PUSH2 0x2504 JUMP JUMPDEST DUP2 MSTORE PUSH1 0x20 DUP2 ADD SWAP2 SWAP1 SWAP2 MSTORE PUSH1 0x40 ADD PUSH1 0x0 KECCAK256 PUSH1 0x6 ADD SLOAD PUSH1 0xFF AND ISZERO PUSH2 0x168B JUMPI PUSH1 0x7 PUSH1 0x0 PUSH2 0x154D DUP4 PUSH1 0x1 PUSH2 0x2504 JUMP JUMPDEST DUP2 MSTORE PUSH1 0x20 DUP1 DUP3 ADD SWAP3 SWAP1 SWAP3 MSTORE PUSH1 0x40 SWAP1 DUP2 ADD PUSH1 0x0 KECCAK256 DUP2 MLOAD PUSH2 0x100 DUP2 ADD DUP4 MSTORE DUP2 SLOAD PUSH1 0x1 PUSH1 0x1 PUSH1 0xA0 SHL SUB SWAP1 DUP2 AND DUP3 MSTORE PUSH1 0x1 DUP4 ADD SLOAD SWAP5 DUP3 ADD SWAP5 SWAP1 SWAP5 MSTORE PUSH1 0x2 DUP3 ADD SLOAD DUP5 AND SWAP3 DUP2 ADD SWAP3 SWAP1 SWAP3 MSTORE PUSH1 0x3 DUP2 ADD SLOAD SWAP1 SWAP3 AND PUSH1 0x60 DUP3 ADD MSTORE PUSH1 0x4 DUP3 ADD SLOAD PUSH1 0x80 DUP3 ADD MSTORE PUSH1 0x5 DUP3 ADD DUP1 SLOAD SWAP2 SWAP3 SWAP2 PUSH1 0xA0 DUP5 ADD SWAP2 SWAP1 PUSH2 0x15C1 SWAP1 PUSH2 0x2530 JUMP JUMPDEST DUP1 PUSH1 0x1F ADD PUSH1 0x20 DUP1 SWAP2 DIV MUL PUSH1 0x20 ADD PUSH1 0x40 MLOAD SWAP1 DUP2 ADD PUSH1 0x40 MSTORE DUP1 SWAP3 SWAP2 SWAP1 DUP2 DUP2 MSTORE PUSH1 0x20 ADD DUP3 DUP1 SLOAD PUSH2 0x15ED SWAP1 PUSH2 0x2530 JUMP JUMPDEST DUP1 ISZERO PUSH2 0x163A JUMPI DUP1 PUSH1 0x1F LT PUSH2 0x160F JUMPI PUSH2 0x100 DUP1 DUP4 SLOAD DIV MUL DUP4 MSTORE SWAP2 PUSH1 0x20 ADD SWAP2 PUSH2 0x163A JUMP JUMPDEST DUP3 ADD SWAP2 SWAP1 PUSH1 0x0 MSTORE PUSH1 0x20 PUSH1 0x0 KECCAK256 SWAP1 JUMPDEST DUP2 SLOAD DUP2 MSTORE SWAP1 PUSH1 0x1 ADD SWAP1 PUSH1 0x20 ADD DUP1 DUP4 GT PUSH2 0x161D JUMPI DUP3 SWAP1 SUB PUSH1 0x1F AND DUP3 ADD SWAP2 JUMPDEST POP POP POP SWAP2 DUP4 MSTORE POP POP PUSH1 0x6 DUP3 ADD SLOAD PUSH1 0xFF AND ISZERO ISZERO PUSH1 0x20 DUP3 ADD MSTORE PUSH1 0x7 SWAP1 SWAP2 ADD SLOAD PUSH1 0x40 SWAP1 SWAP2 ADD MSTORE DUP4 MLOAD DUP5 SWAP1 DUP5 SWAP1 DUP2 LT PUSH2 0x1671 JUMPI PUSH2 0x1671 PUSH2 0x256A JUMP JUMPDEST PUSH1 0x20 MUL PUSH1 0x20 ADD ADD DUP2 SWAP1 MSTORE POP DUP2 DUP1 PUSH2 0x1687 SWAP1 PUSH2 0x2517 JUMP JUMPDEST SWAP3 POP POP JUMPDEST PUSH1 0x1 ADD PUSH2 0x150B JUMP JUMPDEST PUSH1 0x2 PUSH1 0x0 SLOAD SUB PUSH2 0x16B5 JUMPI PUSH1 0x40 MLOAD PUSH3 0x461BCD PUSH1 0xE5 SHL DUP2 MSTORE PUSH1 0x4 ADD PUSH2 0x519 SWAP1 PUSH2 0x2580 JUMP JUMPDEST PUSH1 0x2 PUSH1 0x0 SWAP1 DUP2 SSTORE DUP2 DUP2 MSTORE PUSH1 0x8 PUSH1 0x20 MSTORE PUSH1 0x40 SWAP1 KECCAK256 PUSH1 0x4 DUP2 ADD SLOAD CALLVALUE LT ISZERO PUSH2 0x16EC JUMPI PUSH1 0x40 MLOAD PUSH3 0x461BCD PUSH1 0xE5 SHL DUP2 MSTORE PUSH1 0x4 ADD PUSH2 0x519 SWAP1 PUSH2 0x25EE JUMP JUMPDEST PUSH1 0x2 DUP2 ADD SLOAD PUSH1 0x40 MLOAD CALLER SWAP2 PUSH1 0x1 PUSH1 0x1 PUSH1 0xA0 SHL SUB AND SWAP1 CALLVALUE DUP1 ISZERO PUSH2 0x8FC MUL SWAP2 PUSH1 0x0 DUP2 DUP2 DUP2 DUP6 DUP9 DUP9 CALL SWAP4 POP POP POP POP ISZERO DUP1 ISZERO PUSH2 0x1727 JUMPI RETURNDATASIZE PUSH1 0x0 DUP1 RETURNDATACOPY RETURNDATASIZE PUSH1 0x0 REVERT JUMPDEST POP PUSH1 0x1 DUP3 ADD SLOAD PUSH1 0x40 MLOAD PUSH4 0x23B872DD PUSH1 0xE0 SHL DUP2 MSTORE PUSH1 0x1 PUSH1 0x1 PUSH1 0xA0 SHL SUB DUP7 AND SWAP2 PUSH4 0x23B872DD SWAP2 PUSH2 0x175C SWAP2 ADDRESS SWAP2 DUP7 SWAP2 SWAP1 PUSH1 0x4 ADD PUSH2 0x2634 JUMP JUMPDEST PUSH1 0x0 PUSH1 0x40 MLOAD DUP1 DUP4 SUB DUP2 PUSH1 0x0 DUP8 DUP1 EXTCODESIZE ISZERO DUP1 ISZERO PUSH2 0x1776 JUMPI PUSH1 0x0 DUP1 REVERT JUMPDEST POP GAS CALL ISZERO DUP1 ISZERO PUSH2 0x178A JUMPI RETURNDATASIZE PUSH1 0x0 DUP1 RETURNDATACOPY RETURNDATASIZE PUSH1 0x0 REVERT JUMPDEST POP POP POP POP PUSH1 0x3 DUP3 ADD DUP1 SLOAD PUSH1 0x1 PUSH1 0x1 PUSH1 0xA0 SHL SUB NOT AND PUSH1 0x1 PUSH1 0x1 PUSH1 0xA0 SHL SUB DUP4 AND SWAP1 DUP2 OR SWAP1 SWAP2 SSTORE PUSH1 0x6 DUP4 ADD DUP1 SLOAD PUSH1 0xFF NOT AND SWAP1 SSTORE PUSH1 0x40 MLOAD PUSH32 0x5C48C5AA6AFEC31404A1252FCD350B9C72CF469130A46555EC2A5D974713BD1F SWAP1 PUSH1 0x0 SWAP1 LOG2 POP POP PUSH1 0x1 PUSH1 0x0 SSTORE POP POP JUMP JUMPDEST PUSH1 0x0 DUP2 DUP2 MSTORE PUSH1 0x9 PUSH1 0x20 MSTORE PUSH1 0x40 DUP1 DUP3 KECCAK256 PUSH1 0x3 ADD SLOAD DUP2 MLOAD PUSH4 0x9EAB5253 PUSH1 0xE0 SHL DUP2 MSTORE SWAP2 MLOAD PUSH1 0x60 SWAP4 PUSH1 0x1 PUSH1 0x1 PUSH1 0xA0 SHL SUB SWAP1 SWAP3 AND SWAP3 PUSH4 0x9EAB5253 SWAP3 PUSH1 0x4 DUP1 DUP4 ADD SWAP4 SWAP2 SWAP3 DUP3 SWAP1 SUB ADD DUP2 DUP7 GAS STATICCALL ISZERO DUP1 ISZERO PUSH2 0x1845 JUMPI RETURNDATASIZE PUSH1 0x0 DUP1 RETURNDATACOPY RETURNDATASIZE PUSH1 0x0 REVERT JUMPDEST POP POP POP POP PUSH1 0x40 MLOAD RETURNDATASIZE PUSH1 0x0 DUP3 RETURNDATACOPY PUSH1 0x1F RETURNDATASIZE SWAP1 DUP2 ADD PUSH1 0x1F NOT AND DUP3 ADD PUSH1 0x40 MSTORE PUSH2 0x186D SWAP2 SWAP1 DUP2 ADD SWAP1 PUSH2 0x2768 JUMP JUMPDEST SWAP3 SWAP2 POP POP JUMP JUMPDEST PUSH1 0x2 PUSH1 0x0 SLOAD SUB PUSH2 0x1895 JUMPI PUSH1 0x40 MLOAD PUSH3 0x461BCD PUSH1 0xE5 SHL DUP2 MSTORE PUSH1 0x4 ADD PUSH2 0x519 SWAP1 PUSH2 0x2580 JUMP JUMPDEST PUSH1 0x2 PUSH1 0x0 SSTORE PUSH2 0x18A8 PUSH1 0x4 DUP1 SLOAD PUSH1 0x1 ADD SWAP1 SSTORE JUMP JUMPDEST PUSH1 0x40 MLOAD DUP1 PUSH1 0xA0 ADD PUSH1 0x40 MSTORE DUP1 DUP5 PUSH1 0x1 PUSH1 0x1 PUSH1 0xA0 SHL SUB AND DUP2 MSTORE PUSH1 0x20 ADD DUP4 DUP2 MSTORE PUSH1 0x20 ADD DUP3 DUP2 MSTORE PUSH1 0x20 ADD PUSH1 0x40 MLOAD PUSH2 0x18DA SWAP1 PUSH2 0x201E JUMP JUMPDEST PUSH1 0x40 MLOAD DUP1 SWAP2 SUB SWAP1 PUSH1 0x0 CREATE DUP1 ISZERO DUP1 ISZERO PUSH2 0x18F6 JUMPI RETURNDATASIZE PUSH1 0x0 DUP1 RETURNDATACOPY RETURNDATASIZE PUSH1 0x0 REVERT JUMPDEST POP PUSH1 0x1 PUSH1 0x1 PUSH1 0xA0 SHL SUB AND DUP2 MSTORE PUSH1 0x20 ADD PUSH2 0x190E PUSH1 0x4 SLOAD SWAP1 JUMP JUMPDEST SWAP1 MSTORE PUSH1 0x9 PUSH1 0x0 PUSH2 0x191D PUSH1 0x4 SLOAD SWAP1 JUMP JUMPDEST DUP2 MSTORE PUSH1 0x20 DUP1 DUP3 ADD SWAP3 SWAP1 SWAP3 MSTORE PUSH1 0x40 SWAP1 DUP2 ADD PUSH1 0x0 KECCAK256 DUP4 MLOAD DUP2 SLOAD PUSH1 0x1 PUSH1 0x1 PUSH1 0xA0 SHL SUB NOT AND PUSH1 0x1 PUSH1 0x1 PUSH1 0xA0 SHL SUB SWAP1 SWAP2 AND OR DUP2 SSTORE SWAP2 DUP4 ADD MLOAD PUSH1 0x1 DUP4 ADD SSTORE DUP3 ADD MLOAD PUSH1 0x2 DUP3 ADD SWAP1 PUSH2 0x1967 SWAP1 DUP3 PUSH2 0x26A9 JUMP JUMPDEST POP PUSH1 0x60 DUP3 ADD MLOAD PUSH1 0x3 DUP3 ADD DUP1 SLOAD PUSH1 0x1 PUSH1 0x1 PUSH1 0xA0 SHL SUB NOT AND PUSH1 0x1 PUSH1 0x1 PUSH1 0xA0 SHL SUB SWAP1 SWAP3 AND SWAP2 SWAP1 SWAP2 OR SWAP1 SSTORE PUSH1 0x80 SWAP1 SWAP2 ADD MLOAD PUSH1 0x4 SWAP1 SWAP2 ADD SSTORE PUSH1 0x40 MLOAD PUSH32 0x5137A78362092F7CF16D4E108864B61A73042511DFEC3A474022E5A2FA3D326F SWAP1 PUSH1 0x0 SWAP1 LOG1 POP POP PUSH1 0x1 PUSH1 0x0 SSTORE POP JUMP JUMPDEST PUSH1 0x2 PUSH1 0x0 SLOAD SUB PUSH2 0x19EF JUMPI PUSH1 0x40 MLOAD PUSH3 0x461BCD PUSH1 0xE5 SHL DUP2 MSTORE PUSH1 0x4 ADD PUSH2 0x519 SWAP1 PUSH2 0x2580 JUMP JUMPDEST PUSH1 0x2 PUSH1 0x0 SSTORE DUP2 PUSH2 0x1A41 JUMPI PUSH1 0x40 MLOAD PUSH3 0x461BCD PUSH1 0xE5 SHL DUP2 MSTORE PUSH1 0x20 PUSH1 0x4 DUP3 ADD MSTORE PUSH1 0x1C PUSH1 0x24 DUP3 ADD MSTORE PUSH32 0x5072696365206D757374206265206174206C6561737420312077656900000000 PUSH1 0x44 DUP3 ADD MSTORE PUSH1 0x64 ADD PUSH2 0x519 JUMP JUMPDEST PUSH1 0x5 SLOAD CALLVALUE EQ PUSH2 0x1A92 JUMPI PUSH1 0x40 MLOAD PUSH3 0x461BCD PUSH1 0xE5 SHL DUP2 MSTORE PUSH1 0x20 PUSH1 0x4 DUP3 ADD DUP2 SWAP1 MSTORE PUSH1 0x24 DUP3 ADD MSTORE PUSH32 0x4E6F7420656E6F75676820657468657220666F72206C697374696E6720666565 PUSH1 0x44 DUP3 ADD MSTORE PUSH1 0x64 ADD PUSH2 0x519 JUMP JUMPDEST PUSH1 0x40 MLOAD PUSH4 0x23B872DD PUSH1 0xE0 SHL DUP2 MSTORE PUSH1 0x1 PUSH1 0x1 PUSH1 0xA0 SHL SUB DUP6 AND SWAP1 PUSH4 0x23B872DD SWAP1 PUSH2 0x1AC2 SWAP1 CALLER SWAP1 ADDRESS SWAP1 DUP9 SWAP1 PUSH1 0x4 ADD PUSH2 0x2634 JUMP JUMPDEST PUSH1 0x0 PUSH1 0x40 MLOAD DUP1 DUP4 SUB DUP2 PUSH1 0x0 DUP8 DUP1 EXTCODESIZE ISZERO DUP1 ISZERO PUSH2 0x1ADC JUMPI PUSH1 0x0 DUP1 REVERT JUMPDEST POP GAS CALL ISZERO DUP1 ISZERO PUSH2 0x1AF0 JUMPI RETURNDATASIZE PUSH1 0x0 DUP1 RETURNDATACOPY RETURNDATASIZE PUSH1 0x0 REVERT JUMPDEST POP POP PUSH1 0x6 SLOAD PUSH1 0x5 SLOAD PUSH1 0x40 MLOAD PUSH1 0x1 PUSH1 0x1 PUSH1 0xA0 SHL SUB SWAP1 SWAP3 AND SWAP4 POP DUP1 ISZERO PUSH2 0x8FC MUL SWAP3 POP SWAP1 PUSH1 0x0 DUP2 DUP2 DUP2 DUP6 DUP9 DUP9 CALL SWAP4 POP POP POP POP ISZERO DUP1 ISZERO PUSH2 0x1B30 JUMPI RETURNDATASIZE PUSH1 0x0 DUP1 RETURNDATACOPY RETURNDATASIZE PUSH1 0x0 REVERT JUMPDEST POP PUSH2 0x1B3F PUSH1 0x2 DUP1 SLOAD PUSH1 0x1 ADD SWAP1 SSTORE JUMP JUMPDEST PUSH1 0x40 MLOAD DUP1 PUSH2 0x100 ADD PUSH1 0x40 MSTORE DUP1 DUP6 PUSH1 0x1 PUSH1 0x1 PUSH1 0xA0 SHL SUB AND DUP2 MSTORE PUSH1 0x20 ADD DUP5 DUP2 MSTORE PUSH1 0x20 ADD CALLER PUSH1 0x1 PUSH1 0x1 PUSH1 0xA0 SHL SUB AND DUP2 MSTORE PUSH1 0x20 ADD ADDRESS PUSH1 0x1 PUSH1 0x1 PUSH1 0xA0 SHL SUB AND DUP2 MSTORE PUSH1 0x20 ADD DUP4 DUP2 MSTORE PUSH1 0x20 ADD DUP3 DUP2 MSTORE PUSH1 0x20 ADD PUSH1 0x1 ISZERO ISZERO DUP2 MSTORE PUSH1 0x20 ADD PUSH2 0x1B9C PUSH1 0x2 SLOAD SWAP1 JUMP JUMPDEST SWAP1 MSTORE PUSH1 0x7 PUSH1 0x0 PUSH2 0x1BAB PUSH1 0x2 SLOAD SWAP1 JUMP JUMPDEST DUP2 MSTORE PUSH1 0x20 DUP1 DUP3 ADD SWAP3 SWAP1 SWAP3 MSTORE PUSH1 0x40 SWAP1 DUP2 ADD PUSH1 0x0 KECCAK256 DUP4 MLOAD DUP2 SLOAD PUSH1 0x1 PUSH1 0x1 PUSH1 0xA0 SHL SUB NOT SWAP1 DUP2 AND PUSH1 0x1 PUSH1 0x1 PUSH1 0xA0 SHL SUB SWAP3 DUP4 AND OR DUP4 SSTORE SWAP4 DUP6 ADD MLOAD PUSH1 0x1 DUP4 ADD SSTORE SWAP2 DUP5 ADD MLOAD PUSH1 0x2 DUP3 ADD DUP1 SLOAD DUP6 AND SWAP2 DUP5 AND SWAP2 SWAP1 SWAP2 OR SWAP1 SSTORE PUSH1 0x60 DUP5 ADD MLOAD PUSH1 0x3 DUP3 ADD DUP1 SLOAD SWAP1 SWAP5 AND SWAP3 AND SWAP2 SWAP1 SWAP2 OR SWAP1 SWAP2 SSTORE PUSH1 0x80 DUP3 ADD MLOAD PUSH1 0x4 DUP3 ADD SSTORE PUSH1 0xA0 DUP3 ADD MLOAD PUSH1 0x5 DUP3 ADD SWAP1 PUSH2 0x1C2F SWAP1 DUP3 PUSH2 0x26A9 JUMP JUMPDEST POP PUSH1 0xC0 DUP3 ADD MLOAD PUSH1 0x6 DUP3 ADD DUP1 SLOAD PUSH1 0xFF NOT AND SWAP2 ISZERO ISZERO SWAP2 SWAP1 SWAP2 OR SWAP1 SSTORE PUSH1 0xE0 SWAP1 SWAP2 ADD MLOAD PUSH1 0x7 SWAP1 SWAP2 ADD SSTORE PUSH1 0x40 DUP1 MLOAD PUSH1 0x1 PUSH1 0x1 PUSH1 0xA0 SHL SUB DUP7 AND DUP2 MSTORE PUSH1 0x20 DUP2 ADD DUP6 SWAP1 MSTORE CALLER DUP2 DUP4 ADD MSTORE ADDRESS PUSH1 0x60 DUP3 ADD MSTORE PUSH1 0x80 DUP2 ADD DUP5 SWAP1 MSTORE SWAP1 MLOAD PUSH32 0xA0C6C0D02D86FDACECBAA5FDF5894BAB204E31A778250474108540733A9B8D19 SWAP2 PUSH1 0xA0 SWAP1 DUP3 SWAP1 SUB ADD SWAP1 LOG1 POP POP PUSH1 0x1 PUSH1 0x0 SSTORE POP POP JUMP JUMPDEST PUSH1 0x60 PUSH1 0x0 PUSH2 0x1CC2 PUSH1 0x4 SLOAD SWAP1 JUMP JUMPDEST SWAP1 POP PUSH1 0x0 DUP1 JUMPDEST DUP3 DUP2 LT ISZERO PUSH2 0x1D78 JUMPI PUSH1 0x9 PUSH1 0x0 PUSH2 0x1CDF DUP4 PUSH1 0x1 PUSH2 0x2504 JUMP JUMPDEST DUP2 MSTORE PUSH1 0x20 DUP2 ADD SWAP2 SWAP1 SWAP2 MSTORE PUSH1 0x40 SWAP1 DUP2 ADD PUSH1 0x0 KECCAK256 PUSH1 0x3 ADD SLOAD SWAP1 MLOAD PUSH4 0x288C3149 PUSH1 0xE2 SHL DUP2 MSTORE CALLER PUSH1 0x4 DUP3 ADD MSTORE PUSH1 0x1 PUSH1 0x1 PUSH1 0xA0 SHL SUB SWAP1 SWAP2 AND SWAP1 PUSH4 0xA230C524 SWAP1 PUSH1 0x24 ADD PUSH1 0x20 PUSH1 0x40 MLOAD DUP1 DUP4 SUB DUP2 DUP7 GAS STATICCALL ISZERO DUP1 ISZERO PUSH2 0x1D39 JUMPI RETURNDATASIZE PUSH1 0x0 DUP1 RETURNDATACOPY RETURNDATASIZE PUSH1 0x0 REVERT JUMPDEST POP POP POP POP PUSH1 0x40 MLOAD RETURNDATASIZE PUSH1 0x1F NOT PUSH1 0x1F DUP3 ADD AND DUP3 ADD DUP1 PUSH1 0x40 MSTORE POP DUP2 ADD SWAP1 PUSH2 0x1D5D SWAP2 SWAP1 PUSH2 0x25B7 JUMP JUMPDEST ISZERO PUSH2 0x1D70 JUMPI DUP2 PUSH2 0x1D6C DUP2 PUSH2 0x2517 JUMP JUMPDEST SWAP3 POP POP JUMPDEST PUSH1 0x1 ADD PUSH2 0x1CC8 JUMP JUMPDEST POP PUSH1 0x0 DUP1 DUP3 PUSH1 0x1 PUSH1 0x1 PUSH1 0x40 SHL SUB DUP2 GT ISZERO PUSH2 0x1D94 JUMPI PUSH2 0x1D94 PUSH2 0x22AD JUMP JUMPDEST PUSH1 0x40 MLOAD SWAP1 DUP1 DUP3 MSTORE DUP1 PUSH1 0x20 MUL PUSH1 0x20 ADD DUP3 ADD PUSH1 0x40 MSTORE DUP1 ISZERO PUSH2 0x1DCD JUMPI DUP2 PUSH1 0x20 ADD JUMPDEST PUSH2 0x1DBA PUSH2 0x1FDD JUMP JUMPDEST DUP2 MSTORE PUSH1 0x20 ADD SWAP1 PUSH1 0x1 SWAP1 SUB SWAP1 DUP2 PUSH2 0x1DB2 JUMPI SWAP1 POP JUMPDEST POP SWAP1 POP PUSH1 0x0 JUMPDEST DUP5 DUP2 LT ISZERO PUSH2 0xC40 JUMPI PUSH1 0x9 PUSH1 0x0 PUSH2 0x1DEA DUP4 PUSH1 0x1 PUSH2 0x2504 JUMP JUMPDEST DUP2 MSTORE PUSH1 0x20 DUP2 ADD SWAP2 SWAP1 SWAP2 MSTORE PUSH1 0x40 SWAP1 DUP2 ADD PUSH1 0x0 KECCAK256 PUSH1 0x3 ADD SLOAD SWAP1 MLOAD PUSH4 0x288C3149 PUSH1 0xE2 SHL DUP2 MSTORE CALLER PUSH1 0x4 DUP3 ADD MSTORE PUSH1 0x1 PUSH1 0x1 PUSH1 0xA0 SHL SUB SWAP1 SWAP2 AND SWAP1 PUSH4 0xA230C524 SWAP1 PUSH1 0x24 ADD PUSH1 0x20 PUSH1 0x40 MLOAD DUP1 DUP4 SUB DUP2 DUP7 GAS STATICCALL ISZERO DUP1 ISZERO PUSH2 0x1E44 JUMPI RETURNDATASIZE PUSH1 0x0 DUP1 RETURNDATACOPY RETURNDATASIZE PUSH1 0x0 REVERT JUMPDEST POP POP POP POP PUSH1 0x40 MLOAD RETURNDATASIZE PUSH1 0x1F NOT PUSH1 0x1F DUP3 ADD AND DUP3 ADD DUP1 PUSH1 0x40 MSTORE POP DUP2 ADD SWAP1 PUSH2 0x1E68 SWAP2 SWAP1 PUSH2 0x25B7 JUMP JUMPDEST ISZERO PUSH2 0x1F92 JUMPI PUSH1 0x9 PUSH1 0x0 PUSH2 0x1E7C DUP4 PUSH1 0x1 PUSH2 0x2504 JUMP JUMPDEST DUP2 MSTORE PUSH1 0x20 DUP1 DUP3 ADD SWAP3 SWAP1 SWAP3 MSTORE PUSH1 0x40 SWAP1 DUP2 ADD PUSH1 0x0 KECCAK256 DUP2 MLOAD PUSH1 0xA0 DUP2 ADD DUP4 MSTORE DUP2 SLOAD PUSH1 0x1 PUSH1 0x1 PUSH1 0xA0 SHL SUB AND DUP2 MSTORE PUSH1 0x1 DUP3 ADD SLOAD SWAP4 DUP2 ADD SWAP4 SWAP1 SWAP4 MSTORE PUSH1 0x2 DUP2 ADD DUP1 SLOAD SWAP2 SWAP3 DUP5 ADD SWAP2 PUSH2 0x1EC4 SWAP1 PUSH2 0x2530 JUMP JUMPDEST DUP1 PUSH1 0x1F ADD PUSH1 0x20 DUP1 SWAP2 DIV MUL PUSH1 0x20 ADD PUSH1 0x40 MLOAD SWAP1 DUP2 ADD PUSH1 0x40 MSTORE DUP1 SWAP3 SWAP2 SWAP1 DUP2 DUP2 MSTORE PUSH1 0x20 ADD DUP3 DUP1 SLOAD PUSH2 0x1EF0 SWAP1 PUSH2 0x2530 JUMP JUMPDEST DUP1 ISZERO PUSH2 0x1F3D JUMPI DUP1 PUSH1 0x1F LT PUSH2 0x1F12 JUMPI PUSH2 0x100 DUP1 DUP4 SLOAD DIV MUL DUP4 MSTORE SWAP2 PUSH1 0x20 ADD SWAP2 PUSH2 0x1F3D JUMP JUMPDEST DUP3 ADD SWAP2 SWAP1 PUSH1 0x0 MSTORE PUSH1 0x20 PUSH1 0x0 KECCAK256 SWAP1 JUMPDEST DUP2 SLOAD DUP2 MSTORE SWAP1 PUSH1 0x1 ADD SWAP1 PUSH1 0x20 ADD DUP1 DUP4 GT PUSH2 0x1F20 JUMPI DUP3 SWAP1 SUB PUSH1 0x1F AND DUP3 ADD SWAP2 JUMPDEST POP POP POP SWAP2 DUP4 MSTORE POP POP PUSH1 0x3 DUP3 ADD SLOAD PUSH1 0x1 PUSH1 0x1 PUSH1 0xA0 SHL SUB AND PUSH1 0x20 DUP3 ADD MSTORE PUSH1 0x4 SWAP1 SWAP2 ADD SLOAD PUSH1 0x40 SWAP1 SWAP2 ADD MSTORE DUP3 MLOAD DUP4 SWAP1 DUP6 SWAP1 DUP2 LT PUSH2 0x1F78 JUMPI PUSH2 0x1F78 PUSH2 0x256A JUMP JUMPDEST PUSH1 0x20 MUL PUSH1 0x20 ADD ADD DUP2 SWAP1 MSTORE POP DUP3 DUP1 PUSH2 0x1F8E SWAP1 PUSH2 0x2517 JUMP JUMPDEST SWAP4 POP POP JUMPDEST PUSH1 0x1 ADD PUSH2 0x1DD3 JUMP JUMPDEST PUSH1 0x40 DUP1 MLOAD PUSH2 0x100 DUP2 ADD DUP3 MSTORE PUSH1 0x0 DUP1 DUP3 MSTORE PUSH1 0x20 DUP3 ADD DUP2 SWAP1 MSTORE SWAP2 DUP2 ADD DUP3 SWAP1 MSTORE PUSH1 0x60 DUP1 DUP3 ADD DUP4 SWAP1 MSTORE PUSH1 0x80 DUP3 ADD DUP4 SWAP1 MSTORE PUSH1 0xA0 DUP3 ADD MSTORE PUSH1 0xC0 DUP2 ADD DUP3 SWAP1 MSTORE PUSH1 0xE0 DUP2 ADD SWAP2 SWAP1 SWAP2 MSTORE SWAP1 JUMP JUMPDEST PUSH1 0x40 MLOAD DUP1 PUSH1 0xA0 ADD PUSH1 0x40 MSTORE DUP1 PUSH1 0x0 PUSH1 0x1 PUSH1 0x1 PUSH1 0xA0 SHL SUB AND DUP2 MSTORE PUSH1 0x20 ADD PUSH1 0x0 DUP2 MSTORE PUSH1 0x20 ADD PUSH1 0x60 DUP2 MSTORE PUSH1 0x20 ADD PUSH1 0x0 PUSH1 0x1 PUSH1 0x1 PUSH1 0xA0 SHL SUB AND DUP2 MSTORE PUSH1 0x20 ADD PUSH1 0x0 DUP2 MSTORE POP SWAP1 JUMP JUMPDEST PUSH2 0x316 DUP1 PUSH2 0x281A DUP4 CODECOPY ADD SWAP1 JUMP JUMPDEST PUSH1 0x0 DUP2 MLOAD DUP1 DUP5 MSTORE PUSH1 0x0 JUMPDEST DUP2 DUP2 LT ISZERO PUSH2 0x2051 JUMPI PUSH1 0x20 DUP2 DUP6 ADD DUP2 ADD MLOAD DUP7 DUP4 ADD DUP3 ADD MSTORE ADD PUSH2 0x2035 JUMP JUMPDEST POP PUSH1 0x0 PUSH1 0x20 DUP3 DUP7 ADD ADD MSTORE PUSH1 0x20 PUSH1 0x1F NOT PUSH1 0x1F DUP4 ADD AND DUP6 ADD ADD SWAP2 POP POP SWAP3 SWAP2 POP POP JUMP JUMPDEST PUSH1 0x0 PUSH2 0x100 PUSH1 0x1 DUP1 PUSH1 0xA0 SHL SUB DUP1 DUP5 MLOAD AND DUP6 MSTORE PUSH1 0x20 DUP5 ADD MLOAD PUSH1 0x20 DUP7 ADD MSTORE DUP1 PUSH1 0x40 DUP6 ADD MLOAD AND PUSH1 0x40 DUP7 ADD MSTORE DUP1 PUSH1 0x60 DUP6 ADD MLOAD AND PUSH1 0x60 DUP7 ADD MSTORE POP PUSH1 0x80 DUP4 ADD MLOAD PUSH1 0x80 DUP6 ADD MSTORE PUSH1 0xA0 DUP4 ADD MLOAD DUP2 PUSH1 0xA0 DUP7 ADD MSTORE PUSH2 0x20C7 DUP3 DUP7 ADD DUP3 PUSH2 0x202B JUMP JUMPDEST SWAP2 POP POP PUSH1 0xC0 DUP4 ADD MLOAD ISZERO ISZERO PUSH1 0xC0 DUP6 ADD MSTORE PUSH1 0xE0 DUP4 ADD MLOAD PUSH1 0xE0 DUP6 ADD MSTORE DUP1 SWAP2 POP POP SWAP3 SWAP2 POP POP JUMP JUMPDEST PUSH1 0x0 PUSH1 0x20 DUP1 DUP4 ADD PUSH1 0x20 DUP5 MSTORE DUP1 DUP6 MLOAD DUP1 DUP4 MSTORE PUSH1 0x40 DUP7 ADD SWAP2 POP PUSH1 0x40 DUP2 PUSH1 0x5 SHL DUP8 ADD ADD SWAP3 POP PUSH1 0x20 DUP8 ADD PUSH1 0x0 JUMPDEST DUP3 DUP2 LT ISZERO PUSH2 0x2141 JUMPI PUSH1 0x3F NOT DUP9 DUP7 SUB ADD DUP5 MSTORE PUSH2 0x212F DUP6 DUP4 MLOAD PUSH2 0x2071 JUMP JUMPDEST SWAP5 POP SWAP3 DUP6 ADD SWAP3 SWAP1 DUP6 ADD SWAP1 PUSH1 0x1 ADD PUSH2 0x2113 JUMP JUMPDEST POP SWAP3 SWAP8 SWAP7 POP POP POP POP POP POP POP JUMP JUMPDEST PUSH1 0x0 PUSH1 0x20 DUP3 DUP5 SUB SLT ISZERO PUSH2 0x2160 JUMPI PUSH1 0x0 DUP1 REVERT JUMPDEST POP CALLDATALOAD SWAP2 SWAP1 POP JUMP JUMPDEST PUSH1 0x1 PUSH1 0x1 PUSH1 0xA0 SHL SUB DUP2 AND DUP2 EQ PUSH2 0x217C JUMPI PUSH1 0x0 DUP1 REVERT JUMPDEST POP JUMP JUMPDEST PUSH1 0x0 DUP1 PUSH1 0x40 DUP4 DUP6 SUB SLT ISZERO PUSH2 0x2192 JUMPI PUSH1 0x0 DUP1 REVERT JUMPDEST DUP3 CALLDATALOAD PUSH2 0x219D DUP2 PUSH2 0x2167 JUMP JUMPDEST SWAP5 PUSH1 0x20 SWAP4 SWAP1 SWAP4 ADD CALLDATALOAD SWAP4 POP POP POP JUMP JUMPDEST PUSH1 0x0 PUSH1 0x20 DUP1 DUP4 ADD DUP2 DUP5 MSTORE DUP1 DUP6 MLOAD DUP1 DUP4 MSTORE PUSH1 0x40 SWAP3 POP PUSH1 0x40 DUP7 ADD SWAP2 POP PUSH1 0x40 DUP2 PUSH1 0x5 SHL DUP8 ADD ADD DUP5 DUP9 ADD PUSH1 0x0 JUMPDEST DUP4 DUP2 LT ISZERO PUSH2 0x2248 JUMPI DUP9 DUP4 SUB PUSH1 0x3F NOT ADD DUP6 MSTORE DUP2 MLOAD DUP1 MLOAD PUSH1 0x1 PUSH1 0x1 PUSH1 0xA0 SHL SUB SWAP1 DUP2 AND DUP6 MSTORE DUP9 DUP3 ADD MLOAD DUP10 DUP7 ADD MSTORE DUP8 DUP3 ADD MLOAD PUSH1 0xA0 DUP10 DUP8 ADD DUP2 SWAP1 MSTORE SWAP2 SWAP1 PUSH2 0x2218 DUP4 DUP9 ADD DUP3 PUSH2 0x202B JUMP JUMPDEST PUSH1 0x60 DUP6 DUP2 ADD MLOAD SWAP1 SWAP4 AND SWAP3 DUP9 ADD SWAP3 SWAP1 SWAP3 MSTORE POP PUSH1 0x80 SWAP3 DUP4 ADD MLOAD SWAP3 SWAP1 SWAP6 ADD SWAP2 SWAP1 SWAP2 MSTORE POP SWAP4 DUP7 ADD SWAP4 SWAP1 DUP7 ADD SWAP1 PUSH1 0x1 ADD PUSH2 0x21D4 JUMP JUMPDEST POP SWAP1 SWAP9 SWAP8 POP POP POP POP POP POP POP POP JUMP JUMPDEST PUSH1 0x0 PUSH1 0x20 DUP1 DUP4 ADD PUSH1 0x20 DUP5 MSTORE DUP1 DUP6 MLOAD DUP1 DUP4 MSTORE PUSH1 0x40 DUP7 ADD SWAP2 POP PUSH1 0x40 DUP2 PUSH1 0x5 SHL DUP8 ADD ADD SWAP3 POP PUSH1 0x20 DUP8 ADD PUSH1 0x0 JUMPDEST DUP3 DUP2 LT ISZERO PUSH2 0x2141 JUMPI PUSH1 0x3F NOT DUP9 DUP7 SUB ADD DUP5 MSTORE PUSH2 0x229B DUP6 DUP4 MLOAD PUSH2 0x2071 JUMP JUMPDEST SWAP5 POP SWAP3 DUP6 ADD SWAP3 SWAP1 DUP6 ADD SWAP1 PUSH1 0x1 ADD PUSH2 0x227F JUMP JUMPDEST PUSH4 0x4E487B71 PUSH1 0xE0 SHL PUSH1 0x0 MSTORE PUSH1 0x41 PUSH1 0x4 MSTORE PUSH1 0x24 PUSH1 0x0 REVERT JUMPDEST PUSH1 0x40 MLOAD PUSH1 0x1F DUP3 ADD PUSH1 0x1F NOT AND DUP2 ADD PUSH1 0x1 PUSH1 0x1 PUSH1 0x40 SHL SUB DUP2 GT DUP3 DUP3 LT OR ISZERO PUSH2 0x22EB JUMPI PUSH2 0x22EB PUSH2 0x22AD JUMP JUMPDEST PUSH1 0x40 MSTORE SWAP2 SWAP1 POP JUMP JUMPDEST PUSH1 0x0 DUP3 PUSH1 0x1F DUP4 ADD SLT PUSH2 0x2304 JUMPI PUSH1 0x0 DUP1 REVERT JUMPDEST DUP2 CALLDATALOAD PUSH1 0x1 PUSH1 0x1 PUSH1 0x40 SHL SUB DUP2 GT ISZERO PUSH2 0x231D JUMPI PUSH2 0x231D PUSH2 0x22AD JUMP JUMPDEST PUSH2 0x2330 PUSH1 0x1F DUP3 ADD PUSH1 0x1F NOT AND PUSH1 0x20 ADD PUSH2 0x22C3 JUMP JUMPDEST DUP2 DUP2 MSTORE DUP5 PUSH1 0x20 DUP4 DUP7 ADD ADD GT ISZERO PUSH2 0x2345 JUMPI PUSH1 0x0 DUP1 REVERT JUMPDEST DUP2 PUSH1 0x20 DUP6 ADD PUSH1 0x20 DUP4 ADD CALLDATACOPY PUSH1 0x0 SWAP2 DUP2 ADD PUSH1 0x20 ADD SWAP2 SWAP1 SWAP2 MSTORE SWAP4 SWAP3 POP POP POP JUMP JUMPDEST DUP1 ISZERO ISZERO DUP2 EQ PUSH2 0x217C JUMPI PUSH1 0x0 DUP1 REVERT JUMPDEST PUSH1 0x0 DUP1 PUSH1 0x0 DUP1 PUSH1 0x0 PUSH1 0xA0 DUP7 DUP9 SUB SLT ISZERO PUSH2 0x2388 JUMPI PUSH1 0x0 DUP1 REVERT JUMPDEST DUP6 CALLDATALOAD PUSH2 0x2393 DUP2 PUSH2 0x2167 JUMP JUMPDEST SWAP5 POP PUSH1 0x20 DUP7 ADD CALLDATALOAD SWAP4 POP PUSH1 0x40 DUP7 ADD CALLDATALOAD SWAP3 POP PUSH1 0x60 DUP7 ADD CALLDATALOAD PUSH1 0x1 PUSH1 0x1 PUSH1 0x40 SHL SUB DUP2 GT ISZERO PUSH2 0x23BC JUMPI PUSH1 0x0 DUP1 REVERT JUMPDEST PUSH2 0x23C8 DUP9 DUP3 DUP10 ADD PUSH2 0x22F3 JUMP JUMPDEST SWAP3 POP POP PUSH1 0x80 DUP7 ADD CALLDATALOAD PUSH2 0x23D9 DUP2 PUSH2 0x2362 JUMP JUMPDEST DUP1 SWAP2 POP POP SWAP3 SWAP6 POP SWAP3 SWAP6 SWAP1 SWAP4 POP JUMP JUMPDEST PUSH1 0x20 DUP1 DUP3 MSTORE DUP3 MLOAD DUP3 DUP3 ADD DUP2 SWAP1 MSTORE PUSH1 0x0 SWAP2 SWAP1 DUP5 DUP3 ADD SWAP1 PUSH1 0x40 DUP6 ADD SWAP1 DUP5 JUMPDEST DUP2 DUP2 LT ISZERO PUSH2 0x2428 JUMPI DUP4 MLOAD PUSH1 0x1 PUSH1 0x1 PUSH1 0xA0 SHL SUB AND DUP4 MSTORE SWAP3 DUP5 ADD SWAP3 SWAP2 DUP5 ADD SWAP2 PUSH1 0x1 ADD PUSH2 0x2403 JUMP JUMPDEST POP SWAP1 SWAP7 SWAP6 POP POP POP POP POP POP JUMP JUMPDEST PUSH1 0x0 DUP1 PUSH1 0x0 PUSH1 0x60 DUP5 DUP7 SUB SLT ISZERO PUSH2 0x2449 JUMPI PUSH1 0x0 DUP1 REVERT JUMPDEST DUP4 CALLDATALOAD PUSH2 0x2454 DUP2 PUSH2 0x2167 JUMP JUMPDEST SWAP3 POP PUSH1 0x20 DUP5 ADD CALLDATALOAD SWAP2 POP PUSH1 0x40 DUP5 ADD CALLDATALOAD PUSH1 0x1 PUSH1 0x1 PUSH1 0x40 SHL SUB DUP2 GT ISZERO PUSH2 0x2476 JUMPI PUSH1 0x0 DUP1 REVERT JUMPDEST PUSH2 0x2482 DUP7 DUP3 DUP8 ADD PUSH2 0x22F3 JUMP JUMPDEST SWAP2 POP POP SWAP3 POP SWAP3 POP SWAP3 JUMP JUMPDEST PUSH1 0x0 DUP1 PUSH1 0x0 DUP1 PUSH1 0x80 DUP6 DUP8 SUB SLT ISZERO PUSH2 0x24A2 JUMPI PUSH1 0x0 DUP1 REVERT JUMPDEST DUP5 CALLDATALOAD PUSH2 0x24AD DUP2 PUSH2 0x2167 JUMP JUMPDEST SWAP4 POP PUSH1 0x20 DUP6 ADD CALLDATALOAD SWAP3 POP PUSH1 0x40 DUP6 ADD CALLDATALOAD SWAP2 POP PUSH1 0x60 DUP6 ADD CALLDATALOAD PUSH1 0x1 PUSH1 0x1 PUSH1 0x40 SHL SUB DUP2 GT ISZERO PUSH2 0x24D6 JUMPI PUSH1 0x0 DUP1 REVERT JUMPDEST PUSH2 0x24E2 DUP8 DUP3 DUP9 ADD PUSH2 0x22F3 JUMP JUMPDEST SWAP2 POP POP SWAP3 SWAP6 SWAP2 SWAP5 POP SWAP3 POP JUMP JUMPDEST PUSH4 0x4E487B71 PUSH1 0xE0 SHL PUSH1 0x0 MSTORE PUSH1 0x11 PUSH1 0x4 MSTORE PUSH1 0x24 PUSH1 0x0 REVERT JUMPDEST DUP1 DUP3 ADD DUP1 DUP3 GT ISZERO PUSH2 0x186D JUMPI PUSH2 0x186D PUSH2 0x24EE JUMP JUMPDEST PUSH1 0x0 PUSH1 0x1 DUP3 ADD PUSH2 0x2529 JUMPI PUSH2 0x2529 PUSH2 0x24EE JUMP JUMPDEST POP PUSH1 0x1 ADD SWAP1 JUMP JUMPDEST PUSH1 0x1 DUP2 DUP2 SHR SWAP1 DUP3 AND DUP1 PUSH2 0x2544 JUMPI PUSH1 0x7F DUP3 AND SWAP2 POP JUMPDEST PUSH1 0x20 DUP3 LT DUP2 SUB PUSH2 0x2564 JUMPI PUSH4 0x4E487B71 PUSH1 0xE0 SHL PUSH1 0x0 MSTORE PUSH1 0x22 PUSH1 0x4 MSTORE PUSH1 0x24 PUSH1 0x0 REVERT JUMPDEST POP SWAP2 SWAP1 POP JUMP JUMPDEST PUSH4 0x4E487B71 PUSH1 0xE0 SHL PUSH1 0x0 MSTORE PUSH1 0x32 PUSH1 0x4 MSTORE PUSH1 0x24 PUSH1 0x0 REVERT JUMPDEST PUSH1 0x20 DUP1 DUP3 MSTORE PUSH1 0x1F SWAP1 DUP3 ADD MSTORE PUSH32 0x5265656E7472616E637947756172643A207265656E7472616E742063616C6C00 PUSH1 0x40 DUP3 ADD MSTORE PUSH1 0x60 ADD SWAP1 JUMP JUMPDEST PUSH1 0x0 PUSH1 0x20 DUP3 DUP5 SUB SLT ISZERO PUSH2 0x25C9 JUMPI PUSH1 0x0 DUP1 REVERT JUMPDEST DUP2 MLOAD PUSH2 0x25D4 DUP2 PUSH2 0x2362 JUMP JUMPDEST SWAP4 SWAP3 POP POP POP JUMP JUMPDEST DUP2 DUP2 SUB DUP2 DUP2 GT ISZERO PUSH2 0x186D JUMPI PUSH2 0x186D PUSH2 0x24EE JUMP JUMPDEST PUSH1 0x20 DUP1 DUP3 MSTORE PUSH1 0x26 SWAP1 DUP3 ADD MSTORE PUSH32 0x4E6F7420656E6F75676820657468657220746F20636F7665722061736B696E67 PUSH1 0x40 DUP3 ADD MSTORE PUSH6 0x207072696365 PUSH1 0xD0 SHL PUSH1 0x60 DUP3 ADD MSTORE PUSH1 0x80 ADD SWAP1 JUMP JUMPDEST PUSH1 0x1 PUSH1 0x1 PUSH1 0xA0 SHL SUB SWAP4 DUP5 AND DUP2 MSTORE SWAP2 SWAP1 SWAP3 AND PUSH1 0x20 DUP3 ADD MSTORE PUSH1 0x40 DUP2 ADD SWAP2 SWAP1 SWAP2 MSTORE PUSH1 0x60 ADD SWAP1 JUMP JUMPDEST PUSH1 0x1F DUP3 GT ISZERO PUSH2 0x26A4 JUMPI PUSH1 0x0 DUP2 PUSH1 0x0 MSTORE PUSH1 0x20 PUSH1 0x0 KECCAK256 PUSH1 0x1F DUP6 ADD PUSH1 0x5 SHR DUP2 ADD PUSH1 0x20 DUP7 LT ISZERO PUSH2 0x2681 JUMPI POP DUP1 JUMPDEST PUSH1 0x1F DUP6 ADD PUSH1 0x5 SHR DUP3 ADD SWAP2 POP JUMPDEST DUP2 DUP2 LT ISZERO PUSH2 0x26A0 JUMPI DUP3 DUP2 SSTORE PUSH1 0x1 ADD PUSH2 0x268D JUMP JUMPDEST POP POP POP JUMPDEST POP POP POP JUMP JUMPDEST DUP2 MLOAD PUSH1 0x1 PUSH1 0x1 PUSH1 0x40 SHL SUB DUP2 GT ISZERO PUSH2 0x26C2 JUMPI PUSH2 0x26C2 PUSH2 0x22AD JUMP JUMPDEST PUSH2 0x26D6 DUP2 PUSH2 0x26D0 DUP5 SLOAD PUSH2 0x2530 JUMP JUMPDEST DUP5 PUSH2 0x2658 JUMP JUMPDEST PUSH1 0x20 DUP1 PUSH1 0x1F DUP4 GT PUSH1 0x1 DUP2 EQ PUSH2 0x270B JUMPI PUSH1 0x0 DUP5 ISZERO PUSH2 0x26F3 JUMPI POP DUP6 DUP4 ADD MLOAD JUMPDEST PUSH1 0x0 NOT PUSH1 0x3 DUP7 SWAP1 SHL SHR NOT AND PUSH1 0x1 DUP6 SWAP1 SHL OR DUP6 SSTORE PUSH2 0x26A0 JUMP JUMPDEST PUSH1 0x0 DUP6 DUP2 MSTORE PUSH1 0x20 DUP2 KECCAK256 PUSH1 0x1F NOT DUP7 AND SWAP2 JUMPDEST DUP3 DUP2 LT ISZERO PUSH2 0x273A JUMPI DUP9 DUP7 ADD MLOAD DUP3 SSTORE SWAP5 DUP5 ADD SWAP5 PUSH1 0x1 SWAP1 SWAP2 ADD SWAP1 DUP5 ADD PUSH2 0x271B JUMP JUMPDEST POP DUP6 DUP3 LT ISZERO PUSH2 0x2758 JUMPI DUP8 DUP6 ADD MLOAD PUSH1 0x0 NOT PUSH1 0x3 DUP9 SWAP1 SHL PUSH1 0xF8 AND SHR NOT AND DUP2 SSTORE JUMPDEST POP POP POP POP POP PUSH1 0x1 SWAP1 DUP2 SHL ADD SWAP1 SSTORE POP JUMP JUMPDEST PUSH1 0x0 PUSH1 0x20 DUP1 DUP4 DUP6 SUB SLT ISZERO PUSH2 0x277B JUMPI PUSH1 0x0 DUP1 REVERT JUMPDEST DUP3 MLOAD PUSH1 0x1 PUSH1 0x1 PUSH1 0x40 SHL SUB DUP1 DUP3 GT ISZERO PUSH2 0x2792 JUMPI PUSH1 0x0 DUP1 REVERT JUMPDEST DUP2 DUP6 ADD SWAP2 POP DUP6 PUSH1 0x1F DUP4 ADD SLT PUSH2 0x27A6 JUMPI PUSH1 0x0 DUP1 REVERT JUMPDEST DUP2 MLOAD DUP2 DUP2 GT ISZERO PUSH2 0x27B8 JUMPI PUSH2 0x27B8 PUSH2 0x22AD JUMP JUMPDEST DUP1 PUSH1 0x5 SHL SWAP2 POP PUSH2 0x27C9 DUP5 DUP4 ADD PUSH2 0x22C3 JUMP JUMPDEST DUP2 DUP2 MSTORE SWAP2 DUP4 ADD DUP5 ADD SWAP2 DUP5 DUP2 ADD SWAP1 DUP9 DUP5 GT ISZERO PUSH2 0x27E3 JUMPI PUSH1 0x0 DUP1 REVERT JUMPDEST SWAP4 DUP6 ADD SWAP4 JUMPDEST DUP4 DUP6 LT ISZERO PUSH2 0x280D JUMPI DUP5 MLOAD SWAP3 POP PUSH2 0x27FD DUP4 PUSH2 0x2167 JUMP JUMPDEST DUP3 DUP3 MSTORE SWAP4 DUP6 ADD SWAP4 SWAP1 DUP6 ADD SWAP1 PUSH2 0x27E8 JUMP JUMPDEST SWAP9 SWAP8 POP POP POP POP POP POP POP POP JUMP INVALID PUSH1 0x80 PUSH1 0x40 MSTORE CALLVALUE DUP1 ISZERO PUSH2 0x10 JUMPI PUSH1 0x0 DUP1 REVERT JUMPDEST POP PUSH2 0x2F6 DUP1 PUSH2 0x20 PUSH1 0x0 CODECOPY PUSH1 0x0 RETURN INVALID PUSH1 0x80 PUSH1 0x40 MSTORE CALLVALUE DUP1 ISZERO PUSH2 0x10 JUMPI PUSH1 0x0 DUP1 REVERT JUMPDEST POP PUSH1 0x4 CALLDATASIZE LT PUSH2 0x57 JUMPI PUSH1 0x0 CALLDATALOAD PUSH1 0xE0 SHR DUP1 PUSH4 0x2DB78D93 EQ PUSH2 0x5C JUMPI DUP1 PUSH4 0x5DAF08CA EQ PUSH2 0x8F JUMPI DUP1 PUSH4 0x9EAB5253 EQ PUSH2 0xBA JUMPI DUP1 PUSH4 0xA230C524 EQ PUSH2 0xCF JUMPI DUP1 PUSH4 0xCA6D56DC EQ PUSH2 0x10A JUMPI JUMPDEST PUSH1 0x0 DUP1 REVERT JUMPDEST PUSH2 0x7C PUSH2 0x6A CALLDATASIZE PUSH1 0x4 PUSH2 0x22A JUMP JUMPDEST PUSH1 0x1 PUSH1 0x20 MSTORE PUSH1 0x0 SWAP1 DUP2 MSTORE PUSH1 0x40 SWAP1 KECCAK256 SLOAD DUP2 JUMP JUMPDEST PUSH1 0x40 MLOAD SWAP1 DUP2 MSTORE PUSH1 0x20 ADD JUMPDEST PUSH1 0x40 MLOAD DUP1 SWAP2 SUB SWAP1 RETURN JUMPDEST PUSH2 0xA2 PUSH2 0x9D CALLDATASIZE PUSH1 0x4 PUSH2 0x25A JUMP JUMPDEST PUSH2 0x11F JUMP JUMPDEST PUSH1 0x40 MLOAD PUSH1 0x1 PUSH1 0x1 PUSH1 0xA0 SHL SUB SWAP1 SWAP2 AND DUP2 MSTORE PUSH1 0x20 ADD PUSH2 0x86 JUMP JUMPDEST PUSH2 0xC2 PUSH2 0x149 JUMP JUMPDEST PUSH1 0x40 MLOAD PUSH2 0x86 SWAP2 SWAP1 PUSH2 0x273 JUMP JUMPDEST PUSH2 0xFA PUSH2 0xDD CALLDATASIZE PUSH1 0x4 PUSH2 0x22A JUMP JUMPDEST PUSH1 0x1 PUSH1 0x1 PUSH1 0xA0 SHL SUB AND PUSH1 0x0 SWAP1 DUP2 MSTORE PUSH1 0x1 PUSH1 0x20 MSTORE PUSH1 0x40 SWAP1 KECCAK256 SLOAD ISZERO ISZERO SWAP1 JUMP JUMPDEST PUSH1 0x40 MLOAD SWAP1 ISZERO ISZERO DUP2 MSTORE PUSH1 0x20 ADD PUSH2 0x86 JUMP JUMPDEST PUSH2 0x11D PUSH2 0x118 CALLDATASIZE PUSH1 0x4 PUSH2 0x22A JUMP JUMPDEST PUSH2 0x1AB JUMP JUMPDEST STOP JUMPDEST PUSH1 0x0 DUP2 DUP2 SLOAD DUP2 LT PUSH2 0x12F JUMPI PUSH1 0x0 DUP1 REVERT JUMPDEST PUSH1 0x0 SWAP2 DUP3 MSTORE PUSH1 0x20 SWAP1 SWAP2 KECCAK256 ADD SLOAD PUSH1 0x1 PUSH1 0x1 PUSH1 0xA0 SHL SUB AND SWAP1 POP DUP2 JUMP JUMPDEST PUSH1 0x60 PUSH1 0x0 DUP1 SLOAD DUP1 PUSH1 0x20 MUL PUSH1 0x20 ADD PUSH1 0x40 MLOAD SWAP1 DUP2 ADD PUSH1 0x40 MSTORE DUP1 SWAP3 SWAP2 SWAP1 DUP2 DUP2 MSTORE PUSH1 0x20 ADD DUP3 DUP1 SLOAD DUP1 ISZERO PUSH2 0x1A1 JUMPI PUSH1 0x20 MUL DUP3 ADD SWAP2 SWAP1 PUSH1 0x0 MSTORE PUSH1 0x20 PUSH1 0x0 KECCAK256 SWAP1 JUMPDEST DUP2 SLOAD PUSH1 0x1 PUSH1 0x1 PUSH1 0xA0 SHL SUB AND DUP2 MSTORE PUSH1 0x1 SWAP1 SWAP2 ADD SWAP1 PUSH1 0x20 ADD DUP1 DUP4 GT PUSH2 0x183 JUMPI JUMPDEST POP POP POP POP POP SWAP1 POP SWAP1 JUMP JUMPDEST PUSH1 0x1 PUSH1 0x1 PUSH1 0xA0 SHL SUB DUP2 AND PUSH1 0x0 SWAP1 DUP2 MSTORE PUSH1 0x1 PUSH1 0x20 MSTORE PUSH1 0x40 DUP2 KECCAK256 SLOAD SWAP1 SUB PUSH2 0x227 JUMPI PUSH1 0x0 DUP1 SLOAD PUSH1 0x1 DUP1 DUP3 ADD DUP4 SSTORE PUSH32 0x290DECD9548B62A8D60345A988386FC84BA6BC95484008F6362F93160EF3E563 SWAP1 SWAP2 ADD DUP1 SLOAD PUSH1 0x1 PUSH1 0x1 PUSH1 0xA0 SHL SUB NOT AND PUSH1 0x1 PUSH1 0x1 PUSH1 0xA0 SHL SUB DUP6 AND SWAP1 DUP2 OR SWAP1 SWAP2 SSTORE DUP3 SLOAD SWAP1 DUP4 MSTORE PUSH1 0x20 SWAP2 SWAP1 SWAP2 MSTORE PUSH1 0x40 SWAP1 SWAP2 KECCAK256 SSTORE JUMPDEST POP JUMP JUMPDEST PUSH1 0x0 PUSH1 0x20 DUP3 DUP5 SUB SLT ISZERO PUSH2 0x23C JUMPI PUSH1 0x0 DUP1 REVERT JUMPDEST DUP2 CALLDATALOAD PUSH1 0x1 PUSH1 0x1 PUSH1 0xA0 SHL SUB DUP2 AND DUP2 EQ PUSH2 0x253 JUMPI PUSH1 0x0 DUP1 REVERT JUMPDEST SWAP4 SWAP3 POP POP POP JUMP JUMPDEST PUSH1 0x0 PUSH1 0x20 DUP3 DUP5 SUB SLT ISZERO PUSH2 0x26C JUMPI PUSH1 0x0 DUP1 REVERT JUMPDEST POP CALLDATALOAD SWAP2 SWAP1 POP JUMP JUMPDEST PUSH1 0x20 DUP1 DUP3 MSTORE DUP3 MLOAD DUP3 DUP3 ADD DUP2 SWAP1 MSTORE PUSH1 0x0 SWAP2 SWAP1 DUP5 DUP3 ADD SWAP1 PUSH1 0x40 DUP6 ADD SWAP1 DUP5 JUMPDEST DUP2 DUP2 LT ISZERO PUSH2 0x2B4 JUMPI DUP4 MLOAD PUSH1 0x1 PUSH1 0x1 PUSH1 0xA0 SHL SUB AND DUP4 MSTORE SWAP3 DUP5 ADD SWAP3 SWAP2 DUP5 ADD SWAP2 PUSH1 0x1 ADD PUSH2 0x28F JUMP JUMPDEST POP SWAP1 SWAP7 SWAP6 POP POP POP POP POP POP JUMP INVALID LOG2 PUSH5 0x6970667358 0x22 SLT KECCAK256 0xDA PUSH25 0x8F7592813331D818DE1FC5EF03200ECB6F6B624FA1ACCE347F NUMBER PUSH6 0xDBA5F964736F PUSH13 0x63430008170033A26469706673 PC 0x22 SLT KECCAK256 0xB6 PUSH4 0x48ACC528 BLOCKHASH 0xDA GASPRICE 0x23 0x4E 0xD0 0xB1 PUSH27 0x2A6F97AE1EB12AA897BD51707DF95A2B33CB64736F6C6343000817 STOP CALLER ",
  "sha1": "cfe083b2949fff80e40fa61b47cdc92f0899a569",
  "source": "// SPDX-License-Identifier: MIT\npragma solidity ^0.8.13;\n\nimport \"@openzeppelin/contracts/utils/Counters.sol\";\nimport \"@openzeppelin/contracts/token/ERC721/ERC721.sol\";\nimport \"@openzeppelin/contracts/utils/Strings.sol\";\nimport \"@openzeppelin/contracts/security/ReentrancyGuard.sol\";\n\n\n\n\ncontract DaoMembers {\n\n    address [] public members;\n    mapping (address => uint256) public indexes;\n\n    function addMember(address _member) public {\n      if(indexes[_member] == 0){\n        members.push(_member);\n        indexes[_member] = members.length;\n      }\n    }\n\n  function isMember(address _member) public view returns(bool){\n    return indexes[_member] !=0;\n  }\n\n  function getMembers() public view returns(address[] memory){\n    return members;\n  }\n\n\n}\n\n\ncontract OaseesMarketplace is ReentrancyGuard {\n\n\n  using Counters for Counters.Counter;\n  Counters.Counter private _nftsSold;\n  Counters.Counter private _nftCount;\n  Counters.Counter private _deviceCount;\n  Counters.Counter private _daoCount;\n  uint256 public LISTING_FEE = 0.0001 ether;\n  address payable private _marketOwner;\n  mapping(uint256 => NFT) private _idToNFT;\n  mapping(uint256 => DEVICE) private _idToDevice;\n  mapping(uint256 => DAO) private _idToDao;\n  mapping (uint256 => mapping(address => bool)) private daoMembers;\n  event Received(address, uint);\n\n  constructor() {\n    _marketOwner = payable(msg.sender);\n  }\n\n  \n  struct DEVICE {\n    address nftContract;\n    uint256 tokenId;\n    address payable seller;\n    address payable owner;\n    uint price;\n    string desc_uri; \n    bool listed;\n    uint256 marketPlaceId;\n  }\n\n  function makeDevice(address _nftContract, uint256 _tokenId,uint256 _price,string memory _desc_uri,bool listed) public payable nonReentrant {\n\n\n    address  _owner = msg.sender;\n    address  _seller = msg.sender;\n\n    _deviceCount.increment();\n\n    _idToDevice[_deviceCount.current()] = DEVICE(\n      _nftContract,\n      _tokenId,\n      payable(_seller), \n      payable(_owner),\n      _price,\n      _desc_uri,\n      listed,\n      _deviceCount.current()\n    );\n\n    if(listed){\n      IERC721(_nftContract).transferFrom( msg.sender,address(this),_tokenId);\n      _owner = address(this);\n      emit DeviceListed();\n    }else{\n      emit DeviceSold(msg.sender);\n    }\n\n  } \n\n  function getListedDevices() public view returns (DEVICE[] memory) {\n    uint256 deviceCount = _deviceCount.current();\n    uint256 listedDevices = 0;\n\n    for (uint i = 0; i < deviceCount; i++) {\n      if (_idToDevice[i + 1].listed) {\n        listedDevices++;\n      }\n    }\n\n\n    DEVICE[] memory devices = new DEVICE[](listedDevices);\n    uint devicesIndex = 0;\n    for (uint i = 0; i < deviceCount; i++) {\n      if (_idToDevice[i + 1].listed) {\n        devices[devicesIndex] = _idToDevice[i + 1];\n        devicesIndex++;\n      }\n    }\n    return devices;\n  }\n\n function buyDevice(address _nftContract, uint256 _tokenId) public payable nonReentrant {\n    DEVICE storage device = _idToDevice[_tokenId];\n    require(msg.value >= device.price, \"Not enough ether to cover asking price\");\n\n    address payable buyer = payable(msg.sender);\n    payable(device.seller).transfer(msg.value);\n    IERC721(_nftContract).transferFrom(address(this), buyer, device.tokenId);\n    device.owner = buyer;\n    device.listed = false;\n\n    emit DeviceSold(buyer);\n  }\n\n\n\n  function getMyDevices() public view returns (DEVICE[] memory) {\n    uint deviceCount = _deviceCount.current();\n    uint myDevicesCount = 0;\n    for (uint i = 0; i < deviceCount; i++) {\n      if (_idToDevice[i + 1].owner == msg.sender) {\n        myDevicesCount++;\n      }\n    }\n\n    DEVICE[] memory devices = new DEVICE[](myDevicesCount);\n    uint deviceIndex = 0;\n    for (uint i = 0; i < deviceCount; i++) {\n      if (_idToDevice[i + 1].owner == msg.sender) {\n        devices[deviceIndex] = _idToDevice[i + 1];\n        deviceIndex++;\n      }\n    }\n    return devices;\n  }\n\n  struct DAO{\n    address nftContract;\n    uint256 tokenId;\n    string desc_uri;\n    DaoMembers members;\n    uint256 marketPlaceId; \n  }\n\n\n  event DaoJoined (\n    address indexed member_address,\n    uint256 tokenId\n  );\n\n\n  function makeDao(address _nftContract, uint256 _tokenId,string memory _desc_uri) public payable nonReentrant {\n  \n    _daoCount.increment();\n \n    _idToDao[_daoCount.current()] = DAO(\n      _nftContract,\n      _tokenId,\n      _desc_uri,\n      new DaoMembers(),\n      _daoCount.current()\n    );\n\n    emit NewDAO();\n  } \n\n  function getJoinedDaos() public view returns (DAO[] memory){\n    uint daoCount =  _daoCount.current();\n    uint isMemberCount = 0;\n    for(uint i=0; i < daoCount;i++){\n      if(_idToDao[i+1].members.isMember(msg.sender)){\n        isMemberCount++;\n      }  \n\n    } \n\n\n    uint daoIndex = 0;\n    DAO[] memory daos = new DAO[](isMemberCount);\n    \n\n    for(uint i=0; i < daoCount;i++){\n\n      if(_idToDao[i+1].members.isMember(msg.sender)){\n        daos[daoIndex] = _idToDao[i+1];\n        daoIndex++;\n      }  \n\n    }\n\n    return daos;\n  }\n\n\n  function joinDao(uint256 _tokenId) public payable nonReentrant {\n    _idToDao[_tokenId].members.addMember(msg.sender);\n    emit DaoJoined(msg.sender, _idToDao[_tokenId].tokenId);\n  }\n\n  function registerDeviceToDao(address deviceAddress,uint _tokenId) public {\n    _idToDao[_tokenId].members.addMember(deviceAddress);\n    emit DaoJoined(deviceAddress, _idToDao[_tokenId].tokenId);\n  }\n\n  function getDaoMembers(uint256 _tokenId) public view returns (address[] memory) {\n    return _idToDao[_tokenId].members.getMembers();\n  }\n\n  function getlistedDaos() public view returns (DAO[] memory){\n    \n    uint daoCount =  _daoCount.current();\n    uint isMemberCount = 0;\n    for(uint i=0; i < daoCount;i++){\n      if(_idToDao[i+1].members.isMember(msg.sender)){\n        isMemberCount++;\n      }  \n\n    }  \n\n    uint daoIndex = 0;\n    DAO[] memory daos = new DAO[](daoCount-isMemberCount);\n    \n\n    for(uint i=0; i < daoCount;i++){\n\n      if(!_idToDao[i+1].members.isMember(msg.sender)){\n        daos[daoIndex] = _idToDao[i+1];\n        daoIndex++;\n      }  \n\n    }\n\n    return daos;\n  }\n\n\n  struct NFT {\n    address nftContract;\n    uint256 tokenId;\n    address payable seller;\n    address payable owner;\n    uint256 price;\n    string  desc_uri;\n    bool listed;\n    uint256 marketPlaceId;\n  }\n  event NFTListed(\n    address nftContract,\n    uint256 tokenId,\n    address seller,\n    address owner,\n    uint256 price\n  );\n  event NFTSold(\n    address nftContract,\n    uint256 tokenId,\n    address seller,\n    address indexed owner,\n    uint256 price\n  );\n\n  event NewDAO();\n\n  event DeviceListed();\n\n  event DeviceSold(\n    address indexed owner\n  );\n\n\n\n\n\n  // List the NFT on the marketplace\n  function makeItem(address _nftContract, uint256 _tokenId, uint256 _price, string memory _desc_uri) public payable nonReentrant {\n    require(_price > 0, \"Price must be at least 1 wei\");\n    require(msg.value == LISTING_FEE, \"Not enough ether for listing fee\");\n\n    IERC721(_nftContract).transferFrom(msg.sender, address(this), _tokenId);\n    _marketOwner.transfer(LISTING_FEE);\n    _nftCount.increment();\n\n    _idToNFT[_nftCount.current()] = NFT(\n      _nftContract,\n      _tokenId, \n      payable(msg.sender),\n      payable(address(this)),\n      _price,\n      _desc_uri,\n      true,\n      _nftCount.current()\n    );\n\n    emit NFTListed(_nftContract, _tokenId, msg.sender, address(this), _price);\n  }\n\n  // Buy an NFT\n  function buyNft(address _nftContract, uint256 _tokenId) public payable nonReentrant {\n    NFT storage nft = _idToNFT[_tokenId];\n    require(msg.value >= nft.price, \"Not enough ether to cover asking price\");\n\n    address payable buyer = payable(msg.sender);\n    payable(nft.seller).transfer(msg.value);\n    IERC721(_nftContract).transferFrom(address(this), buyer, nft.tokenId);\n    nft.owner = buyer;\n    nft.listed = false;\n\n    _nftsSold.increment();\n    emit NFTSold(_nftContract, nft.tokenId, nft.seller, buyer, msg.value);\n  }\n\n\n  function getListedNfts() public view returns (NFT[] memory) {\n    uint256 nftCount = _nftCount.current();\n    uint256 unsoldNftsCount = nftCount - _nftsSold.current();\n\n    NFT[] memory nfts = new NFT[](unsoldNftsCount);\n    uint nftsIndex = 0;\n    for (uint i = 0; i < nftCount; i++) {\n      if (_idToNFT[i + 1].listed) {\n        nfts[nftsIndex] = _idToNFT[i + 1];\n        nftsIndex++;\n      }\n    }\n    return nfts;\n  }\n\n  function getMyNfts() public view returns (NFT[] memory) {\n    uint nftCount = _nftCount.current();\n    uint myNftCount = 0;\n    for (uint i = 0; i < nftCount; i++) {\n      if (_idToNFT[i + 1].owner == msg.sender) {\n        myNftCount++;\n      }\n    }\n\n    NFT[] memory nfts = new NFT[](myNftCount);\n    uint nftsIndex = 0;\n    for (uint i = 0; i < nftCount; i++) {\n      if (_idToNFT[i + 1].owner == msg.sender) {\n        nfts[nftsIndex] = _idToNFT[i + 1];\n        nftsIndex++;\n      }\n    }\n    return nfts;\n  }\n\n  function getMyListedNfts() public view returns (NFT[] memory) {\n    uint nftCount = _nftCount.current();\n    uint myListedNftCount = 0;\n    for (uint i = 0; i < nftCount; i++) {\n      if (_idToNFT[i + 1].seller == msg.sender && _idToNFT[i + 1].listed) {\n        myListedNftCount++;\n      }\n    }\n\n    NFT[] memory nfts = new NFT[](myListedNftCount);\n    uint nftsIndex = 0;\n    for (uint i = 0; i < nftCount; i++) {\n      if (_idToNFT[i + 1].seller == msg.sender && _idToNFT[i + 1].listed) {\n        nfts[nftsIndex] = _idToNFT[i + 1];\n        nftsIndex++;\n      }\n    }\n    return nfts;\n  }\n}\n",
  "sourcePath": "contracts/Marketplace.sol",
  "type": "contract"
}