{
  "abi": [
    {
      "inputs": [],
      "stateMutability": "nonpayable",
      "type": "constructor"
    },
    {
      "inputs": [],
      "name": "getTokens",
      "outputs": [],
      "stateMutability": "payable",
      "type": "function"
    },
    {
      "inputs": [],
      "name": "token",
      "outputs": [
        {
          "internalType": "contract ERC20Votes",
          "name": "",
          "type": "address"
        }
      ],
      "stateMutability": "view",
      "type": "function"
    }
  ],
  "bytecode": "608060405234801561001057600080fd5b50606460405161001f906100a3565b6060808252600990820152682220a7afaa27a5a2a760b91b608082015260a06020820181905260029082015261111560f21b60c0820152604081019190915260e001604051809103906000f08015801561007d573d6000803e3d6000fd5b50600080546001600160a01b0319166001600160a01b03929092169190911790556100b0565b6124728061020a83390190565b61014b806100bf6000396000f3fe6080604052600436106100295760003560e01c8063aa6ca8081461002e578063fc0c546a14610038575b600080fd5b610036610074565b005b34801561004457600080fd5b50600054610058906001600160a01b031681565b6040516001600160a01b03909116815260200160405180910390f35b60005460405163a9059cbb60e01b8152336004820152606460248201526001600160a01b039091169063a9059cbb906044016020604051808303816000875af11580156100c5573d6000803e3d6000fd5b505050506040513d601f19601f820116820180604052508101906100e991906100ec565b50565b6000602082840312156100fe57600080fd5b8151801515811461010e57600080fd5b939250505056fea26469706673582212207d9de179e208618231bbecc94072bc041221e4a3dfaf2d46b425be0a83b6b27364736f6c634300081700336101406040523480156200001257600080fd5b50604051620024723803806200247283398101604081905262000035916200078d565b6040805180820190915260018152603160f81b6020820152839081908185600362000061838262000890565b50600462000070828262000890565b5050825160209384012082519284019290922060e08390526101008190524660a0818152604080517f8b73c3c69bb8fe3d512ecc4cf759cc79239f7b179b0ffacaa9a75d522b39400f818901819052818301979097526060810194909452608080850193909352308483018190528151808603909301835260c0948501909152815191909601209052929092526101205250620001109050338262000119565b505050620009b4565b62000125828262000129565b5050565b620001358282620001d5565b6001600160e01b0362000149620002c48216565b1115620001b65760405162461bcd60e51b815260206004820152603060248201527f4552433230566f7465733a20746f74616c20737570706c79207269736b73206f60448201526f766572666c6f77696e6720766f74657360801b60648201526084015b60405180910390fd5b620001cf600962000a02620002ca60201b1783620002e1565b50505050565b6001600160a01b0382166200022d5760405162461bcd60e51b815260206004820152601f60248201527f45524332303a206d696e7420746f20746865207a65726f2061646472657373006044820152606401620001ad565b806002600082825462000241919062000972565b90915550506001600160a01b038216600090815260208190526040812080548392906200027090849062000972565b90915550506040518181526001600160a01b038316906000907fddf252ad1be2c89b69c2b068fc378daa952ba7f163c4a11628f55a4df523b3ef9060200160405180910390a362000125600083836200047d565b60025490565b6000620002d8828462000972565b90505b92915050565b825460009081908015620003335785620002fd60018362000988565b815481106200031057620003106200099e565b60009182526020909120015464010000000090046001600160e01b031662000336565b60005b6001600160e01b031692506200034d83858760201c565b915060008111801562000391575043866200036a60018462000988565b815481106200037d576200037d6200099e565b60009182526020909120015463ffffffff16145b15620003fa57620003a2826200048a565b86620003b060018462000988565b81548110620003c357620003c36200099e565b9060005260206000200160000160046101000a8154816001600160e01b0302191690836001600160e01b031602179055506200046f565b8560405180604001604052806200041743620004f960201b60201c565b63ffffffff1681526020016200042d856200048a565b6001600160e01b0390811690915282546001810184556000938452602093849020835194909301519091166401000000000263ffffffff909316929092179101555b50935093915050565b505050565b6200047883838362000560565b60006001600160e01b03821115620004f55760405162461bcd60e51b815260206004820152602760248201527f53616665436173743a2076616c756520646f65736e27742066697420696e20326044820152663234206269747360c81b6064820152608401620001ad565b5090565b600063ffffffff821115620004f55760405162461bcd60e51b815260206004820152602660248201527f53616665436173743a2076616c756520646f65736e27742066697420696e203360448201526532206269747360d01b6064820152608401620001ad565b6001600160a01b0383811660009081526007602052604080822054858416835291205462000478929182169116838183148015906200059f5750600081115b1562000478576001600160a01b038316156200062c576001600160a01b038316600090815260086020908152604082208291620005e99190620006b7901b62000a0e1785620002e1565b91509150846001600160a01b031660008051602062002452833981519152838360405162000621929190918252602082015260400190565b60405180910390a250505b6001600160a01b0382161562000478576001600160a01b038216600090815260086020908152604082208291620006709190620002ca901b62000a021785620002e1565b91509150836001600160a01b0316600080516020620024528339815191528383604051620006a8929190918252602082015260400190565b60405180910390a25050505050565b6000620002d8828462000988565b634e487b7160e01b600052604160045260246000fd5b600082601f830112620006ed57600080fd5b81516001600160401b03808211156200070a576200070a620006c5565b604051601f8301601f19908116603f01168101908282118183101715620007355762000735620006c5565b81604052838152602092508660208588010111156200075357600080fd5b600091505b8382101562000777578582018301518183018401529082019062000758565b6000602085830101528094505050505092915050565b600080600060608486031215620007a357600080fd5b83516001600160401b0380821115620007bb57600080fd5b620007c987838801620006db565b94506020860151915080821115620007e057600080fd5b50620007ef86828701620006db565b925050604084015190509250925092565b600181811c908216806200081557607f821691505b6020821081036200083657634e487b7160e01b600052602260045260246000fd5b50919050565b601f82111562000478576000816000526020600020601f850160051c81016020861015620008675750805b601f850160051c820191505b81811015620008885782815560010162000873565b505050505050565b81516001600160401b03811115620008ac57620008ac620006c5565b620008c481620008bd845462000800565b846200083c565b602080601f831160018114620008fc5760008415620008e35750858301515b600019600386901b1c1916600185901b17855562000888565b600085815260208120601f198616915b828110156200092d578886015182559484019460019091019084016200090c565b50858210156200094c5787850151600019600388901b60f8161c191681555b5050505050600190811b01905550565b634e487b7160e01b600052601160045260246000fd5b80820180821115620002db57620002db6200095c565b81810381811115620002db57620002db6200095c565b634e487b7160e01b600052603260045260246000fd5b60805160a05160c05160e0516101005161012051611a4e62000a046000396000610e1601526000610e6501526000610e4001526000610d9901526000610dc301526000610ded0152611a4e6000f3fe608060405234801561001057600080fd5b50600436106101425760003560e01c806370a08231116100b8578063a457c2d71161007c578063a457c2d7146102d5578063a9059cbb146102e8578063c3cda520146102fb578063d505accf1461030e578063dd62ed3e14610321578063f1127ed81461033457600080fd5b806370a082311461026b5780637ecebe00146102945780638e539e8c146102a757806395d89b41146102ba5780639ab24eb0146102c257600080fd5b80633644e5151161010a5780633644e515146101bc57806339509351146101c45780633a46b1a8146101d7578063587cde1e146101ea5780635c19a95c1461022e5780636fcfff451461024357600080fd5b806306fdde0314610147578063095ea7b31461016557806318160ddd1461018857806323b872dd1461019a578063313ce567146101ad575b600080fd5b61014f610371565b60405161015c919061170f565b60405180910390f35b61017861017336600461177a565b610403565b604051901515815260200161015c565b6002545b60405190815260200161015c565b6101786101a83660046117a4565b61041d565b6040516012815260200161015c565b61018c610441565b6101786101d236600461177a565b610450565b61018c6101e536600461177a565b610472565b6102166101f83660046117e0565b6001600160a01b039081166000908152600760205260409020541690565b6040516001600160a01b03909116815260200161015c565b61024161023c3660046117e0565b6104f1565b005b6102566102513660046117e0565b6104fe565b60405163ffffffff909116815260200161015c565b61018c6102793660046117e0565b6001600160a01b031660009081526020819052604090205490565b61018c6102a23660046117e0565b610520565b61018c6102b53660046117fb565b61053e565b61014f61059a565b61018c6102d03660046117e0565b6105a9565b6101786102e336600461177a565b610630565b6101786102f636600461177a565b6106ab565b610241610309366004611825565b6106b9565b61024161031c36600461187d565b6107ef565b61018c61032f3660046118e7565b610953565b61034761034236600461191a565b61097e565b60408051825163ffffffff1681526020928301516001600160e01b0316928101929092520161015c565b6060600380546103809061195a565b80601f01602080910402602001604051908101604052809291908181526020018280546103ac9061195a565b80156103f95780601f106103ce576101008083540402835291602001916103f9565b820191906000526020600020905b8154815290600101906020018083116103dc57829003601f168201915b5050505050905090565b600033610411818585610a1a565b60019150505b92915050565b60003361042b858285610b3e565b610436858585610bb8565b506001949350505050565b600061044b610d8c565b905090565b6000336104118185856104638383610953565b61046d91906119a4565b610a1a565b60004382106104c85760405162461bcd60e51b815260206004820152601f60248201527f4552433230566f7465733a20626c6f636b206e6f7420796574206d696e65640060448201526064015b60405180910390fd5b6001600160a01b03831660009081526008602052604090206104ea9083610eb3565b9392505050565b6104fb3382610f70565b50565b6001600160a01b03811660009081526008602052604081205461041790610fe9565b6001600160a01b038116600090815260056020526040812054610417565b600043821061058f5760405162461bcd60e51b815260206004820152601f60248201527f4552433230566f7465733a20626c6f636b206e6f7420796574206d696e65640060448201526064016104bf565b610417600983610eb3565b6060600480546103809061195a565b6001600160a01b038116600090815260086020526040812054801561061d576001600160a01b03831660009081526008602052604090206105eb6001836119b7565b815481106105fb576105fb6119ca565b60009182526020909120015464010000000090046001600160e01b0316610620565b60005b6001600160e01b03169392505050565b6000338161063e8286610953565b90508381101561069e5760405162461bcd60e51b815260206004820152602560248201527f45524332303a2064656372656173656420616c6c6f77616e63652062656c6f77604482015264207a65726f60d81b60648201526084016104bf565b6104368286868403610a1a565b600033610411818585610bb8565b834211156107095760405162461bcd60e51b815260206004820152601d60248201527f4552433230566f7465733a207369676e6174757265206578706972656400000060448201526064016104bf565b604080517fe48329057bfd03d55e49b547132e39cffd9c1820ad7b9d4c5307691425d15adf60208201526001600160a01b0388169181019190915260608101869052608081018590526000906107839061077b9060a00160405160208183030381529060405280519060200120611052565b8585856110a0565b905061078e816110c8565b86146107dc5760405162461bcd60e51b815260206004820152601960248201527f4552433230566f7465733a20696e76616c6964206e6f6e63650000000000000060448201526064016104bf565b6107e68188610f70565b50505050505050565b8342111561083f5760405162461bcd60e51b815260206004820152601d60248201527f45524332305065726d69743a206578706972656420646561646c696e6500000060448201526064016104bf565b60007f6e71edae12b1b97f4d1f60370fef10105fa2faae0126114a169c64845d6126c988888861086e8c6110c8565b6040805160208101969096526001600160a01b0394851690860152929091166060840152608083015260a082015260c0810186905260e00160405160208183030381529060405280519060200120905060006108c982611052565b905060006108d9828787876110a0565b9050896001600160a01b0316816001600160a01b03161461093c5760405162461bcd60e51b815260206004820152601e60248201527f45524332305065726d69743a20696e76616c6964207369676e6174757265000060448201526064016104bf565b6109478a8a8a610a1a565b50505050505050505050565b6001600160a01b03918216600090815260016020908152604080832093909416825291909152205490565b60408051808201909152600080825260208201526001600160a01b0383166000908152600860205260409020805463ffffffff84169081106109c2576109c26119ca565b60009182526020918290206040805180820190915291015463ffffffff8116825264010000000090046001600160e01b0316918101919091529392505050565b60006104ea82846119a4565b60006104ea82846119b7565b6001600160a01b038316610a7c5760405162461bcd60e51b8152602060048201526024808201527f45524332303a20617070726f76652066726f6d20746865207a65726f206164646044820152637265737360e01b60648201526084016104bf565b6001600160a01b038216610add5760405162461bcd60e51b815260206004820152602260248201527f45524332303a20617070726f766520746f20746865207a65726f206164647265604482015261737360f01b60648201526084016104bf565b6001600160a01b0383811660008181526001602090815260408083209487168084529482529182902085905590518481527f8c5be1e5ebec7d5bd14f71427d1e84f3dd0314c0f7b2291e5b200ac8c7c3b925910160405180910390a3505050565b6000610b4a8484610953565b90506000198114610bb25781811015610ba55760405162461bcd60e51b815260206004820152601d60248201527f45524332303a20696e73756666696369656e7420616c6c6f77616e636500000060448201526064016104bf565b610bb28484848403610a1a565b50505050565b6001600160a01b038316610c1c5760405162461bcd60e51b815260206004820152602560248201527f45524332303a207472616e736665722066726f6d20746865207a65726f206164604482015264647265737360d81b60648201526084016104bf565b6001600160a01b038216610c7e5760405162461bcd60e51b815260206004820152602360248201527f45524332303a207472616e7366657220746f20746865207a65726f206164647260448201526265737360e81b60648201526084016104bf565b6001600160a01b03831660009081526020819052604090205481811015610cf65760405162461bcd60e51b815260206004820152602660248201527f45524332303a207472616e7366657220616d6f756e7420657863656564732062604482015265616c616e636560d01b60648201526084016104bf565b6001600160a01b03808516600090815260208190526040808220858503905591851681529081208054849290610d2d9084906119a4565b92505081905550826001600160a01b0316846001600160a01b03167fddf252ad1be2c89b69c2b068fc378daa952ba7f163c4a11628f55a4df523b3ef84604051610d7991815260200190565b60405180910390a3610bb28484846110f5565b6000306001600160a01b037f000000000000000000000000000000000000000000000000000000000000000016148015610de557507f000000000000000000000000000000000000000000000000000000000000000046145b15610e0f57507f000000000000000000000000000000000000000000000000000000000000000090565b50604080517f00000000000000000000000000000000000000000000000000000000000000006020808301919091527f0000000000000000000000000000000000000000000000000000000000000000828401527f000000000000000000000000000000000000000000000000000000000000000060608301524660808301523060a0808401919091528351808403909101815260c0909201909252805191012090565b8154600090815b81811015610f17576000610ece8284611100565b905084868281548110610ee357610ee36119ca565b60009182526020909120015463ffffffff161115610f0357809250610f11565b610f0e8160016119a4565b91505b50610eba565b8115610f5b5784610f296001846119b7565b81548110610f3957610f396119ca565b60009182526020909120015464010000000090046001600160e01b0316610f5e565b60005b6001600160e01b031695945050505050565b6001600160a01b038281166000818152600760208181526040808420805485845282862054949093528787166001600160a01b03198416811790915590519190951694919391928592917f3134e8a2e6d97e929a7e54011ea5485d7d196dd5f0ba4d4ef95803e8e3fc257f9190a4610bb282848361111b565b600063ffffffff82111561104e5760405162461bcd60e51b815260206004820152602660248201527f53616665436173743a2076616c756520646f65736e27742066697420696e203360448201526532206269747360d01b60648201526084016104bf565b5090565b600061041761105f610d8c565b8360405161190160f01b6020820152602281018390526042810182905260009060620160405160208183030381529060405280519060200120905092915050565b60008060006110b187878787611258565b915091506110be81611345565b5095945050505050565b6001600160a01b03811660009081526005602052604090208054600181018255905b50919050565b505050565b6110f08383836114fb565b600061110f60028484186119e0565b6104ea908484166119a4565b816001600160a01b0316836001600160a01b03161415801561113d5750600081115b156110f0576001600160a01b038316156111cb576001600160a01b0383166000908152600860205260408120819061117890610a0e8561152d565b91509150846001600160a01b03167fdec2bacdd2f05b59de34da9b523dff8be42e5e38e818c82fdb0bae774387a72483836040516111c0929190918252602082015260400190565b60405180910390a250505b6001600160a01b038216156110f0576001600160a01b0382166000908152600860205260408120819061120190610a028561152d565b91509150836001600160a01b03167fdec2bacdd2f05b59de34da9b523dff8be42e5e38e818c82fdb0bae774387a7248383604051611249929190918252602082015260400190565b60405180910390a25050505050565b6000807f7fffffffffffffffffffffffffffffff5d576e7357a4501ddfe92f46681b20a083111561128f575060009050600361133c565b8460ff16601b141580156112a757508460ff16601c14155b156112b8575060009050600461133c565b6040805160008082526020820180845289905260ff881692820192909252606081018690526080810185905260019060a0016020604051602081039080840390855afa15801561130c573d6000803e3d6000fd5b5050604051601f1901519150506001600160a01b0381166113355760006001925092505061133c565b9150600090505b94509492505050565b600081600481111561135957611359611a02565b036113615750565b600181600481111561137557611375611a02565b036113c25760405162461bcd60e51b815260206004820152601860248201527f45434453413a20696e76616c6964207369676e6174757265000000000000000060448201526064016104bf565b60028160048111156113d6576113d6611a02565b036114235760405162461bcd60e51b815260206004820152601f60248201527f45434453413a20696e76616c6964207369676e6174757265206c656e6774680060448201526064016104bf565b600381600481111561143757611437611a02565b0361148f5760405162461bcd60e51b815260206004820152602260248201527f45434453413a20696e76616c6964207369676e6174757265202773272076616c604482015261756560f01b60648201526084016104bf565b60048160048111156114a3576114a3611a02565b036104fb5760405162461bcd60e51b815260206004820152602260248201527f45434453413a20696e76616c6964207369676e6174757265202776272076616c604482015261756560f01b60648201526084016104bf565b6001600160a01b038381166000908152600760205260408082205485841683529120546110f09291821691168361111b565b82546000908190801561157857856115466001836119b7565b81548110611556576115566119ca565b60009182526020909120015464010000000090046001600160e01b031661157b565b60005b6001600160e01b0316925061159483858763ffffffff16565b91506000811180156115d2575043866115ae6001846119b7565b815481106115be576115be6119ca565b60009182526020909120015463ffffffff16145b15611632576115e0826116a6565b866115ec6001846119b7565b815481106115fc576115fc6119ca565b9060005260206000200160000160046101000a8154816001600160e01b0302191690836001600160e01b0316021790555061169d565b85604051806040016040528061164743610fe9565b63ffffffff16815260200161165b856116a6565b6001600160e01b0390811690915282546001810184556000938452602093849020835194909301519091166401000000000263ffffffff909316929092179101555b50935093915050565b60006001600160e01b0382111561104e5760405162461bcd60e51b815260206004820152602760248201527f53616665436173743a2076616c756520646f65736e27742066697420696e20326044820152663234206269747360c81b60648201526084016104bf565b60006020808352835180602085015260005b8181101561173d57858101830151858201604001528201611721565b506000604082860101526040601f19601f8301168501019250505092915050565b80356001600160a01b038116811461177557600080fd5b919050565b6000806040838503121561178d57600080fd5b6117968361175e565b946020939093013593505050565b6000806000606084860312156117b957600080fd5b6117c28461175e565b92506117d06020850161175e565b9150604084013590509250925092565b6000602082840312156117f257600080fd5b6104ea8261175e565b60006020828403121561180d57600080fd5b5035919050565b803560ff8116811461177557600080fd5b60008060008060008060c0878903121561183e57600080fd5b6118478761175e565b9550602087013594506040870135935061186360608801611814565b92506080870135915060a087013590509295509295509295565b600080600080600080600060e0888a03121561189857600080fd5b6118a18861175e565b96506118af6020890161175e565b955060408801359450606088013593506118cb60808901611814565b925060a0880135915060c0880135905092959891949750929550565b600080604083850312156118fa57600080fd5b6119038361175e565b91506119116020840161175e565b90509250929050565b6000806040838503121561192d57600080fd5b6119368361175e565b9150602083013563ffffffff8116811461194f57600080fd5b809150509250929050565b600181811c9082168061196e57607f821691505b6020821081036110ea57634e487b7160e01b600052602260045260246000fd5b634e487b7160e01b600052601160045260246000fd5b808201808211156104175761041761198e565b818103818111156104175761041761198e565b634e487b7160e01b600052603260045260246000fd5b6000826119fd57634e487b7160e01b600052601260045260246000fd5b500490565b634e487b7160e01b600052602160045260246000fdfea2646970667358221220e97b9c6fa1ff2a3fd7f0ed1fd0012ad2054dfe71fdce7635b3d3fb581f8a258a64736f6c63430008170033dec2bacdd2f05b59de34da9b523dff8be42e5e38e818c82fdb0bae774387a724",
  "bytecodeSha1": "da39a3ee5e6b4b0d3255bfef95601890afd80709",
  "compiler": {
    "evm_version": "istanbul",
    "optimizer": {
      "enabled": true,
      "runs": 200
    },
    "version": "0.8.23+commit.f704f362"
  },
  "contractName": "VoteTokenProvider",
  "language": "Solidity",
  "natspec": {
    "kind": "dev",
    "methods": {},
    "version": 1
  },
  "opcodes": "PUSH1 0x80 PUSH1 0x40 MSTORE PUSH1 0x4 CALLDATASIZE LT PUSH2 0x29 JUMPI PUSH1 0x0 CALLDATALOAD PUSH1 0xE0 SHR DUP1 PUSH4 0xAA6CA808 EQ PUSH2 0x2E JUMPI DUP1 PUSH4 0xFC0C546A EQ PUSH2 0x38 JUMPI JUMPDEST PUSH1 0x0 DUP1 REVERT JUMPDEST PUSH2 0x36 PUSH2 0x74 JUMP JUMPDEST STOP JUMPDEST CALLVALUE DUP1 ISZERO PUSH2 0x44 JUMPI PUSH1 0x0 DUP1 REVERT JUMPDEST POP PUSH1 0x0 SLOAD PUSH2 0x58 SWAP1 PUSH1 0x1 PUSH1 0x1 PUSH1 0xA0 SHL SUB AND DUP2 JUMP JUMPDEST PUSH1 0x40 MLOAD PUSH1 0x1 PUSH1 0x1 PUSH1 0xA0 SHL SUB SWAP1 SWAP2 AND DUP2 MSTORE PUSH1 0x20 ADD PUSH1 0x40 MLOAD DUP1 SWAP2 SUB SWAP1 RETURN JUMPDEST PUSH1 0x0 SLOAD PUSH1 0x40 MLOAD PUSH4 0xA9059CBB PUSH1 0xE0 SHL DUP2 MSTORE CALLER PUSH1 0x4 DUP3 ADD MSTORE PUSH1 0x64 PUSH1 0x24 DUP3 ADD MSTORE PUSH1 0x1 PUSH1 0x1 PUSH1 0xA0 SHL SUB SWAP1 SWAP2 AND SWAP1 PUSH4 0xA9059CBB SWAP1 PUSH1 0x44 ADD PUSH1 0x20 PUSH1 0x40 MLOAD DUP1 DUP4 SUB DUP2 PUSH1 0x0 DUP8 GAS CALL ISZERO DUP1 ISZERO PUSH2 0xC5 JUMPI RETURNDATASIZE PUSH1 0x0 DUP1 RETURNDATACOPY RETURNDATASIZE PUSH1 0x0 REVERT JUMPDEST POP POP POP POP PUSH1 0x40 MLOAD RETURNDATASIZE PUSH1 0x1F NOT PUSH1 0x1F DUP3 ADD AND DUP3 ADD DUP1 PUSH1 0x40 MSTORE POP DUP2 ADD SWAP1 PUSH2 0xE9 SWAP2 SWAP1 PUSH2 0xEC JUMP JUMPDEST POP JUMP JUMPDEST PUSH1 0x0 PUSH1 0x20 DUP3 DUP5 SUB SLT ISZERO PUSH2 0xFE JUMPI PUSH1 0x0 DUP1 REVERT JUMPDEST DUP2 MLOAD DUP1 ISZERO ISZERO DUP2 EQ PUSH2 0x10E JUMPI PUSH1 0x0 DUP1 REVERT JUMPDEST SWAP4 SWAP3 POP POP POP JUMP INVALID LOG2 PUSH5 0x6970667358 0x22 SLT KECCAK256 PUSH30 0x9DE179E208618231BBECC94072BC041221E4A3DFAF2D46B425BE0A83B6B2 PUSH20 0x64736F6C63430008170033000000000000000000 ",
  "sha1": "cffb42318f8fb46aafd1cf945361dc443709b3ec",
  "source": "// SPDX-License-Identifier: MIT\npragma solidity ^0.8.2;\n\nimport \"@openzeppelin/contracts/token/ERC20/extensions/ERC20Votes.sol\";\n\n \ncontract VoteToken is ERC20Votes {\n\n\n    mapping(address => uint256) balances;\n    mapping(address => mapping (address => uint256)) allowed;\n\n    constructor(\n        string memory _name,\n        string memory _symbol,\n        uint256 _initialSupply\n    ) ERC20(_name, _symbol) ERC20Permit(_name) {\n        _mint(msg.sender, _initialSupply);\n    }\n\n    function _afterTokenTransfer(\n        address from,\n        address to,\n        uint256 amount\n    ) internal override(ERC20Votes) {\n        super._afterTokenTransfer(from, to, amount);\n    }\n\n    function _mint(address to, uint256 amount) internal override(ERC20Votes) {\n        super._mint(to, amount);\n    }\n\n    function _burn(address account, uint256 amount)\n        internal\n        override(ERC20Votes)\n    {\n        super._burn(account, amount);\n    }\n}\n\ncontract VoteTokenProvider {\n    ERC20Votes public token;\n    constructor(){\n        token = new VoteToken(\"DAO_TOKEN\",\"DT\",100);\n    }\n\n    function getTokens() payable public{\n        ERC20Votes(token).transfer(msg.sender,100);\n\n    }\n\n\n}\n",
  "sourcePath": "contracts/VoteToken.sol",
  "type": "contract"
}