{
  "_format": "hh-sol-artifact-1",
  "contractName": "Governance",
  "sourceName": "contracts/governance.sol",
  "abi": [
    {
      "inputs": [
        {
          "internalType": "contract ERC20Votes",
          "name": "_token",
          "type": "address"
        },
        {
          "internalType": "contract TimelockController",
          "name": "_timelock",
          "type": "address"
        },
        {
          "internalType": "uint256",
          "name": "_quorum",
          "type": "uint256"
        },
        {
          "internalType": "uint256",
          "name": "_votingDelay",
          "type": "uint256"
        },
        {
          "internalType": "uint256",
          "name": "_votingPeriod",
          "type": "uint256"
        }
      ],
      "stateMutability": "nonpayable",
      "type": "constructor"
    },
    {
      "inputs": [],
      "name": "Empty",
      "type": "error"
    },
    {
      "inputs": [],
      "name": "InvalidShortString",
      "type": "error"
    },
    {
      "inputs": [
        {
          "internalType": "string",
          "name": "str",
          "type": "string"
        }
      ],
      "name": "StringTooLong",
      "type": "error"
    },
    {
      "anonymous": false,
      "inputs": [],
      "name": "EIP712DomainChanged",
      "type": "event"
    },
    {
      "anonymous": false,
      "inputs": [
        {
          "indexed": false,
          "internalType": "uint256",
          "name": "proposalId",
          "type": "uint256"
        }
      ],
      "name": "ProposalCanceled",
      "type": "event"
    },
    {
      "anonymous": false,
      "inputs": [
        {
          "indexed": false,
          "internalType": "uint256",
          "name": "proposalId",
          "type": "uint256"
        },
        {
          "indexed": false,
          "internalType": "address",
          "name": "proposer",
          "type": "address"
        },
        {
          "indexed": false,
          "internalType": "address[]",
          "name": "targets",
          "type": "address[]"
        },
        {
          "indexed": false,
          "internalType": "uint256[]",
          "name": "values",
          "type": "uint256[]"
        },
        {
          "indexed": false,
          "internalType": "string[]",
          "name": "signatures",
          "type": "string[]"
        },
        {
          "indexed": false,
          "internalType": "bytes[]",
          "name": "calldatas",
          "type": "bytes[]"
        },
        {
          "indexed": false,
          "internalType": "uint256",
          "name": "voteStart",
          "type": "uint256"
        },
        {
          "indexed": false,
          "internalType": "uint256",
          "name": "voteEnd",
          "type": "uint256"
        },
        {
          "indexed": false,
          "internalType": "string",
          "name": "description",
          "type": "string"
        }
      ],
      "name": "ProposalCreated",
      "type": "event"
    },
    {
      "anonymous": false,
      "inputs": [
        {
          "indexed": false,
          "internalType": "uint256",
          "name": "proposalId",
          "type": "uint256"
        }
      ],
      "name": "ProposalExecuted",
      "type": "event"
    },
    {
      "anonymous": false,
      "inputs": [
        {
          "indexed": false,
          "internalType": "uint256",
          "name": "proposalId",
          "type": "uint256"
        },
        {
          "indexed": false,
          "internalType": "uint256",
          "name": "eta",
          "type": "uint256"
        }
      ],
      "name": "ProposalQueued",
      "type": "event"
    },
    {
      "anonymous": false,
      "inputs": [
        {
          "indexed": false,
          "internalType": "uint256",
          "name": "oldQuorumNumerator",
          "type": "uint256"
        },
        {
          "indexed": false,
          "internalType": "uint256",
          "name": "newQuorumNumerator",
          "type": "uint256"
        }
      ],
      "name": "QuorumNumeratorUpdated",
      "type": "event"
    },
    {
      "anonymous": false,
      "inputs": [
        {
          "indexed": false,
          "internalType": "address",
          "name": "oldTimelock",
          "type": "address"
        },
        {
          "indexed": false,
          "internalType": "address",
          "name": "newTimelock",
          "type": "address"
        }
      ],
      "name": "TimelockChange",
      "type": "event"
    },
    {
      "anonymous": false,
      "inputs": [
        {
          "indexed": true,
          "internalType": "address",
          "name": "voter",
          "type": "address"
        },
        {
          "indexed": false,
          "internalType": "uint256",
          "name": "proposalId",
          "type": "uint256"
        },
        {
          "indexed": false,
          "internalType": "uint8",
          "name": "support",
          "type": "uint8"
        },
        {
          "indexed": false,
          "internalType": "uint256",
          "name": "weight",
          "type": "uint256"
        },
        {
          "indexed": false,
          "internalType": "string",
          "name": "reason",
          "type": "string"
        }
      ],
      "name": "VoteCast",
      "type": "event"
    },
    {
      "anonymous": false,
      "inputs": [
        {
          "indexed": true,
          "internalType": "address",
          "name": "voter",
          "type": "address"
        },
        {
          "indexed": false,
          "internalType": "uint256",
          "name": "proposalId",
          "type": "uint256"
        },
        {
          "indexed": false,
          "internalType": "uint8",
          "name": "support",
          "type": "uint8"
        },
        {
          "indexed": false,
          "internalType": "uint256",
          "name": "weight",
          "type": "uint256"
        },
        {
          "indexed": false,
          "internalType": "string",
          "name": "reason",
          "type": "string"
        },
        {
          "indexed": false,
          "internalType": "bytes",
          "name": "params",
          "type": "bytes"
        }
      ],
      "name": "VoteCastWithParams",
      "type": "event"
    },
    {
      "inputs": [],
      "name": "BALLOT_TYPEHASH",
      "outputs": [
        {
          "internalType": "bytes32",
          "name": "",
          "type": "bytes32"
        }
      ],
      "stateMutability": "view",
      "type": "function"
    },
    {
      "inputs": [],
      "name": "CLOCK_MODE",
      "outputs": [
        {
          "internalType": "string",
          "name": "",
          "type": "string"
        }
      ],
      "stateMutability": "view",
      "type": "function"
    },
    {
      "inputs": [],
      "name": "COUNTING_MODE",
      "outputs": [
        {
          "internalType": "string",
          "name": "",
          "type": "string"
        }
      ],
      "stateMutability": "pure",
      "type": "function"
    },
    {
      "inputs": [],
      "name": "EXTENDED_BALLOT_TYPEHASH",
      "outputs": [
        {
          "internalType": "bytes32",
          "name": "",
          "type": "bytes32"
        }
      ],
      "stateMutability": "view",
      "type": "function"
    },
    {
      "inputs": [
        {
          "internalType": "address[]",
          "name": "targets",
          "type": "address[]"
        },
        {
          "internalType": "uint256[]",
          "name": "values",
          "type": "uint256[]"
        },
        {
          "internalType": "bytes[]",
          "name": "calldatas",
          "type": "bytes[]"
        },
        {
          "internalType": "bytes32",
          "name": "descriptionHash",
          "type": "bytes32"
        }
      ],
      "name": "cancel",
      "outputs": [
        {
          "internalType": "uint256",
          "name": "",
          "type": "uint256"
        }
      ],
      "stateMutability": "nonpayable",
      "type": "function"
    },
    {
      "inputs": [
        {
          "internalType": "uint256",
          "name": "proposalId",
          "type": "uint256"
        },
        {
          "internalType": "uint8",
          "name": "support",
          "type": "uint8"
        }
      ],
      "name": "castVote",
      "outputs": [
        {
          "internalType": "uint256",
          "name": "",
          "type": "uint256"
        }
      ],
      "stateMutability": "nonpayable",
      "type": "function"
    },
    {
      "inputs": [
        {
          "internalType": "uint256",
          "name": "proposalId",
          "type": "uint256"
        },
        {
          "internalType": "uint8",
          "name": "support",
          "type": "uint8"
        },
        {
          "internalType": "uint8",
          "name": "v",
          "type": "uint8"
        },
        {
          "internalType": "bytes32",
          "name": "r",
          "type": "bytes32"
        },
        {
          "internalType": "bytes32",
          "name": "s",
          "type": "bytes32"
        }
      ],
      "name": "castVoteBySig",
      "outputs": [
        {
          "internalType": "uint256",
          "name": "",
          "type": "uint256"
        }
      ],
      "stateMutability": "nonpayable",
      "type": "function"
    },
    {
      "inputs": [
        {
          "internalType": "uint256",
          "name": "proposalId",
          "type": "uint256"
        },
        {
          "internalType": "uint8",
          "name": "support",
          "type": "uint8"
        },
        {
          "internalType": "string",
          "name": "reason",
          "type": "string"
        }
      ],
      "name": "castVoteWithReason",
      "outputs": [
        {
          "internalType": "uint256",
          "name": "",
          "type": "uint256"
        }
      ],
      "stateMutability": "nonpayable",
      "type": "function"
    },
    {
      "inputs": [
        {
          "internalType": "uint256",
          "name": "proposalId",
          "type": "uint256"
        },
        {
          "internalType": "uint8",
          "name": "support",
          "type": "uint8"
        },
        {
          "internalType": "string",
          "name": "reason",
          "type": "string"
        },
        {
          "internalType": "bytes",
          "name": "params",
          "type": "bytes"
        }
      ],
      "name": "castVoteWithReasonAndParams",
      "outputs": [
        {
          "internalType": "uint256",
          "name": "",
          "type": "uint256"
        }
      ],
      "stateMutability": "nonpayable",
      "type": "function"
    },
    {
      "inputs": [
        {
          "internalType": "uint256",
          "name": "proposalId",
          "type": "uint256"
        },
        {
          "internalType": "uint8",
          "name": "support",
          "type": "uint8"
        },
        {
          "internalType": "string",
          "name": "reason",
          "type": "string"
        },
        {
          "internalType": "bytes",
          "name": "params",
          "type": "bytes"
        },
        {
          "internalType": "uint8",
          "name": "v",
          "type": "uint8"
        },
        {
          "internalType": "bytes32",
          "name": "r",
          "type": "bytes32"
        },
        {
          "internalType": "bytes32",
          "name": "s",
          "type": "bytes32"
        }
      ],
      "name": "castVoteWithReasonAndParamsBySig",
      "outputs": [
        {
          "internalType": "uint256",
          "name": "",
          "type": "uint256"
        }
      ],
      "stateMutability": "nonpayable",
      "type": "function"
    },
    {
      "inputs": [],
      "name": "clock",
      "outputs": [
        {
          "internalType": "uint48",
          "name": "",
          "type": "uint48"
        }
      ],
      "stateMutability": "view",
      "type": "function"
    },
    {
      "inputs": [],
      "name": "eip712Domain",
      "outputs": [
        {
          "internalType": "bytes1",
          "name": "fields",
          "type": "bytes1"
        },
        {
          "internalType": "string",
          "name": "name",
          "type": "string"
        },
        {
          "internalType": "string",
          "name": "version",
          "type": "string"
        },
        {
          "internalType": "uint256",
          "name": "chainId",
          "type": "uint256"
        },
        {
          "internalType": "address",
          "name": "verifyingContract",
          "type": "address"
        },
        {
          "internalType": "bytes32",
          "name": "salt",
          "type": "bytes32"
        },
        {
          "internalType": "uint256[]",
          "name": "extensions",
          "type": "uint256[]"
        }
      ],
      "stateMutability": "view",
      "type": "function"
    },
    {
      "inputs": [
        {
          "internalType": "address[]",
          "name": "targets",
          "type": "address[]"
        },
        {
          "internalType": "uint256[]",
          "name": "values",
          "type": "uint256[]"
        },
        {
          "internalType": "bytes[]",
          "name": "calldatas",
          "type": "bytes[]"
        },
        {
          "internalType": "bytes32",
          "name": "descriptionHash",
          "type": "bytes32"
        }
      ],
      "name": "execute",
      "outputs": [
        {
          "internalType": "uint256",
          "name": "",
          "type": "uint256"
        }
      ],
      "stateMutability": "payable",
      "type": "function"
    },
    {
      "inputs": [
        {
          "internalType": "address",
          "name": "account",
          "type": "address"
        },
        {
          "internalType": "uint256",
          "name": "blockNumber",
          "type": "uint256"
        }
      ],
      "name": "getVotes",
      "outputs": [
        {
          "internalType": "uint256",
          "name": "",
          "type": "uint256"
        }
      ],
      "stateMutability": "view",
      "type": "function"
    },
    {
      "inputs": [
        {
          "internalType": "address",
          "name": "account",
          "type": "address"
        },
        {
          "internalType": "uint256",
          "name": "timepoint",
          "type": "uint256"
        },
        {
          "internalType": "bytes",
          "name": "params",
          "type": "bytes"
        }
      ],
      "name": "getVotesWithParams",
      "outputs": [
        {
          "internalType": "uint256",
          "name": "",
          "type": "uint256"
        }
      ],
      "stateMutability": "view",
      "type": "function"
    },
    {
      "inputs": [
        {
          "internalType": "uint256",
          "name": "proposalId",
          "type": "uint256"
        },
        {
          "internalType": "address",
          "name": "account",
          "type": "address"
        }
      ],
      "name": "hasVoted",
      "outputs": [
        {
          "internalType": "bool",
          "name": "",
          "type": "bool"
        }
      ],
      "stateMutability": "view",
      "type": "function"
    },
    {
      "inputs": [
        {
          "internalType": "address[]",
          "name": "targets",
          "type": "address[]"
        },
        {
          "internalType": "uint256[]",
          "name": "values",
          "type": "uint256[]"
        },
        {
          "internalType": "bytes[]",
          "name": "calldatas",
          "type": "bytes[]"
        },
        {
          "internalType": "bytes32",
          "name": "descriptionHash",
          "type": "bytes32"
        }
      ],
      "name": "hashProposal",
      "outputs": [
        {
          "internalType": "uint256",
          "name": "",
          "type": "uint256"
        }
      ],
      "stateMutability": "pure",
      "type": "function"
    },
    {
      "inputs": [],
      "name": "name",
      "outputs": [
        {
          "internalType": "string",
          "name": "",
          "type": "string"
        }
      ],
      "stateMutability": "view",
      "type": "function"
    },
    {
      "inputs": [
        {
          "internalType": "address",
          "name": "",
          "type": "address"
        },
        {
          "internalType": "address",
          "name": "",
          "type": "address"
        },
        {
          "internalType": "uint256[]",
          "name": "",
          "type": "uint256[]"
        },
        {
          "internalType": "uint256[]",
          "name": "",
          "type": "uint256[]"
        },
        {
          "internalType": "bytes",
          "name": "",
          "type": "bytes"
        }
      ],
      "name": "onERC1155BatchReceived",
      "outputs": [
        {
          "internalType": "bytes4",
          "name": "",
          "type": "bytes4"
        }
      ],
      "stateMutability": "nonpayable",
      "type": "function"
    },
    {
      "inputs": [
        {
          "internalType": "address",
          "name": "",
          "type": "address"
        },
        {
          "internalType": "address",
          "name": "",
          "type": "address"
        },
        {
          "internalType": "uint256",
          "name": "",
          "type": "uint256"
        },
        {
          "internalType": "uint256",
          "name": "",
          "type": "uint256"
        },
        {
          "internalType": "bytes",
          "name": "",
          "type": "bytes"
        }
      ],
      "name": "onERC1155Received",
      "outputs": [
        {
          "internalType": "bytes4",
          "name": "",
          "type": "bytes4"
        }
      ],
      "stateMutability": "nonpayable",
      "type": "function"
    },
    {
      "inputs": [
        {
          "internalType": "address",
          "name": "",
          "type": "address"
        },
        {
          "internalType": "address",
          "name": "",
          "type": "address"
        },
        {
          "internalType": "uint256",
          "name": "",
          "type": "uint256"
        },
        {
          "internalType": "bytes",
          "name": "",
          "type": "bytes"
        }
      ],
      "name": "onERC721Received",
      "outputs": [
        {
          "internalType": "bytes4",
          "name": "",
          "type": "bytes4"
        }
      ],
      "stateMutability": "nonpayable",
      "type": "function"
    },
    {
      "inputs": [
        {
          "internalType": "uint256",
          "name": "proposalId",
          "type": "uint256"
        }
      ],
      "name": "proposalDeadline",
      "outputs": [
        {
          "internalType": "uint256",
          "name": "",
          "type": "uint256"
        }
      ],
      "stateMutability": "view",
      "type": "function"
    },
    {
      "inputs": [
        {
          "internalType": "uint256",
          "name": "proposalId",
          "type": "uint256"
        }
      ],
      "name": "proposalEta",
      "outputs": [
        {
          "internalType": "uint256",
          "name": "",
          "type": "uint256"
        }
      ],
      "stateMutability": "view",
      "type": "function"
    },
    {
      "inputs": [
        {
          "internalType": "uint256",
          "name": "proposalId",
          "type": "uint256"
        }
      ],
      "name": "proposalProposer",
      "outputs": [
        {
          "internalType": "address",
          "name": "",
          "type": "address"
        }
      ],
      "stateMutability": "view",
      "type": "function"
    },
    {
      "inputs": [
        {
          "internalType": "uint256",
          "name": "proposalId",
          "type": "uint256"
        }
      ],
      "name": "proposalSnapshot",
      "outputs": [
        {
          "internalType": "uint256",
          "name": "",
          "type": "uint256"
        }
      ],
      "stateMutability": "view",
      "type": "function"
    },
    {
      "inputs": [],
      "name": "proposalThreshold",
      "outputs": [
        {
          "internalType": "uint256",
          "name": "",
          "type": "uint256"
        }
      ],
      "stateMutability": "view",
      "type": "function"
    },
    {
      "inputs": [
        {
          "internalType": "uint256",
          "name": "proposalId",
          "type": "uint256"
        }
      ],
      "name": "proposalVotes",
      "outputs": [
        {
          "internalType": "uint256",
          "name": "againstVotes",
          "type": "uint256"
        },
        {
          "internalType": "uint256",
          "name": "forVotes",
          "type": "uint256"
        },
        {
          "internalType": "uint256",
          "name": "abstainVotes",
          "type": "uint256"
        }
      ],
      "stateMutability": "view",
      "type": "function"
    },
    {
      "inputs": [
        {
          "internalType": "address[]",
          "name": "targets",
          "type": "address[]"
        },
        {
          "internalType": "uint256[]",
          "name": "values",
          "type": "uint256[]"
        },
        {
          "internalType": "bytes[]",
          "name": "calldatas",
          "type": "bytes[]"
        },
        {
          "internalType": "string",
          "name": "description",
          "type": "string"
        }
      ],
      "name": "propose",
      "outputs": [
        {
          "internalType": "uint256",
          "name": "",
          "type": "uint256"
        }
      ],
      "stateMutability": "nonpayable",
      "type": "function"
    },
    {
      "inputs": [
        {
          "internalType": "address[]",
          "name": "targets",
          "type": "address[]"
        },
        {
          "internalType": "uint256[]",
          "name": "values",
          "type": "uint256[]"
        },
        {
          "internalType": "bytes[]",
          "name": "calldatas",
          "type": "bytes[]"
        },
        {
          "internalType": "bytes32",
          "name": "descriptionHash",
          "type": "bytes32"
        }
      ],
      "name": "queue",
      "outputs": [
        {
          "internalType": "uint256",
          "name": "",
          "type": "uint256"
        }
      ],
      "stateMutability": "nonpayable",
      "type": "function"
    },
    {
      "inputs": [
        {
          "internalType": "uint256",
          "name": "blockNumber",
          "type": "uint256"
        }
      ],
      "name": "quorum",
      "outputs": [
        {
          "internalType": "uint256",
          "name": "",
          "type": "uint256"
        }
      ],
      "stateMutability": "view",
      "type": "function"
    },
    {
      "inputs": [],
      "name": "quorumDenominator",
      "outputs": [
        {
          "internalType": "uint256",
          "name": "",
          "type": "uint256"
        }
      ],
      "stateMutability": "view",
      "type": "function"
    },
    {
      "inputs": [
        {
          "internalType": "uint256",
          "name": "timepoint",
          "type": "uint256"
        }
      ],
      "name": "quorumNumerator",
      "outputs": [
        {
          "internalType": "uint256",
          "name": "",
          "type": "uint256"
        }
      ],
      "stateMutability": "view",
      "type": "function"
    },
    {
      "inputs": [],
      "name": "quorumNumerator",
      "outputs": [
        {
          "internalType": "uint256",
          "name": "",
          "type": "uint256"
        }
      ],
      "stateMutability": "view",
      "type": "function"
    },
    {
      "inputs": [
        {
          "internalType": "address",
          "name": "target",
          "type": "address"
        },
        {
          "internalType": "uint256",
          "name": "value",
          "type": "uint256"
        },
        {
          "internalType": "bytes",
          "name": "data",
          "type": "bytes"
        }
      ],
      "name": "relay",
      "outputs": [],
      "stateMutability": "payable",
      "type": "function"
    },
    {
      "inputs": [
        {
          "internalType": "uint256",
          "name": "proposalId",
          "type": "uint256"
        }
      ],
      "name": "state",
      "outputs": [
        {
          "internalType": "enum IGovernor.ProposalState",
          "name": "",
          "type": "uint8"
        }
      ],
      "stateMutability": "view",
      "type": "function"
    },
    {
      "inputs": [
        {
          "internalType": "bytes4",
          "name": "interfaceId",
          "type": "bytes4"
        }
      ],
      "name": "supportsInterface",
      "outputs": [
        {
          "internalType": "bool",
          "name": "",
          "type": "bool"
        }
      ],
      "stateMutability": "view",
      "type": "function"
    },
    {
      "inputs": [],
      "name": "timelock",
      "outputs": [
        {
          "internalType": "address",
          "name": "",
          "type": "address"
        }
      ],
      "stateMutability": "view",
      "type": "function"
    },
    {
      "inputs": [],
      "name": "token",
      "outputs": [
        {
          "internalType": "contract IERC5805",
          "name": "",
          "type": "address"
        }
      ],
      "stateMutability": "view",
      "type": "function"
    },
    {
      "inputs": [
        {
          "internalType": "uint256",
          "name": "newQuorumNumerator",
          "type": "uint256"
        }
      ],
      "name": "updateQuorumNumerator",
      "outputs": [],
      "stateMutability": "nonpayable",
      "type": "function"
    },
    {
      "inputs": [
        {
          "internalType": "contract TimelockController",
          "name": "newTimelock",
          "type": "address"
        }
      ],
      "name": "updateTimelock",
      "outputs": [],
      "stateMutability": "nonpayable",
      "type": "function"
    },
    {
      "inputs": [],
      "name": "version",
      "outputs": [
        {
          "internalType": "string",
          "name": "",
          "type": "string"
        }
      ],
      "stateMutability": "view",
      "type": "function"
    },
    {
      "inputs": [],
      "name": "votingDelay",
      "outputs": [
        {
          "internalType": "uint256",
          "name": "",
          "type": "uint256"
        }
      ],
      "stateMutability": "view",
      "type": "function"
    },
    {
      "inputs": [],
      "name": "votingDelay_",
      "outputs": [
        {
          "internalType": "uint256",
          "name": "",
          "type": "uint256"
        }
      ],
      "stateMutability": "view",
      "type": "function"
    },
    {
      "inputs": [],
      "name": "votingPeriod",
      "outputs": [
        {
          "internalType": "uint256",
          "name": "",
          "type": "uint256"
        }
      ],
      "stateMutability": "view",
      "type": "function"
    },
    {
      "inputs": [],
      "name": "votingPeriod_",
      "outputs": [
        {
          "internalType": "uint256",
          "name": "",
          "type": "uint256"
        }
      ],
      "stateMutability": "view",
      "type": "function"
    },
    {
      "stateMutability": "payable",
      "type": "receive"
    }
  ],
  "bytecode": "0x61018060405234801561001157600080fd5b50604051614ec7380380614ec7833981016040819052610030916107a1565b838386604051806020016040528060008152508061005261014360201b60201c565b61005d82600061015e565b6101205261006c81600161015e565b61014052815160208084019190912060e052815190820120610100524660a0526100f960e05161010051604080517f8b73c3c69bb8fe3d512ecc4cf759cc79239f7b179b0ffacaa9a75d522b39400f60208201529081019290925260608201524660808201523060a082015260009060c00160405160208183030381529060405280519060200120905090565b60805250503060c052600261010e8282610893565b50506001600160a01b03166101605261012681610191565b5061013081610305565b50600b91909155600c5550610a0c915050565b6040805180820190915260018152603160f81b602082015290565b600060208351101561017a576101738361036e565b905061018b565b816101858482610893565b5060ff90505b92915050565b60648111156102195760405162461bcd60e51b815260206004820152604360248201527f476f7665726e6f72566f74657351756f72756d4672616374696f6e3a2071756f60448201527f72756d4e756d657261746f72206f7665722071756f72756d44656e6f6d696e616064820152623a37b960e91b608482015260a4015b60405180910390fd5b60006102236103ac565b905080158015906102345750600854155b1561029957604080518082019091526000815260089060208101610257846103d8565b6001600160e01b0390811690915282546001810184556000938452602093849020835194909301519091166401000000000263ffffffff909316929092179101555b6102c66102b46102a7610445565b65ffffffffffff166104b6565b6102bd846103d8565b6008919061051b565b505060408051828152602081018490527f0553476bf02ef2726e8ce5ced78d63e26e602e4a2257b1f559418e24b4633997910160405180910390a15050565b600954604080516001600160a01b03928316815291831660208301527f08f74ea46ef7894f65eabfb5e6e695de773a000b47c529ab559178069b226401910160405180910390a1600980546001600160a01b0319166001600160a01b0392909216919091179055565b600080829050601f81511115610399578260405163305a27a960e01b81526004016102109190610951565b80516103a48261099f565b179392505050565b600854600090156103cf576103c16008610536565b6001600160e01b0316905090565b6007545b905090565b60006001600160e01b038211156104415760405162461bcd60e51b815260206004820152602760248201527f53616665436173743a2076616c756520646f65736e27742066697420696e20326044820152663234206269747360c81b6064820152608401610210565b5090565b6000610160516001600160a01b03166391ddadf46040518163ffffffff1660e01b8152600401602060405180830381865afa9250505080156104a4575060408051601f3d908101601f191682019092526104a1918101906109c3565b60015b6104b1576103d34361057f565b919050565b600063ffffffff8211156104415760405162461bcd60e51b815260206004820152602660248201527f53616665436173743a2076616c756520646f65736e27742066697420696e203360448201526532206269747360d01b6064820152608401610210565b6000806105298585856105e6565b915091505b935093915050565b805460009080156105755761055e836105506001846109eb565b600091825260209091200190565b5464010000000090046001600160e01b0316610578565b60005b9392505050565b600065ffffffffffff8211156104415760405162461bcd60e51b815260206004820152602660248201527f53616665436173743a2076616c756520646f65736e27742066697420696e203460448201526538206269747360d01b6064820152608401610210565b82546000908190801561072f576000610604876105506001856109eb565b60408051808201909152905463ffffffff8082168084526401000000009092046001600160e01b0316602084015291925090871610156106865760405162461bcd60e51b815260206004820152601b60248201527f436865636b706f696e743a2064656372656173696e67206b65797300000000006044820152606401610210565b805163ffffffff8088169116036106cf57846106a7886105506001866109eb565b80546001600160e01b03929092166401000000000263ffffffff90921691909117905561071f565b6040805180820190915263ffffffff80881682526001600160e01b0380881660208085019182528b54600181018d5560008d81529190912094519151909216640100000000029216919091179101555b60200151925083915061052e9050565b50506040805180820190915263ffffffff80851682526001600160e01b0380851660208085019182528854600181018a5560008a81529182209551925190931664010000000002919093161792019190915590508161052e565b6001600160a01b038116811461079e57600080fd5b50565b600080600080600060a086880312156107b957600080fd5b85516107c481610789565b60208701519095506107d581610789565b6040870151606088015160809098015196999198509695945092505050565b634e487b7160e01b600052604160045260246000fd5b600181811c9082168061081e57607f821691505b60208210810361083e57634e487b7160e01b600052602260045260246000fd5b50919050565b601f82111561088e57806000526020600020601f840160051c8101602085101561086b5750805b601f840160051c820191505b8181101561088b5760008155600101610877565b50505b505050565b81516001600160401b038111156108ac576108ac6107f4565b6108c0816108ba845461080a565b84610844565b6020601f8211600181146108f457600083156108dc5750848201515b600019600385901b1c1916600184901b17845561088b565b600084815260208120601f198516915b828110156109245787850151825560209485019460019092019101610904565b50848210156109425786840151600019600387901b60f8161c191681555b50505050600190811b01905550565b602081526000825180602084015260005b8181101561097f5760208186018101516040868401015201610962565b506000604082850101526040601f19601f83011684010191505092915050565b8051602080830151919081101561083e5760001960209190910360031b1b16919050565b6000602082840312156109d557600080fd5b815165ffffffffffff8116811461057857600080fd5b8181038181111561018b57634e487b7160e01b600052601160045260246000fd5b60805160a05160c05160e0516101005161012051610140516101605161443a610a8d6000396000818161099d01528181610f8c0152818161125a015281816122c5015261242801526000611206015260006111dc01526000612625015260006125fd0152600061255801526000612582015260006125ac015261443a6000f3fe6080604052600436106102765760003560e01c806360c4247f1161014f578063b58131b0116100c1578063dd4e2ba51161007a578063dd4e2ba5146108a5578063deaaa7cc146108eb578063eb9019d41461091f578063f23a6e611461093f578063f8ce560a1461096b578063fc0c546a1461098b57600080fd5b8063b58131b0146107db578063bc197c81146107ef578063c01f9e371461081b578063c28bc2fa14610854578063c59057e414610867578063d33219b41461088757600080fd5b806391ddadf41161011357806391ddadf41461072657806397c3d334146107525780639a802a6d14610766578063a7713a7014610786578063a890c9101461079b578063ab58fb8e146107bb57600080fd5b806360c4247f146106885780637b3c71d3146106a85780637d5e81e2146106c857806384b0196e146106e85780638b02dbde1461071057600080fd5b80633932abb1116101e8578063452115d6116101ac578063452115d6146105945780634bf5d7e9146105b4578063544ffc9c146105c957806354fd4d501461061e57806356781388146106485780635f398a141461066857600080fd5b80633932abb1146104d25780633bccf4fd146104e75780633e4f49e61461050757806342024c2b14610534578063438596321461054a57600080fd5b8063143489d01161023a578063143489d01461039c578063150b7a02146103f1578063160cbed7146104355780632656227d146104555780632d63f693146104685780632fe3e2611461049e57600080fd5b806301ffc9a7146102e657806302a251a31461031b578063034201811461033a57806306f3f9e61461035a57806306fdde031461037a57600080fd5b366102e157306102846109bf565b6001600160a01b0316146102df5760405162461bcd60e51b815260206004820152601f60248201527f476f7665726e6f723a206d7573742073656e6420746f206578656375746f720060448201526064015b60405180910390fd5b005b600080fd5b3480156102f257600080fd5b5061030661030136600461349b565b6109d8565b60405190151581526020015b60405180910390f35b34801561032757600080fd5b50600c545b604051908152602001610312565b34801561034657600080fd5b5061032c6103553660046135e9565b6109e9565b34801561036657600080fd5b506102df610375366004613693565b610ae1565b34801561038657600080fd5b5061038f610b6b565b60405161031291906136fc565b3480156103a857600080fd5b506103d96103b7366004613693565b600090815260036020526040902054600160401b90046001600160a01b031690565b6040516001600160a01b039091168152602001610312565b3480156103fd57600080fd5b5061041c61040c366004613724565b630a85bd0160e11b949350505050565b6040516001600160e01b03199091168152602001610312565b34801561044157600080fd5b5061032c6104503660046138f9565b610bfd565b61032c6104633660046138f9565b610dfe565b34801561047457600080fd5b5061032c610483366004613693565b6000908152600360205260409020546001600160401b031690565b3480156104aa57600080fd5b5061032c7fb3b3f3b703cd84ce352197dcff232b1b5d3cfb2025ce47cf04742d0651f1af8881565b3480156104de57600080fd5b50600b5461032c565b3480156104f357600080fd5b5061032c610502366004613992565b610ef0565b34801561051357600080fd5b50610527610522366004613693565b610f66565b60405161031291906139f6565b34801561054057600080fd5b5061032c600c5481565b34801561055657600080fd5b50610306610565366004613a1e565b60008281526006602090815260408083206001600160a01b038516845260030190915290205460ff1692915050565b3480156105a057600080fd5b5061032c6105af3660046138f9565b610f71565b3480156105c057600080fd5b5061038f610f88565b3480156105d557600080fd5b506106036105e4366004613693565b6000908152600660205260409020805460018201546002909201549092565b60408051938452602084019290925290820152606001610312565b34801561062a57600080fd5b506040805180820190915260018152603160f81b602082015261038f565b34801561065457600080fd5b5061032c610663366004613a4e565b61104a565b34801561067457600080fd5b5061032c610683366004613a7a565b611073565b34801561069457600080fd5b5061032c6106a3366004613693565b6110bd565b3480156106b457600080fd5b5061032c6106c3366004613b01565b61116e565b3480156106d457600080fd5b5061032c6106e3366004613b5a565b6111c0565b3480156106f457600080fd5b506106fd6111ce565b6040516103129796959493929190613c5a565b34801561071c57600080fd5b5061032c600b5481565b34801561073257600080fd5b5061073b611256565b60405165ffffffffffff9091168152602001610312565b34801561075e57600080fd5b50606461032c565b34801561077257600080fd5b5061032c610781366004613cbc565b6112df565b34801561079257600080fd5b5061032c6112f6565b3480156107a757600080fd5b506102df6107b6366004613d14565b611320565b3480156107c757600080fd5b5061032c6107d6366004613693565b6113a7565b3480156107e757600080fd5b50600061032c565b3480156107fb57600080fd5b5061041c61080a366004613d31565b63bc197c8160e01b95945050505050565b34801561082757600080fd5b5061032c610836366004613693565b6000908152600360205260409020600101546001600160401b031690565b6102df610862366004613dcf565b611441565b34801561087357600080fd5b5061032c6108823660046138f9565b611550565b34801561089357600080fd5b506009546001600160a01b03166103d9565b3480156108b157600080fd5b506040805180820190915260208082527f737570706f72743d627261766f2671756f72756d3d666f722c6162737461696e9082015261038f565b3480156108f757600080fd5b5061032c7f150214d74d59b7d1e90c73fc22ef3d991dd0a76b046543d4d80ab92d2a50328f81565b34801561092b57600080fd5b5061032c61093a366004613e12565b61158a565b34801561094b57600080fd5b5061041c61095a366004613e3e565b63f23a6e6160e01b95945050505050565b34801561097757600080fd5b5061032c610986366004613693565b611596565b34801561099757600080fd5b506103d97f000000000000000000000000000000000000000000000000000000000000000081565b60006109d36009546001600160a01b031690565b905090565b60006109e3826115a1565b92915050565b600080610a8d610a857fb3b3f3b703cd84ce352197dcff232b1b5d3cfb2025ce47cf04742d0651f1af888c8c8c8c604051610a25929190613e9a565b60405180910390208b80519060200120604051602001610a6a959493929190948552602085019390935260ff9190911660408401526060830152608082015260a00190565b604051602081830303815290604052805190602001206115c6565b8686866115f3565b9050610ad38a828b8b8b8080601f0160208091040260200160405190810160405280939291908181526020018383808284376000920191909152508d9250611611915050565b9a9950505050505050505050565b610ae96109bf565b6001600160a01b0316336001600160a01b031614610b195760405162461bcd60e51b81526004016102d690613eaa565b30610b226109bf565b6001600160a01b031614610b5f5760008036604051610b42929190613e9a565b604051809103902090505b80610b586004611766565b03610b4d57505b610b68816117dc565b50565b606060028054610b7a90613edc565b80601f0160208091040260200160405190810160405280929190818152602001828054610ba690613edc565b8015610bf35780601f10610bc857610100808354040283529160200191610bf3565b820191906000526020600020905b815481529060010190602001808311610bd657829003601f168201915b5050505050905090565b600080610c0c86868686611550565b90506004610c1982610f66565b6007811115610c2a57610c2a6139e0565b14610c475760405162461bcd60e51b81526004016102d690613f16565b6009546040805163793d064960e11b815290516000926001600160a01b03169163f27a0c929160048083019260209291908290030181865afa158015610c91573d6000803e3d6000fd5b505050506040513d601f19601f82011682018060405250810190610cb59190613f57565b60095460405163b1c5f42760e01b81529192506001600160a01b03169063b1c5f42790610cef908a908a908a906000908b90600401614007565b602060405180830381865afa158015610d0c573d6000803e3d6000fd5b505050506040513d601f19601f82011682018060405250810190610d309190613f57565b6000838152600a60205260408082209290925560095491516308f2a0bb60e41b81526001600160a01b0390921691638f2a0bb091610d7b918b918b918b91908b908990600401614055565b600060405180830381600087803b158015610d9557600080fd5b505af1158015610da9573d6000803e3d6000fd5b505050507f9a2e42fd6722813d69113e7d0079d3d940171428df7373df9c7f7617cfda2892828242610ddb91906140c3565b604080519283526020830191909152015b60405180910390a15095945050505050565b600080610e0d86868686611550565b90506000610e1a82610f66565b90506004816007811115610e3057610e306139e0565b1480610e4d57506005816007811115610e4b57610e4b6139e0565b145b610e695760405162461bcd60e51b81526004016102d690613f16565b60008281526003602052604090819020600201805460ff19166001179055517f712ae1383f79ac853f8d882153778e0260ef8f03b504e2866e0593e04d2b291f90610eb79084815260200190565b60405180910390a1610ecc828888888861194a565b610ed982888888886119e4565b610ee682888888886119f1565b5095945050505050565b604080517f150214d74d59b7d1e90c73fc22ef3d991dd0a76b046543d4d80ab92d2a50328f602082015290810186905260ff851660608201526000908190610f3e90610a8590608001610a6a565b9050610f5b87828860405180602001604052806000815250611a2a565b979650505050505050565b60006109e382611a4d565b6000610f7f85858585611b97565b95945050505050565b60607f00000000000000000000000000000000000000000000000000000000000000006001600160a01b0316634bf5d7e96040518163ffffffff1660e01b8152600401600060405180830381865afa92505050801561100957506040513d6000823e601f3d908101601f1916820160405261100691908101906140d6565b60015b611045575060408051808201909152601d81527f6d6f64653d626c6f636b6e756d6265722666726f6d3d64656661756c74000000602082015290565b919050565b60008033905061106b84828560405180602001604052806000815250611a2a565b949350505050565b600080339050610f5b87828888888080601f0160208091040260200160405190810160405280939291908181526020018383808284376000920191909152508a9250611611915050565b6008546000908082036110d4575050600754919050565b600060086110e3600184614143565b815481106110f3576110f3614156565b60009182526020918290206040805180820190915291015463ffffffff8116808352600160201b9091046001600160e01b0316928201929092529150841061114957602001516001600160e01b03169392505050565b61115d61115585611c9e565b600890611d07565b6001600160e01b0316949350505050565b6000803390506111b686828787878080601f016020809104026020016040519081016040528093929190818152602001838380828437600092019190915250611a2a92505050565b9695505050505050565b6000610f7f85858585611dba565b6000606080828080836112017f00000000000000000000000000000000000000000000000000000000000000008361218a565b61122c7f0000000000000000000000000000000000000000000000000000000000000000600161218a565b60408051600080825260208201909252600f60f81b9b939a50919850469750309650945092509050565b60007f00000000000000000000000000000000000000000000000000000000000000006001600160a01b03166391ddadf46040518163ffffffff1660e01b8152600401602060405180830381865afa9250505080156112d2575060408051601f3d908101601f191682019092526112cf9181019061416c565b60015b611045576109d343612235565b60006112ec84848461229c565b90505b9392505050565b600854600090156113195761130b6008612332565b6001600160e01b0316905090565b5060075490565b6113286109bf565b6001600160a01b0316336001600160a01b0316146113585760405162461bcd60e51b81526004016102d690613eaa565b306113616109bf565b6001600160a01b03161461139e5760008036604051611381929190613e9a565b604051809103902090505b806113976004611766565b0361138c57505b610b6881612362565b6009546000828152600a602052604080822054905163d45c443560e01b81526004810191909152909182916001600160a01b039091169063d45c443590602401602060405180830381865afa158015611404573d6000803e3d6000fd5b505050506040513d601f19601f820116820180604052508101906114289190613f57565b90508060011461143857806112ef565b60009392505050565b6114496109bf565b6001600160a01b0316336001600160a01b0316146114795760405162461bcd60e51b81526004016102d690613eaa565b306114826109bf565b6001600160a01b0316146114bf57600080366040516114a2929190613e9a565b604051809103902090505b806114b86004611766565b036114ad57505b600080856001600160a01b03168585856040516114dd929190613e9a565b60006040518083038185875af1925050503d806000811461151a576040519150601f19603f3d011682016040523d82523d6000602084013e61151f565b606091505b509150915061154782826040518060600160405280602881526020016143dd602891396123cb565b50505050505050565b6000848484846040516020016115699493929190614194565b60408051601f19818403018152919052805160209091012095945050505050565b60006112ef83836123e4565b60006109e382612405565b60006001600160e01b03198216636e665ced60e01b14806109e357506109e3826124af565b60006109e36115d361254b565b8360405161190160f01b8152600281019290925260228201526042902090565b600080600061160487878787612676565b91509150610ee681612730565b6000858152600360205260408120600161162a88610f66565b600781111561163b5761163b6139e0565b146116945760405162461bcd60e51b815260206004820152602360248201527f476f7665726e6f723a20766f7465206e6f742063757272656e746c792061637460448201526269766560e81b60648201526084016102d6565b80546000906116ae9088906001600160401b03168661229c565b90506116bd8888888488612875565b835160000361171257866001600160a01b03167fb8e138887d0aa13bab447e82de9d5c1777041ecd21ca36ba824ff1e6c07ddda48988848960405161170594939291906141df565b60405180910390a2610f5b565b866001600160a01b03167fe2babfbac5889a709b63bb7f598b324e08bc5a4fb9ec647fb3cbc9ec07eb87128988848989604051611753959493929190614207565b60405180910390a2979650505050505050565b60006117818254600f81810b600160801b909204900b131590565b1561179f57604051631ed9509560e11b815260040160405180910390fd5b508054600f0b6000818152600180840160205260408220805492905583546001600160801b03191692016001600160801b03169190911790915590565b606481111561185f5760405162461bcd60e51b815260206004820152604360248201527f476f7665726e6f72566f74657351756f72756d4672616374696f6e3a2071756f60448201527f72756d4e756d657261746f72206f7665722071756f72756d44656e6f6d696e616064820152623a37b960e91b608482015260a4016102d6565b60006118696112f6565b9050801580159061187a5750600854155b156118de5760408051808201909152600081526008906020810161189d846129ef565b6001600160e01b039081169091528254600181018455600093845260209384902083519490930151909116600160201b0263ffffffff909316929092179101555b61190b6118f96118ec611256565b65ffffffffffff16611c9e565b611902846129ef565b60089190612a58565b505060408051828152602081018490527f0553476bf02ef2726e8ce5ced78d63e26e602e4a2257b1f559418e24b4633997910160405180910390a15050565b306119536109bf565b6001600160a01b0316146119dd5760005b84518110156119db57306001600160a01b031685828151811061198957611989614156565b60200260200101516001600160a01b0316036119d3576119d38382815181106119b4576119b4614156565b6020026020010151805190602001206004612a7390919063ffffffff16565b600101611964565b505b5050505050565b6119dd8585858585612aaf565b306119fa6109bf565b6001600160a01b0316146119dd57600454600f81810b600160801b909204900b13156119dd5760006004556119dd565b6000610f7f85858585611a4860408051602081019091526000815290565b611611565b600080611a5983612b23565b90506004816007811115611a6f57611a6f6139e0565b14611a7a5792915050565b6000838152600a602052604090205480611a95575092915050565b600954604051632ab0f52960e01b8152600481018390526001600160a01b0390911690632ab0f52990602401602060405180830381865afa158015611ade573d6000803e3d6000fd5b505050506040513d601f19601f82011682018060405250810190611b02919061424d565b15611b11575060079392505050565b600954604051632c258a9f60e11b8152600481018390526001600160a01b039091169063584b153e90602401602060405180830381865afa158015611b5a573d6000803e3d6000fd5b505050506040513d601f19601f82011682018060405250810190611b7e919061424d565b15611b8d575060059392505050565b5060029392505050565b600080611ba686868686611550565b90506000611bb382610f66565b6007811115611bc457611bc46139e0565b14611c115760405162461bcd60e51b815260206004820152601c60248201527f476f7665726e6f723a20746f6f206c61746520746f2063616e63656c0000000060448201526064016102d6565b600081815260036020526040902054600160401b90046001600160a01b0316336001600160a01b031614611c925760405162461bcd60e51b815260206004820152602260248201527f476f7665726e6f723a206f6e6c792070726f706f7365722063616e2063616e63604482015261195b60f21b60648201526084016102d6565b6111b686868686612c63565b600063ffffffff821115611d035760405162461bcd60e51b815260206004820152602660248201527f53616665436173743a2076616c756520646f65736e27742066697420696e203360448201526532206269747360d01b60648201526084016102d6565b5090565b815460009081816005811115611d64576000611d2284612c71565b611d2c9085614143565b60008881526020902090915081015463ffffffff9081169087161015611d5457809150611d62565b611d5f8160016140c3565b92505b505b6000611d7287878585612d59565b90508015611dad57611d9787611d89600184614143565b600091825260209091200190565b54600160201b90046001600160e01b0316610f5b565b6000979650505050505050565b600033611dc78184612db7565b611e135760405162461bcd60e51b815260206004820152601d60248201527f476f7665726e6f723a2070726f706f736572207265737472696374656400000060448201526064016102d6565b6000611e1d611256565b65ffffffffffff1690506000611e388361093a600185614143565b1015611ea05760405162461bcd60e51b815260206004820152603160248201527f476f7665726e6f723a2070726f706f73657220766f7465732062656c6f7720706044820152701c9bdc1bdcd85b081d1a1c995cda1bdb19607a1b60648201526084016102d6565b6000611eb58888888880519060200120611550565b90508651885114611ed85760405162461bcd60e51b81526004016102d69061426f565b8551885114611ef95760405162461bcd60e51b81526004016102d69061426f565b6000885111611f455760405162461bcd60e51b815260206004820152601860248201527711dbdd995c9b9bdc8e88195b5c1d1e481c1c9bdc1bdcd85b60421b60448201526064016102d6565b6000818152600360205260409020546001600160401b031615611fb45760405162461bcd60e51b815260206004820152602160248201527f476f7665726e6f723a2070726f706f73616c20616c72656164792065786973746044820152607360f81b60648201526084016102d6565b6000611fbf600b5490565b611fc990846140c3565b90506000611fd6600c5490565b611fe090836140c3565b90506040518060e00160405280611ff684612ea2565b6001600160401b031681526001600160a01b03871660208201526000604082015260600161202383612ea2565b6001600160401b039081168252600060208084018290526040808501839052606094850183905288835260038252918290208551815492870151878501519186166001600160e01b031990941693909317600160401b6001600160a01b039094168402176001600160e01b0316600160e01b60e09290921c91909102178155938501516080860151908416921c0217600183015560a08301516002909201805460c09094015161ffff1990941692151561ff00191692909217610100931515939093029290921790558a517f7d84a6263ae0d98d3329bd7b46bb4e8d6f98cd35a7adb45c274c8b7fd5ebd5e091859188918e918e918111156121275761212761351e565b60405190808252806020026020018201604052801561215a57816020015b60608152602001906001900390816121455790505b508d88888f604051612174999897969594939291906142b0565b60405180910390a1509098975050505050505050565b606060ff83146121a45761219d83612f0a565b90506109e3565b8180546121b090613edc565b80601f01602080910402602001604051908101604052809291908181526020018280546121dc90613edc565b80156122295780601f106121fe57610100808354040283529160200191612229565b820191906000526020600020905b81548152906001019060200180831161220c57829003601f168201915b505050505090506109e3565b600065ffffffffffff821115611d035760405162461bcd60e51b815260206004820152602660248201527f53616665436173743a2076616c756520646f65736e27742066697420696e203460448201526538206269747360d01b60648201526084016102d6565b604051630748d63560e31b81526001600160a01b038481166004830152602482018490526000917f000000000000000000000000000000000000000000000000000000000000000090911690633a46b1a890604401602060405180830381865afa15801561230e573d6000803e3d6000fd5b505050506040513d601f19601f820116820180604052508101906112ec9190613f57565b805460009080156114385761234c83611d89600184614143565b54600160201b90046001600160e01b03166112ef565b600954604080516001600160a01b03928316815291831660208301527f08f74ea46ef7894f65eabfb5e6e695de773a000b47c529ab559178069b226401910160405180910390a1600980546001600160a01b0319166001600160a01b0392909216919091179055565b606083156123da5750816112ef565b6112ef8383612f49565b60006112ef838361240060408051602081019091526000815290565b61229c565b60006064612412836110bd565b604051632394e7a360e21b8152600481018590527f00000000000000000000000000000000000000000000000000000000000000006001600160a01b031690638e539e8c90602401602060405180830381865afa158015612477573d6000803e3d6000fd5b505050506040513d601f19601f8201168201806040525081019061249b9190613f57565b6124a5919061438d565b6109e391906143ba565b600063288ace0360e11b6318df743f60e31b63bf26d89760e01b6379dd796f60e01b6001600160e01b031986168214806124f557506001600160e01b0319868116908216145b8061250c57506001600160e01b0319868116908516145b8061252757506001600160e01b03198616630271189760e51b145b806111b657506301ffc9a760e01b6001600160e01b03198716149695505050505050565b6000306001600160a01b037f0000000000000000000000000000000000000000000000000000000000000000161480156125a457507f000000000000000000000000000000000000000000000000000000000000000046145b156125ce57507f000000000000000000000000000000000000000000000000000000000000000090565b6109d3604080517f8b73c3c69bb8fe3d512ecc4cf759cc79239f7b179b0ffacaa9a75d522b39400f60208201527f0000000000000000000000000000000000000000000000000000000000000000918101919091527f000000000000000000000000000000000000000000000000000000000000000060608201524660808201523060a082015260009060c00160405160208183030381529060405280519060200120905090565b6000806fa2a8918ca85bafe22016d0b997e4df60600160ff1b038311156126a35750600090506003612727565b6040805160008082526020820180845289905260ff881692820192909252606081018690526080810185905260019060a0016020604051602081039080840390855afa1580156126f7573d6000803e3d6000fd5b5050604051601f1901519150506001600160a01b03811661272057600060019250925050612727565b9150600090505b94509492505050565b6000816004811115612744576127446139e0565b0361274c5750565b6001816004811115612760576127606139e0565b036127a85760405162461bcd60e51b815260206004820152601860248201527745434453413a20696e76616c6964207369676e617475726560401b60448201526064016102d6565b60028160048111156127bc576127bc6139e0565b036128095760405162461bcd60e51b815260206004820152601f60248201527f45434453413a20696e76616c6964207369676e6174757265206c656e6774680060448201526064016102d6565b600381600481111561281d5761281d6139e0565b03610b685760405162461bcd60e51b815260206004820152602260248201527f45434453413a20696e76616c6964207369676e6174757265202773272076616c604482015261756560f01b60648201526084016102d6565b60008581526006602090815260408083206001600160a01b0388168452600381019092529091205460ff16156128fd5760405162461bcd60e51b815260206004820152602760248201527f476f7665726e6f72566f74696e6753696d706c653a20766f746520616c726561604482015266191e4818d85cdd60ca1b60648201526084016102d6565b6001600160a01b03851660009081526003820160205260409020805460ff1916600117905560ff8416612949578281600001600082825461293e91906140c3565b909155506119db9050565b60001960ff851601612969578281600101600082825461293e91906140c3565b60011960ff851601612989578281600201600082825461293e91906140c3565b60405162461bcd60e51b815260206004820152603560248201527f476f7665726e6f72566f74696e6753696d706c653a20696e76616c69642076616044820152746c756520666f7220656e756d20566f74655479706560581b60648201526084016102d6565b60006001600160e01b03821115611d035760405162461bcd60e51b815260206004820152602760248201527f53616665436173743a2076616c756520646f65736e27742066697420696e20326044820152663234206269747360c81b60648201526084016102d6565b600080612a66858585612f73565b915091505b935093915050565b8154600160801b90819004600f0b6000818152600180860160205260409091209390935583546001600160801b03908116939091011602179055565b60095460405163e38335e560e01b81526001600160a01b039091169063e38335e5903490612aea908890889088906000908990600401614007565b6000604051808303818588803b158015612b0357600080fd5b505af1158015612b17573d6000803e3d6000fd5b50505050505050505050565b6000818152600360205260408120600281015460ff1615612b475750600792915050565b6002810154610100900460ff1615612b625750600292915050565b6000838152600360205260408120546001600160401b031690819003612bca5760405162461bcd60e51b815260206004820152601d60248201527f476f7665726e6f723a20756e6b6e6f776e2070726f706f73616c20696400000060448201526064016102d6565b6000612bd4611256565b65ffffffffffff169050808210612bf057506000949350505050565b6000858152600360205260409020600101546001600160401b0316818110612c1e5750600195945050505050565b612c2786613112565b8015612c46575060008681526006602052604090208054600190910154115b15612c575750600495945050505050565b50600395945050505050565b6000610f7f8585858561315e565b600081600003612c8357506000919050565b60006001612c9084613210565b901c6001901b90506001818481612ca957612ca96143a4565b048201901c90506001818481612cc157612cc16143a4565b048201901c90506001818481612cd957612cd96143a4565b048201901c90506001818481612cf157612cf16143a4565b048201901c90506001818481612d0957612d096143a4565b048201901c90506001818481612d2157612d216143a4565b048201901c90506001818481612d3957612d396143a4565b048201901c90506112ef81828581612d5357612d536143a4565b046132a4565b60005b81831015612daf576000612d7084846132ba565b60008781526020902090915063ffffffff86169082015463ffffffff161115612d9b57809250612da9565b612da68160016140c3565b93505b50612d5c565b509392505050565b80516000906034811015612dcf5760019150506109e3565b82810160131901516001600160a01b031981166b046e0e4dee0dee6cae47a60f60a31b14612e02576001925050506109e3565b600080612e10602885614143565b90505b83811015612e8157600080612e47888481518110612e3357612e33614156565b01602001516001600160f81b0319166132d5565b9150915081612e5f57600196505050505050506109e3565b8060ff166004856001600160a01b0316901b1793505050806001019050612e13565b50856001600160a01b0316816001600160a01b031614935050505092915050565b60006001600160401b03821115611d035760405162461bcd60e51b815260206004820152602660248201527f53616665436173743a2076616c756520646f65736e27742066697420696e203660448201526534206269747360d01b60648201526084016102d6565b60606000612f1783613367565b604080516020808252818301909252919250600091906020820181803683375050509182525060208101929092525090565b815115612f595781518083602001fd5b8060405162461bcd60e51b81526004016102d691906136fc565b8254600090819080156130b9576000612f9187611d89600185614143565b60408051808201909152905463ffffffff808216808452600160201b9092046001600160e01b0316602084015291925090871610156130125760405162461bcd60e51b815260206004820152601b60248201527f436865636b706f696e743a2064656372656173696e67206b657973000000000060448201526064016102d6565b805163ffffffff80881691160361305a578461303388611d89600186614143565b80546001600160e01b0392909216600160201b0263ffffffff9092169190911790556130a9565b6040805180820190915263ffffffff80881682526001600160e01b0380881660208085019182528b54600181018d5560008d81529190912094519151909216600160201b029216919091179101555b602001519250839150612a6b9050565b50506040805180820190915263ffffffff80851682526001600160e01b0380851660208085019182528854600181018a5560008a815291822095519251909316600160201b029190931617920191909155905081612a6b565b60008181526006602052604081206002810154600182015461313491906140c3565b600084815260036020526040902054613155906001600160401b0316611596565b11159392505050565b60008061316d8686868661338f565b6000818152600a602052604090205490915015610f7f576009546000828152600a60205260409081902054905163c4d252f560e01b81526001600160a01b039092169163c4d252f5916131c69160040190815260200190565b600060405180830381600087803b1580156131e057600080fd5b505af11580156131f4573d6000803e3d6000fd5b5050506000828152600a60205260408120555095945050505050565b600080608083901c1561322557608092831c92015b604083901c1561323757604092831c92015b602083901c1561324957602092831c92015b601083901c1561325b57601092831c92015b600883901c1561326d57600892831c92015b600483901c1561327f57600492831c92015b600283901c1561329157600292831c92015b600183901c156109e35760010192915050565b60008183106132b357816112ef565b5090919050565b60006132c960028484186143ba565b6112ef908484166140c3565b60008060f883901c602f811180156132f05750603a8160ff16105b1561330557600194602f199091019350915050565b8060ff16604010801561331b575060478160ff16105b15613330576001946036199091019350915050565b8060ff166060108015613346575060678160ff16105b1561335b576001946056199091019350915050565b50600093849350915050565b600060ff8216601f8111156109e357604051632cd44ac360e21b815260040160405180910390fd5b60008061339e86868686611550565b905060006133ab82610f66565b905060028160078111156133c1576133c16139e0565b141580156133e1575060068160078111156133de576133de6139e0565b14155b80156133ff575060078160078111156133fc576133fc6139e0565b14155b61344b5760405162461bcd60e51b815260206004820152601d60248201527f476f7665726e6f723a2070726f706f73616c206e6f742061637469766500000060448201526064016102d6565b60008281526003602052604090819020600201805461ff001916610100179055517f789cf55be980739dad1d0699b93b58e806b51c9d96619bfa8fe0a28abaa7b30c90610dec9084815260200190565b6000602082840312156134ad57600080fd5b81356001600160e01b0319811681146112ef57600080fd5b803560ff8116811461104557600080fd5b60008083601f8401126134e857600080fd5b5081356001600160401b038111156134ff57600080fd5b60208301915083602082850101111561351757600080fd5b9250929050565b634e487b7160e01b600052604160045260246000fd5b604051601f8201601f191681016001600160401b038111828210171561355c5761355c61351e565b604052919050565b60006001600160401b0382111561357d5761357d61351e565b50601f01601f191660200190565b600061359e61359984613564565b613534565b90508281528383830111156135b257600080fd5b828260208301376000602084830101529392505050565b600082601f8301126135da57600080fd5b6112ef8383356020850161358b565b60008060008060008060008060e0898b03121561360557600080fd5b8835975061361560208a016134c5565b965060408901356001600160401b0381111561363057600080fd5b61363c8b828c016134d6565b90975095505060608901356001600160401b0381111561365b57600080fd5b6136678b828c016135c9565b94505061367660808a016134c5565b979a969950949793969295929450505060a08201359160c0013590565b6000602082840312156136a557600080fd5b5035919050565b60005b838110156136c75781810151838201526020016136af565b50506000910152565b600081518084526136e88160208601602086016136ac565b601f01601f19169290920160200192915050565b6020815260006112ef60208301846136d0565b6001600160a01b0381168114610b6857600080fd5b6000806000806080858703121561373a57600080fd5b84356137458161370f565b935060208501356137558161370f565b92506040850135915060608501356001600160401b0381111561377757600080fd5b613783878288016135c9565b91505092959194509250565b60006001600160401b038211156137a8576137a861351e565b5060051b60200190565b600082601f8301126137c357600080fd5b81356137d16135998261378f565b8082825260208201915060208360051b8601019250858311156137f357600080fd5b602085015b83811015610ee657803561380b8161370f565b8352602092830192016137f8565b600082601f83011261382a57600080fd5b81356138386135998261378f565b8082825260208201915060208360051b86010192508583111561385a57600080fd5b602085015b83811015610ee657803583526020928301920161385f565b600082601f83011261388857600080fd5b81356138966135998261378f565b8082825260208201915060208360051b8601019250858311156138b857600080fd5b602085015b83811015610ee65780356001600160401b038111156138db57600080fd5b6138ea886020838a01016135c9565b845250602092830192016138bd565b6000806000806080858703121561390f57600080fd5b84356001600160401b0381111561392557600080fd5b613931878288016137b2565b94505060208501356001600160401b0381111561394d57600080fd5b61395987828801613819565b93505060408501356001600160401b0381111561397557600080fd5b61398187828801613877565b949793965093946060013593505050565b600080600080600060a086880312156139aa57600080fd5b853594506139ba602087016134c5565b93506139c8604087016134c5565b94979396509394606081013594506080013592915050565b634e487b7160e01b600052602160045260246000fd5b6020810160088310613a1857634e487b7160e01b600052602160045260246000fd5b91905290565b60008060408385031215613a3157600080fd5b823591506020830135613a438161370f565b809150509250929050565b60008060408385031215613a6157600080fd5b82359150613a71602084016134c5565b90509250929050565b600080600080600060808688031215613a9257600080fd5b85359450613aa2602087016134c5565b935060408601356001600160401b03811115613abd57600080fd5b613ac9888289016134d6565b90945092505060608601356001600160401b03811115613ae857600080fd5b613af4888289016135c9565b9150509295509295909350565b60008060008060608587031215613b1757600080fd5b84359350613b27602086016134c5565b925060408501356001600160401b03811115613b4257600080fd5b613b4e878288016134d6565b95989497509550505050565b60008060008060808587031215613b7057600080fd5b84356001600160401b03811115613b8657600080fd5b613b92878288016137b2565b94505060208501356001600160401b03811115613bae57600080fd5b613bba87828801613819565b93505060408501356001600160401b03811115613bd657600080fd5b613be287828801613877565b92505060608501356001600160401b03811115613bfe57600080fd5b8501601f81018713613c0f57600080fd5b6137838782356020840161358b565b600081518084526020840193506020830160005b82811015613c50578151865260209586019590910190600101613c32565b5093949350505050565b60ff60f81b8816815260e060208201526000613c7960e08301896136d0565b8281036040840152613c8b81896136d0565b606084018890526001600160a01b038716608085015260a0840186905283810360c08501529050610ad38185613c1e565b600080600060608486031215613cd157600080fd5b8335613cdc8161370f565b92506020840135915060408401356001600160401b03811115613cfe57600080fd5b613d0a868287016135c9565b9150509250925092565b600060208284031215613d2657600080fd5b81356112ef8161370f565b600080600080600060a08688031215613d4957600080fd5b8535613d548161370f565b94506020860135613d648161370f565b935060408601356001600160401b03811115613d7f57600080fd5b613d8b88828901613819565b93505060608601356001600160401b03811115613da757600080fd5b613db388828901613819565b92505060808601356001600160401b03811115613ae857600080fd5b60008060008060608587031215613de557600080fd5b8435613df08161370f565b93506020850135925060408501356001600160401b03811115613b4257600080fd5b60008060408385031215613e2557600080fd5b8235613e308161370f565b946020939093013593505050565b600080600080600060a08688031215613e5657600080fd5b8535613e618161370f565b94506020860135613e718161370f565b9350604086013592506060860135915060808601356001600160401b03811115613ae857600080fd5b8183823760009101908152919050565b602080825260189082015277476f7665726e6f723a206f6e6c79476f7665726e616e636560401b604082015260600190565b600181811c90821680613ef057607f821691505b602082108103613f1057634e487b7160e01b600052602260045260246000fd5b50919050565b60208082526021908201527f476f7665726e6f723a2070726f706f73616c206e6f74207375636365737366756040820152601b60fa1b606082015260800190565b600060208284031215613f6957600080fd5b5051919050565b600081518084526020840193506020830160005b82811015613c505781516001600160a01b0316865260209586019590910190600101613f84565b600082825180855260208501945060208160051b8301016020850160005b83811015613ffb57601f19858403018852613fe58383516136d0565b6020988901989093509190910190600101613fc9565b50909695505050505050565b60a08152600061401a60a0830188613f70565b828103602084015261402c8188613c1e565b905082810360408401526140408187613fab565b60608401959095525050608001529392505050565b60c08152600061406860c0830189613f70565b828103602084015261407a8189613c1e565b9050828103604084015261408e8188613fab565b60608401969096525050608081019290925260a0909101529392505050565b634e487b7160e01b600052601160045260246000fd5b808201808211156109e3576109e36140ad565b6000602082840312156140e857600080fd5b81516001600160401b038111156140fe57600080fd5b8201601f8101841361410f57600080fd5b805161411d61359982613564565b81815285602083850101111561413257600080fd5b610f7f8260208301602086016136ac565b818103818111156109e3576109e36140ad565b634e487b7160e01b600052603260045260246000fd5b60006020828403121561417e57600080fd5b815165ffffffffffff811681146112ef57600080fd5b6080815260006141a76080830187613f70565b82810360208401526141b98187613c1e565b905082810360408401526141cd8186613fab565b91505082606083015295945050505050565b84815260ff841660208201528260408201526080606082015260006111b660808301846136d0565b85815260ff8516602082015283604082015260a06060820152600061422f60a08301856136d0565b828103608084015261424181856136d0565b98975050505050505050565b60006020828403121561425f57600080fd5b815180151581146112ef57600080fd5b60208082526021908201527f476f7665726e6f723a20696e76616c69642070726f706f73616c206c656e67746040820152600d60fb1b606082015260800190565b8981526001600160a01b0389166020820152610120604082018190526000906142db9083018a613f70565b82810360608401526142ed818a613c1e565b9050828103608084015280885180835260208301915060208160051b84010160208b0160005b8381101561434557601f1986840301855261432f8383516136d0565b6020958601959093509190910190600101614313565b505085810360a0870152614359818b613fab565b93505050508560c08401528460e084015282810361010084015261437d81856136d0565b9c9b505050505050505050505050565b80820281158282048414176109e3576109e36140ad565b634e487b7160e01b600052601260045260246000fd5b6000826143d757634e487b7160e01b600052601260045260246000fd5b50049056fe476f7665726e6f723a2072656c617920726576657274656420776974686f7574206d657373616765a2646970667358221220076ceffe40527d88f0dff8d3a1e6ac2b5e6a3a8942fc47f87c781258ce192e4564736f6c634300081c0033",
  "linkReferences": {},
  "deployedLinkReferences": {}
}