{
  "_format": "hh-sol-artifact-1",
  "contractName": "Governance",
  "sourceName": "contracts/governance.sol",
  "abi": [
    {
      "inputs": [
        {
          "internalType": "contract ERC20Votes",
          "name": "_token",
          "type": "address"
        },
        {
          "internalType": "contract TimelockController",
          "name": "_timelock",
          "type": "address"
        },
        {
          "internalType": "uint256",
          "name": "_quorum",
          "type": "uint256"
        },
        {
          "internalType": "uint256",
          "name": "_votingDelay",
          "type": "uint256"
        },
        {
          "internalType": "uint256",
          "name": "_votingPeriod",
          "type": "uint256"
        }
      ],
      "stateMutability": "nonpayable",
      "type": "constructor"
    },
    {
      "inputs": [],
      "name": "Empty",
      "type": "error"
    },
    {
      "inputs": [],
      "name": "InvalidShortString",
      "type": "error"
    },
    {
      "inputs": [
        {
          "internalType": "string",
          "name": "str",
          "type": "string"
        }
      ],
      "name": "StringTooLong",
      "type": "error"
    },
    {
      "anonymous": false,
      "inputs": [
        {
          "indexed": false,
          "internalType": "string",
          "name": "dataInfo",
          "type": "string"
        },
        {
          "indexed": false,
          "internalType": "string",
          "name": "IpfsHash",
          "type": "string"
        },
        {
          "indexed": false,
          "internalType": "string",
          "name": "Timestamp",
          "type": "string"
        },
        {
          "indexed": false,
          "internalType": "uint256",
          "name": "index",
          "type": "uint256"
        }
      ],
      "name": "DataAdded",
      "type": "event"
    },
    {
      "anonymous": false,
      "inputs": [],
      "name": "EIP712DomainChanged",
      "type": "event"
    },
    {
      "anonymous": false,
      "inputs": [
        {
          "indexed": false,
          "internalType": "uint256",
          "name": "proposalId",
          "type": "uint256"
        }
      ],
      "name": "ProposalCanceled",
      "type": "event"
    },
    {
      "anonymous": false,
      "inputs": [
        {
          "indexed": false,
          "internalType": "uint256",
          "name": "proposalId",
          "type": "uint256"
        },
        {
          "indexed": false,
          "internalType": "address",
          "name": "proposer",
          "type": "address"
        },
        {
          "indexed": false,
          "internalType": "address[]",
          "name": "targets",
          "type": "address[]"
        },
        {
          "indexed": false,
          "internalType": "uint256[]",
          "name": "values",
          "type": "uint256[]"
        },
        {
          "indexed": false,
          "internalType": "string[]",
          "name": "signatures",
          "type": "string[]"
        },
        {
          "indexed": false,
          "internalType": "bytes[]",
          "name": "calldatas",
          "type": "bytes[]"
        },
        {
          "indexed": false,
          "internalType": "uint256",
          "name": "voteStart",
          "type": "uint256"
        },
        {
          "indexed": false,
          "internalType": "uint256",
          "name": "voteEnd",
          "type": "uint256"
        },
        {
          "indexed": false,
          "internalType": "string",
          "name": "description",
          "type": "string"
        }
      ],
      "name": "ProposalCreated",
      "type": "event"
    },
    {
      "anonymous": false,
      "inputs": [
        {
          "indexed": false,
          "internalType": "uint256",
          "name": "proposalId",
          "type": "uint256"
        }
      ],
      "name": "ProposalExecuted",
      "type": "event"
    },
    {
      "anonymous": false,
      "inputs": [
        {
          "indexed": false,
          "internalType": "uint256",
          "name": "proposalId",
          "type": "uint256"
        },
        {
          "indexed": false,
          "internalType": "uint256",
          "name": "eta",
          "type": "uint256"
        }
      ],
      "name": "ProposalQueued",
      "type": "event"
    },
    {
      "anonymous": false,
      "inputs": [
        {
          "indexed": false,
          "internalType": "uint256",
          "name": "oldQuorumNumerator",
          "type": "uint256"
        },
        {
          "indexed": false,
          "internalType": "uint256",
          "name": "newQuorumNumerator",
          "type": "uint256"
        }
      ],
      "name": "QuorumNumeratorUpdated",
      "type": "event"
    },
    {
      "anonymous": false,
      "inputs": [
        {
          "indexed": false,
          "internalType": "address",
          "name": "oldTimelock",
          "type": "address"
        },
        {
          "indexed": false,
          "internalType": "address",
          "name": "newTimelock",
          "type": "address"
        }
      ],
      "name": "TimelockChange",
      "type": "event"
    },
    {
      "anonymous": false,
      "inputs": [
        {
          "indexed": true,
          "internalType": "address",
          "name": "voter",
          "type": "address"
        },
        {
          "indexed": false,
          "internalType": "uint256",
          "name": "proposalId",
          "type": "uint256"
        },
        {
          "indexed": false,
          "internalType": "uint8",
          "name": "support",
          "type": "uint8"
        },
        {
          "indexed": false,
          "internalType": "uint256",
          "name": "weight",
          "type": "uint256"
        },
        {
          "indexed": false,
          "internalType": "string",
          "name": "reason",
          "type": "string"
        }
      ],
      "name": "VoteCast",
      "type": "event"
    },
    {
      "anonymous": false,
      "inputs": [
        {
          "indexed": true,
          "internalType": "address",
          "name": "voter",
          "type": "address"
        },
        {
          "indexed": false,
          "internalType": "uint256",
          "name": "proposalId",
          "type": "uint256"
        },
        {
          "indexed": false,
          "internalType": "uint8",
          "name": "support",
          "type": "uint8"
        },
        {
          "indexed": false,
          "internalType": "uint256",
          "name": "weight",
          "type": "uint256"
        },
        {
          "indexed": false,
          "internalType": "string",
          "name": "reason",
          "type": "string"
        },
        {
          "indexed": false,
          "internalType": "bytes",
          "name": "params",
          "type": "bytes"
        }
      ],
      "name": "VoteCastWithParams",
      "type": "event"
    },
    {
      "inputs": [],
      "name": "BALLOT_TYPEHASH",
      "outputs": [
        {
          "internalType": "bytes32",
          "name": "",
          "type": "bytes32"
        }
      ],
      "stateMutability": "view",
      "type": "function"
    },
    {
      "inputs": [],
      "name": "CLOCK_MODE",
      "outputs": [
        {
          "internalType": "string",
          "name": "",
          "type": "string"
        }
      ],
      "stateMutability": "view",
      "type": "function"
    },
    {
      "inputs": [],
      "name": "COUNTING_MODE",
      "outputs": [
        {
          "internalType": "string",
          "name": "",
          "type": "string"
        }
      ],
      "stateMutability": "pure",
      "type": "function"
    },
    {
      "inputs": [],
      "name": "EXTENDED_BALLOT_TYPEHASH",
      "outputs": [
        {
          "internalType": "bytes32",
          "name": "",
          "type": "bytes32"
        }
      ],
      "stateMutability": "view",
      "type": "function"
    },
    {
      "inputs": [
        {
          "internalType": "string",
          "name": "_dataInfo",
          "type": "string"
        },
        {
          "internalType": "string",
          "name": "_IpfsHash",
          "type": "string"
        },
        {
          "internalType": "string",
          "name": "_Timestamp",
          "type": "string"
        }
      ],
      "name": "addData",
      "outputs": [],
      "stateMutability": "nonpayable",
      "type": "function"
    },
    {
      "inputs": [
        {
          "internalType": "address[]",
          "name": "targets",
          "type": "address[]"
        },
        {
          "internalType": "uint256[]",
          "name": "values",
          "type": "uint256[]"
        },
        {
          "internalType": "bytes[]",
          "name": "calldatas",
          "type": "bytes[]"
        },
        {
          "internalType": "bytes32",
          "name": "descriptionHash",
          "type": "bytes32"
        }
      ],
      "name": "cancel",
      "outputs": [
        {
          "internalType": "uint256",
          "name": "",
          "type": "uint256"
        }
      ],
      "stateMutability": "nonpayable",
      "type": "function"
    },
    {
      "inputs": [
        {
          "internalType": "uint256",
          "name": "proposalId",
          "type": "uint256"
        },
        {
          "internalType": "uint8",
          "name": "support",
          "type": "uint8"
        }
      ],
      "name": "castVote",
      "outputs": [
        {
          "internalType": "uint256",
          "name": "",
          "type": "uint256"
        }
      ],
      "stateMutability": "nonpayable",
      "type": "function"
    },
    {
      "inputs": [
        {
          "internalType": "uint256",
          "name": "proposalId",
          "type": "uint256"
        },
        {
          "internalType": "uint8",
          "name": "support",
          "type": "uint8"
        },
        {
          "internalType": "uint8",
          "name": "v",
          "type": "uint8"
        },
        {
          "internalType": "bytes32",
          "name": "r",
          "type": "bytes32"
        },
        {
          "internalType": "bytes32",
          "name": "s",
          "type": "bytes32"
        }
      ],
      "name": "castVoteBySig",
      "outputs": [
        {
          "internalType": "uint256",
          "name": "",
          "type": "uint256"
        }
      ],
      "stateMutability": "nonpayable",
      "type": "function"
    },
    {
      "inputs": [
        {
          "internalType": "uint256",
          "name": "proposalId",
          "type": "uint256"
        },
        {
          "internalType": "uint8",
          "name": "support",
          "type": "uint8"
        },
        {
          "internalType": "string",
          "name": "reason",
          "type": "string"
        }
      ],
      "name": "castVoteWithReason",
      "outputs": [
        {
          "internalType": "uint256",
          "name": "",
          "type": "uint256"
        }
      ],
      "stateMutability": "nonpayable",
      "type": "function"
    },
    {
      "inputs": [
        {
          "internalType": "uint256",
          "name": "proposalId",
          "type": "uint256"
        },
        {
          "internalType": "uint8",
          "name": "support",
          "type": "uint8"
        },
        {
          "internalType": "string",
          "name": "reason",
          "type": "string"
        },
        {
          "internalType": "bytes",
          "name": "params",
          "type": "bytes"
        }
      ],
      "name": "castVoteWithReasonAndParams",
      "outputs": [
        {
          "internalType": "uint256",
          "name": "",
          "type": "uint256"
        }
      ],
      "stateMutability": "nonpayable",
      "type": "function"
    },
    {
      "inputs": [
        {
          "internalType": "uint256",
          "name": "proposalId",
          "type": "uint256"
        },
        {
          "internalType": "uint8",
          "name": "support",
          "type": "uint8"
        },
        {
          "internalType": "string",
          "name": "reason",
          "type": "string"
        },
        {
          "internalType": "bytes",
          "name": "params",
          "type": "bytes"
        },
        {
          "internalType": "uint8",
          "name": "v",
          "type": "uint8"
        },
        {
          "internalType": "bytes32",
          "name": "r",
          "type": "bytes32"
        },
        {
          "internalType": "bytes32",
          "name": "s",
          "type": "bytes32"
        }
      ],
      "name": "castVoteWithReasonAndParamsBySig",
      "outputs": [
        {
          "internalType": "uint256",
          "name": "",
          "type": "uint256"
        }
      ],
      "stateMutability": "nonpayable",
      "type": "function"
    },
    {
      "inputs": [],
      "name": "clock",
      "outputs": [
        {
          "internalType": "uint48",
          "name": "",
          "type": "uint48"
        }
      ],
      "stateMutability": "view",
      "type": "function"
    },
    {
      "inputs": [],
      "name": "eip712Domain",
      "outputs": [
        {
          "internalType": "bytes1",
          "name": "fields",
          "type": "bytes1"
        },
        {
          "internalType": "string",
          "name": "name",
          "type": "string"
        },
        {
          "internalType": "string",
          "name": "version",
          "type": "string"
        },
        {
          "internalType": "uint256",
          "name": "chainId",
          "type": "uint256"
        },
        {
          "internalType": "address",
          "name": "verifyingContract",
          "type": "address"
        },
        {
          "internalType": "bytes32",
          "name": "salt",
          "type": "bytes32"
        },
        {
          "internalType": "uint256[]",
          "name": "extensions",
          "type": "uint256[]"
        }
      ],
      "stateMutability": "view",
      "type": "function"
    },
    {
      "inputs": [
        {
          "internalType": "address[]",
          "name": "targets",
          "type": "address[]"
        },
        {
          "internalType": "uint256[]",
          "name": "values",
          "type": "uint256[]"
        },
        {
          "internalType": "bytes[]",
          "name": "calldatas",
          "type": "bytes[]"
        },
        {
          "internalType": "bytes32",
          "name": "descriptionHash",
          "type": "bytes32"
        }
      ],
      "name": "execute",
      "outputs": [
        {
          "internalType": "uint256",
          "name": "",
          "type": "uint256"
        }
      ],
      "stateMutability": "payable",
      "type": "function"
    },
    {
      "inputs": [],
      "name": "getAllData",
      "outputs": [
        {
          "components": [
            {
              "internalType": "string",
              "name": "dataInfo",
              "type": "string"
            },
            {
              "internalType": "string",
              "name": "IpfsHash",
              "type": "string"
            },
            {
              "internalType": "string",
              "name": "Timestamp",
              "type": "string"
            }
          ],
          "internalType": "struct Governance.DAOData[]",
          "name": "",
          "type": "tuple[]"
        }
      ],
      "stateMutability": "view",
      "type": "function"
    },
    {
      "inputs": [
        {
          "internalType": "uint256",
          "name": "index",
          "type": "uint256"
        }
      ],
      "name": "getData",
      "outputs": [
        {
          "internalType": "string",
          "name": "dataInfo",
          "type": "string"
        },
        {
          "internalType": "string",
          "name": "IpfsHash",
          "type": "string"
        },
        {
          "internalType": "string",
          "name": "Timestamp",
          "type": "string"
        }
      ],
      "stateMutability": "view",
      "type": "function"
    },
    {
      "inputs": [],
      "name": "getDataArrayLength",
      "outputs": [
        {
          "internalType": "uint256",
          "name": "",
          "type": "uint256"
        }
      ],
      "stateMutability": "view",
      "type": "function"
    },
    {
      "inputs": [
        {
          "internalType": "address",
          "name": "account",
          "type": "address"
        },
        {
          "internalType": "uint256",
          "name": "blockNumber",
          "type": "uint256"
        }
      ],
      "name": "getVotes",
      "outputs": [
        {
          "internalType": "uint256",
          "name": "",
          "type": "uint256"
        }
      ],
      "stateMutability": "view",
      "type": "function"
    },
    {
      "inputs": [
        {
          "internalType": "address",
          "name": "account",
          "type": "address"
        },
        {
          "internalType": "uint256",
          "name": "timepoint",
          "type": "uint256"
        },
        {
          "internalType": "bytes",
          "name": "params",
          "type": "bytes"
        }
      ],
      "name": "getVotesWithParams",
      "outputs": [
        {
          "internalType": "uint256",
          "name": "",
          "type": "uint256"
        }
      ],
      "stateMutability": "view",
      "type": "function"
    },
    {
      "inputs": [
        {
          "internalType": "uint256",
          "name": "proposalId",
          "type": "uint256"
        },
        {
          "internalType": "address",
          "name": "account",
          "type": "address"
        }
      ],
      "name": "hasVoted",
      "outputs": [
        {
          "internalType": "bool",
          "name": "",
          "type": "bool"
        }
      ],
      "stateMutability": "view",
      "type": "function"
    },
    {
      "inputs": [
        {
          "internalType": "address[]",
          "name": "targets",
          "type": "address[]"
        },
        {
          "internalType": "uint256[]",
          "name": "values",
          "type": "uint256[]"
        },
        {
          "internalType": "bytes[]",
          "name": "calldatas",
          "type": "bytes[]"
        },
        {
          "internalType": "bytes32",
          "name": "descriptionHash",
          "type": "bytes32"
        }
      ],
      "name": "hashProposal",
      "outputs": [
        {
          "internalType": "uint256",
          "name": "",
          "type": "uint256"
        }
      ],
      "stateMutability": "pure",
      "type": "function"
    },
    {
      "inputs": [],
      "name": "name",
      "outputs": [
        {
          "internalType": "string",
          "name": "",
          "type": "string"
        }
      ],
      "stateMutability": "view",
      "type": "function"
    },
    {
      "inputs": [
        {
          "internalType": "address",
          "name": "",
          "type": "address"
        },
        {
          "internalType": "address",
          "name": "",
          "type": "address"
        },
        {
          "internalType": "uint256[]",
          "name": "",
          "type": "uint256[]"
        },
        {
          "internalType": "uint256[]",
          "name": "",
          "type": "uint256[]"
        },
        {
          "internalType": "bytes",
          "name": "",
          "type": "bytes"
        }
      ],
      "name": "onERC1155BatchReceived",
      "outputs": [
        {
          "internalType": "bytes4",
          "name": "",
          "type": "bytes4"
        }
      ],
      "stateMutability": "nonpayable",
      "type": "function"
    },
    {
      "inputs": [
        {
          "internalType": "address",
          "name": "",
          "type": "address"
        },
        {
          "internalType": "address",
          "name": "",
          "type": "address"
        },
        {
          "internalType": "uint256",
          "name": "",
          "type": "uint256"
        },
        {
          "internalType": "uint256",
          "name": "",
          "type": "uint256"
        },
        {
          "internalType": "bytes",
          "name": "",
          "type": "bytes"
        }
      ],
      "name": "onERC1155Received",
      "outputs": [
        {
          "internalType": "bytes4",
          "name": "",
          "type": "bytes4"
        }
      ],
      "stateMutability": "nonpayable",
      "type": "function"
    },
    {
      "inputs": [
        {
          "internalType": "address",
          "name": "",
          "type": "address"
        },
        {
          "internalType": "address",
          "name": "",
          "type": "address"
        },
        {
          "internalType": "uint256",
          "name": "",
          "type": "uint256"
        },
        {
          "internalType": "bytes",
          "name": "",
          "type": "bytes"
        }
      ],
      "name": "onERC721Received",
      "outputs": [
        {
          "internalType": "bytes4",
          "name": "",
          "type": "bytes4"
        }
      ],
      "stateMutability": "nonpayable",
      "type": "function"
    },
    {
      "inputs": [
        {
          "internalType": "uint256",
          "name": "proposalId",
          "type": "uint256"
        }
      ],
      "name": "proposalDeadline",
      "outputs": [
        {
          "internalType": "uint256",
          "name": "",
          "type": "uint256"
        }
      ],
      "stateMutability": "view",
      "type": "function"
    },
    {
      "inputs": [
        {
          "internalType": "uint256",
          "name": "proposalId",
          "type": "uint256"
        }
      ],
      "name": "proposalEta",
      "outputs": [
        {
          "internalType": "uint256",
          "name": "",
          "type": "uint256"
        }
      ],
      "stateMutability": "view",
      "type": "function"
    },
    {
      "inputs": [
        {
          "internalType": "uint256",
          "name": "proposalId",
          "type": "uint256"
        }
      ],
      "name": "proposalProposer",
      "outputs": [
        {
          "internalType": "address",
          "name": "",
          "type": "address"
        }
      ],
      "stateMutability": "view",
      "type": "function"
    },
    {
      "inputs": [
        {
          "internalType": "uint256",
          "name": "proposalId",
          "type": "uint256"
        }
      ],
      "name": "proposalSnapshot",
      "outputs": [
        {
          "internalType": "uint256",
          "name": "",
          "type": "uint256"
        }
      ],
      "stateMutability": "view",
      "type": "function"
    },
    {
      "inputs": [],
      "name": "proposalThreshold",
      "outputs": [
        {
          "internalType": "uint256",
          "name": "",
          "type": "uint256"
        }
      ],
      "stateMutability": "view",
      "type": "function"
    },
    {
      "inputs": [
        {
          "internalType": "uint256",
          "name": "proposalId",
          "type": "uint256"
        }
      ],
      "name": "proposalVotes",
      "outputs": [
        {
          "internalType": "uint256",
          "name": "againstVotes",
          "type": "uint256"
        },
        {
          "internalType": "uint256",
          "name": "forVotes",
          "type": "uint256"
        },
        {
          "internalType": "uint256",
          "name": "abstainVotes",
          "type": "uint256"
        }
      ],
      "stateMutability": "view",
      "type": "function"
    },
    {
      "inputs": [
        {
          "internalType": "address[]",
          "name": "targets",
          "type": "address[]"
        },
        {
          "internalType": "uint256[]",
          "name": "values",
          "type": "uint256[]"
        },
        {
          "internalType": "bytes[]",
          "name": "calldatas",
          "type": "bytes[]"
        },
        {
          "internalType": "string",
          "name": "description",
          "type": "string"
        }
      ],
      "name": "propose",
      "outputs": [
        {
          "internalType": "uint256",
          "name": "",
          "type": "uint256"
        }
      ],
      "stateMutability": "nonpayable",
      "type": "function"
    },
    {
      "inputs": [
        {
          "internalType": "address[]",
          "name": "targets",
          "type": "address[]"
        },
        {
          "internalType": "uint256[]",
          "name": "values",
          "type": "uint256[]"
        },
        {
          "internalType": "bytes[]",
          "name": "calldatas",
          "type": "bytes[]"
        },
        {
          "internalType": "bytes32",
          "name": "descriptionHash",
          "type": "bytes32"
        }
      ],
      "name": "queue",
      "outputs": [
        {
          "internalType": "uint256",
          "name": "",
          "type": "uint256"
        }
      ],
      "stateMutability": "nonpayable",
      "type": "function"
    },
    {
      "inputs": [
        {
          "internalType": "uint256",
          "name": "blockNumber",
          "type": "uint256"
        }
      ],
      "name": "quorum",
      "outputs": [
        {
          "internalType": "uint256",
          "name": "",
          "type": "uint256"
        }
      ],
      "stateMutability": "view",
      "type": "function"
    },
    {
      "inputs": [],
      "name": "quorumDenominator",
      "outputs": [
        {
          "internalType": "uint256",
          "name": "",
          "type": "uint256"
        }
      ],
      "stateMutability": "view",
      "type": "function"
    },
    {
      "inputs": [
        {
          "internalType": "uint256",
          "name": "timepoint",
          "type": "uint256"
        }
      ],
      "name": "quorumNumerator",
      "outputs": [
        {
          "internalType": "uint256",
          "name": "",
          "type": "uint256"
        }
      ],
      "stateMutability": "view",
      "type": "function"
    },
    {
      "inputs": [],
      "name": "quorumNumerator",
      "outputs": [
        {
          "internalType": "uint256",
          "name": "",
          "type": "uint256"
        }
      ],
      "stateMutability": "view",
      "type": "function"
    },
    {
      "inputs": [
        {
          "internalType": "address",
          "name": "target",
          "type": "address"
        },
        {
          "internalType": "uint256",
          "name": "value",
          "type": "uint256"
        },
        {
          "internalType": "bytes",
          "name": "data",
          "type": "bytes"
        }
      ],
      "name": "relay",
      "outputs": [],
      "stateMutability": "payable",
      "type": "function"
    },
    {
      "inputs": [
        {
          "internalType": "uint256",
          "name": "proposalId",
          "type": "uint256"
        }
      ],
      "name": "state",
      "outputs": [
        {
          "internalType": "enum IGovernor.ProposalState",
          "name": "",
          "type": "uint8"
        }
      ],
      "stateMutability": "view",
      "type": "function"
    },
    {
      "inputs": [
        {
          "internalType": "bytes4",
          "name": "interfaceId",
          "type": "bytes4"
        }
      ],
      "name": "supportsInterface",
      "outputs": [
        {
          "internalType": "bool",
          "name": "",
          "type": "bool"
        }
      ],
      "stateMutability": "view",
      "type": "function"
    },
    {
      "inputs": [],
      "name": "timelock",
      "outputs": [
        {
          "internalType": "address",
          "name": "",
          "type": "address"
        }
      ],
      "stateMutability": "view",
      "type": "function"
    },
    {
      "inputs": [],
      "name": "token",
      "outputs": [
        {
          "internalType": "contract IERC5805",
          "name": "",
          "type": "address"
        }
      ],
      "stateMutability": "view",
      "type": "function"
    },
    {
      "inputs": [
        {
          "internalType": "uint256",
          "name": "newQuorumNumerator",
          "type": "uint256"
        }
      ],
      "name": "updateQuorumNumerator",
      "outputs": [],
      "stateMutability": "nonpayable",
      "type": "function"
    },
    {
      "inputs": [
        {
          "internalType": "contract TimelockController",
          "name": "newTimelock",
          "type": "address"
        }
      ],
      "name": "updateTimelock",
      "outputs": [],
      "stateMutability": "nonpayable",
      "type": "function"
    },
    {
      "inputs": [],
      "name": "version",
      "outputs": [
        {
          "internalType": "string",
          "name": "",
          "type": "string"
        }
      ],
      "stateMutability": "view",
      "type": "function"
    },
    {
      "inputs": [],
      "name": "votingDelay",
      "outputs": [
        {
          "internalType": "uint256",
          "name": "",
          "type": "uint256"
        }
      ],
      "stateMutability": "view",
      "type": "function"
    },
    {
      "inputs": [],
      "name": "votingDelay_",
      "outputs": [
        {
          "internalType": "uint256",
          "name": "",
          "type": "uint256"
        }
      ],
      "stateMutability": "view",
      "type": "function"
    },
    {
      "inputs": [],
      "name": "votingPeriod",
      "outputs": [
        {
          "internalType": "uint256",
          "name": "",
          "type": "uint256"
        }
      ],
      "stateMutability": "view",
      "type": "function"
    },
    {
      "inputs": [],
      "name": "votingPeriod_",
      "outputs": [
        {
          "internalType": "uint256",
          "name": "",
          "type": "uint256"
        }
      ],
      "stateMutability": "view",
      "type": "function"
    },
    {
      "stateMutability": "payable",
      "type": "receive"
    }
  ],
  "bytecode": "0x61018060405234801561001157600080fd5b5060405161573a38038061573a833981016040819052610030916107a1565b838386604051806020016040528060008152508061005261014360201b60201c565b61005d82600061015e565b6101205261006c81600161015e565b61014052815160208084019190912060e052815190820120610100524660a0526100f960e05161010051604080517f8b73c3c69bb8fe3d512ecc4cf759cc79239f7b179b0ffacaa9a75d522b39400f60208201529081019290925260608201524660808201523060a082015260009060c00160405160208183030381529060405280519060200120905090565b60805250503060c052600261010e8282610893565b50506001600160a01b03166101605261012681610191565b5061013081610305565b50600b91909155600c5550610a0c915050565b6040805180820190915260018152603160f81b602082015290565b600060208351101561017a576101738361036e565b905061018b565b816101858482610893565b5060ff90505b92915050565b60648111156102195760405162461bcd60e51b815260206004820152604360248201527f476f7665726e6f72566f74657351756f72756d4672616374696f6e3a2071756f60448201527f72756d4e756d657261746f72206f7665722071756f72756d44656e6f6d696e616064820152623a37b960e91b608482015260a4015b60405180910390fd5b60006102236103ac565b905080158015906102345750600854155b1561029957604080518082019091526000815260089060208101610257846103d8565b6001600160e01b0390811690915282546001810184556000938452602093849020835194909301519091166401000000000263ffffffff909316929092179101555b6102c66102b46102a7610445565b65ffffffffffff166104b6565b6102bd846103d8565b6008919061051b565b505060408051828152602081018490527f0553476bf02ef2726e8ce5ced78d63e26e602e4a2257b1f559418e24b4633997910160405180910390a15050565b600954604080516001600160a01b03928316815291831660208301527f08f74ea46ef7894f65eabfb5e6e695de773a000b47c529ab559178069b226401910160405180910390a1600980546001600160a01b0319166001600160a01b0392909216919091179055565b600080829050601f81511115610399578260405163305a27a960e01b81526004016102109190610951565b80516103a48261099f565b179392505050565b600854600090156103cf576103c16008610536565b6001600160e01b0316905090565b6007545b905090565b60006001600160e01b038211156104415760405162461bcd60e51b815260206004820152602760248201527f53616665436173743a2076616c756520646f65736e27742066697420696e20326044820152663234206269747360c81b6064820152608401610210565b5090565b6000610160516001600160a01b03166391ddadf46040518163ffffffff1660e01b8152600401602060405180830381865afa9250505080156104a4575060408051601f3d908101601f191682019092526104a1918101906109c3565b60015b6104b1576103d34361057f565b919050565b600063ffffffff8211156104415760405162461bcd60e51b815260206004820152602660248201527f53616665436173743a2076616c756520646f65736e27742066697420696e203360448201526532206269747360d01b6064820152608401610210565b6000806105298585856105e6565b915091505b935093915050565b805460009080156105755761055e836105506001846109eb565b600091825260209091200190565b5464010000000090046001600160e01b0316610578565b60005b9392505050565b600065ffffffffffff8211156104415760405162461bcd60e51b815260206004820152602660248201527f53616665436173743a2076616c756520646f65736e27742066697420696e203460448201526538206269747360d01b6064820152608401610210565b82546000908190801561072f576000610604876105506001856109eb565b60408051808201909152905463ffffffff8082168084526401000000009092046001600160e01b0316602084015291925090871610156106865760405162461bcd60e51b815260206004820152601b60248201527f436865636b706f696e743a2064656372656173696e67206b65797300000000006044820152606401610210565b805163ffffffff8088169116036106cf57846106a7886105506001866109eb565b80546001600160e01b03929092166401000000000263ffffffff90921691909117905561071f565b6040805180820190915263ffffffff80881682526001600160e01b0380881660208085019182528b54600181018d5560008d81529190912094519151909216640100000000029216919091179101555b60200151925083915061052e9050565b50506040805180820190915263ffffffff80851682526001600160e01b0380851660208085019182528854600181018a5560008a81529182209551925190931664010000000002919093161792019190915590508161052e565b6001600160a01b038116811461079e57600080fd5b50565b600080600080600060a086880312156107b957600080fd5b85516107c481610789565b60208701519095506107d581610789565b6040870151606088015160809098015196999198509695945092505050565b634e487b7160e01b600052604160045260246000fd5b600181811c9082168061081e57607f821691505b60208210810361083e57634e487b7160e01b600052602260045260246000fd5b50919050565b601f82111561088e57806000526020600020601f840160051c8101602085101561086b5750805b601f840160051c820191505b8181101561088b5760008155600101610877565b50505b505050565b81516001600160401b038111156108ac576108ac6107f4565b6108c0816108ba845461080a565b84610844565b6020601f8211600181146108f457600083156108dc5750848201515b600019600385901b1c1916600184901b17845561088b565b600084815260208120601f198516915b828110156109245787850151825560209485019460019092019101610904565b50848210156109425786840151600019600387901b60f8161c191681555b50505050600190811b01905550565b602081526000825180602084015260005b8181101561097f5760208186018101516040868401015201610962565b506000604082850101526040601f19601f83011684010191505092915050565b8051602080830151919081101561083e5760001960209190910360031b1b16919050565b6000602082840312156109d557600080fd5b815165ffffffffffff8116811461057857600080fd5b8181038181111561018b57634e487b7160e01b600052601160045260246000fd5b60805160a05160c05160e05161010051610120516101405161016051614cad610a8d60003960008181610a530152818161158701528181611855015281816128c00152612a2301526000611801015260006117d701526000612c2001526000612bf801526000612b5301526000612b7d01526000612ba70152614cad6000f3fe6080604052600436106102a25760003560e01c80635f398a1411610165578063b58131b0116100cc578063d33219b411610085578063d33219b41461093d578063dd4e2ba51461095b578063deaaa7cc146109a1578063eb9019d4146109d5578063f23a6e61146109f5578063f8ce560a14610a21578063fc0c546a14610a4157600080fd5b8063b58131b01461087c578063bc197c8114610890578063c01f9e37146108bc578063c28bc2fa146108f5578063c59057e414610908578063ccd17e941461092857600080fd5b806391ddadf41161011e57806391ddadf4146107c757806397c3d334146107f35780639a802a6d14610807578063a7713a7014610827578063a890c9101461083c578063ab58fb8e1461085c57600080fd5b80635f398a141461070957806360c4247f146107295780637b3c71d3146107495780637d5e81e21461076957806384b0196e146107895780638b02dbde146107b157600080fd5b80632fe3e2611161020957806343859632116101c257806343859632146105eb578063452115d6146106355780634bf5d7e914610655578063544ffc9c1461066a57806354fd4d50146106bf57806356781388146106e957600080fd5b80632fe3e2611461051f5780633932abb1146105535780633bccf4fd146105685780633e4aaec9146105885780633e4f49e6146105a857806342024c2b146105d557600080fd5b8063143489d01161025b578063143489d0146103fb578063150b7a0214610450578063160cbed7146104945780632656227d146104b45780632d10fa28146104c75780632d63f693146104e957600080fd5b80630178fe3f1461031257806301ffc9a71461034a57806302a251a31461037a578063034201811461039957806306f3f9e6146103b957806306fdde03146103d957600080fd5b3661030d57306102b0610a75565b6001600160a01b03161461030b5760405162461bcd60e51b815260206004820152601f60248201527f476f7665726e6f723a206d7573742073656e6420746f206578656375746f720060448201526064015b60405180910390fd5b005b600080fd5b34801561031e57600080fd5b5061033261032d366004613a96565b610a8e565b60405161034193929190613aff565b60405180910390f35b34801561035657600080fd5b5061036a610365366004613b38565b610cdd565b6040519015158152602001610341565b34801561038657600080fd5b50600c545b604051908152602001610341565b3480156103a557600080fd5b5061038b6103b4366004613c81565b610cee565b3480156103c557600080fd5b5061030b6103d4366004613a96565b610de6565b3480156103e557600080fd5b506103ee610e70565b6040516103419190613d2b565b34801561040757600080fd5b50610438610416366004613a96565b600090815260036020526040902054600160401b90046001600160a01b031690565b6040516001600160a01b039091168152602001610341565b34801561045c57600080fd5b5061047b61046b366004613d53565b630a85bd0160e11b949350505050565b6040516001600160e01b03199091168152602001610341565b3480156104a057600080fd5b5061038b6104af366004613f28565b610f02565b61038b6104c2366004613f28565b611103565b3480156104d357600080fd5b506104dc6111f5565b6040516103419190613fc1565b3480156104f557600080fd5b5061038b610504366004613a96565b6000908152600360205260409020546001600160401b031690565b34801561052b57600080fd5b5061038b7fb3b3f3b703cd84ce352197dcff232b1b5d3cfb2025ce47cf04742d0651f1af8881565b34801561055f57600080fd5b50600b5461038b565b34801561057457600080fd5b5061038b610583366004614067565b61140a565b34801561059457600080fd5b5061030b6105a33660046140b5565b611480565b3480156105b457600080fd5b506105c86105c3366004613a96565b611561565b604051610341919061415c565b3480156105e157600080fd5b5061038b600c5481565b3480156105f757600080fd5b5061036a610606366004614184565b60008281526006602090815260408083206001600160a01b038516845260030190915290205460ff1692915050565b34801561064157600080fd5b5061038b610650366004613f28565b61156c565b34801561066157600080fd5b506103ee611583565b34801561067657600080fd5b506106a4610685366004613a96565b6000908152600660205260409020805460018201546002909201549092565b60408051938452602084019290925290820152606001610341565b3480156106cb57600080fd5b506040805180820190915260018152603160f81b60208201526103ee565b3480156106f557600080fd5b5061038b6107043660046141b4565b611645565b34801561071557600080fd5b5061038b6107243660046141e0565b61166e565b34801561073557600080fd5b5061038b610744366004613a96565b6116b8565b34801561075557600080fd5b5061038b610764366004614267565b611769565b34801561077557600080fd5b5061038b6107843660046142c0565b6117bb565b34801561079557600080fd5b5061079e6117c9565b60405161034197969594939291906143a0565b3480156107bd57600080fd5b5061038b600b5481565b3480156107d357600080fd5b506107dc611851565b60405165ffffffffffff9091168152602001610341565b3480156107ff57600080fd5b50606461038b565b34801561081357600080fd5b5061038b610822366004614402565b6118da565b34801561083357600080fd5b5061038b6118f1565b34801561084857600080fd5b5061030b610857366004614444565b61191b565b34801561086857600080fd5b5061038b610877366004613a96565b6119a2565b34801561088857600080fd5b50600061038b565b34801561089c57600080fd5b5061047b6108ab366004614461565b63bc197c8160e01b95945050505050565b3480156108c857600080fd5b5061038b6108d7366004613a96565b6000908152600360205260409020600101546001600160401b031690565b61030b6109033660046144ff565b611a3c565b34801561091457600080fd5b5061038b610923366004613f28565b611b4b565b34801561093457600080fd5b50600d5461038b565b34801561094957600080fd5b506009546001600160a01b0316610438565b34801561096757600080fd5b506040805180820190915260208082527f737570706f72743d627261766f2671756f72756d3d666f722c6162737461696e908201526103ee565b3480156109ad57600080fd5b5061038b7f150214d74d59b7d1e90c73fc22ef3d991dd0a76b046543d4d80ab92d2a50328f81565b3480156109e157600080fd5b5061038b6109f0366004614542565b611b85565b348015610a0157600080fd5b5061047b610a1036600461456e565b63f23a6e6160e01b95945050505050565b348015610a2d57600080fd5b5061038b610a3c366004613a96565b611b91565b348015610a4d57600080fd5b506104387f000000000000000000000000000000000000000000000000000000000000000081565b6000610a896009546001600160a01b031690565b905090565b6060806060600d805490508410610add5760405162461bcd60e51b8152602060048201526013602482015272496e646578206f7574206f6620626f756e647360681b6044820152606401610302565b6000600d8581548110610af257610af26145ca565b9060005260206000209060030201604051806060016040529081600082018054610b1b906145e0565b80601f0160208091040260200160405190810160405280929190818152602001828054610b47906145e0565b8015610b945780601f10610b6957610100808354040283529160200191610b94565b820191906000526020600020905b815481529060010190602001808311610b7757829003601f168201915b50505050508152602001600182018054610bad906145e0565b80601f0160208091040260200160405190810160405280929190818152602001828054610bd9906145e0565b8015610c265780601f10610bfb57610100808354040283529160200191610c26565b820191906000526020600020905b815481529060010190602001808311610c0957829003601f168201915b50505050508152602001600282018054610c3f906145e0565b80601f0160208091040260200160405190810160405280929190818152602001828054610c6b906145e0565b8015610cb85780601f10610c8d57610100808354040283529160200191610cb8565b820191906000526020600020905b815481529060010190602001808311610c9b57829003601f168201915b5050509190925250508151602083015160409093015190989297509550909350505050565b6000610ce882611b9c565b92915050565b600080610d92610d8a7fb3b3f3b703cd84ce352197dcff232b1b5d3cfb2025ce47cf04742d0651f1af888c8c8c8c604051610d2a92919061461a565b60405180910390208b80519060200120604051602001610d6f959493929190948552602085019390935260ff9190911660408401526060830152608082015260a00190565b60405160208183030381529060405280519060200120611bc1565b868686611bee565b9050610dd88a828b8b8b8080601f0160208091040260200160405190810160405280939291908181526020018383808284376000920191909152508d9250611c0c915050565b9a9950505050505050505050565b610dee610a75565b6001600160a01b0316336001600160a01b031614610e1e5760405162461bcd60e51b81526004016103029061462a565b30610e27610a75565b6001600160a01b031614610e645760008036604051610e4792919061461a565b604051809103902090505b80610e5d6004611d61565b03610e5257505b610e6d81611dd7565b50565b606060028054610e7f906145e0565b80601f0160208091040260200160405190810160405280929190818152602001828054610eab906145e0565b8015610ef85780601f10610ecd57610100808354040283529160200191610ef8565b820191906000526020600020905b815481529060010190602001808311610edb57829003601f168201915b5050505050905090565b600080610f1186868686611b4b565b90506004610f1e82611561565b6007811115610f2f57610f2f614146565b14610f4c5760405162461bcd60e51b81526004016103029061465c565b6009546040805163793d064960e11b815290516000926001600160a01b03169163f27a0c929160048083019260209291908290030181865afa158015610f96573d6000803e3d6000fd5b505050506040513d601f19601f82011682018060405250810190610fba919061469d565b60095460405163b1c5f42760e01b81529192506001600160a01b03169063b1c5f42790610ff4908a908a908a906000908b9060040161474d565b602060405180830381865afa158015611011573d6000803e3d6000fd5b505050506040513d601f19601f82011682018060405250810190611035919061469d565b6000838152600a60205260408082209290925560095491516308f2a0bb60e41b81526001600160a01b0390921691638f2a0bb091611080918b918b918b91908b90899060040161479b565b600060405180830381600087803b15801561109a57600080fd5b505af11580156110ae573d6000803e3d6000fd5b505050507f9a2e42fd6722813d69113e7d0079d3d940171428df7373df9c7f7617cfda28928282426110e09190614809565b604080519283526020830191909152015b60405180910390a15095945050505050565b60008061111286868686611b4b565b9050600061111f82611561565b9050600481600781111561113557611135614146565b14806111525750600581600781111561115057611150614146565b145b61116e5760405162461bcd60e51b81526004016103029061465c565b60008281526003602052604090819020600201805460ff19166001179055517f712ae1383f79ac853f8d882153778e0260ef8f03b504e2866e0593e04d2b291f906111bc9084815260200190565b60405180910390a16111d18288888888611f45565b6111de8288888888611fdf565b6111eb8288888888611fec565b5095945050505050565b6060600d805480602002602001604051908101604052809291908181526020016000905b82821015611401578382906000526020600020906003020160405180606001604052908160008201805461124c906145e0565b80601f0160208091040260200160405190810160405280929190818152602001828054611278906145e0565b80156112c55780601f1061129a576101008083540402835291602001916112c5565b820191906000526020600020905b8154815290600101906020018083116112a857829003601f168201915b505050505081526020016001820180546112de906145e0565b80601f016020809104026020016040519081016040528092919081815260200182805461130a906145e0565b80156113575780601f1061132c57610100808354040283529160200191611357565b820191906000526020600020905b81548152906001019060200180831161133a57829003601f168201915b50505050508152602001600282018054611370906145e0565b80601f016020809104026020016040519081016040528092919081815260200182805461139c906145e0565b80156113e95780601f106113be576101008083540402835291602001916113e9565b820191906000526020600020905b8154815290600101906020018083116113cc57829003601f168201915b50505050508152505081526020019060010190611219565b50505050905090565b604080517f150214d74d59b7d1e90c73fc22ef3d991dd0a76b046543d4d80ab92d2a50328f602082015290810186905260ff85166060820152600090819061145890610d8a90608001610d6f565b905061147587828860405180602001604052806000815250612025565b979650505050505050565b6040805160608101825284815260208101849052908101829052600d8054600181018255600091909152815182916003027fd7b6990105719101dabeb77144f2a3385c8033acd3af97e9423a695e81ad1eb5019081906114e09082614868565b50602082015160018201906114f59082614868565b506040820151600282019061150a9082614868565b5050507fa8a7960d11c2d394de6b24eca390e1f8e30185d980d85e728052a69f5b0c0fed8484846001600d805490506115439190614926565b6040516115539493929190614939565b60405180910390a150505050565b6000610ce882612048565b600061157a85858585612192565b95945050505050565b60607f00000000000000000000000000000000000000000000000000000000000000006001600160a01b0316634bf5d7e96040518163ffffffff1660e01b8152600401600060405180830381865afa92505050801561160457506040513d6000823e601f3d908101601f191682016040526116019190810190614984565b60015b611640575060408051808201909152601d81527f6d6f64653d626c6f636b6e756d6265722666726f6d3d64656661756c74000000602082015290565b919050565b60008033905061166684828560405180602001604052806000815250612025565b949350505050565b60008033905061147587828888888080601f0160208091040260200160405190810160405280939291908181526020018383808284376000920191909152508a9250611c0c915050565b6008546000908082036116cf575050600754919050565b600060086116de600184614926565b815481106116ee576116ee6145ca565b60009182526020918290206040805180820190915291015463ffffffff8116808352600160201b9091046001600160e01b0316928201929092529150841061174457602001516001600160e01b03169392505050565b61175861175085612299565b600890612302565b6001600160e01b0316949350505050565b6000803390506117b186828787878080601f01602080910402602001604051908101604052809392919081815260200183838082843760009201919091525061202592505050565b9695505050505050565b600061157a858585856123b5565b6000606080828080836117fc7f000000000000000000000000000000000000000000000000000000000000000083612785565b6118277f00000000000000000000000000000000000000000000000000000000000000006001612785565b60408051600080825260208201909252600f60f81b9b939a50919850469750309650945092509050565b60007f00000000000000000000000000000000000000000000000000000000000000006001600160a01b03166391ddadf46040518163ffffffff1660e01b8152600401602060405180830381865afa9250505080156118cd575060408051601f3d908101601f191682019092526118ca918101906149f1565b60015b61164057610a8943612830565b60006118e7848484612897565b90505b9392505050565b6008546000901561191457611906600861292d565b6001600160e01b0316905090565b5060075490565b611923610a75565b6001600160a01b0316336001600160a01b0316146119535760405162461bcd60e51b81526004016103029061462a565b3061195c610a75565b6001600160a01b031614611999576000803660405161197c92919061461a565b604051809103902090505b806119926004611d61565b0361198757505b610e6d8161295d565b6009546000828152600a602052604080822054905163d45c443560e01b81526004810191909152909182916001600160a01b039091169063d45c443590602401602060405180830381865afa1580156119ff573d6000803e3d6000fd5b505050506040513d601f19601f82011682018060405250810190611a23919061469d565b905080600114611a3357806118ea565b60009392505050565b611a44610a75565b6001600160a01b0316336001600160a01b031614611a745760405162461bcd60e51b81526004016103029061462a565b30611a7d610a75565b6001600160a01b031614611aba5760008036604051611a9d92919061461a565b604051809103902090505b80611ab36004611d61565b03611aa857505b600080856001600160a01b0316858585604051611ad892919061461a565b60006040518083038185875af1925050503d8060008114611b15576040519150601f19603f3d011682016040523d82523d6000602084013e611b1a565b606091505b5091509150611b428282604051806060016040528060288152602001614c50602891396129c6565b50505050505050565b600084848484604051602001611b649493929190614a19565b60408051601f19818403018152919052805160209091012095945050505050565b60006118ea83836129df565b6000610ce882612a00565b60006001600160e01b03198216636e665ced60e01b1480610ce85750610ce882612aaa565b6000610ce8611bce612b46565b8360405161190160f01b8152600281019290925260228201526042902090565b6000806000611bff87878787612c71565b915091506111eb81612d2b565b60008581526003602052604081206001611c2588611561565b6007811115611c3657611c36614146565b14611c8f5760405162461bcd60e51b815260206004820152602360248201527f476f7665726e6f723a20766f7465206e6f742063757272656e746c792061637460448201526269766560e81b6064820152608401610302565b8054600090611ca99088906001600160401b031686612897565b9050611cb88888888488612e70565b8351600003611d0d57866001600160a01b03167fb8e138887d0aa13bab447e82de9d5c1777041ecd21ca36ba824ff1e6c07ddda489888489604051611d009493929190614a52565b60405180910390a2611475565b866001600160a01b03167fe2babfbac5889a709b63bb7f598b324e08bc5a4fb9ec647fb3cbc9ec07eb87128988848989604051611d4e959493929190614a7a565b60405180910390a2979650505050505050565b6000611d7c8254600f81810b600160801b909204900b131590565b15611d9a57604051631ed9509560e11b815260040160405180910390fd5b508054600f0b6000818152600180840160205260408220805492905583546001600160801b03191692016001600160801b03169190911790915590565b6064811115611e5a5760405162461bcd60e51b815260206004820152604360248201527f476f7665726e6f72566f74657351756f72756d4672616374696f6e3a2071756f60448201527f72756d4e756d657261746f72206f7665722071756f72756d44656e6f6d696e616064820152623a37b960e91b608482015260a401610302565b6000611e646118f1565b90508015801590611e755750600854155b15611ed957604080518082019091526000815260089060208101611e9884612fea565b6001600160e01b039081169091528254600181018455600093845260209384902083519490930151909116600160201b0263ffffffff909316929092179101555b611f06611ef4611ee7611851565b65ffffffffffff16612299565b611efd84612fea565b60089190613053565b505060408051828152602081018490527f0553476bf02ef2726e8ce5ced78d63e26e602e4a2257b1f559418e24b4633997910160405180910390a15050565b30611f4e610a75565b6001600160a01b031614611fd85760005b8451811015611fd657306001600160a01b0316858281518110611f8457611f846145ca565b60200260200101516001600160a01b031603611fce57611fce838281518110611faf57611faf6145ca565b602002602001015180519060200120600461306e90919063ffffffff16565b600101611f5f565b505b5050505050565b611fd885858585856130aa565b30611ff5610a75565b6001600160a01b031614611fd857600454600f81810b600160801b909204900b1315611fd8576000600455611fd8565b600061157a8585858561204360408051602081019091526000815290565b611c0c565b6000806120548361311e565b9050600481600781111561206a5761206a614146565b146120755792915050565b6000838152600a602052604090205480612090575092915050565b600954604051632ab0f52960e01b8152600481018390526001600160a01b0390911690632ab0f52990602401602060405180830381865afa1580156120d9573d6000803e3d6000fd5b505050506040513d601f19601f820116820180604052508101906120fd9190614ac0565b1561210c575060079392505050565b600954604051632c258a9f60e11b8152600481018390526001600160a01b039091169063584b153e90602401602060405180830381865afa158015612155573d6000803e3d6000fd5b505050506040513d601f19601f820116820180604052508101906121799190614ac0565b15612188575060059392505050565b5060029392505050565b6000806121a186868686611b4b565b905060006121ae82611561565b60078111156121bf576121bf614146565b1461220c5760405162461bcd60e51b815260206004820152601c60248201527f476f7665726e6f723a20746f6f206c61746520746f2063616e63656c000000006044820152606401610302565b600081815260036020526040902054600160401b90046001600160a01b0316336001600160a01b03161461228d5760405162461bcd60e51b815260206004820152602260248201527f476f7665726e6f723a206f6e6c792070726f706f7365722063616e2063616e63604482015261195b60f21b6064820152608401610302565b6117b18686868661325e565b600063ffffffff8211156122fe5760405162461bcd60e51b815260206004820152602660248201527f53616665436173743a2076616c756520646f65736e27742066697420696e203360448201526532206269747360d01b6064820152608401610302565b5090565b81546000908181600581111561235f57600061231d8461326c565b6123279085614926565b60008881526020902090915081015463ffffffff908116908716101561234f5780915061235d565b61235a816001614809565b92505b505b600061236d87878585613354565b905080156123a85761239287612384600184614926565b600091825260209091200190565b54600160201b90046001600160e01b0316611475565b6000979650505050505050565b6000336123c281846133b2565b61240e5760405162461bcd60e51b815260206004820152601d60248201527f476f7665726e6f723a2070726f706f73657220726573747269637465640000006044820152606401610302565b6000612418611851565b65ffffffffffff1690506000612433836109f0600185614926565b101561249b5760405162461bcd60e51b815260206004820152603160248201527f476f7665726e6f723a2070726f706f73657220766f7465732062656c6f7720706044820152701c9bdc1bdcd85b081d1a1c995cda1bdb19607a1b6064820152608401610302565b60006124b08888888880519060200120611b4b565b905086518851146124d35760405162461bcd60e51b815260040161030290614ae2565b85518851146124f45760405162461bcd60e51b815260040161030290614ae2565b60008851116125405760405162461bcd60e51b815260206004820152601860248201527711dbdd995c9b9bdc8e88195b5c1d1e481c1c9bdc1bdcd85b60421b6044820152606401610302565b6000818152600360205260409020546001600160401b0316156125af5760405162461bcd60e51b815260206004820152602160248201527f476f7665726e6f723a2070726f706f73616c20616c72656164792065786973746044820152607360f81b6064820152608401610302565b60006125ba600b5490565b6125c49084614809565b905060006125d1600c5490565b6125db9083614809565b90506040518060e001604052806125f18461349d565b6001600160401b031681526001600160a01b03871660208201526000604082015260600161261e8361349d565b6001600160401b039081168252600060208084018290526040808501839052606094850183905288835260038252918290208551815492870151878501519186166001600160e01b031990941693909317600160401b6001600160a01b039094168402176001600160e01b0316600160e01b60e09290921c91909102178155938501516080860151908416921c0217600183015560a08301516002909201805460c09094015161ffff1990941692151561ff00191692909217610100931515939093029290921790558a517f7d84a6263ae0d98d3329bd7b46bb4e8d6f98cd35a7adb45c274c8b7fd5ebd5e091859188918e918e9181111561272257612722613bbb565b60405190808252806020026020018201604052801561275557816020015b60608152602001906001900390816127405790505b508d88888f60405161276f99989796959493929190614b23565b60405180910390a1509098975050505050505050565b606060ff831461279f5761279883613505565b9050610ce8565b8180546127ab906145e0565b80601f01602080910402602001604051908101604052809291908181526020018280546127d7906145e0565b80156128245780601f106127f957610100808354040283529160200191612824565b820191906000526020600020905b81548152906001019060200180831161280757829003601f168201915b50505050509050610ce8565b600065ffffffffffff8211156122fe5760405162461bcd60e51b815260206004820152602660248201527f53616665436173743a2076616c756520646f65736e27742066697420696e203460448201526538206269747360d01b6064820152608401610302565b604051630748d63560e31b81526001600160a01b038481166004830152602482018490526000917f000000000000000000000000000000000000000000000000000000000000000090911690633a46b1a890604401602060405180830381865afa158015612909573d6000803e3d6000fd5b505050506040513d601f19601f820116820180604052508101906118e7919061469d565b80546000908015611a335761294783612384600184614926565b54600160201b90046001600160e01b03166118ea565b600954604080516001600160a01b03928316815291831660208301527f08f74ea46ef7894f65eabfb5e6e695de773a000b47c529ab559178069b226401910160405180910390a1600980546001600160a01b0319166001600160a01b0392909216919091179055565b606083156129d55750816118ea565b6118ea8383613544565b60006118ea83836129fb60408051602081019091526000815290565b612897565b60006064612a0d836116b8565b604051632394e7a360e21b8152600481018590527f00000000000000000000000000000000000000000000000000000000000000006001600160a01b031690638e539e8c90602401602060405180830381865afa158015612a72573d6000803e3d6000fd5b505050506040513d601f19601f82011682018060405250810190612a96919061469d565b612aa09190614c00565b610ce89190614c2d565b600063288ace0360e11b6318df743f60e31b63bf26d89760e01b6379dd796f60e01b6001600160e01b03198616821480612af057506001600160e01b0319868116908216145b80612b0757506001600160e01b0319868116908516145b80612b2257506001600160e01b03198616630271189760e51b145b806117b157506301ffc9a760e01b6001600160e01b03198716149695505050505050565b6000306001600160a01b037f000000000000000000000000000000000000000000000000000000000000000016148015612b9f57507f000000000000000000000000000000000000000000000000000000000000000046145b15612bc957507f000000000000000000000000000000000000000000000000000000000000000090565b610a89604080517f8b73c3c69bb8fe3d512ecc4cf759cc79239f7b179b0ffacaa9a75d522b39400f60208201527f0000000000000000000000000000000000000000000000000000000000000000918101919091527f000000000000000000000000000000000000000000000000000000000000000060608201524660808201523060a082015260009060c00160405160208183030381529060405280519060200120905090565b6000806fa2a8918ca85bafe22016d0b997e4df60600160ff1b03831115612c9e5750600090506003612d22565b6040805160008082526020820180845289905260ff881692820192909252606081018690526080810185905260019060a0016020604051602081039080840390855afa158015612cf2573d6000803e3d6000fd5b5050604051601f1901519150506001600160a01b038116612d1b57600060019250925050612d22565b9150600090505b94509492505050565b6000816004811115612d3f57612d3f614146565b03612d475750565b6001816004811115612d5b57612d5b614146565b03612da35760405162461bcd60e51b815260206004820152601860248201527745434453413a20696e76616c6964207369676e617475726560401b6044820152606401610302565b6002816004811115612db757612db7614146565b03612e045760405162461bcd60e51b815260206004820152601f60248201527f45434453413a20696e76616c6964207369676e6174757265206c656e677468006044820152606401610302565b6003816004811115612e1857612e18614146565b03610e6d5760405162461bcd60e51b815260206004820152602260248201527f45434453413a20696e76616c6964207369676e6174757265202773272076616c604482015261756560f01b6064820152608401610302565b60008581526006602090815260408083206001600160a01b0388168452600381019092529091205460ff1615612ef85760405162461bcd60e51b815260206004820152602760248201527f476f7665726e6f72566f74696e6753696d706c653a20766f746520616c726561604482015266191e4818d85cdd60ca1b6064820152608401610302565b6001600160a01b03851660009081526003820160205260409020805460ff1916600117905560ff8416612f445782816000016000828254612f399190614809565b90915550611fd69050565b60001960ff851601612f645782816001016000828254612f399190614809565b60011960ff851601612f845782816002016000828254612f399190614809565b60405162461bcd60e51b815260206004820152603560248201527f476f7665726e6f72566f74696e6753696d706c653a20696e76616c69642076616044820152746c756520666f7220656e756d20566f74655479706560581b6064820152608401610302565b60006001600160e01b038211156122fe5760405162461bcd60e51b815260206004820152602760248201527f53616665436173743a2076616c756520646f65736e27742066697420696e20326044820152663234206269747360c81b6064820152608401610302565b60008061306185858561356e565b915091505b935093915050565b8154600160801b90819004600f0b6000818152600180860160205260409091209390935583546001600160801b03908116939091011602179055565b60095460405163e38335e560e01b81526001600160a01b039091169063e38335e59034906130e590889088908890600090899060040161474d565b6000604051808303818588803b1580156130fe57600080fd5b505af1158015613112573d6000803e3d6000fd5b50505050505050505050565b6000818152600360205260408120600281015460ff16156131425750600792915050565b6002810154610100900460ff161561315d5750600292915050565b6000838152600360205260408120546001600160401b0316908190036131c55760405162461bcd60e51b815260206004820152601d60248201527f476f7665726e6f723a20756e6b6e6f776e2070726f706f73616c2069640000006044820152606401610302565b60006131cf611851565b65ffffffffffff1690508082106131eb57506000949350505050565b6000858152600360205260409020600101546001600160401b03168181106132195750600195945050505050565b6132228661370d565b8015613241575060008681526006602052604090208054600190910154115b156132525750600495945050505050565b50600395945050505050565b600061157a85858585613759565b60008160000361327e57506000919050565b6000600161328b8461380b565b901c6001901b905060018184816132a4576132a4614c17565b048201901c905060018184816132bc576132bc614c17565b048201901c905060018184816132d4576132d4614c17565b048201901c905060018184816132ec576132ec614c17565b048201901c9050600181848161330457613304614c17565b048201901c9050600181848161331c5761331c614c17565b048201901c9050600181848161333457613334614c17565b048201901c90506118ea8182858161334e5761334e614c17565b0461389f565b60005b818310156133aa57600061336b84846138b5565b60008781526020902090915063ffffffff86169082015463ffffffff161115613396578092506133a4565b6133a1816001614809565b93505b50613357565b509392505050565b805160009060348110156133ca576001915050610ce8565b82810160131901516001600160a01b031981166b046e0e4dee0dee6cae47a60f60a31b146133fd57600192505050610ce8565b60008061340b602885614926565b90505b8381101561347c5760008061344288848151811061342e5761342e6145ca565b01602001516001600160f81b0319166138d0565b915091508161345a5760019650505050505050610ce8565b8060ff166004856001600160a01b0316901b179350505080600101905061340e565b50856001600160a01b0316816001600160a01b031614935050505092915050565b60006001600160401b038211156122fe5760405162461bcd60e51b815260206004820152602660248201527f53616665436173743a2076616c756520646f65736e27742066697420696e203660448201526534206269747360d01b6064820152608401610302565b6060600061351283613962565b604080516020808252818301909252919250600091906020820181803683375050509182525060208101929092525090565b8151156135545781518083602001fd5b8060405162461bcd60e51b81526004016103029190613d2b565b8254600090819080156136b457600061358c87612384600185614926565b60408051808201909152905463ffffffff808216808452600160201b9092046001600160e01b03166020840152919250908716101561360d5760405162461bcd60e51b815260206004820152601b60248201527f436865636b706f696e743a2064656372656173696e67206b65797300000000006044820152606401610302565b805163ffffffff808816911603613655578461362e88612384600186614926565b80546001600160e01b0392909216600160201b0263ffffffff9092169190911790556136a4565b6040805180820190915263ffffffff80881682526001600160e01b0380881660208085019182528b54600181018d5560008d81529190912094519151909216600160201b029216919091179101555b6020015192508391506130669050565b50506040805180820190915263ffffffff80851682526001600160e01b0380851660208085019182528854600181018a5560008a815291822095519251909316600160201b029190931617920191909155905081613066565b60008181526006602052604081206002810154600182015461372f9190614809565b600084815260036020526040902054613750906001600160401b0316611b91565b11159392505050565b6000806137688686868661398a565b6000818152600a60205260409020549091501561157a576009546000828152600a60205260409081902054905163c4d252f560e01b81526001600160a01b039092169163c4d252f5916137c19160040190815260200190565b600060405180830381600087803b1580156137db57600080fd5b505af11580156137ef573d6000803e3d6000fd5b5050506000828152600a60205260408120555095945050505050565b600080608083901c1561382057608092831c92015b604083901c1561383257604092831c92015b602083901c1561384457602092831c92015b601083901c1561385657601092831c92015b600883901c1561386857600892831c92015b600483901c1561387a57600492831c92015b600283901c1561388c57600292831c92015b600183901c15610ce85760010192915050565b60008183106138ae57816118ea565b5090919050565b60006138c46002848418614c2d565b6118ea90848416614809565b60008060f883901c602f811180156138eb5750603a8160ff16105b1561390057600194602f199091019350915050565b8060ff166040108015613916575060478160ff16105b1561392b576001946036199091019350915050565b8060ff166060108015613941575060678160ff16105b15613956576001946056199091019350915050565b50600093849350915050565b600060ff8216601f811115610ce857604051632cd44ac360e21b815260040160405180910390fd5b60008061399986868686611b4b565b905060006139a682611561565b905060028160078111156139bc576139bc614146565b141580156139dc575060068160078111156139d9576139d9614146565b14155b80156139fa575060078160078111156139f7576139f7614146565b14155b613a465760405162461bcd60e51b815260206004820152601d60248201527f476f7665726e6f723a2070726f706f73616c206e6f74206163746976650000006044820152606401610302565b60008281526003602052604090819020600201805461ff001916610100179055517f789cf55be980739dad1d0699b93b58e806b51c9d96619bfa8fe0a28abaa7b30c906110f19084815260200190565b600060208284031215613aa857600080fd5b5035919050565b60005b83811015613aca578181015183820152602001613ab2565b50506000910152565b60008151808452613aeb816020860160208601613aaf565b601f01601f19169290920160200192915050565b606081526000613b126060830186613ad3565b8281036020840152613b248186613ad3565b905082810360408401526117b18185613ad3565b600060208284031215613b4a57600080fd5b81356001600160e01b0319811681146118ea57600080fd5b803560ff8116811461164057600080fd5b60008083601f840112613b8557600080fd5b5081356001600160401b03811115613b9c57600080fd5b602083019150836020828501011115613bb457600080fd5b9250929050565b634e487b7160e01b600052604160045260246000fd5b604051601f8201601f191681016001600160401b0381118282101715613bf957613bf9613bbb565b604052919050565b60006001600160401b03821115613c1a57613c1a613bbb565b50601f01601f191660200190565b600082601f830112613c3957600080fd5b8135602083016000613c52613c4d84613c01565b613bd1565b9050828152858383011115613c6657600080fd5b82826020830137600092810160200192909252509392505050565b60008060008060008060008060e0898b031215613c9d57600080fd5b88359750613cad60208a01613b62565b965060408901356001600160401b03811115613cc857600080fd5b613cd48b828c01613b73565b90975095505060608901356001600160401b03811115613cf357600080fd5b613cff8b828c01613c28565b945050613d0e60808a01613b62565b979a969950949793969295929450505060a08201359160c0013590565b6020815260006118ea6020830184613ad3565b6001600160a01b0381168114610e6d57600080fd5b60008060008060808587031215613d6957600080fd5b8435613d7481613d3e565b93506020850135613d8481613d3e565b92506040850135915060608501356001600160401b03811115613da657600080fd5b613db287828801613c28565b91505092959194509250565b60006001600160401b03821115613dd757613dd7613bbb565b5060051b60200190565b600082601f830112613df257600080fd5b8135613e00613c4d82613dbe565b8082825260208201915060208360051b860101925085831115613e2257600080fd5b602085015b838110156111eb578035613e3a81613d3e565b835260209283019201613e27565b600082601f830112613e5957600080fd5b8135613e67613c4d82613dbe565b8082825260208201915060208360051b860101925085831115613e8957600080fd5b602085015b838110156111eb578035835260209283019201613e8e565b600082601f830112613eb757600080fd5b8135613ec5613c4d82613dbe565b8082825260208201915060208360051b860101925085831115613ee757600080fd5b602085015b838110156111eb5780356001600160401b03811115613f0a57600080fd5b613f19886020838a0101613c28565b84525060209283019201613eec565b60008060008060808587031215613f3e57600080fd5b84356001600160401b03811115613f5457600080fd5b613f6087828801613de1565b94505060208501356001600160401b03811115613f7c57600080fd5b613f8887828801613e48565b93505060408501356001600160401b03811115613fa457600080fd5b613fb087828801613ea6565b949793965093946060013593505050565b6000602082016020835280845180835260408501915060408160051b86010192506020860160005b8281101561405b57603f19878603018452815180516060875261400f6060880182613ad3565b9050602082015187820360208901526140288282613ad3565b9150506040820151915086810360408801526140448183613ad3565b965050506020938401939190910190600101613fe9565b50929695505050505050565b600080600080600060a0868803121561407f57600080fd5b8535945061408f60208701613b62565b935061409d60408701613b62565b94979396509394606081013594506080013592915050565b6000806000606084860312156140ca57600080fd5b83356001600160401b038111156140e057600080fd5b6140ec86828701613c28565b93505060208401356001600160401b0381111561410857600080fd5b61411486828701613c28565b92505060408401356001600160401b0381111561413057600080fd5b61413c86828701613c28565b9150509250925092565b634e487b7160e01b600052602160045260246000fd5b602081016008831061417e57634e487b7160e01b600052602160045260246000fd5b91905290565b6000806040838503121561419757600080fd5b8235915060208301356141a981613d3e565b809150509250929050565b600080604083850312156141c757600080fd5b823591506141d760208401613b62565b90509250929050565b6000806000806000608086880312156141f857600080fd5b8535945061420860208701613b62565b935060408601356001600160401b0381111561422357600080fd5b61422f88828901613b73565b90945092505060608601356001600160401b0381111561424e57600080fd5b61425a88828901613c28565b9150509295509295909350565b6000806000806060858703121561427d57600080fd5b8435935061428d60208601613b62565b925060408501356001600160401b038111156142a857600080fd5b6142b487828801613b73565b95989497509550505050565b600080600080608085870312156142d657600080fd5b84356001600160401b038111156142ec57600080fd5b6142f887828801613de1565b94505060208501356001600160401b0381111561431457600080fd5b61432087828801613e48565b93505060408501356001600160401b0381111561433c57600080fd5b61434887828801613ea6565b92505060608501356001600160401b03811115613da657600080fd5b600081518084526020840193506020830160005b82811015614396578151865260209586019590910190600101614378565b5093949350505050565b60ff60f81b8816815260e0602082015260006143bf60e0830189613ad3565b82810360408401526143d18189613ad3565b606084018890526001600160a01b038716608085015260a0840186905283810360c08501529050610dd88185614364565b60008060006060848603121561441757600080fd5b833561442281613d3e565b92506020840135915060408401356001600160401b0381111561413057600080fd5b60006020828403121561445657600080fd5b81356118ea81613d3e565b600080600080600060a0868803121561447957600080fd5b853561448481613d3e565b9450602086013561449481613d3e565b935060408601356001600160401b038111156144af57600080fd5b6144bb88828901613e48565b93505060608601356001600160401b038111156144d757600080fd5b6144e388828901613e48565b92505060808601356001600160401b0381111561424e57600080fd5b6000806000806060858703121561451557600080fd5b843561452081613d3e565b93506020850135925060408501356001600160401b038111156142a857600080fd5b6000806040838503121561455557600080fd5b823561456081613d3e565b946020939093013593505050565b600080600080600060a0868803121561458657600080fd5b853561459181613d3e565b945060208601356145a181613d3e565b9350604086013592506060860135915060808601356001600160401b0381111561424e57600080fd5b634e487b7160e01b600052603260045260246000fd5b600181811c908216806145f457607f821691505b60208210810361461457634e487b7160e01b600052602260045260246000fd5b50919050565b8183823760009101908152919050565b602080825260189082015277476f7665726e6f723a206f6e6c79476f7665726e616e636560401b604082015260600190565b60208082526021908201527f476f7665726e6f723a2070726f706f73616c206e6f74207375636365737366756040820152601b60fa1b606082015260800190565b6000602082840312156146af57600080fd5b5051919050565b600081518084526020840193506020830160005b828110156143965781516001600160a01b03168652602095860195909101906001016146ca565b600082825180855260208501945060208160051b8301016020850160005b8381101561474157601f1985840301885261472b838351613ad3565b602098890198909350919091019060010161470f565b50909695505050505050565b60a08152600061476060a08301886146b6565b82810360208401526147728188614364565b9050828103604084015261478681876146f1565b60608401959095525050608001529392505050565b60c0815260006147ae60c08301896146b6565b82810360208401526147c08189614364565b905082810360408401526147d481886146f1565b60608401969096525050608081019290925260a0909101529392505050565b634e487b7160e01b600052601160045260246000fd5b80820180821115610ce857610ce86147f3565b601f82111561486357806000526020600020601f840160051c810160208510156148435750805b601f840160051c820191505b81811015611fd8576000815560010161484f565b505050565b81516001600160401b0381111561488157614881613bbb565b6148958161488f84546145e0565b8461481c565b6020601f8211600181146148c957600083156148b15750848201515b600019600385901b1c1916600184901b178455611fd8565b600084815260208120601f198516915b828110156148f957878501518255602094850194600190920191016148d9565b50848210156149175786840151600019600387901b60f8161c191681555b50505050600190811b01905550565b81810381811115610ce857610ce86147f3565b60808152600061494c6080830187613ad3565b828103602084015261495e8187613ad3565b905082810360408401526149728186613ad3565b91505082606083015295945050505050565b60006020828403121561499657600080fd5b81516001600160401b038111156149ac57600080fd5b8201601f810184136149bd57600080fd5b80516149cb613c4d82613c01565b8181528560208385010111156149e057600080fd5b61157a826020830160208601613aaf565b600060208284031215614a0357600080fd5b815165ffffffffffff811681146118ea57600080fd5b608081526000614a2c60808301876146b6565b8281036020840152614a3e8187614364565b9050828103604084015261497281866146f1565b84815260ff841660208201528260408201526080606082015260006117b16080830184613ad3565b85815260ff8516602082015283604082015260a060608201526000614aa260a0830185613ad3565b8281036080840152614ab48185613ad3565b98975050505050505050565b600060208284031215614ad257600080fd5b815180151581146118ea57600080fd5b60208082526021908201527f476f7665726e6f723a20696e76616c69642070726f706f73616c206c656e67746040820152600d60fb1b606082015260800190565b8981526001600160a01b038916602082015261012060408201819052600090614b4e9083018a6146b6565b8281036060840152614b60818a614364565b9050828103608084015280885180835260208301915060208160051b84010160208b0160005b83811015614bb857601f19868403018552614ba2838351613ad3565b6020958601959093509190910190600101614b86565b505085810360a0870152614bcc818b6146f1565b93505050508560c08401528460e0840152828103610100840152614bf08185613ad3565b9c9b505050505050505050505050565b8082028115828204841417610ce857610ce86147f3565b634e487b7160e01b600052601260045260246000fd5b600082614c4a57634e487b7160e01b600052601260045260246000fd5b50049056fe476f7665726e6f723a2072656c617920726576657274656420776974686f7574206d657373616765a26469706673582212209bf840d9167a6427700577f7a783d1c11e7e4e251a2669bf6105e940f853e7e964736f6c634300081c0033",
  "linkReferences": {},
  "deployedLinkReferences": {}
}