{
  "_format": "hh-sol-artifact-1",
  "contractName": "VoteTokenProvider",
  "sourceName": "contracts/votetoken.sol",
  "abi": [
    {
      "inputs": [
        {
          "internalType": "contract ERC20Votes",
          "name": "_token",
          "type": "address"
        }
      ],
      "stateMutability": "nonpayable",
      "type": "constructor"
    },
    {
      "inputs": [],
      "name": "getTokens",
      "outputs": [],
      "stateMutability": "payable",
      "type": "function"
    },
    {
      "inputs": [],
      "name": "token",
      "outputs": [
        {
          "internalType": "contract ERC20Votes",
          "name": "",
          "type": "address"
        }
      ],
      "stateMutability": "view",
      "type": "function"
    }
  ],
  "bytecode": "0x6080604052348015600f57600080fd5b506040516101d83803806101d8833981016040819052602c916050565b600080546001600160a01b0319166001600160a01b0392909216919091179055607e565b600060208284031215606157600080fd5b81516001600160a01b0381168114607757600080fd5b9392505050565b61014b8061008d6000396000f3fe6080604052600436106100295760003560e01c8063aa6ca8081461002e578063fc0c546a14610038575b600080fd5b610036610074565b005b34801561004457600080fd5b50600054610058906001600160a01b031681565b6040516001600160a01b03909116815260200160405180910390f35b60005460405163a9059cbb60e01b8152336004820152606460248201526001600160a01b039091169063a9059cbb906044016020604051808303816000875af11580156100c5573d6000803e3d6000fd5b505050506040513d601f19601f820116820180604052508101906100e991906100ec565b50565b6000602082840312156100fe57600080fd5b8151801515811461010e57600080fd5b939250505056fea2646970667358221220eb9c7f2bc7892d36010f163818a03b1d19142b0223e3262fcbe9222fa0545b4964736f6c634300081c0033",
  "linkReferences": {},
  "deployedLinkReferences": {}
}