{
  "_format": "hh-sol-artifact-1",
  "contractName": "VoteToken",
  "sourceName": "contracts/votetoken.sol",
  "abi": [
    {
      "inputs": [
        {
          "internalType": "string",
          "name": "_name",
          "type": "string"
        },
        {
          "internalType": "string",
          "name": "_symbol",
          "type": "string"
        },
        {
          "internalType": "uint256",
          "name": "_initialSupply",
          "type": "uint256"
        }
      ],
      "stateMutability": "nonpayable",
      "type": "constructor"
    },
    {
      "inputs": [],
      "name": "InvalidShortString",
      "type": "error"
    },
    {
      "inputs": [
        {
          "internalType": "string",
          "name": "str",
          "type": "string"
        }
      ],
      "name": "StringTooLong",
      "type": "error"
    },
    {
      "anonymous": false,
      "inputs": [
        {
          "indexed": true,
          "internalType": "address",
          "name": "owner",
          "type": "address"
        },
        {
          "indexed": true,
          "internalType": "address",
          "name": "spender",
          "type": "address"
        },
        {
          "indexed": false,
          "internalType": "uint256",
          "name": "value",
          "type": "uint256"
        }
      ],
      "name": "Approval",
      "type": "event"
    },
    {
      "anonymous": false,
      "inputs": [
        {
          "indexed": true,
          "internalType": "address",
          "name": "delegator",
          "type": "address"
        },
        {
          "indexed": true,
          "internalType": "address",
          "name": "fromDelegate",
          "type": "address"
        },
        {
          "indexed": true,
          "internalType": "address",
          "name": "toDelegate",
          "type": "address"
        }
      ],
      "name": "DelegateChanged",
      "type": "event"
    },
    {
      "anonymous": false,
      "inputs": [
        {
          "indexed": true,
          "internalType": "address",
          "name": "delegate",
          "type": "address"
        },
        {
          "indexed": false,
          "internalType": "uint256",
          "name": "previousBalance",
          "type": "uint256"
        },
        {
          "indexed": false,
          "internalType": "uint256",
          "name": "newBalance",
          "type": "uint256"
        }
      ],
      "name": "DelegateVotesChanged",
      "type": "event"
    },
    {
      "anonymous": false,
      "inputs": [],
      "name": "EIP712DomainChanged",
      "type": "event"
    },
    {
      "anonymous": false,
      "inputs": [
        {
          "indexed": true,
          "internalType": "address",
          "name": "from",
          "type": "address"
        },
        {
          "indexed": true,
          "internalType": "address",
          "name": "to",
          "type": "address"
        },
        {
          "indexed": false,
          "internalType": "uint256",
          "name": "value",
          "type": "uint256"
        }
      ],
      "name": "Transfer",
      "type": "event"
    },
    {
      "inputs": [],
      "name": "CLOCK_MODE",
      "outputs": [
        {
          "internalType": "string",
          "name": "",
          "type": "string"
        }
      ],
      "stateMutability": "view",
      "type": "function"
    },
    {
      "inputs": [],
      "name": "DOMAIN_SEPARATOR",
      "outputs": [
        {
          "internalType": "bytes32",
          "name": "",
          "type": "bytes32"
        }
      ],
      "stateMutability": "view",
      "type": "function"
    },
    {
      "inputs": [
        {
          "internalType": "address",
          "name": "owner",
          "type": "address"
        },
        {
          "internalType": "address",
          "name": "spender",
          "type": "address"
        }
      ],
      "name": "allowance",
      "outputs": [
        {
          "internalType": "uint256",
          "name": "",
          "type": "uint256"
        }
      ],
      "stateMutability": "view",
      "type": "function"
    },
    {
      "inputs": [
        {
          "internalType": "address",
          "name": "spender",
          "type": "address"
        },
        {
          "internalType": "uint256",
          "name": "amount",
          "type": "uint256"
        }
      ],
      "name": "approve",
      "outputs": [
        {
          "internalType": "bool",
          "name": "",
          "type": "bool"
        }
      ],
      "stateMutability": "nonpayable",
      "type": "function"
    },
    {
      "inputs": [
        {
          "internalType": "address",
          "name": "account",
          "type": "address"
        }
      ],
      "name": "balanceOf",
      "outputs": [
        {
          "internalType": "uint256",
          "name": "",
          "type": "uint256"
        }
      ],
      "stateMutability": "view",
      "type": "function"
    },
    {
      "inputs": [
        {
          "internalType": "address",
          "name": "account",
          "type": "address"
        },
        {
          "internalType": "uint32",
          "name": "pos",
          "type": "uint32"
        }
      ],
      "name": "checkpoints",
      "outputs": [
        {
          "components": [
            {
              "internalType": "uint32",
              "name": "fromBlock",
              "type": "uint32"
            },
            {
              "internalType": "uint224",
              "name": "votes",
              "type": "uint224"
            }
          ],
          "internalType": "struct ERC20Votes.Checkpoint",
          "name": "",
          "type": "tuple"
        }
      ],
      "stateMutability": "view",
      "type": "function"
    },
    {
      "inputs": [],
      "name": "clock",
      "outputs": [
        {
          "internalType": "uint48",
          "name": "",
          "type": "uint48"
        }
      ],
      "stateMutability": "view",
      "type": "function"
    },
    {
      "inputs": [],
      "name": "decimals",
      "outputs": [
        {
          "internalType": "uint8",
          "name": "",
          "type": "uint8"
        }
      ],
      "stateMutability": "view",
      "type": "function"
    },
    {
      "inputs": [
        {
          "internalType": "address",
          "name": "spender",
          "type": "address"
        },
        {
          "internalType": "uint256",
          "name": "subtractedValue",
          "type": "uint256"
        }
      ],
      "name": "decreaseAllowance",
      "outputs": [
        {
          "internalType": "bool",
          "name": "",
          "type": "bool"
        }
      ],
      "stateMutability": "nonpayable",
      "type": "function"
    },
    {
      "inputs": [
        {
          "internalType": "address",
          "name": "delegatee",
          "type": "address"
        }
      ],
      "name": "delegate",
      "outputs": [],
      "stateMutability": "nonpayable",
      "type": "function"
    },
    {
      "inputs": [
        {
          "internalType": "address",
          "name": "delegatee",
          "type": "address"
        },
        {
          "internalType": "uint256",
          "name": "nonce",
          "type": "uint256"
        },
        {
          "internalType": "uint256",
          "name": "expiry",
          "type": "uint256"
        },
        {
          "internalType": "uint8",
          "name": "v",
          "type": "uint8"
        },
        {
          "internalType": "bytes32",
          "name": "r",
          "type": "bytes32"
        },
        {
          "internalType": "bytes32",
          "name": "s",
          "type": "bytes32"
        }
      ],
      "name": "delegateBySig",
      "outputs": [],
      "stateMutability": "nonpayable",
      "type": "function"
    },
    {
      "inputs": [
        {
          "internalType": "address",
          "name": "account",
          "type": "address"
        }
      ],
      "name": "delegates",
      "outputs": [
        {
          "internalType": "address",
          "name": "",
          "type": "address"
        }
      ],
      "stateMutability": "view",
      "type": "function"
    },
    {
      "inputs": [],
      "name": "eip712Domain",
      "outputs": [
        {
          "internalType": "bytes1",
          "name": "fields",
          "type": "bytes1"
        },
        {
          "internalType": "string",
          "name": "name",
          "type": "string"
        },
        {
          "internalType": "string",
          "name": "version",
          "type": "string"
        },
        {
          "internalType": "uint256",
          "name": "chainId",
          "type": "uint256"
        },
        {
          "internalType": "address",
          "name": "verifyingContract",
          "type": "address"
        },
        {
          "internalType": "bytes32",
          "name": "salt",
          "type": "bytes32"
        },
        {
          "internalType": "uint256[]",
          "name": "extensions",
          "type": "uint256[]"
        }
      ],
      "stateMutability": "view",
      "type": "function"
    },
    {
      "inputs": [
        {
          "internalType": "uint256",
          "name": "timepoint",
          "type": "uint256"
        }
      ],
      "name": "getPastTotalSupply",
      "outputs": [
        {
          "internalType": "uint256",
          "name": "",
          "type": "uint256"
        }
      ],
      "stateMutability": "view",
      "type": "function"
    },
    {
      "inputs": [
        {
          "internalType": "address",
          "name": "account",
          "type": "address"
        },
        {
          "internalType": "uint256",
          "name": "timepoint",
          "type": "uint256"
        }
      ],
      "name": "getPastVotes",
      "outputs": [
        {
          "internalType": "uint256",
          "name": "",
          "type": "uint256"
        }
      ],
      "stateMutability": "view",
      "type": "function"
    },
    {
      "inputs": [
        {
          "internalType": "address",
          "name": "account",
          "type": "address"
        }
      ],
      "name": "getVotes",
      "outputs": [
        {
          "internalType": "uint256",
          "name": "",
          "type": "uint256"
        }
      ],
      "stateMutability": "view",
      "type": "function"
    },
    {
      "inputs": [
        {
          "internalType": "address",
          "name": "spender",
          "type": "address"
        },
        {
          "internalType": "uint256",
          "name": "addedValue",
          "type": "uint256"
        }
      ],
      "name": "increaseAllowance",
      "outputs": [
        {
          "internalType": "bool",
          "name": "",
          "type": "bool"
        }
      ],
      "stateMutability": "nonpayable",
      "type": "function"
    },
    {
      "inputs": [],
      "name": "name",
      "outputs": [
        {
          "internalType": "string",
          "name": "",
          "type": "string"
        }
      ],
      "stateMutability": "view",
      "type": "function"
    },
    {
      "inputs": [
        {
          "internalType": "address",
          "name": "owner",
          "type": "address"
        }
      ],
      "name": "nonces",
      "outputs": [
        {
          "internalType": "uint256",
          "name": "",
          "type": "uint256"
        }
      ],
      "stateMutability": "view",
      "type": "function"
    },
    {
      "inputs": [
        {
          "internalType": "address",
          "name": "account",
          "type": "address"
        }
      ],
      "name": "numCheckpoints",
      "outputs": [
        {
          "internalType": "uint32",
          "name": "",
          "type": "uint32"
        }
      ],
      "stateMutability": "view",
      "type": "function"
    },
    {
      "inputs": [
        {
          "internalType": "address",
          "name": "owner",
          "type": "address"
        },
        {
          "internalType": "address",
          "name": "spender",
          "type": "address"
        },
        {
          "internalType": "uint256",
          "name": "value",
          "type": "uint256"
        },
        {
          "internalType": "uint256",
          "name": "deadline",
          "type": "uint256"
        },
        {
          "internalType": "uint8",
          "name": "v",
          "type": "uint8"
        },
        {
          "internalType": "bytes32",
          "name": "r",
          "type": "bytes32"
        },
        {
          "internalType": "bytes32",
          "name": "s",
          "type": "bytes32"
        }
      ],
      "name": "permit",
      "outputs": [],
      "stateMutability": "nonpayable",
      "type": "function"
    },
    {
      "inputs": [],
      "name": "symbol",
      "outputs": [
        {
          "internalType": "string",
          "name": "",
          "type": "string"
        }
      ],
      "stateMutability": "view",
      "type": "function"
    },
    {
      "inputs": [],
      "name": "totalSupply",
      "outputs": [
        {
          "internalType": "uint256",
          "name": "",
          "type": "uint256"
        }
      ],
      "stateMutability": "view",
      "type": "function"
    },
    {
      "inputs": [
        {
          "internalType": "address",
          "name": "to",
          "type": "address"
        },
        {
          "internalType": "uint256",
          "name": "amount",
          "type": "uint256"
        }
      ],
      "name": "transfer",
      "outputs": [
        {
          "internalType": "bool",
          "name": "",
          "type": "bool"
        }
      ],
      "stateMutability": "nonpayable",
      "type": "function"
    },
    {
      "inputs": [
        {
          "internalType": "address",
          "name": "from",
          "type": "address"
        },
        {
          "internalType": "address",
          "name": "to",
          "type": "address"
        },
        {
          "internalType": "uint256",
          "name": "amount",
          "type": "uint256"
        }
      ],
      "name": "transferFrom",
      "outputs": [
        {
          "internalType": "bool",
          "name": "",
          "type": "bool"
        }
      ],
      "stateMutability": "nonpayable",
      "type": "function"
    }
  ],
  "bytecode": "0x61016060405234801561001157600080fd5b506040516129c73803806129c783398101604081905261003091610832565b6040805180820190915260018152603160f81b6020820152839081908185600361005a838261092c565b506004610067828261092c565b506100779150839050600561012f565b6101205261008681600661012f565b61014052815160208084019190912060e052815190820120610100524660a05261011360e05161010051604080517f8b73c3c69bb8fe3d512ecc4cf759cc79239f7b179b0ffacaa9a75d522b39400f60208201529081019290925260608201524660808201523060a082015260009060c00160405160208183030381529060405280519060200120905090565b60805250503060c052506101273382610162565b505050610a7d565b600060208351101561014b5761014483610170565b905061015c565b81610156848261092c565b5060ff90505b92915050565b61016c82826101b7565b5050565b600080829050601f815111156101a4578260405163305a27a960e01b815260040161019b91906109ea565b60405180910390fd5b80516101af82610a1d565b179392505050565b6101c18282610255565b6001600160e01b036101d361031c8216565b111561023a5760405162461bcd60e51b815260206004820152603060248201527f4552433230566f7465733a20746f74616c20737570706c79207269736b73206f60448201526f766572666c6f77696e6720766f74657360801b606482015260840161019b565b61024f600b610b4d61032260201b1783610335565b50505050565b6001600160a01b0382166102ab5760405162461bcd60e51b815260206004820152601f60248201527f45524332303a206d696e7420746f20746865207a65726f206164647265737300604482015260640161019b565b80600260008282546102bd9190610a57565b90915550506001600160a01b038216600081815260208181526040808320805486019055518481527fddf252ad1be2c89b69c2b068fc378daa952ba7f163c4a11628f55a4df523b3ef910160405180910390a361016c600083836104b2565b60025490565b600061032e8284610a57565b9392505050565b825460009081908181156103825760008781526020902082016000190160408051808201909152905463ffffffff8116825264010000000090046001600160e01b03166020820152610397565b60408051808201909152600080825260208201525b905080602001516001600160e01b031693506103b484868860201c565b92506000821180156103de57506103c96104bd565b65ffffffffffff16816000015163ffffffff16145b15610423576103ec836104cd565b60008881526020902083016000190180546001600160e01b03929092166401000000000263ffffffff9092169190911790556104a3565b86604051806040016040528061044d6104406104bd60201b60201c565b65ffffffffffff1661053a565b63ffffffff168152602001610461866104cd565b6001600160e01b0390811690915282546001810184556000938452602093849020835194909301519091166401000000000263ffffffff909316929092179101555b5050935093915050565b505050565b6104ad83838361059f565b60006104c8436105d1565b905090565b60006001600160e01b038211156105365760405162461bcd60e51b815260206004820152602760248201527f53616665436173743a2076616c756520646f65736e27742066697420696e20326044820152663234206269747360c81b606482015260840161019b565b5090565b600063ffffffff8211156105365760405162461bcd60e51b815260206004820152602660248201527f53616665436173743a2076616c756520646f65736e27742066697420696e203360448201526532206269747360d01b606482015260840161019b565b6001600160a01b038381166000908152600960205260408082205485841683529120546104ad92918216911683610638565b600065ffffffffffff8211156105365760405162461bcd60e51b815260206004820152602660248201527f53616665436173743a2076616c756520646f65736e27742066697420696e203460448201526538206269747360d01b606482015260840161019b565b816001600160a01b0316836001600160a01b03161415801561065a5750600081115b156104ad576001600160a01b038316156106df576001600160a01b0383166000908152600a602090815260408220829161069e9190610763901b610b591785610335565b91509150846001600160a01b03166000805160206129a783398151915283836040516106d4929190918252602082015260400190565b60405180910390a250505b6001600160a01b038216156104ad576001600160a01b0382166000908152600a602090815260408220829161071e9190610322901b610b4d1785610335565b91509150836001600160a01b03166000805160206129a78339815191528383604051610754929190918252602082015260400190565b60405180910390a25050505050565b600061032e8284610a6a565b634e487b7160e01b600052604160045260246000fd5b60005b838110156107a0578181015183820152602001610788565b50506000910152565b600082601f8301126107ba57600080fd5b81516001600160401b038111156107d3576107d361076f565b604051601f8201601f19908116603f011681016001600160401b03811182821017156108015761080161076f565b60405281815283820160200185101561081957600080fd5b61082a826020830160208701610785565b949350505050565b60008060006060848603121561084757600080fd5b83516001600160401b0381111561085d57600080fd5b610869868287016107a9565b602086015190945090506001600160401b0381111561088757600080fd5b610893868287016107a9565b925050604084015190509250925092565b600181811c908216806108b857607f821691505b6020821081036108d857634e487b7160e01b600052602260045260246000fd5b50919050565b601f8211156104ad57806000526020600020601f840160051c810160208510156109055750805b601f840160051c820191505b818110156109255760008155600101610911565b5050505050565b81516001600160401b038111156109455761094561076f565b6109598161095384546108a4565b846108de565b6020601f82116001811461098d57600083156109755750848201515b600019600385901b1c1916600184901b178455610925565b600084815260208120601f198516915b828110156109bd578785015182556020948501946001909201910161099d565b50848210156109db5786840151600019600387901b60f8161c191681555b50505050600190811b01905550565b6020815260008251806020840152610a09816040850160208701610785565b601f01601f19169190910160400192915050565b805160208083015191908110156108d85760001960209190910360031b1b16919050565b634e487b7160e01b600052601160045260246000fd5b8082018082111561015c5761015c610a41565b8181038181111561015c5761015c610a41565b60805160a05160c05160e051610100516101205161014051611ed0610ad7600039600061065a0152600061062f01526000610f8701526000610f5f01526000610eba01526000610ee401526000610f0e0152611ed06000f3fe608060405234801561001057600080fd5b50600436106101635760003560e01c806370a08231116100ce5780639ab24eb0116100875780639ab24eb01461030c578063a457c2d71461031f578063a9059cbb14610332578063c3cda52014610345578063d505accf14610358578063dd62ed3e1461036b578063f1127ed81461037e57600080fd5b806370a082311461027b5780637ecebe00146102a457806384b0196e146102b75780638e539e8c146102d257806391ddadf4146102e557806395d89b411461030457600080fd5b8063395093511161012057806339509351146101e55780633a46b1a8146101f85780634bf5d7e91461020b578063587cde1e146102135780635c19a95c1461023e5780636fcfff451461025357600080fd5b806306fdde0314610168578063095ea7b31461018657806318160ddd146101a957806323b872dd146101bb578063313ce567146101ce5780633644e515146101dd575b600080fd5b6101706103bb565b60405161017d9190611aea565b60405180910390f35b610199610194366004611b19565b61044d565b604051901515815260200161017d565b6002545b60405190815260200161017d565b6101996101c9366004611b43565b610467565b6040516012815260200161017d565b6101ad61048b565b6101996101f3366004611b19565b61049a565b6101ad610206366004611b19565b6104bc565b61017061051e565b610226610221366004611b80565b6105b6565b6040516001600160a01b03909116815260200161017d565b61025161024c366004611b80565b6105d4565b005b610266610261366004611b80565b6105e1565b60405163ffffffff909116815260200161017d565b6101ad610289366004611b80565b6001600160a01b031660009081526020819052604090205490565b6101ad6102b2366004611b80565b610603565b6102bf610621565b60405161017d9796959493929190611b9b565b6101ad6102e0366004611c33565b6106aa565b6102ed6106e5565b60405165ffffffffffff909116815260200161017d565b6101706106f0565b6101ad61031a366004611b80565b6106ff565b61019961032d366004611b19565b610780565b610199610340366004611b19565b6107fb565b610251610353366004611c5d565b610809565b610251610366366004611cb5565b61093b565b6101ad610379366004611d20565b610a9f565b61039161038c366004611d53565b610aca565b60408051825163ffffffff1681526020928301516001600160e01b0316928101929092520161017d565b6060600380546103ca90611d93565b80601f01602080910402602001604051908101604052809291908181526020018280546103f690611d93565b80156104435780601f1061041857610100808354040283529160200191610443565b820191906000526020600020905b81548152906001019060200180831161042657829003601f168201915b5050505050905090565b60003361045b818585610b65565b60019150505b92915050565b600033610475858285610c89565b610480858585610d03565b506001949350505050565b6000610495610ead565b905090565b60003361045b8185856104ad8383610a9f565b6104b79190611ddd565b610b65565b60006104c66106e5565b65ffffffffffff1682106104f55760405162461bcd60e51b81526004016104ec90611df0565b60405180910390fd5b6001600160a01b0383166000908152600a602052604090206105179083610fd8565b9392505050565b6060436105296106e5565b65ffffffffffff161461057e5760405162461bcd60e51b815260206004820152601d60248201527f4552433230566f7465733a2062726f6b656e20636c6f636b206d6f646500000060448201526064016104ec565b5060408051808201909152601d81527f6d6f64653d626c6f636b6e756d6265722666726f6d3d64656661756c74000000602082015290565b6001600160a01b039081166000908152600960205260409020541690565b6105de33826110c0565b50565b6001600160a01b0381166000908152600a602052604081205461046190611156565b6001600160a01b038116600090815260076020526040812054610461565b6000606080828080836106557f000000000000000000000000000000000000000000000000000000000000000060056111bf565b6106807f000000000000000000000000000000000000000000000000000000000000000060066111bf565b60408051600080825260208201909252600f60f81b9b939a50919850469750309650945092509050565b60006106b46106e5565b65ffffffffffff1682106106da5760405162461bcd60e51b81526004016104ec90611df0565b610461600b83610fd8565b60006104954361126a565b6060600480546103ca90611d93565b6001600160a01b0381166000908152600a6020526040812054801561076d576001600160a01b0383166000908152600a602052604090208054600019830190811061074c5761074c611e23565b600091825260209091200154600160201b90046001600160e01b0316610770565b60005b6001600160e01b03169392505050565b6000338161078e8286610a9f565b9050838110156107ee5760405162461bcd60e51b815260206004820152602560248201527f45524332303a2064656372656173656420616c6c6f77616e63652062656c6f77604482015264207a65726f60d81b60648201526084016104ec565b6104808286868403610b65565b60003361045b818585610d03565b834211156108595760405162461bcd60e51b815260206004820152601d60248201527f4552433230566f7465733a207369676e6174757265206578706972656400000060448201526064016104ec565b604080517fe48329057bfd03d55e49b547132e39cffd9c1820ad7b9d4c5307691425d15adf60208201526001600160a01b0388169181019190915260608101869052608081018590526000906108d3906108cb9060a001604051602081830303815290604052805190602001206112d1565b8585856112fe565b90506108de81611326565b86146109285760405162461bcd60e51b81526020600482015260196024820152784552433230566f7465733a20696e76616c6964206e6f6e636560381b60448201526064016104ec565b61093281886110c0565b50505050505050565b8342111561098b5760405162461bcd60e51b815260206004820152601d60248201527f45524332305065726d69743a206578706972656420646561646c696e6500000060448201526064016104ec565b60007f6e71edae12b1b97f4d1f60370fef10105fa2faae0126114a169c64845d6126c98888886109ba8c611326565b6040805160208101969096526001600160a01b0394851690860152929091166060840152608083015260a082015260c0810186905260e0016040516020818303038152906040528051906020012090506000610a15826112d1565b90506000610a25828787876112fe565b9050896001600160a01b0316816001600160a01b031614610a885760405162461bcd60e51b815260206004820152601e60248201527f45524332305065726d69743a20696e76616c6964207369676e6174757265000060448201526064016104ec565b610a938a8a8a610b65565b50505050505050505050565b6001600160a01b03918216600090815260016020908152604080832093909416825291909152205490565b60408051808201909152600080825260208201526001600160a01b0383166000908152600a60205260409020805463ffffffff8416908110610b0e57610b0e611e23565b60009182526020918290206040805180820190915291015463ffffffff81168252600160201b90046001600160e01b0316918101919091529392505050565b60006105178284611ddd565b60006105178284611e39565b6001600160a01b038316610bc75760405162461bcd60e51b8152602060048201526024808201527f45524332303a20617070726f76652066726f6d20746865207a65726f206164646044820152637265737360e01b60648201526084016104ec565b6001600160a01b038216610c285760405162461bcd60e51b815260206004820152602260248201527f45524332303a20617070726f766520746f20746865207a65726f206164647265604482015261737360f01b60648201526084016104ec565b6001600160a01b0383811660008181526001602090815260408083209487168084529482529182902085905590518481527f8c5be1e5ebec7d5bd14f71427d1e84f3dd0314c0f7b2291e5b200ac8c7c3b925910160405180910390a3505050565b6000610c958484610a9f565b90506000198114610cfd5781811015610cf05760405162461bcd60e51b815260206004820152601d60248201527f45524332303a20696e73756666696369656e7420616c6c6f77616e636500000060448201526064016104ec565b610cfd8484848403610b65565b50505050565b6001600160a01b038316610d675760405162461bcd60e51b815260206004820152602560248201527f45524332303a207472616e736665722066726f6d20746865207a65726f206164604482015264647265737360d81b60648201526084016104ec565b6001600160a01b038216610dc95760405162461bcd60e51b815260206004820152602360248201527f45524332303a207472616e7366657220746f20746865207a65726f206164647260448201526265737360e81b60648201526084016104ec565b6001600160a01b03831660009081526020819052604090205481811015610e415760405162461bcd60e51b815260206004820152602660248201527f45524332303a207472616e7366657220616d6f756e7420657863656564732062604482015265616c616e636560d01b60648201526084016104ec565b6001600160a01b03848116600081815260208181526040808320878703905593871680835291849020805487019055925185815290927fddf252ad1be2c89b69c2b068fc378daa952ba7f163c4a11628f55a4df523b3ef910160405180910390a3610cfd848484611353565b6000306001600160a01b037f000000000000000000000000000000000000000000000000000000000000000016148015610f0657507f000000000000000000000000000000000000000000000000000000000000000046145b15610f3057507f000000000000000000000000000000000000000000000000000000000000000090565b610495604080517f8b73c3c69bb8fe3d512ecc4cf759cc79239f7b179b0ffacaa9a75d522b39400f60208201527f0000000000000000000000000000000000000000000000000000000000000000918101919091527f000000000000000000000000000000000000000000000000000000000000000060608201524660808201523060a082015260009060c00160405160208183030381529060405280519060200120905090565b815460009081816005811115611032576000610ff38461135e565b610ffd9085611e39565b600088815260209020909150869082015463ffffffff16111561102257809150611030565b61102d816001611ddd565b92505b505b8082101561107f5760006110468383611446565b600088815260209020909150869082015463ffffffff16111561106b57809150611079565b611076816001611ddd565b92505b50611032565b80156110aa5760008681526020902081016000190154600160201b90046001600160e01b03166110ad565b60005b6001600160e01b03169695505050505050565b60006110cb836105b6565b905060006110ee846001600160a01b031660009081526020819052604090205490565b6001600160a01b0385811660008181526009602052604080822080546001600160a01b031916898616908117909155905194955093928616927f3134e8a2e6d97e929a7e54011ea5485d7d196dd5f0ba4d4ef95803e8e3fc257f9190a4610cfd828483611461565b600063ffffffff8211156111bb5760405162461bcd60e51b815260206004820152602660248201527f53616665436173743a2076616c756520646f65736e27742066697420696e203360448201526532206269747360d01b60648201526084016104ec565b5090565b606060ff83146111d9576111d28361159e565b9050610461565b8180546111e590611d93565b80601f016020809104026020016040519081016040528092919081815260200182805461121190611d93565b801561125e5780601f106112335761010080835404028352916020019161125e565b820191906000526020600020905b81548152906001019060200180831161124157829003601f168201915b50505050509050610461565b600065ffffffffffff8211156111bb5760405162461bcd60e51b815260206004820152602660248201527f53616665436173743a2076616c756520646f65736e27742066697420696e203460448201526538206269747360d01b60648201526084016104ec565b60006104616112de610ead565b8360405161190160f01b8152600281019290925260228201526042902090565b600080600061130f878787876115dd565b9150915061131c81611697565b5095945050505050565b6001600160a01b03811660009081526007602052604090208054600181018255905b50919050565b505050565b61134e8383836117dc565b60008160000361137057506000919050565b6000600161137d846117f7565b901c6001901b9050600181848161139657611396611e4c565b048201901c905060018184816113ae576113ae611e4c565b048201901c905060018184816113c6576113c6611e4c565b048201901c905060018184816113de576113de611e4c565b048201901c905060018184816113f6576113f6611e4c565b048201901c9050600181848161140e5761140e611e4c565b048201901c9050600181848161142657611426611e4c565b048201901c90506105178182858161144057611440611e4c565b0461188b565b60006114556002848418611e62565b61051790848416611ddd565b816001600160a01b0316836001600160a01b0316141580156114835750600081115b1561134e576001600160a01b03831615611511576001600160a01b0383166000908152600a6020526040812081906114be90610b59856118a1565b91509150846001600160a01b03167fdec2bacdd2f05b59de34da9b523dff8be42e5e38e818c82fdb0bae774387a7248383604051611506929190918252602082015260400190565b60405180910390a250505b6001600160a01b0382161561134e576001600160a01b0382166000908152600a60205260408120819061154790610b4d856118a1565b91509150836001600160a01b03167fdec2bacdd2f05b59de34da9b523dff8be42e5e38e818c82fdb0bae774387a724838360405161158f929190918252602082015260400190565b60405180910390a25050505050565b606060006115ab83611a13565b604080516020808252818301909252919250600091906020820181803683375050509182525060208101929092525090565b6000806fa2a8918ca85bafe22016d0b997e4df60600160ff1b0383111561160a575060009050600361168e565b6040805160008082526020820180845289905260ff881692820192909252606081018690526080810185905260019060a0016020604051602081039080840390855afa15801561165e573d6000803e3d6000fd5b5050604051601f1901519150506001600160a01b0381166116875760006001925092505061168e565b9150600090505b94509492505050565b60008160048111156116ab576116ab611e84565b036116b35750565b60018160048111156116c7576116c7611e84565b0361170f5760405162461bcd60e51b815260206004820152601860248201527745434453413a20696e76616c6964207369676e617475726560401b60448201526064016104ec565b600281600481111561172357611723611e84565b036117705760405162461bcd60e51b815260206004820152601f60248201527f45434453413a20696e76616c6964207369676e6174757265206c656e6774680060448201526064016104ec565b600381600481111561178457611784611e84565b036105de5760405162461bcd60e51b815260206004820152602260248201527f45434453413a20696e76616c6964207369676e6174757265202773272076616c604482015261756560f01b60648201526084016104ec565b61134e6117e8846105b6565b6117f1846105b6565b83611461565b600080608083901c1561180c57608092831c92015b604083901c1561181e57604092831c92015b602083901c1561183057602092831c92015b601083901c1561184257601092831c92015b600883901c1561185457600892831c92015b600483901c1561186657600492831c92015b600283901c1561187857600292831c92015b600183901c156104615760010192915050565b600081831061189a5781610517565b5090919050565b825460009081908181156118ed5760008781526020902082016000190160408051808201909152905463ffffffff81168252600160201b90046001600160e01b03166020820152611902565b60408051808201909152600080825260208201525b905080602001516001600160e01b0316935061192284868863ffffffff16565b925060008211801561194c57506119376106e5565b65ffffffffffff16816000015163ffffffff16145b156119905761195a83611a3b565b60008881526020902083016000190180546001600160e01b0392909216600160201b0263ffffffff909216919091179055611a09565b8660405180604001604052806119b46119a76106e5565b65ffffffffffff16611156565b63ffffffff1681526020016119c886611a3b565b6001600160e01b039081169091528254600181018455600093845260209384902083519490930151909116600160201b0263ffffffff909316929092179101555b5050935093915050565b600060ff8216601f81111561046157604051632cd44ac360e21b815260040160405180910390fd5b60006001600160e01b038211156111bb5760405162461bcd60e51b815260206004820152602760248201527f53616665436173743a2076616c756520646f65736e27742066697420696e20326044820152663234206269747360c81b60648201526084016104ec565b6000815180845260005b81811015611aca57602081850181015186830182015201611aae565b506000602082860101526020601f19601f83011685010191505092915050565b6020815260006105176020830184611aa4565b80356001600160a01b0381168114611b1457600080fd5b919050565b60008060408385031215611b2c57600080fd5b611b3583611afd565b946020939093013593505050565b600080600060608486031215611b5857600080fd5b611b6184611afd565b9250611b6f60208501611afd565b929592945050506040919091013590565b600060208284031215611b9257600080fd5b61051782611afd565b60ff60f81b8816815260e060208201526000611bba60e0830189611aa4565b8281036040840152611bcc8189611aa4565b606084018890526001600160a01b038716608085015260a0840186905283810360c08501528451808252602080870193509091019060005b81811015611c22578351835260209384019390920191600101611c04565b50909b9a5050505050505050505050565b600060208284031215611c4557600080fd5b5035919050565b803560ff81168114611b1457600080fd5b60008060008060008060c08789031215611c7657600080fd5b611c7f87611afd565b95506020870135945060408701359350611c9b60608801611c4c565b9598949750929560808101359460a0909101359350915050565b600080600080600080600060e0888a031215611cd057600080fd5b611cd988611afd565b9650611ce760208901611afd565b95506040880135945060608801359350611d0360808901611c4c565b9699959850939692959460a0840135945060c09093013592915050565b60008060408385031215611d3357600080fd5b611d3c83611afd565b9150611d4a60208401611afd565b90509250929050565b60008060408385031215611d6657600080fd5b611d6f83611afd565b9150602083013563ffffffff81168114611d8857600080fd5b809150509250929050565b600181811c90821680611da757607f821691505b60208210810361134857634e487b7160e01b600052602260045260246000fd5b634e487b7160e01b600052601160045260246000fd5b8082018082111561046157610461611dc7565b60208082526019908201527804552433230566f7465733a20667574757265206c6f6f6b757603c1b604082015260600190565b634e487b7160e01b600052603260045260246000fd5b8181038181111561046157610461611dc7565b634e487b7160e01b600052601260045260246000fd5b600082611e7f57634e487b7160e01b600052601260045260246000fd5b500490565b634e487b7160e01b600052602160045260246000fdfea26469706673582212206d42a31b9992ca40d094c9b1dbce4a4898014ff54ccc5b39bf47e9d88afa977d64736f6c634300081c0033dec2bacdd2f05b59de34da9b523dff8be42e5e38e818c82fdb0bae774387a724",
  "linkReferences": {},
  "deployedLinkReferences": {}
}