{
  "abi": [
    {
      "inputs": [],
      "stateMutability": "nonpayable",
      "type": "constructor"
    },
    {
      "inputs": [],
      "name": "getListedDaos",
      "outputs": [
        {
          "components": [
            {
              "internalType": "uint256",
              "name": "tokenId",
              "type": "uint256"
            },
            {
              "internalType": "address payable",
              "name": "seller",
              "type": "address"
            },
            {
              "internalType": "address payable",
              "name": "owner",
              "type": "address"
            },
            {
              "internalType": "string",
              "name": "desc_uri",
              "type": "string"
            },
            {
              "internalType": "bool",
              "name": "listed",
              "type": "bool"
            }
          ],
          "internalType": "struct DaoIndexer.DAO_PLACEHOLDER[]",
          "name": "",
          "type": "tuple[]"
        }
      ],
      "stateMutability": "view",
      "type": "function"
    },
    {
      "inputs": [
        {
          "internalType": "string",
          "name": "_desc_uri",
          "type": "string"
        }
      ],
      "name": "makeDaoPlaceholder",
      "outputs": [],
      "stateMutability": "payable",
      "type": "function"
    }
  ],
  "bytecode": "608060405234801561001057600080fd5b506001600055600280546001600160a01b031916331790556107e0806100376000396000f3fe6080604052600436106100295760003560e01c806349018f011461002e5780635c7d446114610043575b600080fd5b61004161003c36600461046e565b61006e565b005b34801561004f57600080fd5b50610058610192565b604051610065919061051f565b60405180910390f35b6002600054036100c45760405162461bcd60e51b815260206004820152601f60248201527f5265656e7472616e637947756172643a207265656e7472616e742063616c6c00604482015260640160405180910390fd5b60026000556100d7600180546001019055565b60006100e260015490565b6040805160a081018252828152336020808301918252308385019081526060840188815260016080860181905260008881526003948590529690962085518155935195840180546001600160a01b03199081166001600160a01b03988916179091559151600285018054909316961695909517905592519394509092909182019061016d908261068c565b50608091909101516004909101805460ff191691151591909117905550506001600055565b6060600061019f60015490565b90506000805b8281101561022e5733600360006101bd846001610762565b81526020810191909152604001600020600101546001600160a01b03161480156102095750600360006101f1836001610762565b815260208101919091526040016000206004015460ff165b1561021c57816102188161077b565b9250505b806102268161077b565b9150506101a5565b5060008167ffffffffffffffff81111561024a5761024a610458565b6040519080825280602002602001820160405280156102a257816020015b6040805160a08101825260008082526020808301829052928201819052606080830152608082015282526000199092019101816102685790505b5090506000805b8481101561044e5733600360006102c1846001610762565b81526020810191909152604001600020600101546001600160a01b031614801561030d5750600360006102f5836001610762565b815260208101919091526040016000206004015460ff165b1561043c5760036000610321836001610762565b81526020808201929092526040908101600020815160a0810183528154815260018201546001600160a01b039081169482019490945260028201549093169183019190915260038101805460608401919061037b90610603565b80601f01602080910402602001604051908101604052809291908181526020018280546103a790610603565b80156103f45780601f106103c9576101008083540402835291602001916103f4565b820191906000526020600020905b8154815290600101906020018083116103d757829003601f168201915b50505091835250506004919091015460ff161515602090910152835184908490811061042257610422610794565b602002602001018190525081806104389061077b565b9250505b806104468161077b565b9150506102a9565b5090949350505050565b634e487b7160e01b600052604160045260246000fd5b60006020828403121561048057600080fd5b813567ffffffffffffffff8082111561049857600080fd5b818401915084601f8301126104ac57600080fd5b8135818111156104be576104be610458565b604051601f8201601f19908116603f011681019083821181831017156104e6576104e6610458565b816040528281528760208487010111156104ff57600080fd5b826020860160208301376000928101602001929092525095945050505050565b60006020808301818452808551808352604092508286019150828160051b8701018488016000805b848110156105f457898403603f19018652825180518552888101516001600160a01b039081168a87015288820151168886015260608082015160a091870182905280519187018290528491905b818310156105b2578083018c015188840160c00152918b0191610594565b5060c091508482828901015260808084015193506105d38189018515159052565b50978a0197601f01601f191695909501909401935091870191600101610547565b50919998505050505050505050565b600181811c9082168061061757607f821691505b60208210810361063757634e487b7160e01b600052602260045260246000fd5b50919050565b601f82111561068757600081815260208120601f850160051c810160208610156106645750805b601f850160051c820191505b8181101561068357828155600101610670565b5050505b505050565b815167ffffffffffffffff8111156106a6576106a6610458565b6106ba816106b48454610603565b8461063d565b602080601f8311600181146106ef57600084156106d75750858301515b600019600386901b1c1916600185901b178555610683565b600085815260208120601f198616915b8281101561071e578886015182559484019460019091019084016106ff565b508582101561073c5787850151600019600388901b60f8161c191681555b5050505050600190811b01905550565b634e487b7160e01b600052601160045260246000fd5b808201808211156107755761077561074c565b92915050565b60006001820161078d5761078d61074c565b5060010190565b634e487b7160e01b600052603260045260246000fdfea26469706673582212204e797916b27503782cc4ababb508a2eb383e9f7e1b97fa17e8f98d4a537312aa64736f6c63430008150033",
  "bytecodeSha1": "2a733c829a835fac7716aaa7686df5e1ab11db3a",
  "compiler": {
    "evm_version": "istanbul",
    "optimizer": {
      "enabled": true,
      "runs": 200
    },
    "version": "0.8.21+commit.d9974bed"
  },
  "contractName": "DaoIndexer",
  "language": "Solidity",
  "natspec": {
    "kind": "dev",
    "methods": {},
    "version": 1
  },
  "opcodes": "PUSH1 0x80 PUSH1 0x40 MSTORE PUSH1 0x4 CALLDATASIZE LT PUSH2 0x29 JUMPI PUSH1 0x0 CALLDATALOAD PUSH1 0xE0 SHR DUP1 PUSH4 0x49018F01 EQ PUSH2 0x2E JUMPI DUP1 PUSH4 0x5C7D4461 EQ PUSH2 0x43 JUMPI JUMPDEST PUSH1 0x0 DUP1 REVERT JUMPDEST PUSH2 0x41 PUSH2 0x3C CALLDATASIZE PUSH1 0x4 PUSH2 0x46E JUMP JUMPDEST PUSH2 0x6E JUMP JUMPDEST STOP JUMPDEST CALLVALUE DUP1 ISZERO PUSH2 0x4F JUMPI PUSH1 0x0 DUP1 REVERT JUMPDEST POP PUSH2 0x58 PUSH2 0x192 JUMP JUMPDEST PUSH1 0x40 MLOAD PUSH2 0x65 SWAP2 SWAP1 PUSH2 0x51F JUMP JUMPDEST PUSH1 0x40 MLOAD DUP1 SWAP2 SUB SWAP1 RETURN JUMPDEST PUSH1 0x2 PUSH1 0x0 SLOAD SUB PUSH2 0xC4 JUMPI PUSH1 0x40 MLOAD PUSH3 0x461BCD PUSH1 0xE5 SHL DUP2 MSTORE PUSH1 0x20 PUSH1 0x4 DUP3 ADD MSTORE PUSH1 0x1F PUSH1 0x24 DUP3 ADD MSTORE PUSH32 0x5265656E7472616E637947756172643A207265656E7472616E742063616C6C00 PUSH1 0x44 DUP3 ADD MSTORE PUSH1 0x64 ADD PUSH1 0x40 MLOAD DUP1 SWAP2 SUB SWAP1 REVERT JUMPDEST PUSH1 0x2 PUSH1 0x0 SSTORE PUSH2 0xD7 PUSH1 0x1 DUP1 SLOAD PUSH1 0x1 ADD SWAP1 SSTORE JUMP JUMPDEST PUSH1 0x0 PUSH2 0xE2 PUSH1 0x1 SLOAD SWAP1 JUMP JUMPDEST PUSH1 0x40 DUP1 MLOAD PUSH1 0xA0 DUP2 ADD DUP3 MSTORE DUP3 DUP2 MSTORE CALLER PUSH1 0x20 DUP1 DUP4 ADD SWAP2 DUP3 MSTORE ADDRESS DUP4 DUP6 ADD SWAP1 DUP2 MSTORE PUSH1 0x60 DUP5 ADD DUP9 DUP2 MSTORE PUSH1 0x1 PUSH1 0x80 DUP7 ADD DUP2 SWAP1 MSTORE PUSH1 0x0 DUP9 DUP2 MSTORE PUSH1 0x3 SWAP5 DUP6 SWAP1 MSTORE SWAP7 SWAP1 SWAP7 KECCAK256 DUP6 MLOAD DUP2 SSTORE SWAP4 MLOAD SWAP6 DUP5 ADD DUP1 SLOAD PUSH1 0x1 PUSH1 0x1 PUSH1 0xA0 SHL SUB NOT SWAP1 DUP2 AND PUSH1 0x1 PUSH1 0x1 PUSH1 0xA0 SHL SUB SWAP9 DUP10 AND OR SWAP1 SWAP2 SSTORE SWAP2 MLOAD PUSH1 0x2 DUP6 ADD DUP1 SLOAD SWAP1 SWAP4 AND SWAP7 AND SWAP6 SWAP1 SWAP6 OR SWAP1 SSTORE SWAP3 MLOAD SWAP4 SWAP5 POP SWAP1 SWAP3 SWAP1 SWAP2 DUP3 ADD SWAP1 PUSH2 0x16D SWAP1 DUP3 PUSH2 0x68C JUMP JUMPDEST POP PUSH1 0x80 SWAP2 SWAP1 SWAP2 ADD MLOAD PUSH1 0x4 SWAP1 SWAP2 ADD DUP1 SLOAD PUSH1 0xFF NOT AND SWAP2 ISZERO ISZERO SWAP2 SWAP1 SWAP2 OR SWAP1 SSTORE POP POP PUSH1 0x1 PUSH1 0x0 SSTORE JUMP JUMPDEST PUSH1 0x60 PUSH1 0x0 PUSH2 0x19F PUSH1 0x1 SLOAD SWAP1 JUMP JUMPDEST SWAP1 POP PUSH1 0x0 DUP1 JUMPDEST DUP3 DUP2 LT ISZERO PUSH2 0x22E JUMPI CALLER PUSH1 0x3 PUSH1 0x0 PUSH2 0x1BD DUP5 PUSH1 0x1 PUSH2 0x762 JUMP JUMPDEST DUP2 MSTORE PUSH1 0x20 DUP2 ADD SWAP2 SWAP1 SWAP2 MSTORE PUSH1 0x40 ADD PUSH1 0x0 KECCAK256 PUSH1 0x1 ADD SLOAD PUSH1 0x1 PUSH1 0x1 PUSH1 0xA0 SHL SUB AND EQ DUP1 ISZERO PUSH2 0x209 JUMPI POP PUSH1 0x3 PUSH1 0x0 PUSH2 0x1F1 DUP4 PUSH1 0x1 PUSH2 0x762 JUMP JUMPDEST DUP2 MSTORE PUSH1 0x20 DUP2 ADD SWAP2 SWAP1 SWAP2 MSTORE PUSH1 0x40 ADD PUSH1 0x0 KECCAK256 PUSH1 0x4 ADD SLOAD PUSH1 0xFF AND JUMPDEST ISZERO PUSH2 0x21C JUMPI DUP2 PUSH2 0x218 DUP2 PUSH2 0x77B JUMP JUMPDEST SWAP3 POP POP JUMPDEST DUP1 PUSH2 0x226 DUP2 PUSH2 0x77B JUMP JUMPDEST SWAP2 POP POP PUSH2 0x1A5 JUMP JUMPDEST POP PUSH1 0x0 DUP2 PUSH8 0xFFFFFFFFFFFFFFFF DUP2 GT ISZERO PUSH2 0x24A JUMPI PUSH2 0x24A PUSH2 0x458 JUMP JUMPDEST PUSH1 0x40 MLOAD SWAP1 DUP1 DUP3 MSTORE DUP1 PUSH1 0x20 MUL PUSH1 0x20 ADD DUP3 ADD PUSH1 0x40 MSTORE DUP1 ISZERO PUSH2 0x2A2 JUMPI DUP2 PUSH1 0x20 ADD JUMPDEST PUSH1 0x40 DUP1 MLOAD PUSH1 0xA0 DUP2 ADD DUP3 MSTORE PUSH1 0x0 DUP1 DUP3 MSTORE PUSH1 0x20 DUP1 DUP4 ADD DUP3 SWAP1 MSTORE SWAP3 DUP3 ADD DUP2 SWAP1 MSTORE PUSH1 0x60 DUP1 DUP4 ADD MSTORE PUSH1 0x80 DUP3 ADD MSTORE DUP3 MSTORE PUSH1 0x0 NOT SWAP1 SWAP3 ADD SWAP2 ADD DUP2 PUSH2 0x268 JUMPI SWAP1 POP JUMPDEST POP SWAP1 POP PUSH1 0x0 DUP1 JUMPDEST DUP5 DUP2 LT ISZERO PUSH2 0x44E JUMPI CALLER PUSH1 0x3 PUSH1 0x0 PUSH2 0x2C1 DUP5 PUSH1 0x1 PUSH2 0x762 JUMP JUMPDEST DUP2 MSTORE PUSH1 0x20 DUP2 ADD SWAP2 SWAP1 SWAP2 MSTORE PUSH1 0x40 ADD PUSH1 0x0 KECCAK256 PUSH1 0x1 ADD SLOAD PUSH1 0x1 PUSH1 0x1 PUSH1 0xA0 SHL SUB AND EQ DUP1 ISZERO PUSH2 0x30D JUMPI POP PUSH1 0x3 PUSH1 0x0 PUSH2 0x2F5 DUP4 PUSH1 0x1 PUSH2 0x762 JUMP JUMPDEST DUP2 MSTORE PUSH1 0x20 DUP2 ADD SWAP2 SWAP1 SWAP2 MSTORE PUSH1 0x40 ADD PUSH1 0x0 KECCAK256 PUSH1 0x4 ADD SLOAD PUSH1 0xFF AND JUMPDEST ISZERO PUSH2 0x43C JUMPI PUSH1 0x3 PUSH1 0x0 PUSH2 0x321 DUP4 PUSH1 0x1 PUSH2 0x762 JUMP JUMPDEST DUP2 MSTORE PUSH1 0x20 DUP1 DUP3 ADD SWAP3 SWAP1 SWAP3 MSTORE PUSH1 0x40 SWAP1 DUP2 ADD PUSH1 0x0 KECCAK256 DUP2 MLOAD PUSH1 0xA0 DUP2 ADD DUP4 MSTORE DUP2 SLOAD DUP2 MSTORE PUSH1 0x1 DUP3 ADD SLOAD PUSH1 0x1 PUSH1 0x1 PUSH1 0xA0 SHL SUB SWAP1 DUP2 AND SWAP5 DUP3 ADD SWAP5 SWAP1 SWAP5 MSTORE PUSH1 0x2 DUP3 ADD SLOAD SWAP1 SWAP4 AND SWAP2 DUP4 ADD SWAP2 SWAP1 SWAP2 MSTORE PUSH1 0x3 DUP2 ADD DUP1 SLOAD PUSH1 0x60 DUP5 ADD SWAP2 SWAP1 PUSH2 0x37B SWAP1 PUSH2 0x603 JUMP JUMPDEST DUP1 PUSH1 0x1F ADD PUSH1 0x20 DUP1 SWAP2 DIV MUL PUSH1 0x20 ADD PUSH1 0x40 MLOAD SWAP1 DUP2 ADD PUSH1 0x40 MSTORE DUP1 SWAP3 SWAP2 SWAP1 DUP2 DUP2 MSTORE PUSH1 0x20 ADD DUP3 DUP1 SLOAD PUSH2 0x3A7 SWAP1 PUSH2 0x603 JUMP JUMPDEST DUP1 ISZERO PUSH2 0x3F4 JUMPI DUP1 PUSH1 0x1F LT PUSH2 0x3C9 JUMPI PUSH2 0x100 DUP1 DUP4 SLOAD DIV MUL DUP4 MSTORE SWAP2 PUSH1 0x20 ADD SWAP2 PUSH2 0x3F4 JUMP JUMPDEST DUP3 ADD SWAP2 SWAP1 PUSH1 0x0 MSTORE PUSH1 0x20 PUSH1 0x0 KECCAK256 SWAP1 JUMPDEST DUP2 SLOAD DUP2 MSTORE SWAP1 PUSH1 0x1 ADD SWAP1 PUSH1 0x20 ADD DUP1 DUP4 GT PUSH2 0x3D7 JUMPI DUP3 SWAP1 SUB PUSH1 0x1F AND DUP3 ADD SWAP2 JUMPDEST POP POP POP SWAP2 DUP4 MSTORE POP POP PUSH1 0x4 SWAP2 SWAP1 SWAP2 ADD SLOAD PUSH1 0xFF AND ISZERO ISZERO PUSH1 0x20 SWAP1 SWAP2 ADD MSTORE DUP4 MLOAD DUP5 SWAP1 DUP5 SWAP1 DUP2 LT PUSH2 0x422 JUMPI PUSH2 0x422 PUSH2 0x794 JUMP JUMPDEST PUSH1 0x20 MUL PUSH1 0x20 ADD ADD DUP2 SWAP1 MSTORE POP DUP2 DUP1 PUSH2 0x438 SWAP1 PUSH2 0x77B JUMP JUMPDEST SWAP3 POP POP JUMPDEST DUP1 PUSH2 0x446 DUP2 PUSH2 0x77B JUMP JUMPDEST SWAP2 POP POP PUSH2 0x2A9 JUMP JUMPDEST POP SWAP1 SWAP5 SWAP4 POP POP POP POP JUMP JUMPDEST PUSH4 0x4E487B71 PUSH1 0xE0 SHL PUSH1 0x0 MSTORE PUSH1 0x41 PUSH1 0x4 MSTORE PUSH1 0x24 PUSH1 0x0 REVERT JUMPDEST PUSH1 0x0 PUSH1 0x20 DUP3 DUP5 SUB SLT ISZERO PUSH2 0x480 JUMPI PUSH1 0x0 DUP1 REVERT JUMPDEST DUP2 CALLDATALOAD PUSH8 0xFFFFFFFFFFFFFFFF DUP1 DUP3 GT ISZERO PUSH2 0x498 JUMPI PUSH1 0x0 DUP1 REVERT JUMPDEST DUP2 DUP5 ADD SWAP2 POP DUP5 PUSH1 0x1F DUP4 ADD SLT PUSH2 0x4AC JUMPI PUSH1 0x0 DUP1 REVERT JUMPDEST DUP2 CALLDATALOAD DUP2 DUP2 GT ISZERO PUSH2 0x4BE JUMPI PUSH2 0x4BE PUSH2 0x458 JUMP JUMPDEST PUSH1 0x40 MLOAD PUSH1 0x1F DUP3 ADD PUSH1 0x1F NOT SWAP1 DUP2 AND PUSH1 0x3F ADD AND DUP2 ADD SWAP1 DUP4 DUP3 GT DUP2 DUP4 LT OR ISZERO PUSH2 0x4E6 JUMPI PUSH2 0x4E6 PUSH2 0x458 JUMP JUMPDEST DUP2 PUSH1 0x40 MSTORE DUP3 DUP2 MSTORE DUP8 PUSH1 0x20 DUP5 DUP8 ADD ADD GT ISZERO PUSH2 0x4FF JUMPI PUSH1 0x0 DUP1 REVERT JUMPDEST DUP3 PUSH1 0x20 DUP7 ADD PUSH1 0x20 DUP4 ADD CALLDATACOPY PUSH1 0x0 SWAP3 DUP2 ADD PUSH1 0x20 ADD SWAP3 SWAP1 SWAP3 MSTORE POP SWAP6 SWAP5 POP POP POP POP POP JUMP JUMPDEST PUSH1 0x0 PUSH1 0x20 DUP1 DUP4 ADD DUP2 DUP5 MSTORE DUP1 DUP6 MLOAD DUP1 DUP4 MSTORE PUSH1 0x40 SWAP3 POP DUP3 DUP7 ADD SWAP2 POP DUP3 DUP2 PUSH1 0x5 SHL DUP8 ADD ADD DUP5 DUP9 ADD PUSH1 0x0 DUP1 JUMPDEST DUP5 DUP2 LT ISZERO PUSH2 0x5F4 JUMPI DUP10 DUP5 SUB PUSH1 0x3F NOT ADD DUP7 MSTORE DUP3 MLOAD DUP1 MLOAD DUP6 MSTORE DUP9 DUP2 ADD MLOAD PUSH1 0x1 PUSH1 0x1 PUSH1 0xA0 SHL SUB SWAP1 DUP2 AND DUP11 DUP8 ADD MSTORE DUP9 DUP3 ADD MLOAD AND DUP9 DUP7 ADD MSTORE PUSH1 0x60 DUP1 DUP3 ADD MLOAD PUSH1 0xA0 SWAP2 DUP8 ADD DUP3 SWAP1 MSTORE DUP1 MLOAD SWAP2 DUP8 ADD DUP3 SWAP1 MSTORE DUP5 SWAP2 SWAP1 JUMPDEST DUP2 DUP4 LT ISZERO PUSH2 0x5B2 JUMPI DUP1 DUP4 ADD DUP13 ADD MLOAD DUP9 DUP5 ADD PUSH1 0xC0 ADD MSTORE SWAP2 DUP12 ADD SWAP2 PUSH2 0x594 JUMP JUMPDEST POP PUSH1 0xC0 SWAP2 POP DUP5 DUP3 DUP3 DUP10 ADD ADD MSTORE PUSH1 0x80 DUP1 DUP5 ADD MLOAD SWAP4 POP PUSH2 0x5D3 DUP2 DUP10 ADD DUP6 ISZERO ISZERO SWAP1 MSTORE JUMP JUMPDEST POP SWAP8 DUP11 ADD SWAP8 PUSH1 0x1F ADD PUSH1 0x1F NOT AND SWAP6 SWAP1 SWAP6 ADD SWAP1 SWAP5 ADD SWAP4 POP SWAP2 DUP8 ADD SWAP2 PUSH1 0x1 ADD PUSH2 0x547 JUMP JUMPDEST POP SWAP2 SWAP10 SWAP9 POP POP POP POP POP POP POP POP POP JUMP JUMPDEST PUSH1 0x1 DUP2 DUP2 SHR SWAP1 DUP3 AND DUP1 PUSH2 0x617 JUMPI PUSH1 0x7F DUP3 AND SWAP2 POP JUMPDEST PUSH1 0x20 DUP3 LT DUP2 SUB PUSH2 0x637 JUMPI PUSH4 0x4E487B71 PUSH1 0xE0 SHL PUSH1 0x0 MSTORE PUSH1 0x22 PUSH1 0x4 MSTORE PUSH1 0x24 PUSH1 0x0 REVERT JUMPDEST POP SWAP2 SWAP1 POP JUMP JUMPDEST PUSH1 0x1F DUP3 GT ISZERO PUSH2 0x687 JUMPI PUSH1 0x0 DUP2 DUP2 MSTORE PUSH1 0x20 DUP2 KECCAK256 PUSH1 0x1F DUP6 ADD PUSH1 0x5 SHR DUP2 ADD PUSH1 0x20 DUP7 LT ISZERO PUSH2 0x664 JUMPI POP DUP1 JUMPDEST PUSH1 0x1F DUP6 ADD PUSH1 0x5 SHR DUP3 ADD SWAP2 POP JUMPDEST DUP2 DUP2 LT ISZERO PUSH2 0x683 JUMPI DUP3 DUP2 SSTORE PUSH1 0x1 ADD PUSH2 0x670 JUMP JUMPDEST POP POP POP JUMPDEST POP POP POP JUMP JUMPDEST DUP2 MLOAD PUSH8 0xFFFFFFFFFFFFFFFF DUP2 GT ISZERO PUSH2 0x6A6 JUMPI PUSH2 0x6A6 PUSH2 0x458 JUMP JUMPDEST PUSH2 0x6BA DUP2 PUSH2 0x6B4 DUP5 SLOAD PUSH2 0x603 JUMP JUMPDEST DUP5 PUSH2 0x63D JUMP JUMPDEST PUSH1 0x20 DUP1 PUSH1 0x1F DUP4 GT PUSH1 0x1 DUP2 EQ PUSH2 0x6EF JUMPI PUSH1 0x0 DUP5 ISZERO PUSH2 0x6D7 JUMPI POP DUP6 DUP4 ADD MLOAD JUMPDEST PUSH1 0x0 NOT PUSH1 0x3 DUP7 SWAP1 SHL SHR NOT AND PUSH1 0x1 DUP6 SWAP1 SHL OR DUP6 SSTORE PUSH2 0x683 JUMP JUMPDEST PUSH1 0x0 DUP6 DUP2 MSTORE PUSH1 0x20 DUP2 KECCAK256 PUSH1 0x1F NOT DUP7 AND SWAP2 JUMPDEST DUP3 DUP2 LT ISZERO PUSH2 0x71E JUMPI DUP9 DUP7 ADD MLOAD DUP3 SSTORE SWAP5 DUP5 ADD SWAP5 PUSH1 0x1 SWAP1 SWAP2 ADD SWAP1 DUP5 ADD PUSH2 0x6FF JUMP JUMPDEST POP DUP6 DUP3 LT ISZERO PUSH2 0x73C JUMPI DUP8 DUP6 ADD MLOAD PUSH1 0x0 NOT PUSH1 0x3 DUP9 SWAP1 SHL PUSH1 0xF8 AND SHR NOT AND DUP2 SSTORE JUMPDEST POP POP POP POP POP PUSH1 0x1 SWAP1 DUP2 SHL ADD SWAP1 SSTORE POP JUMP JUMPDEST PUSH4 0x4E487B71 PUSH1 0xE0 SHL PUSH1 0x0 MSTORE PUSH1 0x11 PUSH1 0x4 MSTORE PUSH1 0x24 PUSH1 0x0 REVERT JUMPDEST DUP1 DUP3 ADD DUP1 DUP3 GT ISZERO PUSH2 0x775 JUMPI PUSH2 0x775 PUSH2 0x74C JUMP JUMPDEST SWAP3 SWAP2 POP POP JUMP JUMPDEST PUSH1 0x0 PUSH1 0x1 DUP3 ADD PUSH2 0x78D JUMPI PUSH2 0x78D PUSH2 0x74C JUMP JUMPDEST POP PUSH1 0x1 ADD SWAP1 JUMP JUMPDEST PUSH4 0x4E487B71 PUSH1 0xE0 SHL PUSH1 0x0 MSTORE PUSH1 0x32 PUSH1 0x4 MSTORE PUSH1 0x24 PUSH1 0x0 REVERT INVALID LOG2 PUSH5 0x6970667358 0x22 SLT KECCAK256 0x4E PUSH26 0x7916B27503782CC4ABABB508A2EB383E9F7E1B97FA17E8F98D4A MSTORE8 PUSH20 0x12AA64736F6C6343000815003300000000000000 ",
  "sha1": "6ee1a9f7e2b1e281f9dc0c1096b4088fcdeadb97",
  "source": "// SPDX-License-Identifier: MIT\npragma solidity ^0.8.13;\n\nimport \"@openzeppelin/contracts/utils/Counters.sol\";\nimport \"@openzeppelin/contracts/utils/Strings.sol\";\nimport \"@openzeppelin/contracts/security/ReentrancyGuard.sol\";\n\ncontract DaoIndexer is ReentrancyGuard {\n  using Counters for Counters.Counter;\n  Counters.Counter private _daoCount;\n  address payable private _marketOwner;\n  mapping(uint256 => DAO_PLACEHOLDER) private _idToDAO;\n  struct DAO_PLACEHOLDER {\n    uint256 tokenId;\n    address payable seller;\n    address payable owner;\n    string  desc_uri;\n    bool listed;\n  }\n\n\n constructor() {\n    _marketOwner = payable(msg.sender);\n  }\n\n  function makeDaoPlaceholder(string memory _desc_uri) public payable nonReentrant {\n  \n    _daoCount.increment();\n    uint256 daoCount = _daoCount.current();\n    \n\n    _idToDAO[daoCount] = DAO_PLACEHOLDER(\n      daoCount, \n      payable(msg.sender),\n      payable(address(this)),\n      _desc_uri,\n      true\n    );\n    \n  }\n\n \n  function getListedDaos() public view returns (DAO_PLACEHOLDER[] memory) {\n    uint daoCount = _daoCount.current();\n    uint ListedDaoCount = 0;\n    for (uint i = 0; i < daoCount; i++) {\n      if (_idToDAO[i + 1].seller == msg.sender && _idToDAO[i + 1].listed) {\n        ListedDaoCount++;\n      }\n    }\n\n    DAO_PLACEHOLDER[] memory daos = new DAO_PLACEHOLDER[](ListedDaoCount);\n    uint daoIndex = 0;\n    for (uint i = 0; i < daoCount; i++) {\n      if (_idToDAO[i + 1].seller == msg.sender && _idToDAO[i + 1].listed) {\n        daos[daoIndex] = _idToDAO[i + 1];\n        daoIndex++;\n      }\n    }\n    return daos;\n  }\n}\n",
  "sourcePath": "contracts/DaoIndexer.sol",
  "type": "contract"
}