{
  "abi": [
    {
      "inputs": [
        {
          "internalType": "address",
          "name": "_member",
          "type": "address"
        }
      ],
      "name": "addMember",
      "outputs": [],
      "stateMutability": "nonpayable",
      "type": "function"
    },
    {
      "inputs": [],
      "name": "getMembers",
      "outputs": [
        {
          "internalType": "address[]",
          "name": "",
          "type": "address[]"
        }
      ],
      "stateMutability": "view",
      "type": "function"
    },
    {
      "inputs": [
        {
          "internalType": "address",
          "name": "",
          "type": "address"
        }
      ],
      "name": "indexes",
      "outputs": [
        {
          "internalType": "uint256",
          "name": "",
          "type": "uint256"
        }
      ],
      "stateMutability": "view",
      "type": "function"
    },
    {
      "inputs": [
        {
          "internalType": "address",
          "name": "_member",
          "type": "address"
        }
      ],
      "name": "isMember",
      "outputs": [
        {
          "internalType": "bool",
          "name": "",
          "type": "bool"
        }
      ],
      "stateMutability": "view",
      "type": "function"
    },
    {
      "inputs": [
        {
          "internalType": "uint256",
          "name": "",
          "type": "uint256"
        }
      ],
      "name": "members",
      "outputs": [
        {
          "internalType": "address",
          "name": "",
          "type": "address"
        }
      ],
      "stateMutability": "view",
      "type": "function"
    }
  ],
  "bytecode": "608060405234801561001057600080fd5b506102f6806100206000396000f3fe608060405234801561001057600080fd5b50600436106100575760003560e01c80632db78d931461005c5780635daf08ca1461008f5780639eab5253146100ba578063a230c524146100cf578063ca6d56dc1461010a575b600080fd5b61007c61006a36600461022a565b60016020526000908152604090205481565b6040519081526020015b60405180910390f35b6100a261009d36600461025a565b61011f565b6040516001600160a01b039091168152602001610086565b6100c2610149565b6040516100869190610273565b6100fa6100dd36600461022a565b6001600160a01b0316600090815260016020526040902054151590565b6040519015158152602001610086565b61011d61011836600461022a565b6101ab565b005b6000818154811061012f57600080fd5b6000918252602090912001546001600160a01b0316905081565b606060008054806020026020016040519081016040528092919081815260200182805480156101a157602002820191906000526020600020905b81546001600160a01b03168152600190910190602001808311610183575b5050505050905090565b6001600160a01b03811660009081526001602052604081205490036102275760008054600180820183557f290decd9548b62a8d60345a988386fc84ba6bc95484008f6362f93160ef3e56390910180546001600160a01b0319166001600160a01b03851690811790915582549083526020919091526040909120555b50565b60006020828403121561023c57600080fd5b81356001600160a01b038116811461025357600080fd5b9392505050565b60006020828403121561026c57600080fd5b5035919050565b6020808252825182820181905260009190848201906040850190845b818110156102b45783516001600160a01b03168352928401929184019160010161028f565b5090969550505050505056fea264697066735822122010380c5ad07e42606fe619b23ab0d045004979da12643f06c2639e75bfe5ff2164736f6c63430008170033",
  "bytecodeSha1": "6ed3e4c18be95b4413c89eb1ecd84d716ef609b5",
  "compiler": {
    "evm_version": "istanbul",
    "optimizer": {
      "enabled": true,
      "runs": 200
    },
    "version": "0.8.23+commit.f704f362"
  },
  "contractName": "DaoMembers",
  "language": "Solidity",
  "natspec": {
    "kind": "dev",
    "methods": {},
    "version": 1
  },
  "opcodes": "PUSH1 0x80 PUSH1 0x40 MSTORE CALLVALUE DUP1 ISZERO PUSH2 0x10 JUMPI PUSH1 0x0 DUP1 REVERT JUMPDEST POP PUSH1 0x4 CALLDATASIZE LT PUSH2 0x57 JUMPI PUSH1 0x0 CALLDATALOAD PUSH1 0xE0 SHR DUP1 PUSH4 0x2DB78D93 EQ PUSH2 0x5C JUMPI DUP1 PUSH4 0x5DAF08CA EQ PUSH2 0x8F JUMPI DUP1 PUSH4 0x9EAB5253 EQ PUSH2 0xBA JUMPI DUP1 PUSH4 0xA230C524 EQ PUSH2 0xCF JUMPI DUP1 PUSH4 0xCA6D56DC EQ PUSH2 0x10A JUMPI JUMPDEST PUSH1 0x0 DUP1 REVERT JUMPDEST PUSH2 0x7C PUSH2 0x6A CALLDATASIZE PUSH1 0x4 PUSH2 0x22A JUMP JUMPDEST PUSH1 0x1 PUSH1 0x20 MSTORE PUSH1 0x0 SWAP1 DUP2 MSTORE PUSH1 0x40 SWAP1 KECCAK256 SLOAD DUP2 JUMP JUMPDEST PUSH1 0x40 MLOAD SWAP1 DUP2 MSTORE PUSH1 0x20 ADD JUMPDEST PUSH1 0x40 MLOAD DUP1 SWAP2 SUB SWAP1 RETURN JUMPDEST PUSH2 0xA2 PUSH2 0x9D CALLDATASIZE PUSH1 0x4 PUSH2 0x25A JUMP JUMPDEST PUSH2 0x11F JUMP JUMPDEST PUSH1 0x40 MLOAD PUSH1 0x1 PUSH1 0x1 PUSH1 0xA0 SHL SUB SWAP1 SWAP2 AND DUP2 MSTORE PUSH1 0x20 ADD PUSH2 0x86 JUMP JUMPDEST PUSH2 0xC2 PUSH2 0x149 JUMP JUMPDEST PUSH1 0x40 MLOAD PUSH2 0x86 SWAP2 SWAP1 PUSH2 0x273 JUMP JUMPDEST PUSH2 0xFA PUSH2 0xDD CALLDATASIZE PUSH1 0x4 PUSH2 0x22A JUMP JUMPDEST PUSH1 0x1 PUSH1 0x1 PUSH1 0xA0 SHL SUB AND PUSH1 0x0 SWAP1 DUP2 MSTORE PUSH1 0x1 PUSH1 0x20 MSTORE PUSH1 0x40 SWAP1 KECCAK256 SLOAD ISZERO ISZERO SWAP1 JUMP JUMPDEST PUSH1 0x40 MLOAD SWAP1 ISZERO ISZERO DUP2 MSTORE PUSH1 0x20 ADD PUSH2 0x86 JUMP JUMPDEST PUSH2 0x11D PUSH2 0x118 CALLDATASIZE PUSH1 0x4 PUSH2 0x22A JUMP JUMPDEST PUSH2 0x1AB JUMP JUMPDEST STOP JUMPDEST PUSH1 0x0 DUP2 DUP2 SLOAD DUP2 LT PUSH2 0x12F JUMPI PUSH1 0x0 DUP1 REVERT JUMPDEST PUSH1 0x0 SWAP2 DUP3 MSTORE PUSH1 0x20 SWAP1 SWAP2 KECCAK256 ADD SLOAD PUSH1 0x1 PUSH1 0x1 PUSH1 0xA0 SHL SUB AND SWAP1 POP DUP2 JUMP JUMPDEST PUSH1 0x60 PUSH1 0x0 DUP1 SLOAD DUP1 PUSH1 0x20 MUL PUSH1 0x20 ADD PUSH1 0x40 MLOAD SWAP1 DUP2 ADD PUSH1 0x40 MSTORE DUP1 SWAP3 SWAP2 SWAP1 DUP2 DUP2 MSTORE PUSH1 0x20 ADD DUP3 DUP1 SLOAD DUP1 ISZERO PUSH2 0x1A1 JUMPI PUSH1 0x20 MUL DUP3 ADD SWAP2 SWAP1 PUSH1 0x0 MSTORE PUSH1 0x20 PUSH1 0x0 KECCAK256 SWAP1 JUMPDEST DUP2 SLOAD PUSH1 0x1 PUSH1 0x1 PUSH1 0xA0 SHL SUB AND DUP2 MSTORE PUSH1 0x1 SWAP1 SWAP2 ADD SWAP1 PUSH1 0x20 ADD DUP1 DUP4 GT PUSH2 0x183 JUMPI JUMPDEST POP POP POP POP POP SWAP1 POP SWAP1 JUMP JUMPDEST PUSH1 0x1 PUSH1 0x1 PUSH1 0xA0 SHL SUB DUP2 AND PUSH1 0x0 SWAP1 DUP2 MSTORE PUSH1 0x1 PUSH1 0x20 MSTORE PUSH1 0x40 DUP2 KECCAK256 SLOAD SWAP1 SUB PUSH2 0x227 JUMPI PUSH1 0x0 DUP1 SLOAD PUSH1 0x1 DUP1 DUP3 ADD DUP4 SSTORE PUSH32 0x290DECD9548B62A8D60345A988386FC84BA6BC95484008F6362F93160EF3E563 SWAP1 SWAP2 ADD DUP1 SLOAD PUSH1 0x1 PUSH1 0x1 PUSH1 0xA0 SHL SUB NOT AND PUSH1 0x1 PUSH1 0x1 PUSH1 0xA0 SHL SUB DUP6 AND SWAP1 DUP2 OR SWAP1 SWAP2 SSTORE DUP3 SLOAD SWAP1 DUP4 MSTORE PUSH1 0x20 SWAP2 SWAP1 SWAP2 MSTORE PUSH1 0x40 SWAP1 SWAP2 KECCAK256 SSTORE JUMPDEST POP JUMP JUMPDEST PUSH1 0x0 PUSH1 0x20 DUP3 DUP5 SUB SLT ISZERO PUSH2 0x23C JUMPI PUSH1 0x0 DUP1 REVERT JUMPDEST DUP2 CALLDATALOAD PUSH1 0x1 PUSH1 0x1 PUSH1 0xA0 SHL SUB DUP2 AND DUP2 EQ PUSH2 0x253 JUMPI PUSH1 0x0 DUP1 REVERT JUMPDEST SWAP4 SWAP3 POP POP POP JUMP JUMPDEST PUSH1 0x0 PUSH1 0x20 DUP3 DUP5 SUB SLT ISZERO PUSH2 0x26C JUMPI PUSH1 0x0 DUP1 REVERT JUMPDEST POP CALLDATALOAD SWAP2 SWAP1 POP JUMP JUMPDEST PUSH1 0x20 DUP1 DUP3 MSTORE DUP3 MLOAD DUP3 DUP3 ADD DUP2 SWAP1 MSTORE PUSH1 0x0 SWAP2 SWAP1 DUP5 DUP3 ADD SWAP1 PUSH1 0x40 DUP6 ADD SWAP1 DUP5 JUMPDEST DUP2 DUP2 LT ISZERO PUSH2 0x2B4 JUMPI DUP4 MLOAD PUSH1 0x1 PUSH1 0x1 PUSH1 0xA0 SHL SUB AND DUP4 MSTORE SWAP3 DUP5 ADD SWAP3 SWAP2 DUP5 ADD SWAP2 PUSH1 0x1 ADD PUSH2 0x28F JUMP JUMPDEST POP SWAP1 SWAP7 SWAP6 POP POP POP POP POP POP JUMP INVALID LOG2 PUSH5 0x6970667358 0x22 SLT KECCAK256 LT CODESIZE 0xC GAS 0xD0 PUSH31 0x42606FE619B23AB0D045004979DA12643F06C2639E75BFE5FF2164736F6C63 NUMBER STOP ADDMOD OR STOP CALLER ",
  "sha1": "e166cb219f3569104a7382ebf5f66b497b07e063",
  "source": "// SPDX-License-Identifier: MIT\npragma solidity ^0.8.13;\n\nimport \"@openzeppelin/contracts/utils/Counters.sol\";\nimport \"@openzeppelin/contracts/token/ERC721/ERC721.sol\";\nimport \"@openzeppelin/contracts/utils/Strings.sol\";\nimport \"@openzeppelin/contracts/security/ReentrancyGuard.sol\";\n\n\n\n\ncontract DaoMembers {\n\n    address [] public members;\n    mapping (address => uint256) public indexes;\n\n    function addMember(address _member) public {\n      if(indexes[_member] == 0){\n        members.push(_member);\n        indexes[_member] = members.length;\n      }\n    }\n\n  function isMember(address _member) public view returns(bool){\n    return indexes[_member] !=0;\n  }\n\n  function getMembers() public view returns(address[] memory){\n    return members;\n  }\n\n\n}\n\n\ncontract OaseesMarketplace is ReentrancyGuard {\n\n\n  using Counters for Counters.Counter;\n  Counters.Counter private _nftsSold;\n  Counters.Counter private _nftCount;\n  Counters.Counter private _deviceCount;\n  Counters.Counter private _daoCount;\n  uint256 public LISTING_FEE = 0.0001 ether;\n  address payable private _marketOwner;\n  mapping(uint256 => NFT) private _idToNFT;\n  mapping(uint256 => DEVICE) private _idToDevice;\n  mapping(uint256 => DAO) private _idToDao;\n  mapping (uint256 => mapping(address => bool)) private daoMembers;\n  event Received(address, uint);\n\n  constructor() {\n    _marketOwner = payable(msg.sender);\n  }\n\n  \n  struct DEVICE {\n    address nftContract;\n    uint256 tokenId;\n    address payable seller;\n    address payable owner;\n    uint price;\n    string desc_uri; \n    bool listed;\n    uint256 marketPlaceId;\n  }\n\n  function makeDevice(address _nftContract, uint256 _tokenId,uint256 _price,string memory _desc_uri,bool listed) public payable nonReentrant {\n\n\n    address  _owner = msg.sender;\n    address  _seller = msg.sender;\n\n    if(listed){\n      IERC721(_nftContract).transferFrom( msg.sender,address(this),_tokenId);\n      _owner = address(this);\n\n    }\n    _deviceCount.increment();\n\n    _idToDevice[_deviceCount.current()] = DEVICE(\n      _nftContract,\n      _tokenId,\n      payable(_seller), \n      payable(_owner),\n      _price,\n      _desc_uri,\n      listed,\n      _deviceCount.current()\n    );\n  } \n\n  function getListedDevices() public view returns (DEVICE[] memory) {\n    uint256 deviceCount = _deviceCount.current();\n    uint256 listedDevices = 0;\n\n    for (uint i = 0; i < deviceCount; i++) {\n      if (_idToDevice[i + 1].listed) {\n        listedDevices++;\n      }\n    }\n\n\n    DEVICE[] memory devices = new DEVICE[](listedDevices);\n    uint devicesIndex = 0;\n    for (uint i = 0; i < deviceCount; i++) {\n      if (_idToDevice[i + 1].listed) {\n        devices[devicesIndex] = _idToDevice[i + 1];\n        devicesIndex++;\n      }\n    }\n    return devices;\n  }\n\n function buyDevice(address _nftContract, uint256 _tokenId) public payable nonReentrant {\n    DEVICE storage device = _idToDevice[_tokenId];\n    require(msg.value >= device.price, \"Not enough ether to cover asking price\");\n\n    address payable buyer = payable(msg.sender);\n    payable(device.seller).transfer(msg.value);\n    IERC721(_nftContract).transferFrom(address(this), buyer, device.tokenId);\n    device.owner = buyer;\n    device.listed = false;\n\n  }\n\n\n\n  function getMyDevices() public view returns (DEVICE[] memory) {\n    uint deviceCount = _deviceCount.current();\n    uint myDevicesCount = 0;\n    for (uint i = 0; i < deviceCount; i++) {\n      if (_idToDevice[i + 1].owner == msg.sender) {\n        myDevicesCount++;\n      }\n    }\n\n    DEVICE[] memory devices = new DEVICE[](myDevicesCount);\n    uint deviceIndex = 0;\n    for (uint i = 0; i < deviceCount; i++) {\n      if (_idToDevice[i + 1].owner == msg.sender) {\n        devices[deviceIndex] = _idToDevice[i + 1];\n        deviceIndex++;\n      }\n    }\n    return devices;\n  }\n\n  struct DAO{\n    address nftContract;\n    uint256 tokenId;\n    string desc_uri;\n    DaoMembers members;\n    uint256 marketPlaceId; \n  }\n\n\n  event DaoJoined (\n    address member_address,\n    uint256 tokenId\n  );\n\n\n  function makeDao(address _nftContract, uint256 _tokenId,string memory _desc_uri) public payable nonReentrant {\n  \n    _daoCount.increment();\n \n    _idToDao[_daoCount.current()] = DAO(\n      _nftContract,\n      _tokenId,\n      _desc_uri,\n      new DaoMembers(),\n      _daoCount.current()\n    );\n  } \n\n  function getJoinedDaos() public view returns (DAO[] memory){\n    uint daoCount =  _daoCount.current();\n    uint isMemberCount = 0;\n    for(uint i=0; i < daoCount;i++){\n      if(_idToDao[i+1].members.isMember(msg.sender)){\n        isMemberCount++;\n      }  \n\n    } \n\n\n    uint daoIndex = 0;\n    DAO[] memory daos = new DAO[](isMemberCount);\n    \n\n    for(uint i=0; i < daoCount;i++){\n\n      if(_idToDao[i+1].members.isMember(msg.sender)){\n        daos[daoIndex] = _idToDao[i+1];\n        daoIndex++;\n      }  \n\n    }\n\n    return daos;\n  }\n\n\n  function joinDao(uint256 _tokenId) public payable nonReentrant {\n    _idToDao[_tokenId].members.addMember(msg.sender);\n    emit DaoJoined(msg.sender, _idToDao[_tokenId].tokenId);\n  }\n\n  function registerDeviceToDao(address deviceAddress,uint daoId) public {\n    _idToDao[daoId].members.addMember(deviceAddress);\n    emit DaoJoined(deviceAddress, daoId);\n  }\n\n  function getDaoMembers(uint256 _tokenId) public view returns (address[] memory) {\n    return _idToDao[_tokenId].members.getMembers();\n    \n  }\n\n  function getlistedDaos() public view returns (DAO[] memory){\n    \n    uint daoCount =  _daoCount.current();\n    uint isMemberCount = 0;\n    for(uint i=0; i < daoCount;i++){\n      if(_idToDao[i+1].members.isMember(msg.sender)){\n        isMemberCount++;\n      }  \n\n    }  \n\n    uint daoIndex = 0;\n    DAO[] memory daos = new DAO[](daoCount-isMemberCount);\n    \n\n    for(uint i=0; i < daoCount;i++){\n\n      if(!_idToDao[i+1].members.isMember(msg.sender)){\n        daos[daoIndex] = _idToDao[i+1];\n        daoIndex++;\n      }  \n\n    }\n\n    return daos;\n  }\n\n\n  struct NFT {\n    address nftContract;\n    uint256 tokenId;\n    address payable seller;\n    address payable owner;\n    uint256 price;\n    string  desc_uri;\n    bool listed;\n    uint256 marketPlaceId;\n  }\n  event NFTListed(\n    address nftContract,\n    uint256 tokenId,\n    address seller,\n    address owner,\n    uint256 price\n  );\n  event NFTSold(\n    address nftContract,\n    uint256 tokenId,\n    address seller,\n    address owner,\n    uint256 price\n  );\n\n\n\n\n\n  // List the NFT on the marketplace\n  function makeItem(address _nftContract, uint256 _tokenId, uint256 _price, string memory _desc_uri) public payable nonReentrant {\n    require(_price > 0, \"Price must be at least 1 wei\");\n    require(msg.value == LISTING_FEE, \"Not enough ether for listing fee\");\n\n    IERC721(_nftContract).transferFrom(msg.sender, address(this), _tokenId);\n    _marketOwner.transfer(LISTING_FEE);\n    _nftCount.increment();\n\n    _idToNFT[_nftCount.current()] = NFT(\n      _nftContract,\n      _tokenId, \n      payable(msg.sender),\n      payable(address(this)),\n      _price,\n      _desc_uri,\n      true,\n      _nftCount.current()\n    );\n\n    emit NFTListed(_nftContract, _tokenId, msg.sender, address(this), _price);\n  }\n\n  // Buy an NFT\n  function buyNft(address _nftContract, uint256 _tokenId) public payable nonReentrant {\n    NFT storage nft = _idToNFT[_tokenId];\n    require(msg.value >= nft.price, \"Not enough ether to cover asking price\");\n\n    address payable buyer = payable(msg.sender);\n    payable(nft.seller).transfer(msg.value);\n    IERC721(_nftContract).transferFrom(address(this), buyer, nft.tokenId);\n    nft.owner = buyer;\n    nft.listed = false;\n\n    _nftsSold.increment();\n    emit NFTSold(_nftContract, nft.tokenId, nft.seller, buyer, msg.value);\n  }\n\n\n  function getListedNfts() public view returns (NFT[] memory) {\n    uint256 nftCount = _nftCount.current();\n    uint256 unsoldNftsCount = nftCount - _nftsSold.current();\n\n    NFT[] memory nfts = new NFT[](unsoldNftsCount);\n    uint nftsIndex = 0;\n    for (uint i = 0; i < nftCount; i++) {\n      if (_idToNFT[i + 1].listed) {\n        nfts[nftsIndex] = _idToNFT[i + 1];\n        nftsIndex++;\n      }\n    }\n    return nfts;\n  }\n\n  function getMyNfts() public view returns (NFT[] memory) {\n    uint nftCount = _nftCount.current();\n    uint myNftCount = 0;\n    for (uint i = 0; i < nftCount; i++) {\n      if (_idToNFT[i + 1].owner == msg.sender) {\n        myNftCount++;\n      }\n    }\n\n    NFT[] memory nfts = new NFT[](myNftCount);\n    uint nftsIndex = 0;\n    for (uint i = 0; i < nftCount; i++) {\n      if (_idToNFT[i + 1].owner == msg.sender) {\n        nfts[nftsIndex] = _idToNFT[i + 1];\n        nftsIndex++;\n      }\n    }\n    return nfts;\n  }\n\n  function getMyListedNfts() public view returns (NFT[] memory) {\n    uint nftCount = _nftCount.current();\n    uint myListedNftCount = 0;\n    for (uint i = 0; i < nftCount; i++) {\n      if (_idToNFT[i + 1].seller == msg.sender && _idToNFT[i + 1].listed) {\n        myListedNftCount++;\n      }\n    }\n\n    NFT[] memory nfts = new NFT[](myListedNftCount);\n    uint nftsIndex = 0;\n    for (uint i = 0; i < nftCount; i++) {\n      if (_idToNFT[i + 1].seller == msg.sender && _idToNFT[i + 1].listed) {\n        nfts[nftsIndex] = _idToNFT[i + 1];\n        nftsIndex++;\n      }\n    }\n    return nfts;\n  }\n}\n",
  "sourcePath": "contracts/Marketplace.sol",
  "type": "contract"
}