{
  "abi": [
    {
      "inputs": [],
      "stateMutability": "nonpayable",
      "type": "constructor"
    },
    {
      "anonymous": false,
      "inputs": [
        {
          "indexed": true,
          "internalType": "address",
          "name": "member_address",
          "type": "address"
        }
      ],
      "name": "ClusterJoined",
      "type": "event"
    },
    {
      "anonymous": false,
      "inputs": [
        {
          "indexed": true,
          "internalType": "address",
          "name": "member_address",
          "type": "address"
        },
        {
          "indexed": false,
          "internalType": "uint256",
          "name": "tokenId",
          "type": "uint256"
        }
      ],
      "name": "DaoJoined",
      "type": "event"
    },
    {
      "anonymous": false,
      "inputs": [],
      "name": "DeviceListed",
      "type": "event"
    },
    {
      "anonymous": false,
      "inputs": [
        {
          "indexed": true,
          "internalType": "address",
          "name": "owner",
          "type": "address"
        }
      ],
      "name": "DeviceSold",
      "type": "event"
    },
    {
      "anonymous": false,
      "inputs": [
        {
          "indexed": false,
          "internalType": "address",
          "name": "nftContract",
          "type": "address"
        },
        {
          "indexed": false,
          "internalType": "uint256",
          "name": "tokenId",
          "type": "uint256"
        },
        {
          "indexed": false,
          "internalType": "address",
          "name": "seller",
          "type": "address"
        },
        {
          "indexed": false,
          "internalType": "address",
          "name": "owner",
          "type": "address"
        },
        {
          "indexed": false,
          "internalType": "uint256",
          "name": "price",
          "type": "uint256"
        }
      ],
      "name": "NFTListed",
      "type": "event"
    },
    {
      "anonymous": false,
      "inputs": [
        {
          "indexed": false,
          "internalType": "address",
          "name": "nftContract",
          "type": "address"
        },
        {
          "indexed": false,
          "internalType": "uint256",
          "name": "tokenId",
          "type": "uint256"
        },
        {
          "indexed": false,
          "internalType": "address",
          "name": "seller",
          "type": "address"
        },
        {
          "indexed": true,
          "internalType": "address",
          "name": "owner",
          "type": "address"
        },
        {
          "indexed": false,
          "internalType": "uint256",
          "name": "price",
          "type": "uint256"
        }
      ],
      "name": "NFTSold",
      "type": "event"
    },
    {
      "anonymous": false,
      "inputs": [],
      "name": "NewDAO",
      "type": "event"
    },
    {
      "anonymous": false,
      "inputs": [
        {
          "indexed": false,
          "internalType": "address",
          "name": "",
          "type": "address"
        },
        {
          "indexed": false,
          "internalType": "uint256",
          "name": "",
          "type": "uint256"
        }
      ],
      "name": "Received",
      "type": "event"
    },
    {
      "inputs": [],
      "name": "LISTING_FEE",
      "outputs": [
        {
          "internalType": "uint256",
          "name": "",
          "type": "uint256"
        }
      ],
      "stateMutability": "view",
      "type": "function"
    },
    {
      "inputs": [
        {
          "internalType": "uint256",
          "name": "_marketplaceId",
          "type": "uint256"
        },
        {
          "internalType": "uint256",
          "name": "_tokenId",
          "type": "uint256"
        }
      ],
      "name": "applyDao",
      "outputs": [],
      "stateMutability": "payable",
      "type": "function"
    },
    {
      "inputs": [
        {
          "internalType": "address",
          "name": "_nftContract",
          "type": "address"
        },
        {
          "internalType": "uint256",
          "name": "_tokenId",
          "type": "uint256"
        }
      ],
      "name": "buyDevice",
      "outputs": [],
      "stateMutability": "payable",
      "type": "function"
    },
    {
      "inputs": [
        {
          "internalType": "address",
          "name": "_nftContract",
          "type": "address"
        },
        {
          "internalType": "uint256",
          "name": "_tokenId",
          "type": "uint256"
        }
      ],
      "name": "buyNft",
      "outputs": [],
      "stateMutability": "payable",
      "type": "function"
    },
    {
      "inputs": [
        {
          "internalType": "uint256",
          "name": "_tokenId",
          "type": "uint256"
        }
      ],
      "name": "getDaoMembers",
      "outputs": [
        {
          "internalType": "address[]",
          "name": "",
          "type": "address[]"
        }
      ],
      "stateMutability": "view",
      "type": "function"
    },
    {
      "inputs": [],
      "name": "getJoinedDaos",
      "outputs": [
        {
          "components": [
            {
              "internalType": "address",
              "name": "nftContract",
              "type": "address"
            },
            {
              "internalType": "uint256",
              "name": "tokenId",
              "type": "uint256"
            },
            {
              "internalType": "string",
              "name": "desc_uri",
              "type": "string"
            },
            {
              "internalType": "contract DaoMembers",
              "name": "members",
              "type": "address"
            },
            {
              "internalType": "uint256",
              "name": "marketPlaceId",
              "type": "uint256"
            },
            {
              "internalType": "uint256",
              "name": "clusterTokenId",
              "type": "uint256"
            },
            {
              "internalType": "bool",
              "name": "hasCluster",
              "type": "bool"
            }
          ],
          "internalType": "struct OaseesMarketplace.DAO[]",
          "name": "",
          "type": "tuple[]"
        }
      ],
      "stateMutability": "view",
      "type": "function"
    },
    {
      "inputs": [],
      "name": "getListedDevices",
      "outputs": [
        {
          "components": [
            {
              "internalType": "address",
              "name": "nftContract",
              "type": "address"
            },
            {
              "internalType": "uint256",
              "name": "tokenId",
              "type": "uint256"
            },
            {
              "internalType": "address payable",
              "name": "seller",
              "type": "address"
            },
            {
              "internalType": "address payable",
              "name": "owner",
              "type": "address"
            },
            {
              "internalType": "uint256",
              "name": "price",
              "type": "uint256"
            },
            {
              "internalType": "string",
              "name": "desc_uri",
              "type": "string"
            },
            {
              "internalType": "bool",
              "name": "listed",
              "type": "bool"
            },
            {
              "internalType": "uint256",
              "name": "marketPlaceId",
              "type": "uint256"
            },
            {
              "internalType": "bool",
              "name": "isCluster",
              "type": "bool"
            }
          ],
          "internalType": "struct OaseesMarketplace.DEVICE[]",
          "name": "",
          "type": "tuple[]"
        }
      ],
      "stateMutability": "view",
      "type": "function"
    },
    {
      "inputs": [],
      "name": "getListedNfts",
      "outputs": [
        {
          "components": [
            {
              "internalType": "address",
              "name": "nftContract",
              "type": "address"
            },
            {
              "internalType": "uint256",
              "name": "tokenId",
              "type": "uint256"
            },
            {
              "internalType": "address payable",
              "name": "seller",
              "type": "address"
            },
            {
              "internalType": "address payable",
              "name": "owner",
              "type": "address"
            },
            {
              "internalType": "uint256",
              "name": "price",
              "type": "uint256"
            },
            {
              "internalType": "string",
              "name": "desc_uri",
              "type": "string"
            },
            {
              "internalType": "bool",
              "name": "listed",
              "type": "bool"
            },
            {
              "internalType": "uint256",
              "name": "marketPlaceId",
              "type": "uint256"
            }
          ],
          "internalType": "struct OaseesMarketplace.NFT[]",
          "name": "",
          "type": "tuple[]"
        }
      ],
      "stateMutability": "view",
      "type": "function"
    },
    {
      "inputs": [],
      "name": "getMyDevices",
      "outputs": [
        {
          "components": [
            {
              "internalType": "address",
              "name": "nftContract",
              "type": "address"
            },
            {
              "internalType": "uint256",
              "name": "tokenId",
              "type": "uint256"
            },
            {
              "internalType": "address payable",
              "name": "seller",
              "type": "address"
            },
            {
              "internalType": "address payable",
              "name": "owner",
              "type": "address"
            },
            {
              "internalType": "uint256",
              "name": "price",
              "type": "uint256"
            },
            {
              "internalType": "string",
              "name": "desc_uri",
              "type": "string"
            },
            {
              "internalType": "bool",
              "name": "listed",
              "type": "bool"
            },
            {
              "internalType": "uint256",
              "name": "marketPlaceId",
              "type": "uint256"
            },
            {
              "internalType": "bool",
              "name": "isCluster",
              "type": "bool"
            }
          ],
          "internalType": "struct OaseesMarketplace.DEVICE[]",
          "name": "",
          "type": "tuple[]"
        }
      ],
      "stateMutability": "view",
      "type": "function"
    },
    {
      "inputs": [],
      "name": "getMyListedNfts",
      "outputs": [
        {
          "components": [
            {
              "internalType": "address",
              "name": "nftContract",
              "type": "address"
            },
            {
              "internalType": "uint256",
              "name": "tokenId",
              "type": "uint256"
            },
            {
              "internalType": "address payable",
              "name": "seller",
              "type": "address"
            },
            {
              "internalType": "address payable",
              "name": "owner",
              "type": "address"
            },
            {
              "internalType": "uint256",
              "name": "price",
              "type": "uint256"
            },
            {
              "internalType": "string",
              "name": "desc_uri",
              "type": "string"
            },
            {
              "internalType": "bool",
              "name": "listed",
              "type": "bool"
            },
            {
              "internalType": "uint256",
              "name": "marketPlaceId",
              "type": "uint256"
            }
          ],
          "internalType": "struct OaseesMarketplace.NFT[]",
          "name": "",
          "type": "tuple[]"
        }
      ],
      "stateMutability": "view",
      "type": "function"
    },
    {
      "inputs": [],
      "name": "getMyNfts",
      "outputs": [
        {
          "components": [
            {
              "internalType": "address",
              "name": "nftContract",
              "type": "address"
            },
            {
              "internalType": "uint256",
              "name": "tokenId",
              "type": "uint256"
            },
            {
              "internalType": "address payable",
              "name": "seller",
              "type": "address"
            },
            {
              "internalType": "address payable",
              "name": "owner",
              "type": "address"
            },
            {
              "internalType": "uint256",
              "name": "price",
              "type": "uint256"
            },
            {
              "internalType": "string",
              "name": "desc_uri",
              "type": "string"
            },
            {
              "internalType": "bool",
              "name": "listed",
              "type": "bool"
            },
            {
              "internalType": "uint256",
              "name": "marketPlaceId",
              "type": "uint256"
            }
          ],
          "internalType": "struct OaseesMarketplace.NFT[]",
          "name": "",
          "type": "tuple[]"
        }
      ],
      "stateMutability": "view",
      "type": "function"
    },
    {
      "inputs": [],
      "name": "getlistedDaos",
      "outputs": [
        {
          "components": [
            {
              "internalType": "address",
              "name": "nftContract",
              "type": "address"
            },
            {
              "internalType": "uint256",
              "name": "tokenId",
              "type": "uint256"
            },
            {
              "internalType": "string",
              "name": "desc_uri",
              "type": "string"
            },
            {
              "internalType": "contract DaoMembers",
              "name": "members",
              "type": "address"
            },
            {
              "internalType": "uint256",
              "name": "marketPlaceId",
              "type": "uint256"
            },
            {
              "internalType": "uint256",
              "name": "clusterTokenId",
              "type": "uint256"
            },
            {
              "internalType": "bool",
              "name": "hasCluster",
              "type": "bool"
            }
          ],
          "internalType": "struct OaseesMarketplace.DAO[]",
          "name": "",
          "type": "tuple[]"
        }
      ],
      "stateMutability": "view",
      "type": "function"
    },
    {
      "inputs": [
        {
          "internalType": "uint256",
          "name": "_tokenId",
          "type": "uint256"
        }
      ],
      "name": "joinDao",
      "outputs": [],
      "stateMutability": "payable",
      "type": "function"
    },
    {
      "inputs": [
        {
          "internalType": "address",
          "name": "_nftContract",
          "type": "address"
        },
        {
          "internalType": "uint256",
          "name": "_tokenId",
          "type": "uint256"
        },
        {
          "internalType": "string",
          "name": "_desc_uri",
          "type": "string"
        },
        {
          "internalType": "uint256",
          "name": "_clusterTokenId",
          "type": "uint256"
        },
        {
          "internalType": "bool",
          "name": "_hasCluster",
          "type": "bool"
        }
      ],
      "name": "makeDao",
      "outputs": [
        {
          "internalType": "uint256",
          "name": "",
          "type": "uint256"
        }
      ],
      "stateMutability": "payable",
      "type": "function"
    },
    {
      "inputs": [
        {
          "internalType": "address",
          "name": "_nftContract",
          "type": "address"
        },
        {
          "internalType": "uint256",
          "name": "_tokenId",
          "type": "uint256"
        },
        {
          "internalType": "uint256",
          "name": "_price",
          "type": "uint256"
        },
        {
          "internalType": "string",
          "name": "_desc_uri",
          "type": "string"
        },
        {
          "internalType": "bool",
          "name": "listed",
          "type": "bool"
        },
        {
          "internalType": "bool",
          "name": "isCluster",
          "type": "bool"
        }
      ],
      "name": "makeDevice",
      "outputs": [],
      "stateMutability": "payable",
      "type": "function"
    },
    {
      "inputs": [
        {
          "internalType": "address",
          "name": "_nftContract",
          "type": "address"
        },
        {
          "internalType": "uint256",
          "name": "_tokenId",
          "type": "uint256"
        },
        {
          "internalType": "uint256",
          "name": "_price",
          "type": "uint256"
        },
        {
          "internalType": "string",
          "name": "_desc_uri",
          "type": "string"
        }
      ],
      "name": "makeItem",
      "outputs": [],
      "stateMutability": "payable",
      "type": "function"
    },
    {
      "inputs": [
        {
          "internalType": "address",
          "name": "deviceAddress",
          "type": "address"
        },
        {
          "internalType": "uint256",
          "name": "_tokenId",
          "type": "uint256"
        }
      ],
      "name": "registerDeviceToCluster",
      "outputs": [],
      "stateMutability": "nonpayable",
      "type": "function"
    },
    {
      "inputs": [
        {
          "internalType": "address",
          "name": "deviceAddress",
          "type": "address"
        },
        {
          "internalType": "uint256",
          "name": "_tokenId",
          "type": "uint256"
        }
      ],
      "name": "registerDeviceToDao",
      "outputs": [],
      "stateMutability": "nonpayable",
      "type": "function"
    }
  ],
  "bytecode": "6080604052655af3107a400060055534801561001a57600080fd5b506001600055600680546001600160a01b03191633179055613041806100416000396000f3fe6080604052600436106101095760003560e01c80634ddf4f8f116100955780639695458d116100645780639695458d1461026e578063b9f67dec14610281578063be7335d614610294578063e4008437146102c1578063eb0cddec146102d457600080fd5b80634ddf4f8f14610220578063548250f11461023357806369bd1ebb146102465780638d6cb3fb1461025957600080fd5b80632b86ae38116100dc5780632b86ae38146101835780632c895a6d146101a757806330331f14146101c757806338c91f6e146101e957806347a21ff91461020b57600080fd5b8063047b07bf1461010e5780630e1780ff1461013957806318084fd91461015b5780631f4cc4db1461016e575b600080fd5b34801561011a57600080fd5b506101236102e9565b6040516101309190612475565b60405180910390f35b34801561014557600080fd5b50610159610154366004612563565b610540565b005b61015961016936600461258f565b6105b3565b34801561017a57600080fd5b506101236106a0565b34801561018f57600080fd5b5061019960055481565b604051908152602001610130565b3480156101b357600080fd5b506101596101c2366004612563565b61094b565b3480156101d357600080fd5b506101dc610a0f565b60405161013091906125a8565b3480156101f557600080fd5b506101fe610d1e565b604051610130919061265b565b34801561021757600080fd5b506101fe610f7c565b61015961022e366004612563565b6111cc565b61015961024136600461273b565b611364565b610199610254366004612820565b611516565b34801561026557600080fd5b50610123611738565b61015961027c366004612897565b611940565b61015961028f366004612563565b611b7d565b3480156102a057600080fd5b506102b46102af36600461258f565b611cd8565b604051610130919061291f565b6101596102cf36600461296c565b611d5d565b3480156102e057600080fd5b506101dc612045565b606060006102f660025490565b90506000805b8281101561034c5733600760006103148460016129e4565b81526020810191909152604001600020600301546001600160a01b0316036103445781610340816129f7565b9250505b6001016102fc565b506000816001600160401b038111156103675761036761275d565b6040519080825280602002602001820160405280156103a057816020015b61038d612343565b8152602001906001900390816103855790505b5090506000805b848110156105365733600760006103bf8460016129e4565b81526020810191909152604001600020600301546001600160a01b03160361052e57600760006103f08360016129e4565b8152602080820192909252604090810160002081516101008101835281546001600160a01b0390811682526001830154948201949094526002820154841692810192909252600381015490921660608201526004820154608082015260058201805491929160a08401919061046490612a10565b80601f016020809104026020016040519081016040528092919081815260200182805461049090612a10565b80156104dd5780601f106104b2576101008083540402835291602001916104dd565b820191906000526020600020905b8154815290600101906020018083116104c057829003601f168201915b5050509183525050600682015460ff1615156020820152600790910154604090910152835184908490811061051457610514612a4a565b6020026020010181905250818061052a906129f7565b9250505b6001016103a7565b5090949350505050565b6000818152600960205260409081902060030154905163329b55b760e21b81526001600160a01b0384811660048301529091169063ca6d56dc90602401600060405180830381600087803b15801561059757600080fd5b505af11580156105ab573d6000803e3d6000fd5b505050505050565b6002600054036105de5760405162461bcd60e51b81526004016105d590612a60565b60405180910390fd5b60026000908155818152600960205260409081902060030154905163329b55b760e21b81523360048201526001600160a01b039091169063ca6d56dc90602401600060405180830381600087803b15801561063857600080fd5b505af115801561064c573d6000803e3d6000fd5b5050506000828152600960209081526040918290206001015491519182523392507ff6c8a903be321d0b647f22e72ab01bff4ff7e43b77ca3d547b71e7165f3e58ab910160405180910390a2506001600055565b606060006106ad60025490565b90506000805b828110156107325733600760006106cb8460016129e4565b81526020810191909152604001600020600201546001600160a01b03161480156107175750600760006106ff8360016129e4565b815260208101919091526040016000206006015460ff165b1561072a5781610726816129f7565b9250505b6001016106b3565b506000816001600160401b0381111561074d5761074d61275d565b60405190808252806020026020018201604052801561078657816020015b610773612343565b81526020019060019003908161076b5790505b5090506000805b848110156105365733600760006107a58460016129e4565b81526020810191909152604001600020600201546001600160a01b03161480156107f15750600760006107d98360016129e4565b815260208101919091526040016000206006015460ff165b1561094357600760006108058360016129e4565b8152602080820192909252604090810160002081516101008101835281546001600160a01b0390811682526001830154948201949094526002820154841692810192909252600381015490921660608201526004820154608082015260058201805491929160a08401919061087990612a10565b80601f01602080910402602001604051908101604052809291908181526020018280546108a590612a10565b80156108f25780601f106108c7576101008083540402835291602001916108f2565b820191906000526020600020905b8154815290600101906020018083116108d557829003601f168201915b5050509183525050600682015460ff1615156020820152600790910154604090910152835184908490811061092957610929612a4a565b6020026020010181905250818061093f906129f7565b9250505b60010161078d565b6000818152600960205260409081902060030154905163329b55b760e21b81526001600160a01b0384811660048301529091169063ca6d56dc90602401600060405180830381600087803b1580156109a257600080fd5b505af11580156109b6573d6000803e3d6000fd5b5050506000828152600960209081526040918290206001015491519182526001600160a01b03851692507ff6c8a903be321d0b647f22e72ab01bff4ff7e43b77ca3d547b71e7165f3e58ab910160405180910390a25050565b60606000610a1c60045490565b90506000805b82811015610ad25760096000610a398360016129e4565b81526020810191909152604090810160002060030154905163288c314960e21b81523360048201526001600160a01b039091169063a230c52490602401602060405180830381865afa158015610a93573d6000803e3d6000fd5b505050506040513d601f19601f82011682018060405250810190610ab79190612a97565b15610aca5781610ac6816129f7565b9250505b600101610a22565b50600080610ae08385612abb565b6001600160401b03811115610af757610af761275d565b604051908082528060200260200182016040528015610b3057816020015b610b1d612386565b815260200190600190039081610b155790505b50905060005b84811015610d155760096000610b4d8360016129e4565b81526020810191909152604090810160002060030154905163288c314960e21b81523360048201526001600160a01b039091169063a230c52490602401602060405180830381865afa158015610ba7573d6000803e3d6000fd5b505050506040513d601f19601f82011682018060405250810190610bcb9190612a97565b610d0d5760096000610bde8360016129e4565b81526020808201929092526040908101600020815160e08101835281546001600160a01b031681526001820154938101939093526002810180549192840191610c2690612a10565b80601f0160208091040260200160405190810160405280929190818152602001828054610c5290612a10565b8015610c9f5780601f10610c7457610100808354040283529160200191610c9f565b820191906000526020600020905b815481529060010190602001808311610c8257829003601f168201915b505050918352505060038201546001600160a01b03166020820152600482015460408201526005820154606082015260069091015460ff1615156080909101528251839085908110610cf357610cf3612a4a565b60200260200101819052508280610d09906129f7565b9350505b600101610b36565b50949350505050565b60606000610d2b60035490565b90506000805b82811015610d81573360086000610d498460016129e4565b81526020810191909152604001600020600301546001600160a01b031603610d795781610d75816129f7565b9250505b600101610d31565b506000816001600160401b03811115610d9c57610d9c61275d565b604051908082528060200260200182016040528015610dd557816020015b610dc26123d7565b815260200190600190039081610dba5790505b5090506000805b84811015610536573360086000610df48460016129e4565b81526020810191909152604001600020600301546001600160a01b031603610f745760086000610e258360016129e4565b8152602080820192909252604090810160002081516101208101835281546001600160a01b0390811682526001830154948201949094526002820154841692810192909252600381015490921660608201526004820154608082015260058201805491929160a084019190610e9990612a10565b80601f0160208091040260200160405190810160405280929190818152602001828054610ec590612a10565b8015610f125780601f10610ee757610100808354040283529160200191610f12565b820191906000526020600020905b815481529060010190602001808311610ef557829003601f168201915b5050509183525050600682015460ff908116151560208301526007830154604083015260089092015490911615156060909101528351849084908110610f5a57610f5a612a4a565b60200260200101819052508180610f70906129f7565b9250505b600101610ddc565b60606000610f8960035490565b90506000805b82811015610fd85760086000610fa68360016129e4565b815260208101919091526040016000206006015460ff1615610fd05781610fcc816129f7565b9250505b600101610f8f565b506000816001600160401b03811115610ff357610ff361275d565b60405190808252806020026020018201604052801561102c57816020015b6110196123d7565b8152602001906001900390816110115790505b5090506000805b84811015610536576008600061104a8360016129e4565b815260208101919091526040016000206006015460ff16156111c457600860006110758360016129e4565b8152602080820192909252604090810160002081516101208101835281546001600160a01b0390811682526001830154948201949094526002820154841692810192909252600381015490921660608201526004820154608082015260058201805491929160a0840191906110e990612a10565b80601f016020809104026020016040519081016040528092919081815260200182805461111590612a10565b80156111625780601f1061113757610100808354040283529160200191611162565b820191906000526020600020905b81548152906001019060200180831161114557829003601f168201915b5050509183525050600682015460ff9081161515602083015260078301546040830152600890920154909116151560609091015283518490849081106111aa576111aa612a4a565b602002602001018190525081806111c0906129f7565b9250505b600101611033565b6002600054036111ee5760405162461bcd60e51b81526004016105d590612a60565b6002600090815581815260076020526040902060048101543410156112255760405162461bcd60e51b81526004016105d590612ace565b600281015460405133916001600160a01b0316903480156108fc02916000818181858888f19350505050158015611260573d6000803e3d6000fd5b5060018201546040516323b872dd60e01b81526001600160a01b038616916323b872dd91611295913091869190600401612b14565b600060405180830381600087803b1580156112af57600080fd5b505af11580156112c3573d6000803e3d6000fd5b505050506003820180546001600160a01b0319166001600160a01b03831617905560068201805460ff19169055600180548101905560018201546002830154604080516001600160a01b038881168252602082019490945291831690820152346060820152908216907f16f1dbd97e6bf646d429ed186cce832f1f7fd9907814293b83181e9970ab7bd29060800160405180910390a2505060016000555050565b6002600054036113865760405162461bcd60e51b81526004016105d590612a60565b6002600090815582815260096020526040812060018101839055905b8160030160009054906101000a90046001600160a01b03166001600160a01b0316639eab52536040518163ffffffff1660e01b8152600401600060405180830381865afa1580156113f7573d6000803e3d6000fd5b505050506040513d6000823e601f3d908101601f1916820160405261141f9190810190612b38565b5181101561150b578160030160009054906101000a90046001600160a01b03166001600160a01b0316639eab52536040518163ffffffff1660e01b8152600401600060405180830381865afa15801561147c573d6000803e3d6000fd5b505050506040513d6000823e601f3d908101601f191682016040526114a49190810190612b38565b81815181106114b5576114b5612a4a565b60200260200101516001600160a01b03167ff6c8a903be321d0b647f22e72ab01bff4ff7e43b77ca3d547b71e7165f3e58ab83600101546040516114fb91815260200190565b60405180910390a26001016113a2565b505060016000555050565b600060026000540361153a5760405162461bcd60e51b81526004016105d590612a60565b600260005561154d600480546001019055565b600060405161155b90612422565b604051809103906000f080158015611577573d6000803e3d6000fd5b50905082156116055760405163329b55b760e21b81523360048201526001600160a01b0382169063ca6d56dc90602401600060405180830381600087803b1580156115c157600080fd5b505af11580156115d5573d6000803e3d6000fd5b50506040513392507f910dd6c2551edaa52850dcc1bcb36cc50bb45fe7cafb2273594e702f675aa4359150600090a25b6040518060e00160405280886001600160a01b03168152602001878152602001868152602001826001600160a01b0316815260200161164360045490565b81526020018581526020018415158152506009600061166160045490565b81526020808201929092526040908101600020835181546001600160a01b0319166001600160a01b0390911617815591830151600183015582015160028201906116ab9082612c36565b5060608201516003820180546001600160a01b0319166001600160a01b039092169190911790556080820151600482015560a0820151600582015560c0909101516006909101805460ff19169115159190911790556040517f5137a78362092f7cf16d4e108864b61a73042511dfec3a474022e5a2fa3d326f90600090a150600160005595945050505050565b6060600061174560025490565b9050600061175260015490565b61175c9083612abb565b90506000816001600160401b038111156117785761177861275d565b6040519080825280602002602001820160405280156117b157816020015b61179e612343565b8152602001906001900390816117965790505b5090506000805b8481101561053657600760006117cf8360016129e4565b815260208101919091526040016000206006015460ff161561193857600760006117fa8360016129e4565b8152602080820192909252604090810160002081516101008101835281546001600160a01b0390811682526001830154948201949094526002820154841692810192909252600381015490921660608201526004820154608082015260058201805491929160a08401919061186e90612a10565b80601f016020809104026020016040519081016040528092919081815260200182805461189a90612a10565b80156118e75780601f106118bc576101008083540402835291602001916118e7565b820191906000526020600020905b8154815290600101906020018083116118ca57829003601f168201915b5050509183525050600682015460ff1615156020820152600790910154604090910152835184908490811061191e5761191e612a4a565b60200260200101819052508180611934906129f7565b9250505b6001016117b8565b6002600054036119625760405162461bcd60e51b81526004016105d590612a60565b60026000553380611977600380546001019055565b8315611a10576040516323b872dd60e01b81526001600160a01b038916906323b872dd906119ad90339030908c90600401612b14565b600060405180830381600087803b1580156119c757600080fd5b505af11580156119db573d6000803e3d6000fd5b50506040513094507f3c7ada5f75657056231fba463ce7726c722fb5e9879490e912901d83224be710925060009150a1611a3c565b60405133907f5c48c5aa6afec31404a1252fcd350b9c72cf469130a46555ec2a5d974713bd1f90600090a25b604051806101200160405280896001600160a01b03168152602001888152602001826001600160a01b03168152602001836001600160a01b031681526020018781526020018681526020018515158152602001611a9860035490565b815260200184151581525060086000611ab060035490565b81526020808201929092526040908101600020835181546001600160a01b03199081166001600160a01b0392831617835593850151600183015591840151600282018054851691841691909117905560608401516003820180549094169216919091179091556080820151600482015560a08201516005820190611b349082612c36565b5060c082015160068201805491151560ff1992831617905560e0830151600783015561010090920151600890910180549115159190921617905550506001600055505050505050565b600260005403611b9f5760405162461bcd60e51b81526004016105d590612a60565b600260009081558181526008602052604090206004810154341015611bd65760405162461bcd60e51b81526004016105d590612ace565b600281015460405133916001600160a01b0316903480156108fc02916000818181858888f19350505050158015611c11573d6000803e3d6000fd5b5060018201546040516323b872dd60e01b81526001600160a01b038616916323b872dd91611c46913091869190600401612b14565b600060405180830381600087803b158015611c6057600080fd5b505af1158015611c74573d6000803e3d6000fd5b505050506003820180546001600160a01b0319166001600160a01b03831690811790915560068301805460ff191690556040517f5c48c5aa6afec31404a1252fcd350b9c72cf469130a46555ec2a5d974713bd1f90600090a2505060016000555050565b600081815260096020526040808220600301548151639eab525360e01b815291516060936001600160a01b0390921692639eab52539260048083019391928290030181865afa158015611d2f573d6000803e3d6000fd5b505050506040513d6000823e601f3d908101601f19168201604052611d579190810190612b38565b92915050565b600260005403611d7f5760405162461bcd60e51b81526004016105d590612a60565b600260005581611dd15760405162461bcd60e51b815260206004820152601c60248201527f5072696365206d757374206265206174206c656173742031207765690000000060448201526064016105d5565b6005543414611e225760405162461bcd60e51b815260206004820181905260248201527f4e6f7420656e6f75676820657468657220666f72206c697374696e672066656560448201526064016105d5565b6040516323b872dd60e01b81526001600160a01b038516906323b872dd90611e5290339030908890600401612b14565b600060405180830381600087803b158015611e6c57600080fd5b505af1158015611e80573d6000803e3d6000fd5b50506006546005546040516001600160a01b03909216935080156108fc029250906000818181858888f19350505050158015611ec0573d6000803e3d6000fd5b50611ecf600280546001019055565b604051806101000160405280856001600160a01b03168152602001848152602001336001600160a01b03168152602001306001600160a01b03168152602001838152602001828152602001600115158152602001611f2c60025490565b905260076000611f3b60025490565b81526020808201929092526040908101600020835181546001600160a01b03199081166001600160a01b0392831617835593850151600183015591840151600282018054851691841691909117905560608401516003820180549094169216919091179091556080820151600482015560a08201516005820190611fbf9082612c36565b5060c082015160068201805460ff191691151591909117905560e090910151600790910155604080516001600160a01b03861681526020810185905233818301523060608201526080810184905290517fa0c6c0d02d86fdacecbaa5fdf5894bab204e31a778250474108540733a9b8d199160a0908290030190a1505060016000555050565b6060600061205260045490565b90506000805b82811015612108576009600061206f8360016129e4565b81526020810191909152604090810160002060030154905163288c314960e21b81523360048201526001600160a01b039091169063a230c52490602401602060405180830381865afa1580156120c9573d6000803e3d6000fd5b505050506040513d601f19601f820116820180604052508101906120ed9190612a97565b1561210057816120fc816129f7565b9250505b600101612058565b50600080826001600160401b038111156121245761212461275d565b60405190808252806020026020018201604052801561215d57816020015b61214a612386565b8152602001906001900390816121425790505b50905060005b84811015610d15576009600061217a8360016129e4565b81526020810191909152604090810160002060030154905163288c314960e21b81523360048201526001600160a01b039091169063a230c52490602401602060405180830381865afa1580156121d4573d6000803e3d6000fd5b505050506040513d601f19601f820116820180604052508101906121f89190612a97565b1561233b576009600061220c8360016129e4565b81526020808201929092526040908101600020815160e08101835281546001600160a01b03168152600182015493810193909352600281018054919284019161225490612a10565b80601f016020809104026020016040519081016040528092919081815260200182805461228090612a10565b80156122cd5780601f106122a2576101008083540402835291602001916122cd565b820191906000526020600020905b8154815290600101906020018083116122b057829003601f168201915b505050918352505060038201546001600160a01b03166020820152600482015460408201526005820154606082015260069091015460ff161515608090910152825183908590811061232157612321612a4a565b60200260200101819052508280612337906129f7565b9350505b600101612163565b604080516101008101825260008082526020820181905291810182905260608082018390526080820183905260a082015260c0810182905260e081019190915290565b6040518060e0016040528060006001600160a01b03168152602001600081526020016060815260200160006001600160a01b0316815260200160008152602001600081526020016000151581525090565b604080516101208101825260008082526020820181905291810182905260608082018390526080820183905260a082015260c0810182905260e0810182905261010081019190915290565b61031680612cf683390190565b6000815180845260005b8181101561245557602081850181015186830182015201612439565b506000602082860101526020601f19601f83011685010191505092915050565b600060208083018184528085518083526040925060408601915060408160051b87010184880160005b8381101561253d57888303603f19018552815180516001600160a01b039081168552888201518986015287820151811688860152606080830151909116908501526080808201519085015260a08082015161010082870181905291906125068388018261242f565b9250505060c08083015161251d8288018215159052565b505060e0918201519490910193909352938601939086019060010161249e565b509098975050505050505050565b6001600160a01b038116811461256057600080fd5b50565b6000806040838503121561257657600080fd5b82356125818161254b565b946020939093013593505050565b6000602082840312156125a157600080fd5b5035919050565b600060208083018184528085518083526040925060408601915060408160051b87010184880160005b8381101561253d57888303603f19018552815180516001600160a01b03908116855288820151898601528782015160e089870181905291906126158388018261242f565b60608581015190931692880192909252506080808401519087015260a0808401519087015260c092830151151592909501919091525093860193908601906001016125d1565b600060208083018184528085518083526040925060408601915060408160051b87010184880160005b8381101561253d57888303603f19018552815180516001600160a01b0316845261012081890151858a0152878201516001600160a01b03811689870152506060828101516001600160a01b038116878301525050608080830151818701525060a08083015182828801526126fa8388018261242f565b9250505060c0808301516127118288018215159052565b505060e0828101519086015261010091820151151591909401529386019390860190600101612684565b6000806040838503121561274e57600080fd5b50508035926020909101359150565b634e487b7160e01b600052604160045260246000fd5b604051601f8201601f191681016001600160401b038111828210171561279b5761279b61275d565b604052919050565b600082601f8301126127b457600080fd5b81356001600160401b038111156127cd576127cd61275d565b6127e0601f8201601f1916602001612773565b8181528460208386010111156127f557600080fd5b816020850160208301376000918101602001919091529392505050565b801515811461256057600080fd5b600080600080600060a0868803121561283857600080fd5b85356128438161254b565b94506020860135935060408601356001600160401b0381111561286557600080fd5b612871888289016127a3565b93505060608601359150608086013561288981612812565b809150509295509295909350565b60008060008060008060c087890312156128b057600080fd5b86356128bb8161254b565b9550602087013594506040870135935060608701356001600160401b038111156128e457600080fd5b6128f089828a016127a3565b935050608087013561290181612812565b915060a087013561291181612812565b809150509295509295509295565b6020808252825182820181905260009190848201906040850190845b818110156129605783516001600160a01b03168352928401929184019160010161293b565b50909695505050505050565b6000806000806080858703121561298257600080fd5b843561298d8161254b565b9350602085013592506040850135915060608501356001600160401b038111156129b657600080fd5b6129c2878288016127a3565b91505092959194509250565b634e487b7160e01b600052601160045260246000fd5b80820180821115611d5757611d576129ce565b600060018201612a0957612a096129ce565b5060010190565b600181811c90821680612a2457607f821691505b602082108103612a4457634e487b7160e01b600052602260045260246000fd5b50919050565b634e487b7160e01b600052603260045260246000fd5b6020808252601f908201527f5265656e7472616e637947756172643a207265656e7472616e742063616c6c00604082015260600190565b600060208284031215612aa957600080fd5b8151612ab481612812565b9392505050565b81810381811115611d5757611d576129ce565b60208082526026908201527f4e6f7420656e6f75676820657468657220746f20636f7665722061736b696e6760408201526520707269636560d01b606082015260800190565b6001600160a01b039384168152919092166020820152604081019190915260600190565b60006020808385031215612b4b57600080fd5b82516001600160401b0380821115612b6257600080fd5b818501915085601f830112612b7657600080fd5b815181811115612b8857612b8861275d565b8060051b9150612b99848301612773565b8181529183018401918481019088841115612bb357600080fd5b938501935b83851015612bdd5784519250612bcd8361254b565b8282529385019390850190612bb8565b98975050505050505050565b601f821115612c31576000816000526020600020601f850160051c81016020861015612c125750805b601f850160051c820191505b818110156105ab57828155600101612c1e565b505050565b81516001600160401b03811115612c4f57612c4f61275d565b612c6381612c5d8454612a10565b84612be9565b602080601f831160018114612c985760008415612c805750858301515b600019600386901b1c1916600185901b1785556105ab565b600085815260208120601f198616915b82811015612cc757888601518255948401946001909101908401612ca8565b5085821015612ce55787850151600019600388901b60f8161c191681555b5050505050600190811b0190555056fe608060405234801561001057600080fd5b506102f6806100206000396000f3fe608060405234801561001057600080fd5b50600436106100575760003560e01c80632db78d931461005c5780635daf08ca1461008f5780639eab5253146100ba578063a230c524146100cf578063ca6d56dc1461010a575b600080fd5b61007c61006a36600461022a565b60016020526000908152604090205481565b6040519081526020015b60405180910390f35b6100a261009d36600461025a565b61011f565b6040516001600160a01b039091168152602001610086565b6100c2610149565b6040516100869190610273565b6100fa6100dd36600461022a565b6001600160a01b0316600090815260016020526040902054151590565b6040519015158152602001610086565b61011d61011836600461022a565b6101ab565b005b6000818154811061012f57600080fd5b6000918252602090912001546001600160a01b0316905081565b606060008054806020026020016040519081016040528092919081815260200182805480156101a157602002820191906000526020600020905b81546001600160a01b03168152600190910190602001808311610183575b5050505050905090565b6001600160a01b03811660009081526001602052604081205490036102275760008054600180820183557f290decd9548b62a8d60345a988386fc84ba6bc95484008f6362f93160ef3e56390910180546001600160a01b0319166001600160a01b03851690811790915582549083526020919091526040909120555b50565b60006020828403121561023c57600080fd5b81356001600160a01b038116811461025357600080fd5b9392505050565b60006020828403121561026c57600080fd5b5035919050565b6020808252825182820181905260009190848201906040850190845b818110156102b45783516001600160a01b03168352928401929184019160010161028f565b5090969550505050505056fea264697066735822122092c6d96170aaadac1351304f6f165eb49993289a11b96fcb0904a816633d42b564736f6c63430008170033a26469706673582212203dfa63527b46d9bd42c89b5ac3688f8b9d9a0ace24c63ef7faeca3f119c8353864736f6c63430008170033",
  "bytecodeSha1": "547b26cc6aafc5f5cf862815ac79b6ed8756370f",
  "compiler": {
    "evm_version": "istanbul",
    "optimizer": {
      "enabled": true,
      "runs": 200
    },
    "version": "0.8.23+commit.f704f362"
  },
  "contractName": "OaseesMarketplace",
  "language": "Solidity",
  "natspec": {
    "kind": "dev",
    "methods": {},
    "version": 1
  },
  "opcodes": "PUSH1 0x80 PUSH1 0x40 MSTORE PUSH1 0x4 CALLDATASIZE LT PUSH2 0x109 JUMPI PUSH1 0x0 CALLDATALOAD PUSH1 0xE0 SHR DUP1 PUSH4 0x4DDF4F8F GT PUSH2 0x95 JUMPI DUP1 PUSH4 0x9695458D GT PUSH2 0x64 JUMPI DUP1 PUSH4 0x9695458D EQ PUSH2 0x26E JUMPI DUP1 PUSH4 0xB9F67DEC EQ PUSH2 0x281 JUMPI DUP1 PUSH4 0xBE7335D6 EQ PUSH2 0x294 JUMPI DUP1 PUSH4 0xE4008437 EQ PUSH2 0x2C1 JUMPI DUP1 PUSH4 0xEB0CDDEC EQ PUSH2 0x2D4 JUMPI PUSH1 0x0 DUP1 REVERT JUMPDEST DUP1 PUSH4 0x4DDF4F8F EQ PUSH2 0x220 JUMPI DUP1 PUSH4 0x548250F1 EQ PUSH2 0x233 JUMPI DUP1 PUSH4 0x69BD1EBB EQ PUSH2 0x246 JUMPI DUP1 PUSH4 0x8D6CB3FB EQ PUSH2 0x259 JUMPI PUSH1 0x0 DUP1 REVERT JUMPDEST DUP1 PUSH4 0x2B86AE38 GT PUSH2 0xDC JUMPI DUP1 PUSH4 0x2B86AE38 EQ PUSH2 0x183 JUMPI DUP1 PUSH4 0x2C895A6D EQ PUSH2 0x1A7 JUMPI DUP1 PUSH4 0x30331F14 EQ PUSH2 0x1C7 JUMPI DUP1 PUSH4 0x38C91F6E EQ PUSH2 0x1E9 JUMPI DUP1 PUSH4 0x47A21FF9 EQ PUSH2 0x20B JUMPI PUSH1 0x0 DUP1 REVERT JUMPDEST DUP1 PUSH4 0x47B07BF EQ PUSH2 0x10E JUMPI DUP1 PUSH4 0xE1780FF EQ PUSH2 0x139 JUMPI DUP1 PUSH4 0x18084FD9 EQ PUSH2 0x15B JUMPI DUP1 PUSH4 0x1F4CC4DB EQ PUSH2 0x16E JUMPI JUMPDEST PUSH1 0x0 DUP1 REVERT JUMPDEST CALLVALUE DUP1 ISZERO PUSH2 0x11A JUMPI PUSH1 0x0 DUP1 REVERT JUMPDEST POP PUSH2 0x123 PUSH2 0x2E9 JUMP JUMPDEST PUSH1 0x40 MLOAD PUSH2 0x130 SWAP2 SWAP1 PUSH2 0x2475 JUMP JUMPDEST PUSH1 0x40 MLOAD DUP1 SWAP2 SUB SWAP1 RETURN JUMPDEST CALLVALUE DUP1 ISZERO PUSH2 0x145 JUMPI PUSH1 0x0 DUP1 REVERT JUMPDEST POP PUSH2 0x159 PUSH2 0x154 CALLDATASIZE PUSH1 0x4 PUSH2 0x2563 JUMP JUMPDEST PUSH2 0x540 JUMP JUMPDEST STOP JUMPDEST PUSH2 0x159 PUSH2 0x169 CALLDATASIZE PUSH1 0x4 PUSH2 0x258F JUMP JUMPDEST PUSH2 0x5B3 JUMP JUMPDEST CALLVALUE DUP1 ISZERO PUSH2 0x17A JUMPI PUSH1 0x0 DUP1 REVERT JUMPDEST POP PUSH2 0x123 PUSH2 0x6A0 JUMP JUMPDEST CALLVALUE DUP1 ISZERO PUSH2 0x18F JUMPI PUSH1 0x0 DUP1 REVERT JUMPDEST POP PUSH2 0x199 PUSH1 0x5 SLOAD DUP2 JUMP JUMPDEST PUSH1 0x40 MLOAD SWAP1 DUP2 MSTORE PUSH1 0x20 ADD PUSH2 0x130 JUMP JUMPDEST CALLVALUE DUP1 ISZERO PUSH2 0x1B3 JUMPI PUSH1 0x0 DUP1 REVERT JUMPDEST POP PUSH2 0x159 PUSH2 0x1C2 CALLDATASIZE PUSH1 0x4 PUSH2 0x2563 JUMP JUMPDEST PUSH2 0x94B JUMP JUMPDEST CALLVALUE DUP1 ISZERO PUSH2 0x1D3 JUMPI PUSH1 0x0 DUP1 REVERT JUMPDEST POP PUSH2 0x1DC PUSH2 0xA0F JUMP JUMPDEST PUSH1 0x40 MLOAD PUSH2 0x130 SWAP2 SWAP1 PUSH2 0x25A8 JUMP JUMPDEST CALLVALUE DUP1 ISZERO PUSH2 0x1F5 JUMPI PUSH1 0x0 DUP1 REVERT JUMPDEST POP PUSH2 0x1FE PUSH2 0xD1E JUMP JUMPDEST PUSH1 0x40 MLOAD PUSH2 0x130 SWAP2 SWAP1 PUSH2 0x265B JUMP JUMPDEST CALLVALUE DUP1 ISZERO PUSH2 0x217 JUMPI PUSH1 0x0 DUP1 REVERT JUMPDEST POP PUSH2 0x1FE PUSH2 0xF7C JUMP JUMPDEST PUSH2 0x159 PUSH2 0x22E CALLDATASIZE PUSH1 0x4 PUSH2 0x2563 JUMP JUMPDEST PUSH2 0x11CC JUMP JUMPDEST PUSH2 0x159 PUSH2 0x241 CALLDATASIZE PUSH1 0x4 PUSH2 0x273B JUMP JUMPDEST PUSH2 0x1364 JUMP JUMPDEST PUSH2 0x199 PUSH2 0x254 CALLDATASIZE PUSH1 0x4 PUSH2 0x2820 JUMP JUMPDEST PUSH2 0x1516 JUMP JUMPDEST CALLVALUE DUP1 ISZERO PUSH2 0x265 JUMPI PUSH1 0x0 DUP1 REVERT JUMPDEST POP PUSH2 0x123 PUSH2 0x1738 JUMP JUMPDEST PUSH2 0x159 PUSH2 0x27C CALLDATASIZE PUSH1 0x4 PUSH2 0x2897 JUMP JUMPDEST PUSH2 0x1940 JUMP JUMPDEST PUSH2 0x159 PUSH2 0x28F CALLDATASIZE PUSH1 0x4 PUSH2 0x2563 JUMP JUMPDEST PUSH2 0x1B7D JUMP JUMPDEST CALLVALUE DUP1 ISZERO PUSH2 0x2A0 JUMPI PUSH1 0x0 DUP1 REVERT JUMPDEST POP PUSH2 0x2B4 PUSH2 0x2AF CALLDATASIZE PUSH1 0x4 PUSH2 0x258F JUMP JUMPDEST PUSH2 0x1CD8 JUMP JUMPDEST PUSH1 0x40 MLOAD PUSH2 0x130 SWAP2 SWAP1 PUSH2 0x291F JUMP JUMPDEST PUSH2 0x159 PUSH2 0x2CF CALLDATASIZE PUSH1 0x4 PUSH2 0x296C JUMP JUMPDEST PUSH2 0x1D5D JUMP JUMPDEST CALLVALUE DUP1 ISZERO PUSH2 0x2E0 JUMPI PUSH1 0x0 DUP1 REVERT JUMPDEST POP PUSH2 0x1DC PUSH2 0x2045 JUMP JUMPDEST PUSH1 0x60 PUSH1 0x0 PUSH2 0x2F6 PUSH1 0x2 SLOAD SWAP1 JUMP JUMPDEST SWAP1 POP PUSH1 0x0 DUP1 JUMPDEST DUP3 DUP2 LT ISZERO PUSH2 0x34C JUMPI CALLER PUSH1 0x7 PUSH1 0x0 PUSH2 0x314 DUP5 PUSH1 0x1 PUSH2 0x29E4 JUMP JUMPDEST DUP2 MSTORE PUSH1 0x20 DUP2 ADD SWAP2 SWAP1 SWAP2 MSTORE PUSH1 0x40 ADD PUSH1 0x0 KECCAK256 PUSH1 0x3 ADD SLOAD PUSH1 0x1 PUSH1 0x1 PUSH1 0xA0 SHL SUB AND SUB PUSH2 0x344 JUMPI DUP2 PUSH2 0x340 DUP2 PUSH2 0x29F7 JUMP JUMPDEST SWAP3 POP POP JUMPDEST PUSH1 0x1 ADD PUSH2 0x2FC JUMP JUMPDEST POP PUSH1 0x0 DUP2 PUSH1 0x1 PUSH1 0x1 PUSH1 0x40 SHL SUB DUP2 GT ISZERO PUSH2 0x367 JUMPI PUSH2 0x367 PUSH2 0x275D JUMP JUMPDEST PUSH1 0x40 MLOAD SWAP1 DUP1 DUP3 MSTORE DUP1 PUSH1 0x20 MUL PUSH1 0x20 ADD DUP3 ADD PUSH1 0x40 MSTORE DUP1 ISZERO PUSH2 0x3A0 JUMPI DUP2 PUSH1 0x20 ADD JUMPDEST PUSH2 0x38D PUSH2 0x2343 JUMP JUMPDEST DUP2 MSTORE PUSH1 0x20 ADD SWAP1 PUSH1 0x1 SWAP1 SUB SWAP1 DUP2 PUSH2 0x385 JUMPI SWAP1 POP JUMPDEST POP SWAP1 POP PUSH1 0x0 DUP1 JUMPDEST DUP5 DUP2 LT ISZERO PUSH2 0x536 JUMPI CALLER PUSH1 0x7 PUSH1 0x0 PUSH2 0x3BF DUP5 PUSH1 0x1 PUSH2 0x29E4 JUMP JUMPDEST DUP2 MSTORE PUSH1 0x20 DUP2 ADD SWAP2 SWAP1 SWAP2 MSTORE PUSH1 0x40 ADD PUSH1 0x0 KECCAK256 PUSH1 0x3 ADD SLOAD PUSH1 0x1 PUSH1 0x1 PUSH1 0xA0 SHL SUB AND SUB PUSH2 0x52E JUMPI PUSH1 0x7 PUSH1 0x0 PUSH2 0x3F0 DUP4 PUSH1 0x1 PUSH2 0x29E4 JUMP JUMPDEST DUP2 MSTORE PUSH1 0x20 DUP1 DUP3 ADD SWAP3 SWAP1 SWAP3 MSTORE PUSH1 0x40 SWAP1 DUP2 ADD PUSH1 0x0 KECCAK256 DUP2 MLOAD PUSH2 0x100 DUP2 ADD DUP4 MSTORE DUP2 SLOAD PUSH1 0x1 PUSH1 0x1 PUSH1 0xA0 SHL SUB SWAP1 DUP2 AND DUP3 MSTORE PUSH1 0x1 DUP4 ADD SLOAD SWAP5 DUP3 ADD SWAP5 SWAP1 SWAP5 MSTORE PUSH1 0x2 DUP3 ADD SLOAD DUP5 AND SWAP3 DUP2 ADD SWAP3 SWAP1 SWAP3 MSTORE PUSH1 0x3 DUP2 ADD SLOAD SWAP1 SWAP3 AND PUSH1 0x60 DUP3 ADD MSTORE PUSH1 0x4 DUP3 ADD SLOAD PUSH1 0x80 DUP3 ADD MSTORE PUSH1 0x5 DUP3 ADD DUP1 SLOAD SWAP2 SWAP3 SWAP2 PUSH1 0xA0 DUP5 ADD SWAP2 SWAP1 PUSH2 0x464 SWAP1 PUSH2 0x2A10 JUMP JUMPDEST DUP1 PUSH1 0x1F ADD PUSH1 0x20 DUP1 SWAP2 DIV MUL PUSH1 0x20 ADD PUSH1 0x40 MLOAD SWAP1 DUP2 ADD PUSH1 0x40 MSTORE DUP1 SWAP3 SWAP2 SWAP1 DUP2 DUP2 MSTORE PUSH1 0x20 ADD DUP3 DUP1 SLOAD PUSH2 0x490 SWAP1 PUSH2 0x2A10 JUMP JUMPDEST DUP1 ISZERO PUSH2 0x4DD JUMPI DUP1 PUSH1 0x1F LT PUSH2 0x4B2 JUMPI PUSH2 0x100 DUP1 DUP4 SLOAD DIV MUL DUP4 MSTORE SWAP2 PUSH1 0x20 ADD SWAP2 PUSH2 0x4DD JUMP JUMPDEST DUP3 ADD SWAP2 SWAP1 PUSH1 0x0 MSTORE PUSH1 0x20 PUSH1 0x0 KECCAK256 SWAP1 JUMPDEST DUP2 SLOAD DUP2 MSTORE SWAP1 PUSH1 0x1 ADD SWAP1 PUSH1 0x20 ADD DUP1 DUP4 GT PUSH2 0x4C0 JUMPI DUP3 SWAP1 SUB PUSH1 0x1F AND DUP3 ADD SWAP2 JUMPDEST POP POP POP SWAP2 DUP4 MSTORE POP POP PUSH1 0x6 DUP3 ADD SLOAD PUSH1 0xFF AND ISZERO ISZERO PUSH1 0x20 DUP3 ADD MSTORE PUSH1 0x7 SWAP1 SWAP2 ADD SLOAD PUSH1 0x40 SWAP1 SWAP2 ADD MSTORE DUP4 MLOAD DUP5 SWAP1 DUP5 SWAP1 DUP2 LT PUSH2 0x514 JUMPI PUSH2 0x514 PUSH2 0x2A4A JUMP JUMPDEST PUSH1 0x20 MUL PUSH1 0x20 ADD ADD DUP2 SWAP1 MSTORE POP DUP2 DUP1 PUSH2 0x52A SWAP1 PUSH2 0x29F7 JUMP JUMPDEST SWAP3 POP POP JUMPDEST PUSH1 0x1 ADD PUSH2 0x3A7 JUMP JUMPDEST POP SWAP1 SWAP5 SWAP4 POP POP POP POP JUMP JUMPDEST PUSH1 0x0 DUP2 DUP2 MSTORE PUSH1 0x9 PUSH1 0x20 MSTORE PUSH1 0x40 SWAP1 DUP2 SWAP1 KECCAK256 PUSH1 0x3 ADD SLOAD SWAP1 MLOAD PUSH4 0x329B55B7 PUSH1 0xE2 SHL DUP2 MSTORE PUSH1 0x1 PUSH1 0x1 PUSH1 0xA0 SHL SUB DUP5 DUP2 AND PUSH1 0x4 DUP4 ADD MSTORE SWAP1 SWAP2 AND SWAP1 PUSH4 0xCA6D56DC SWAP1 PUSH1 0x24 ADD PUSH1 0x0 PUSH1 0x40 MLOAD DUP1 DUP4 SUB DUP2 PUSH1 0x0 DUP8 DUP1 EXTCODESIZE ISZERO DUP1 ISZERO PUSH2 0x597 JUMPI PUSH1 0x0 DUP1 REVERT JUMPDEST POP GAS CALL ISZERO DUP1 ISZERO PUSH2 0x5AB JUMPI RETURNDATASIZE PUSH1 0x0 DUP1 RETURNDATACOPY RETURNDATASIZE PUSH1 0x0 REVERT JUMPDEST POP POP POP POP POP POP JUMP JUMPDEST PUSH1 0x2 PUSH1 0x0 SLOAD SUB PUSH2 0x5DE JUMPI PUSH1 0x40 MLOAD PUSH3 0x461BCD PUSH1 0xE5 SHL DUP2 MSTORE PUSH1 0x4 ADD PUSH2 0x5D5 SWAP1 PUSH2 0x2A60 JUMP JUMPDEST PUSH1 0x40 MLOAD DUP1 SWAP2 SUB SWAP1 REVERT JUMPDEST PUSH1 0x2 PUSH1 0x0 SWAP1 DUP2 SSTORE DUP2 DUP2 MSTORE PUSH1 0x9 PUSH1 0x20 MSTORE PUSH1 0x40 SWAP1 DUP2 SWAP1 KECCAK256 PUSH1 0x3 ADD SLOAD SWAP1 MLOAD PUSH4 0x329B55B7 PUSH1 0xE2 SHL DUP2 MSTORE CALLER PUSH1 0x4 DUP3 ADD MSTORE PUSH1 0x1 PUSH1 0x1 PUSH1 0xA0 SHL SUB SWAP1 SWAP2 AND SWAP1 PUSH4 0xCA6D56DC SWAP1 PUSH1 0x24 ADD PUSH1 0x0 PUSH1 0x40 MLOAD DUP1 DUP4 SUB DUP2 PUSH1 0x0 DUP8 DUP1 EXTCODESIZE ISZERO DUP1 ISZERO PUSH2 0x638 JUMPI PUSH1 0x0 DUP1 REVERT JUMPDEST POP GAS CALL ISZERO DUP1 ISZERO PUSH2 0x64C JUMPI RETURNDATASIZE PUSH1 0x0 DUP1 RETURNDATACOPY RETURNDATASIZE PUSH1 0x0 REVERT JUMPDEST POP POP POP PUSH1 0x0 DUP3 DUP2 MSTORE PUSH1 0x9 PUSH1 0x20 SWAP1 DUP2 MSTORE PUSH1 0x40 SWAP2 DUP3 SWAP1 KECCAK256 PUSH1 0x1 ADD SLOAD SWAP2 MLOAD SWAP2 DUP3 MSTORE CALLER SWAP3 POP PUSH32 0xF6C8A903BE321D0B647F22E72AB01BFF4FF7E43B77CA3D547B71E7165F3E58AB SWAP2 ADD PUSH1 0x40 MLOAD DUP1 SWAP2 SUB SWAP1 LOG2 POP PUSH1 0x1 PUSH1 0x0 SSTORE JUMP JUMPDEST PUSH1 0x60 PUSH1 0x0 PUSH2 0x6AD PUSH1 0x2 SLOAD SWAP1 JUMP JUMPDEST SWAP1 POP PUSH1 0x0 DUP1 JUMPDEST DUP3 DUP2 LT ISZERO PUSH2 0x732 JUMPI CALLER PUSH1 0x7 PUSH1 0x0 PUSH2 0x6CB DUP5 PUSH1 0x1 PUSH2 0x29E4 JUMP JUMPDEST DUP2 MSTORE PUSH1 0x20 DUP2 ADD SWAP2 SWAP1 SWAP2 MSTORE PUSH1 0x40 ADD PUSH1 0x0 KECCAK256 PUSH1 0x2 ADD SLOAD PUSH1 0x1 PUSH1 0x1 PUSH1 0xA0 SHL SUB AND EQ DUP1 ISZERO PUSH2 0x717 JUMPI POP PUSH1 0x7 PUSH1 0x0 PUSH2 0x6FF DUP4 PUSH1 0x1 PUSH2 0x29E4 JUMP JUMPDEST DUP2 MSTORE PUSH1 0x20 DUP2 ADD SWAP2 SWAP1 SWAP2 MSTORE PUSH1 0x40 ADD PUSH1 0x0 KECCAK256 PUSH1 0x6 ADD SLOAD PUSH1 0xFF AND JUMPDEST ISZERO PUSH2 0x72A JUMPI DUP2 PUSH2 0x726 DUP2 PUSH2 0x29F7 JUMP JUMPDEST SWAP3 POP POP JUMPDEST PUSH1 0x1 ADD PUSH2 0x6B3 JUMP JUMPDEST POP PUSH1 0x0 DUP2 PUSH1 0x1 PUSH1 0x1 PUSH1 0x40 SHL SUB DUP2 GT ISZERO PUSH2 0x74D JUMPI PUSH2 0x74D PUSH2 0x275D JUMP JUMPDEST PUSH1 0x40 MLOAD SWAP1 DUP1 DUP3 MSTORE DUP1 PUSH1 0x20 MUL PUSH1 0x20 ADD DUP3 ADD PUSH1 0x40 MSTORE DUP1 ISZERO PUSH2 0x786 JUMPI DUP2 PUSH1 0x20 ADD JUMPDEST PUSH2 0x773 PUSH2 0x2343 JUMP JUMPDEST DUP2 MSTORE PUSH1 0x20 ADD SWAP1 PUSH1 0x1 SWAP1 SUB SWAP1 DUP2 PUSH2 0x76B JUMPI SWAP1 POP JUMPDEST POP SWAP1 POP PUSH1 0x0 DUP1 JUMPDEST DUP5 DUP2 LT ISZERO PUSH2 0x536 JUMPI CALLER PUSH1 0x7 PUSH1 0x0 PUSH2 0x7A5 DUP5 PUSH1 0x1 PUSH2 0x29E4 JUMP JUMPDEST DUP2 MSTORE PUSH1 0x20 DUP2 ADD SWAP2 SWAP1 SWAP2 MSTORE PUSH1 0x40 ADD PUSH1 0x0 KECCAK256 PUSH1 0x2 ADD SLOAD PUSH1 0x1 PUSH1 0x1 PUSH1 0xA0 SHL SUB AND EQ DUP1 ISZERO PUSH2 0x7F1 JUMPI POP PUSH1 0x7 PUSH1 0x0 PUSH2 0x7D9 DUP4 PUSH1 0x1 PUSH2 0x29E4 JUMP JUMPDEST DUP2 MSTORE PUSH1 0x20 DUP2 ADD SWAP2 SWAP1 SWAP2 MSTORE PUSH1 0x40 ADD PUSH1 0x0 KECCAK256 PUSH1 0x6 ADD SLOAD PUSH1 0xFF AND JUMPDEST ISZERO PUSH2 0x943 JUMPI PUSH1 0x7 PUSH1 0x0 PUSH2 0x805 DUP4 PUSH1 0x1 PUSH2 0x29E4 JUMP JUMPDEST DUP2 MSTORE PUSH1 0x20 DUP1 DUP3 ADD SWAP3 SWAP1 SWAP3 MSTORE PUSH1 0x40 SWAP1 DUP2 ADD PUSH1 0x0 KECCAK256 DUP2 MLOAD PUSH2 0x100 DUP2 ADD DUP4 MSTORE DUP2 SLOAD PUSH1 0x1 PUSH1 0x1 PUSH1 0xA0 SHL SUB SWAP1 DUP2 AND DUP3 MSTORE PUSH1 0x1 DUP4 ADD SLOAD SWAP5 DUP3 ADD SWAP5 SWAP1 SWAP5 MSTORE PUSH1 0x2 DUP3 ADD SLOAD DUP5 AND SWAP3 DUP2 ADD SWAP3 SWAP1 SWAP3 MSTORE PUSH1 0x3 DUP2 ADD SLOAD SWAP1 SWAP3 AND PUSH1 0x60 DUP3 ADD MSTORE PUSH1 0x4 DUP3 ADD SLOAD PUSH1 0x80 DUP3 ADD MSTORE PUSH1 0x5 DUP3 ADD DUP1 SLOAD SWAP2 SWAP3 SWAP2 PUSH1 0xA0 DUP5 ADD SWAP2 SWAP1 PUSH2 0x879 SWAP1 PUSH2 0x2A10 JUMP JUMPDEST DUP1 PUSH1 0x1F ADD PUSH1 0x20 DUP1 SWAP2 DIV MUL PUSH1 0x20 ADD PUSH1 0x40 MLOAD SWAP1 DUP2 ADD PUSH1 0x40 MSTORE DUP1 SWAP3 SWAP2 SWAP1 DUP2 DUP2 MSTORE PUSH1 0x20 ADD DUP3 DUP1 SLOAD PUSH2 0x8A5 SWAP1 PUSH2 0x2A10 JUMP JUMPDEST DUP1 ISZERO PUSH2 0x8F2 JUMPI DUP1 PUSH1 0x1F LT PUSH2 0x8C7 JUMPI PUSH2 0x100 DUP1 DUP4 SLOAD DIV MUL DUP4 MSTORE SWAP2 PUSH1 0x20 ADD SWAP2 PUSH2 0x8F2 JUMP JUMPDEST DUP3 ADD SWAP2 SWAP1 PUSH1 0x0 MSTORE PUSH1 0x20 PUSH1 0x0 KECCAK256 SWAP1 JUMPDEST DUP2 SLOAD DUP2 MSTORE SWAP1 PUSH1 0x1 ADD SWAP1 PUSH1 0x20 ADD DUP1 DUP4 GT PUSH2 0x8D5 JUMPI DUP3 SWAP1 SUB PUSH1 0x1F AND DUP3 ADD SWAP2 JUMPDEST POP POP POP SWAP2 DUP4 MSTORE POP POP PUSH1 0x6 DUP3 ADD SLOAD PUSH1 0xFF AND ISZERO ISZERO PUSH1 0x20 DUP3 ADD MSTORE PUSH1 0x7 SWAP1 SWAP2 ADD SLOAD PUSH1 0x40 SWAP1 SWAP2 ADD MSTORE DUP4 MLOAD DUP5 SWAP1 DUP5 SWAP1 DUP2 LT PUSH2 0x929 JUMPI PUSH2 0x929 PUSH2 0x2A4A JUMP JUMPDEST PUSH1 0x20 MUL PUSH1 0x20 ADD ADD DUP2 SWAP1 MSTORE POP DUP2 DUP1 PUSH2 0x93F SWAP1 PUSH2 0x29F7 JUMP JUMPDEST SWAP3 POP POP JUMPDEST PUSH1 0x1 ADD PUSH2 0x78D JUMP JUMPDEST PUSH1 0x0 DUP2 DUP2 MSTORE PUSH1 0x9 PUSH1 0x20 MSTORE PUSH1 0x40 SWAP1 DUP2 SWAP1 KECCAK256 PUSH1 0x3 ADD SLOAD SWAP1 MLOAD PUSH4 0x329B55B7 PUSH1 0xE2 SHL DUP2 MSTORE PUSH1 0x1 PUSH1 0x1 PUSH1 0xA0 SHL SUB DUP5 DUP2 AND PUSH1 0x4 DUP4 ADD MSTORE SWAP1 SWAP2 AND SWAP1 PUSH4 0xCA6D56DC SWAP1 PUSH1 0x24 ADD PUSH1 0x0 PUSH1 0x40 MLOAD DUP1 DUP4 SUB DUP2 PUSH1 0x0 DUP8 DUP1 EXTCODESIZE ISZERO DUP1 ISZERO PUSH2 0x9A2 JUMPI PUSH1 0x0 DUP1 REVERT JUMPDEST POP GAS CALL ISZERO DUP1 ISZERO PUSH2 0x9B6 JUMPI RETURNDATASIZE PUSH1 0x0 DUP1 RETURNDATACOPY RETURNDATASIZE PUSH1 0x0 REVERT JUMPDEST POP POP POP PUSH1 0x0 DUP3 DUP2 MSTORE PUSH1 0x9 PUSH1 0x20 SWAP1 DUP2 MSTORE PUSH1 0x40 SWAP2 DUP3 SWAP1 KECCAK256 PUSH1 0x1 ADD SLOAD SWAP2 MLOAD SWAP2 DUP3 MSTORE PUSH1 0x1 PUSH1 0x1 PUSH1 0xA0 SHL SUB DUP6 AND SWAP3 POP PUSH32 0xF6C8A903BE321D0B647F22E72AB01BFF4FF7E43B77CA3D547B71E7165F3E58AB SWAP2 ADD PUSH1 0x40 MLOAD DUP1 SWAP2 SUB SWAP1 LOG2 POP POP JUMP JUMPDEST PUSH1 0x60 PUSH1 0x0 PUSH2 0xA1C PUSH1 0x4 SLOAD SWAP1 JUMP JUMPDEST SWAP1 POP PUSH1 0x0 DUP1 JUMPDEST DUP3 DUP2 LT ISZERO PUSH2 0xAD2 JUMPI PUSH1 0x9 PUSH1 0x0 PUSH2 0xA39 DUP4 PUSH1 0x1 PUSH2 0x29E4 JUMP JUMPDEST DUP2 MSTORE PUSH1 0x20 DUP2 ADD SWAP2 SWAP1 SWAP2 MSTORE PUSH1 0x40 SWAP1 DUP2 ADD PUSH1 0x0 KECCAK256 PUSH1 0x3 ADD SLOAD SWAP1 MLOAD PUSH4 0x288C3149 PUSH1 0xE2 SHL DUP2 MSTORE CALLER PUSH1 0x4 DUP3 ADD MSTORE PUSH1 0x1 PUSH1 0x1 PUSH1 0xA0 SHL SUB SWAP1 SWAP2 AND SWAP1 PUSH4 0xA230C524 SWAP1 PUSH1 0x24 ADD PUSH1 0x20 PUSH1 0x40 MLOAD DUP1 DUP4 SUB DUP2 DUP7 GAS STATICCALL ISZERO DUP1 ISZERO PUSH2 0xA93 JUMPI RETURNDATASIZE PUSH1 0x0 DUP1 RETURNDATACOPY RETURNDATASIZE PUSH1 0x0 REVERT JUMPDEST POP POP POP POP PUSH1 0x40 MLOAD RETURNDATASIZE PUSH1 0x1F NOT PUSH1 0x1F DUP3 ADD AND DUP3 ADD DUP1 PUSH1 0x40 MSTORE POP DUP2 ADD SWAP1 PUSH2 0xAB7 SWAP2 SWAP1 PUSH2 0x2A97 JUMP JUMPDEST ISZERO PUSH2 0xACA JUMPI DUP2 PUSH2 0xAC6 DUP2 PUSH2 0x29F7 JUMP JUMPDEST SWAP3 POP POP JUMPDEST PUSH1 0x1 ADD PUSH2 0xA22 JUMP JUMPDEST POP PUSH1 0x0 DUP1 PUSH2 0xAE0 DUP4 DUP6 PUSH2 0x2ABB JUMP JUMPDEST PUSH1 0x1 PUSH1 0x1 PUSH1 0x40 SHL SUB DUP2 GT ISZERO PUSH2 0xAF7 JUMPI PUSH2 0xAF7 PUSH2 0x275D JUMP JUMPDEST PUSH1 0x40 MLOAD SWAP1 DUP1 DUP3 MSTORE DUP1 PUSH1 0x20 MUL PUSH1 0x20 ADD DUP3 ADD PUSH1 0x40 MSTORE DUP1 ISZERO PUSH2 0xB30 JUMPI DUP2 PUSH1 0x20 ADD JUMPDEST PUSH2 0xB1D PUSH2 0x2386 JUMP JUMPDEST DUP2 MSTORE PUSH1 0x20 ADD SWAP1 PUSH1 0x1 SWAP1 SUB SWAP1 DUP2 PUSH2 0xB15 JUMPI SWAP1 POP JUMPDEST POP SWAP1 POP PUSH1 0x0 JUMPDEST DUP5 DUP2 LT ISZERO PUSH2 0xD15 JUMPI PUSH1 0x9 PUSH1 0x0 PUSH2 0xB4D DUP4 PUSH1 0x1 PUSH2 0x29E4 JUMP JUMPDEST DUP2 MSTORE PUSH1 0x20 DUP2 ADD SWAP2 SWAP1 SWAP2 MSTORE PUSH1 0x40 SWAP1 DUP2 ADD PUSH1 0x0 KECCAK256 PUSH1 0x3 ADD SLOAD SWAP1 MLOAD PUSH4 0x288C3149 PUSH1 0xE2 SHL DUP2 MSTORE CALLER PUSH1 0x4 DUP3 ADD MSTORE PUSH1 0x1 PUSH1 0x1 PUSH1 0xA0 SHL SUB SWAP1 SWAP2 AND SWAP1 PUSH4 0xA230C524 SWAP1 PUSH1 0x24 ADD PUSH1 0x20 PUSH1 0x40 MLOAD DUP1 DUP4 SUB DUP2 DUP7 GAS STATICCALL ISZERO DUP1 ISZERO PUSH2 0xBA7 JUMPI RETURNDATASIZE PUSH1 0x0 DUP1 RETURNDATACOPY RETURNDATASIZE PUSH1 0x0 REVERT JUMPDEST POP POP POP POP PUSH1 0x40 MLOAD RETURNDATASIZE PUSH1 0x1F NOT PUSH1 0x1F DUP3 ADD AND DUP3 ADD DUP1 PUSH1 0x40 MSTORE POP DUP2 ADD SWAP1 PUSH2 0xBCB SWAP2 SWAP1 PUSH2 0x2A97 JUMP JUMPDEST PUSH2 0xD0D JUMPI PUSH1 0x9 PUSH1 0x0 PUSH2 0xBDE DUP4 PUSH1 0x1 PUSH2 0x29E4 JUMP JUMPDEST DUP2 MSTORE PUSH1 0x20 DUP1 DUP3 ADD SWAP3 SWAP1 SWAP3 MSTORE PUSH1 0x40 SWAP1 DUP2 ADD PUSH1 0x0 KECCAK256 DUP2 MLOAD PUSH1 0xE0 DUP2 ADD DUP4 MSTORE DUP2 SLOAD PUSH1 0x1 PUSH1 0x1 PUSH1 0xA0 SHL SUB AND DUP2 MSTORE PUSH1 0x1 DUP3 ADD SLOAD SWAP4 DUP2 ADD SWAP4 SWAP1 SWAP4 MSTORE PUSH1 0x2 DUP2 ADD DUP1 SLOAD SWAP2 SWAP3 DUP5 ADD SWAP2 PUSH2 0xC26 SWAP1 PUSH2 0x2A10 JUMP JUMPDEST DUP1 PUSH1 0x1F ADD PUSH1 0x20 DUP1 SWAP2 DIV MUL PUSH1 0x20 ADD PUSH1 0x40 MLOAD SWAP1 DUP2 ADD PUSH1 0x40 MSTORE DUP1 SWAP3 SWAP2 SWAP1 DUP2 DUP2 MSTORE PUSH1 0x20 ADD DUP3 DUP1 SLOAD PUSH2 0xC52 SWAP1 PUSH2 0x2A10 JUMP JUMPDEST DUP1 ISZERO PUSH2 0xC9F JUMPI DUP1 PUSH1 0x1F LT PUSH2 0xC74 JUMPI PUSH2 0x100 DUP1 DUP4 SLOAD DIV MUL DUP4 MSTORE SWAP2 PUSH1 0x20 ADD SWAP2 PUSH2 0xC9F JUMP JUMPDEST DUP3 ADD SWAP2 SWAP1 PUSH1 0x0 MSTORE PUSH1 0x20 PUSH1 0x0 KECCAK256 SWAP1 JUMPDEST DUP2 SLOAD DUP2 MSTORE SWAP1 PUSH1 0x1 ADD SWAP1 PUSH1 0x20 ADD DUP1 DUP4 GT PUSH2 0xC82 JUMPI DUP3 SWAP1 SUB PUSH1 0x1F AND DUP3 ADD SWAP2 JUMPDEST POP POP POP SWAP2 DUP4 MSTORE POP POP PUSH1 0x3 DUP3 ADD SLOAD PUSH1 0x1 PUSH1 0x1 PUSH1 0xA0 SHL SUB AND PUSH1 0x20 DUP3 ADD MSTORE PUSH1 0x4 DUP3 ADD SLOAD PUSH1 0x40 DUP3 ADD MSTORE PUSH1 0x5 DUP3 ADD SLOAD PUSH1 0x60 DUP3 ADD MSTORE PUSH1 0x6 SWAP1 SWAP2 ADD SLOAD PUSH1 0xFF AND ISZERO ISZERO PUSH1 0x80 SWAP1 SWAP2 ADD MSTORE DUP3 MLOAD DUP4 SWAP1 DUP6 SWAP1 DUP2 LT PUSH2 0xCF3 JUMPI PUSH2 0xCF3 PUSH2 0x2A4A JUMP JUMPDEST PUSH1 0x20 MUL PUSH1 0x20 ADD ADD DUP2 SWAP1 MSTORE POP DUP3 DUP1 PUSH2 0xD09 SWAP1 PUSH2 0x29F7 JUMP JUMPDEST SWAP4 POP POP JUMPDEST PUSH1 0x1 ADD PUSH2 0xB36 JUMP JUMPDEST POP SWAP5 SWAP4 POP POP POP POP JUMP JUMPDEST PUSH1 0x60 PUSH1 0x0 PUSH2 0xD2B PUSH1 0x3 SLOAD SWAP1 JUMP JUMPDEST SWAP1 POP PUSH1 0x0 DUP1 JUMPDEST DUP3 DUP2 LT ISZERO PUSH2 0xD81 JUMPI CALLER PUSH1 0x8 PUSH1 0x0 PUSH2 0xD49 DUP5 PUSH1 0x1 PUSH2 0x29E4 JUMP JUMPDEST DUP2 MSTORE PUSH1 0x20 DUP2 ADD SWAP2 SWAP1 SWAP2 MSTORE PUSH1 0x40 ADD PUSH1 0x0 KECCAK256 PUSH1 0x3 ADD SLOAD PUSH1 0x1 PUSH1 0x1 PUSH1 0xA0 SHL SUB AND SUB PUSH2 0xD79 JUMPI DUP2 PUSH2 0xD75 DUP2 PUSH2 0x29F7 JUMP JUMPDEST SWAP3 POP POP JUMPDEST PUSH1 0x1 ADD PUSH2 0xD31 JUMP JUMPDEST POP PUSH1 0x0 DUP2 PUSH1 0x1 PUSH1 0x1 PUSH1 0x40 SHL SUB DUP2 GT ISZERO PUSH2 0xD9C JUMPI PUSH2 0xD9C PUSH2 0x275D JUMP JUMPDEST PUSH1 0x40 MLOAD SWAP1 DUP1 DUP3 MSTORE DUP1 PUSH1 0x20 MUL PUSH1 0x20 ADD DUP3 ADD PUSH1 0x40 MSTORE DUP1 ISZERO PUSH2 0xDD5 JUMPI DUP2 PUSH1 0x20 ADD JUMPDEST PUSH2 0xDC2 PUSH2 0x23D7 JUMP JUMPDEST DUP2 MSTORE PUSH1 0x20 ADD SWAP1 PUSH1 0x1 SWAP1 SUB SWAP1 DUP2 PUSH2 0xDBA JUMPI SWAP1 POP JUMPDEST POP SWAP1 POP PUSH1 0x0 DUP1 JUMPDEST DUP5 DUP2 LT ISZERO PUSH2 0x536 JUMPI CALLER PUSH1 0x8 PUSH1 0x0 PUSH2 0xDF4 DUP5 PUSH1 0x1 PUSH2 0x29E4 JUMP JUMPDEST DUP2 MSTORE PUSH1 0x20 DUP2 ADD SWAP2 SWAP1 SWAP2 MSTORE PUSH1 0x40 ADD PUSH1 0x0 KECCAK256 PUSH1 0x3 ADD SLOAD PUSH1 0x1 PUSH1 0x1 PUSH1 0xA0 SHL SUB AND SUB PUSH2 0xF74 JUMPI PUSH1 0x8 PUSH1 0x0 PUSH2 0xE25 DUP4 PUSH1 0x1 PUSH2 0x29E4 JUMP JUMPDEST DUP2 MSTORE PUSH1 0x20 DUP1 DUP3 ADD SWAP3 SWAP1 SWAP3 MSTORE PUSH1 0x40 SWAP1 DUP2 ADD PUSH1 0x0 KECCAK256 DUP2 MLOAD PUSH2 0x120 DUP2 ADD DUP4 MSTORE DUP2 SLOAD PUSH1 0x1 PUSH1 0x1 PUSH1 0xA0 SHL SUB SWAP1 DUP2 AND DUP3 MSTORE PUSH1 0x1 DUP4 ADD SLOAD SWAP5 DUP3 ADD SWAP5 SWAP1 SWAP5 MSTORE PUSH1 0x2 DUP3 ADD SLOAD DUP5 AND SWAP3 DUP2 ADD SWAP3 SWAP1 SWAP3 MSTORE PUSH1 0x3 DUP2 ADD SLOAD SWAP1 SWAP3 AND PUSH1 0x60 DUP3 ADD MSTORE PUSH1 0x4 DUP3 ADD SLOAD PUSH1 0x80 DUP3 ADD MSTORE PUSH1 0x5 DUP3 ADD DUP1 SLOAD SWAP2 SWAP3 SWAP2 PUSH1 0xA0 DUP5 ADD SWAP2 SWAP1 PUSH2 0xE99 SWAP1 PUSH2 0x2A10 JUMP JUMPDEST DUP1 PUSH1 0x1F ADD PUSH1 0x20 DUP1 SWAP2 DIV MUL PUSH1 0x20 ADD PUSH1 0x40 MLOAD SWAP1 DUP2 ADD PUSH1 0x40 MSTORE DUP1 SWAP3 SWAP2 SWAP1 DUP2 DUP2 MSTORE PUSH1 0x20 ADD DUP3 DUP1 SLOAD PUSH2 0xEC5 SWAP1 PUSH2 0x2A10 JUMP JUMPDEST DUP1 ISZERO PUSH2 0xF12 JUMPI DUP1 PUSH1 0x1F LT PUSH2 0xEE7 JUMPI PUSH2 0x100 DUP1 DUP4 SLOAD DIV MUL DUP4 MSTORE SWAP2 PUSH1 0x20 ADD SWAP2 PUSH2 0xF12 JUMP JUMPDEST DUP3 ADD SWAP2 SWAP1 PUSH1 0x0 MSTORE PUSH1 0x20 PUSH1 0x0 KECCAK256 SWAP1 JUMPDEST DUP2 SLOAD DUP2 MSTORE SWAP1 PUSH1 0x1 ADD SWAP1 PUSH1 0x20 ADD DUP1 DUP4 GT PUSH2 0xEF5 JUMPI DUP3 SWAP1 SUB PUSH1 0x1F AND DUP3 ADD SWAP2 JUMPDEST POP POP POP SWAP2 DUP4 MSTORE POP POP PUSH1 0x6 DUP3 ADD SLOAD PUSH1 0xFF SWAP1 DUP2 AND ISZERO ISZERO PUSH1 0x20 DUP4 ADD MSTORE PUSH1 0x7 DUP4 ADD SLOAD PUSH1 0x40 DUP4 ADD MSTORE PUSH1 0x8 SWAP1 SWAP3 ADD SLOAD SWAP1 SWAP2 AND ISZERO ISZERO PUSH1 0x60 SWAP1 SWAP2 ADD MSTORE DUP4 MLOAD DUP5 SWAP1 DUP5 SWAP1 DUP2 LT PUSH2 0xF5A JUMPI PUSH2 0xF5A PUSH2 0x2A4A JUMP JUMPDEST PUSH1 0x20 MUL PUSH1 0x20 ADD ADD DUP2 SWAP1 MSTORE POP DUP2 DUP1 PUSH2 0xF70 SWAP1 PUSH2 0x29F7 JUMP JUMPDEST SWAP3 POP POP JUMPDEST PUSH1 0x1 ADD PUSH2 0xDDC JUMP JUMPDEST PUSH1 0x60 PUSH1 0x0 PUSH2 0xF89 PUSH1 0x3 SLOAD SWAP1 JUMP JUMPDEST SWAP1 POP PUSH1 0x0 DUP1 JUMPDEST DUP3 DUP2 LT ISZERO PUSH2 0xFD8 JUMPI PUSH1 0x8 PUSH1 0x0 PUSH2 0xFA6 DUP4 PUSH1 0x1 PUSH2 0x29E4 JUMP JUMPDEST DUP2 MSTORE PUSH1 0x20 DUP2 ADD SWAP2 SWAP1 SWAP2 MSTORE PUSH1 0x40 ADD PUSH1 0x0 KECCAK256 PUSH1 0x6 ADD SLOAD PUSH1 0xFF AND ISZERO PUSH2 0xFD0 JUMPI DUP2 PUSH2 0xFCC DUP2 PUSH2 0x29F7 JUMP JUMPDEST SWAP3 POP POP JUMPDEST PUSH1 0x1 ADD PUSH2 0xF8F JUMP JUMPDEST POP PUSH1 0x0 DUP2 PUSH1 0x1 PUSH1 0x1 PUSH1 0x40 SHL SUB DUP2 GT ISZERO PUSH2 0xFF3 JUMPI PUSH2 0xFF3 PUSH2 0x275D JUMP JUMPDEST PUSH1 0x40 MLOAD SWAP1 DUP1 DUP3 MSTORE DUP1 PUSH1 0x20 MUL PUSH1 0x20 ADD DUP3 ADD PUSH1 0x40 MSTORE DUP1 ISZERO PUSH2 0x102C JUMPI DUP2 PUSH1 0x20 ADD JUMPDEST PUSH2 0x1019 PUSH2 0x23D7 JUMP JUMPDEST DUP2 MSTORE PUSH1 0x20 ADD SWAP1 PUSH1 0x1 SWAP1 SUB SWAP1 DUP2 PUSH2 0x1011 JUMPI SWAP1 POP JUMPDEST POP SWAP1 POP PUSH1 0x0 DUP1 JUMPDEST DUP5 DUP2 LT ISZERO PUSH2 0x536 JUMPI PUSH1 0x8 PUSH1 0x0 PUSH2 0x104A DUP4 PUSH1 0x1 PUSH2 0x29E4 JUMP JUMPDEST DUP2 MSTORE PUSH1 0x20 DUP2 ADD SWAP2 SWAP1 SWAP2 MSTORE PUSH1 0x40 ADD PUSH1 0x0 KECCAK256 PUSH1 0x6 ADD SLOAD PUSH1 0xFF AND ISZERO PUSH2 0x11C4 JUMPI PUSH1 0x8 PUSH1 0x0 PUSH2 0x1075 DUP4 PUSH1 0x1 PUSH2 0x29E4 JUMP JUMPDEST DUP2 MSTORE PUSH1 0x20 DUP1 DUP3 ADD SWAP3 SWAP1 SWAP3 MSTORE PUSH1 0x40 SWAP1 DUP2 ADD PUSH1 0x0 KECCAK256 DUP2 MLOAD PUSH2 0x120 DUP2 ADD DUP4 MSTORE DUP2 SLOAD PUSH1 0x1 PUSH1 0x1 PUSH1 0xA0 SHL SUB SWAP1 DUP2 AND DUP3 MSTORE PUSH1 0x1 DUP4 ADD SLOAD SWAP5 DUP3 ADD SWAP5 SWAP1 SWAP5 MSTORE PUSH1 0x2 DUP3 ADD SLOAD DUP5 AND SWAP3 DUP2 ADD SWAP3 SWAP1 SWAP3 MSTORE PUSH1 0x3 DUP2 ADD SLOAD SWAP1 SWAP3 AND PUSH1 0x60 DUP3 ADD MSTORE PUSH1 0x4 DUP3 ADD SLOAD PUSH1 0x80 DUP3 ADD MSTORE PUSH1 0x5 DUP3 ADD DUP1 SLOAD SWAP2 SWAP3 SWAP2 PUSH1 0xA0 DUP5 ADD SWAP2 SWAP1 PUSH2 0x10E9 SWAP1 PUSH2 0x2A10 JUMP JUMPDEST DUP1 PUSH1 0x1F ADD PUSH1 0x20 DUP1 SWAP2 DIV MUL PUSH1 0x20 ADD PUSH1 0x40 MLOAD SWAP1 DUP2 ADD PUSH1 0x40 MSTORE DUP1 SWAP3 SWAP2 SWAP1 DUP2 DUP2 MSTORE PUSH1 0x20 ADD DUP3 DUP1 SLOAD PUSH2 0x1115 SWAP1 PUSH2 0x2A10 JUMP JUMPDEST DUP1 ISZERO PUSH2 0x1162 JUMPI DUP1 PUSH1 0x1F LT PUSH2 0x1137 JUMPI PUSH2 0x100 DUP1 DUP4 SLOAD DIV MUL DUP4 MSTORE SWAP2 PUSH1 0x20 ADD SWAP2 PUSH2 0x1162 JUMP JUMPDEST DUP3 ADD SWAP2 SWAP1 PUSH1 0x0 MSTORE PUSH1 0x20 PUSH1 0x0 KECCAK256 SWAP1 JUMPDEST DUP2 SLOAD DUP2 MSTORE SWAP1 PUSH1 0x1 ADD SWAP1 PUSH1 0x20 ADD DUP1 DUP4 GT PUSH2 0x1145 JUMPI DUP3 SWAP1 SUB PUSH1 0x1F AND DUP3 ADD SWAP2 JUMPDEST POP POP POP SWAP2 DUP4 MSTORE POP POP PUSH1 0x6 DUP3 ADD SLOAD PUSH1 0xFF SWAP1 DUP2 AND ISZERO ISZERO PUSH1 0x20 DUP4 ADD MSTORE PUSH1 0x7 DUP4 ADD SLOAD PUSH1 0x40 DUP4 ADD MSTORE PUSH1 0x8 SWAP1 SWAP3 ADD SLOAD SWAP1 SWAP2 AND ISZERO ISZERO PUSH1 0x60 SWAP1 SWAP2 ADD MSTORE DUP4 MLOAD DUP5 SWAP1 DUP5 SWAP1 DUP2 LT PUSH2 0x11AA JUMPI PUSH2 0x11AA PUSH2 0x2A4A JUMP JUMPDEST PUSH1 0x20 MUL PUSH1 0x20 ADD ADD DUP2 SWAP1 MSTORE POP DUP2 DUP1 PUSH2 0x11C0 SWAP1 PUSH2 0x29F7 JUMP JUMPDEST SWAP3 POP POP JUMPDEST PUSH1 0x1 ADD PUSH2 0x1033 JUMP JUMPDEST PUSH1 0x2 PUSH1 0x0 SLOAD SUB PUSH2 0x11EE JUMPI PUSH1 0x40 MLOAD PUSH3 0x461BCD PUSH1 0xE5 SHL DUP2 MSTORE PUSH1 0x4 ADD PUSH2 0x5D5 SWAP1 PUSH2 0x2A60 JUMP JUMPDEST PUSH1 0x2 PUSH1 0x0 SWAP1 DUP2 SSTORE DUP2 DUP2 MSTORE PUSH1 0x7 PUSH1 0x20 MSTORE PUSH1 0x40 SWAP1 KECCAK256 PUSH1 0x4 DUP2 ADD SLOAD CALLVALUE LT ISZERO PUSH2 0x1225 JUMPI PUSH1 0x40 MLOAD PUSH3 0x461BCD PUSH1 0xE5 SHL DUP2 MSTORE PUSH1 0x4 ADD PUSH2 0x5D5 SWAP1 PUSH2 0x2ACE JUMP JUMPDEST PUSH1 0x2 DUP2 ADD SLOAD PUSH1 0x40 MLOAD CALLER SWAP2 PUSH1 0x1 PUSH1 0x1 PUSH1 0xA0 SHL SUB AND SWAP1 CALLVALUE DUP1 ISZERO PUSH2 0x8FC MUL SWAP2 PUSH1 0x0 DUP2 DUP2 DUP2 DUP6 DUP9 DUP9 CALL SWAP4 POP POP POP POP ISZERO DUP1 ISZERO PUSH2 0x1260 JUMPI RETURNDATASIZE PUSH1 0x0 DUP1 RETURNDATACOPY RETURNDATASIZE PUSH1 0x0 REVERT JUMPDEST POP PUSH1 0x1 DUP3 ADD SLOAD PUSH1 0x40 MLOAD PUSH4 0x23B872DD PUSH1 0xE0 SHL DUP2 MSTORE PUSH1 0x1 PUSH1 0x1 PUSH1 0xA0 SHL SUB DUP7 AND SWAP2 PUSH4 0x23B872DD SWAP2 PUSH2 0x1295 SWAP2 ADDRESS SWAP2 DUP7 SWAP2 SWAP1 PUSH1 0x4 ADD PUSH2 0x2B14 JUMP JUMPDEST PUSH1 0x0 PUSH1 0x40 MLOAD DUP1 DUP4 SUB DUP2 PUSH1 0x0 DUP8 DUP1 EXTCODESIZE ISZERO DUP1 ISZERO PUSH2 0x12AF JUMPI PUSH1 0x0 DUP1 REVERT JUMPDEST POP GAS CALL ISZERO DUP1 ISZERO PUSH2 0x12C3 JUMPI RETURNDATASIZE PUSH1 0x0 DUP1 RETURNDATACOPY RETURNDATASIZE PUSH1 0x0 REVERT JUMPDEST POP POP POP POP PUSH1 0x3 DUP3 ADD DUP1 SLOAD PUSH1 0x1 PUSH1 0x1 PUSH1 0xA0 SHL SUB NOT AND PUSH1 0x1 PUSH1 0x1 PUSH1 0xA0 SHL SUB DUP4 AND OR SWAP1 SSTORE PUSH1 0x6 DUP3 ADD DUP1 SLOAD PUSH1 0xFF NOT AND SWAP1 SSTORE PUSH1 0x1 DUP1 SLOAD DUP2 ADD SWAP1 SSTORE PUSH1 0x1 DUP3 ADD SLOAD PUSH1 0x2 DUP4 ADD SLOAD PUSH1 0x40 DUP1 MLOAD PUSH1 0x1 PUSH1 0x1 PUSH1 0xA0 SHL SUB DUP9 DUP2 AND DUP3 MSTORE PUSH1 0x20 DUP3 ADD SWAP5 SWAP1 SWAP5 MSTORE SWAP2 DUP4 AND SWAP1 DUP3 ADD MSTORE CALLVALUE PUSH1 0x60 DUP3 ADD MSTORE SWAP1 DUP3 AND SWAP1 PUSH32 0x16F1DBD97E6BF646D429ED186CCE832F1F7FD9907814293B83181E9970AB7BD2 SWAP1 PUSH1 0x80 ADD PUSH1 0x40 MLOAD DUP1 SWAP2 SUB SWAP1 LOG2 POP POP PUSH1 0x1 PUSH1 0x0 SSTORE POP POP JUMP JUMPDEST PUSH1 0x2 PUSH1 0x0 SLOAD SUB PUSH2 0x1386 JUMPI PUSH1 0x40 MLOAD PUSH3 0x461BCD PUSH1 0xE5 SHL DUP2 MSTORE PUSH1 0x4 ADD PUSH2 0x5D5 SWAP1 PUSH2 0x2A60 JUMP JUMPDEST PUSH1 0x2 PUSH1 0x0 SWAP1 DUP2 SSTORE DUP3 DUP2 MSTORE PUSH1 0x9 PUSH1 0x20 MSTORE PUSH1 0x40 DUP2 KECCAK256 PUSH1 0x1 DUP2 ADD DUP4 SWAP1 SSTORE SWAP1 JUMPDEST DUP2 PUSH1 0x3 ADD PUSH1 0x0 SWAP1 SLOAD SWAP1 PUSH2 0x100 EXP SWAP1 DIV PUSH1 0x1 PUSH1 0x1 PUSH1 0xA0 SHL SUB AND PUSH1 0x1 PUSH1 0x1 PUSH1 0xA0 SHL SUB AND PUSH4 0x9EAB5253 PUSH1 0x40 MLOAD DUP2 PUSH4 0xFFFFFFFF AND PUSH1 0xE0 SHL DUP2 MSTORE PUSH1 0x4 ADD PUSH1 0x0 PUSH1 0x40 MLOAD DUP1 DUP4 SUB DUP2 DUP7 GAS STATICCALL ISZERO DUP1 ISZERO PUSH2 0x13F7 JUMPI RETURNDATASIZE PUSH1 0x0 DUP1 RETURNDATACOPY RETURNDATASIZE PUSH1 0x0 REVERT JUMPDEST POP POP POP POP PUSH1 0x40 MLOAD RETURNDATASIZE PUSH1 0x0 DUP3 RETURNDATACOPY PUSH1 0x1F RETURNDATASIZE SWAP1 DUP2 ADD PUSH1 0x1F NOT AND DUP3 ADD PUSH1 0x40 MSTORE PUSH2 0x141F SWAP2 SWAP1 DUP2 ADD SWAP1 PUSH2 0x2B38 JUMP JUMPDEST MLOAD DUP2 LT ISZERO PUSH2 0x150B JUMPI DUP2 PUSH1 0x3 ADD PUSH1 0x0 SWAP1 SLOAD SWAP1 PUSH2 0x100 EXP SWAP1 DIV PUSH1 0x1 PUSH1 0x1 PUSH1 0xA0 SHL SUB AND PUSH1 0x1 PUSH1 0x1 PUSH1 0xA0 SHL SUB AND PUSH4 0x9EAB5253 PUSH1 0x40 MLOAD DUP2 PUSH4 0xFFFFFFFF AND PUSH1 0xE0 SHL DUP2 MSTORE PUSH1 0x4 ADD PUSH1 0x0 PUSH1 0x40 MLOAD DUP1 DUP4 SUB DUP2 DUP7 GAS STATICCALL ISZERO DUP1 ISZERO PUSH2 0x147C JUMPI RETURNDATASIZE PUSH1 0x0 DUP1 RETURNDATACOPY RETURNDATASIZE PUSH1 0x0 REVERT JUMPDEST POP POP POP POP PUSH1 0x40 MLOAD RETURNDATASIZE PUSH1 0x0 DUP3 RETURNDATACOPY PUSH1 0x1F RETURNDATASIZE SWAP1 DUP2 ADD PUSH1 0x1F NOT AND DUP3 ADD PUSH1 0x40 MSTORE PUSH2 0x14A4 SWAP2 SWAP1 DUP2 ADD SWAP1 PUSH2 0x2B38 JUMP JUMPDEST DUP2 DUP2 MLOAD DUP2 LT PUSH2 0x14B5 JUMPI PUSH2 0x14B5 PUSH2 0x2A4A JUMP JUMPDEST PUSH1 0x20 MUL PUSH1 0x20 ADD ADD MLOAD PUSH1 0x1 PUSH1 0x1 PUSH1 0xA0 SHL SUB AND PUSH32 0xF6C8A903BE321D0B647F22E72AB01BFF4FF7E43B77CA3D547B71E7165F3E58AB DUP4 PUSH1 0x1 ADD SLOAD PUSH1 0x40 MLOAD PUSH2 0x14FB SWAP2 DUP2 MSTORE PUSH1 0x20 ADD SWAP1 JUMP JUMPDEST PUSH1 0x40 MLOAD DUP1 SWAP2 SUB SWAP1 LOG2 PUSH1 0x1 ADD PUSH2 0x13A2 JUMP JUMPDEST POP POP PUSH1 0x1 PUSH1 0x0 SSTORE POP POP JUMP JUMPDEST PUSH1 0x0 PUSH1 0x2 PUSH1 0x0 SLOAD SUB PUSH2 0x153A JUMPI PUSH1 0x40 MLOAD PUSH3 0x461BCD PUSH1 0xE5 SHL DUP2 MSTORE PUSH1 0x4 ADD PUSH2 0x5D5 SWAP1 PUSH2 0x2A60 JUMP JUMPDEST PUSH1 0x2 PUSH1 0x0 SSTORE PUSH2 0x154D PUSH1 0x4 DUP1 SLOAD PUSH1 0x1 ADD SWAP1 SSTORE JUMP JUMPDEST PUSH1 0x0 PUSH1 0x40 MLOAD PUSH2 0x155B SWAP1 PUSH2 0x2422 JUMP JUMPDEST PUSH1 0x40 MLOAD DUP1 SWAP2 SUB SWAP1 PUSH1 0x0 CREATE DUP1 ISZERO DUP1 ISZERO PUSH2 0x1577 JUMPI RETURNDATASIZE PUSH1 0x0 DUP1 RETURNDATACOPY RETURNDATASIZE PUSH1 0x0 REVERT JUMPDEST POP SWAP1 POP DUP3 ISZERO PUSH2 0x1605 JUMPI PUSH1 0x40 MLOAD PUSH4 0x329B55B7 PUSH1 0xE2 SHL DUP2 MSTORE CALLER PUSH1 0x4 DUP3 ADD MSTORE PUSH1 0x1 PUSH1 0x1 PUSH1 0xA0 SHL SUB DUP3 AND SWAP1 PUSH4 0xCA6D56DC SWAP1 PUSH1 0x24 ADD PUSH1 0x0 PUSH1 0x40 MLOAD DUP1 DUP4 SUB DUP2 PUSH1 0x0 DUP8 DUP1 EXTCODESIZE ISZERO DUP1 ISZERO PUSH2 0x15C1 JUMPI PUSH1 0x0 DUP1 REVERT JUMPDEST POP GAS CALL ISZERO DUP1 ISZERO PUSH2 0x15D5 JUMPI RETURNDATASIZE PUSH1 0x0 DUP1 RETURNDATACOPY RETURNDATASIZE PUSH1 0x0 REVERT JUMPDEST POP POP PUSH1 0x40 MLOAD CALLER SWAP3 POP PUSH32 0x910DD6C2551EDAA52850DCC1BCB36CC50BB45FE7CAFB2273594E702F675AA435 SWAP2 POP PUSH1 0x0 SWAP1 LOG2 JUMPDEST PUSH1 0x40 MLOAD DUP1 PUSH1 0xE0 ADD PUSH1 0x40 MSTORE DUP1 DUP9 PUSH1 0x1 PUSH1 0x1 PUSH1 0xA0 SHL SUB AND DUP2 MSTORE PUSH1 0x20 ADD DUP8 DUP2 MSTORE PUSH1 0x20 ADD DUP7 DUP2 MSTORE PUSH1 0x20 ADD DUP3 PUSH1 0x1 PUSH1 0x1 PUSH1 0xA0 SHL SUB AND DUP2 MSTORE PUSH1 0x20 ADD PUSH2 0x1643 PUSH1 0x4 SLOAD SWAP1 JUMP JUMPDEST DUP2 MSTORE PUSH1 0x20 ADD DUP6 DUP2 MSTORE PUSH1 0x20 ADD DUP5 ISZERO ISZERO DUP2 MSTORE POP PUSH1 0x9 PUSH1 0x0 PUSH2 0x1661 PUSH1 0x4 SLOAD SWAP1 JUMP JUMPDEST DUP2 MSTORE PUSH1 0x20 DUP1 DUP3 ADD SWAP3 SWAP1 SWAP3 MSTORE PUSH1 0x40 SWAP1 DUP2 ADD PUSH1 0x0 KECCAK256 DUP4 MLOAD DUP2 SLOAD PUSH1 0x1 PUSH1 0x1 PUSH1 0xA0 SHL SUB NOT AND PUSH1 0x1 PUSH1 0x1 PUSH1 0xA0 SHL SUB SWAP1 SWAP2 AND OR DUP2 SSTORE SWAP2 DUP4 ADD MLOAD PUSH1 0x1 DUP4 ADD SSTORE DUP3 ADD MLOAD PUSH1 0x2 DUP3 ADD SWAP1 PUSH2 0x16AB SWAP1 DUP3 PUSH2 0x2C36 JUMP JUMPDEST POP PUSH1 0x60 DUP3 ADD MLOAD PUSH1 0x3 DUP3 ADD DUP1 SLOAD PUSH1 0x1 PUSH1 0x1 PUSH1 0xA0 SHL SUB NOT AND PUSH1 0x1 PUSH1 0x1 PUSH1 0xA0 SHL SUB SWAP1 SWAP3 AND SWAP2 SWAP1 SWAP2 OR SWAP1 SSTORE PUSH1 0x80 DUP3 ADD MLOAD PUSH1 0x4 DUP3 ADD SSTORE PUSH1 0xA0 DUP3 ADD MLOAD PUSH1 0x5 DUP3 ADD SSTORE PUSH1 0xC0 SWAP1 SWAP2 ADD MLOAD PUSH1 0x6 SWAP1 SWAP2 ADD DUP1 SLOAD PUSH1 0xFF NOT AND SWAP2 ISZERO ISZERO SWAP2 SWAP1 SWAP2 OR SWAP1 SSTORE PUSH1 0x40 MLOAD PUSH32 0x5137A78362092F7CF16D4E108864B61A73042511DFEC3A474022E5A2FA3D326F SWAP1 PUSH1 0x0 SWAP1 LOG1 POP PUSH1 0x1 PUSH1 0x0 SSTORE SWAP6 SWAP5 POP POP POP POP POP JUMP JUMPDEST PUSH1 0x60 PUSH1 0x0 PUSH2 0x1745 PUSH1 0x2 SLOAD SWAP1 JUMP JUMPDEST SWAP1 POP PUSH1 0x0 PUSH2 0x1752 PUSH1 0x1 SLOAD SWAP1 JUMP JUMPDEST PUSH2 0x175C SWAP1 DUP4 PUSH2 0x2ABB JUMP JUMPDEST SWAP1 POP PUSH1 0x0 DUP2 PUSH1 0x1 PUSH1 0x1 PUSH1 0x40 SHL SUB DUP2 GT ISZERO PUSH2 0x1778 JUMPI PUSH2 0x1778 PUSH2 0x275D JUMP JUMPDEST PUSH1 0x40 MLOAD SWAP1 DUP1 DUP3 MSTORE DUP1 PUSH1 0x20 MUL PUSH1 0x20 ADD DUP3 ADD PUSH1 0x40 MSTORE DUP1 ISZERO PUSH2 0x17B1 JUMPI DUP2 PUSH1 0x20 ADD JUMPDEST PUSH2 0x179E PUSH2 0x2343 JUMP JUMPDEST DUP2 MSTORE PUSH1 0x20 ADD SWAP1 PUSH1 0x1 SWAP1 SUB SWAP1 DUP2 PUSH2 0x1796 JUMPI SWAP1 POP JUMPDEST POP SWAP1 POP PUSH1 0x0 DUP1 JUMPDEST DUP5 DUP2 LT ISZERO PUSH2 0x536 JUMPI PUSH1 0x7 PUSH1 0x0 PUSH2 0x17CF DUP4 PUSH1 0x1 PUSH2 0x29E4 JUMP JUMPDEST DUP2 MSTORE PUSH1 0x20 DUP2 ADD SWAP2 SWAP1 SWAP2 MSTORE PUSH1 0x40 ADD PUSH1 0x0 KECCAK256 PUSH1 0x6 ADD SLOAD PUSH1 0xFF AND ISZERO PUSH2 0x1938 JUMPI PUSH1 0x7 PUSH1 0x0 PUSH2 0x17FA DUP4 PUSH1 0x1 PUSH2 0x29E4 JUMP JUMPDEST DUP2 MSTORE PUSH1 0x20 DUP1 DUP3 ADD SWAP3 SWAP1 SWAP3 MSTORE PUSH1 0x40 SWAP1 DUP2 ADD PUSH1 0x0 KECCAK256 DUP2 MLOAD PUSH2 0x100 DUP2 ADD DUP4 MSTORE DUP2 SLOAD PUSH1 0x1 PUSH1 0x1 PUSH1 0xA0 SHL SUB SWAP1 DUP2 AND DUP3 MSTORE PUSH1 0x1 DUP4 ADD SLOAD SWAP5 DUP3 ADD SWAP5 SWAP1 SWAP5 MSTORE PUSH1 0x2 DUP3 ADD SLOAD DUP5 AND SWAP3 DUP2 ADD SWAP3 SWAP1 SWAP3 MSTORE PUSH1 0x3 DUP2 ADD SLOAD SWAP1 SWAP3 AND PUSH1 0x60 DUP3 ADD MSTORE PUSH1 0x4 DUP3 ADD SLOAD PUSH1 0x80 DUP3 ADD MSTORE PUSH1 0x5 DUP3 ADD DUP1 SLOAD SWAP2 SWAP3 SWAP2 PUSH1 0xA0 DUP5 ADD SWAP2 SWAP1 PUSH2 0x186E SWAP1 PUSH2 0x2A10 JUMP JUMPDEST DUP1 PUSH1 0x1F ADD PUSH1 0x20 DUP1 SWAP2 DIV MUL PUSH1 0x20 ADD PUSH1 0x40 MLOAD SWAP1 DUP2 ADD PUSH1 0x40 MSTORE DUP1 SWAP3 SWAP2 SWAP1 DUP2 DUP2 MSTORE PUSH1 0x20 ADD DUP3 DUP1 SLOAD PUSH2 0x189A SWAP1 PUSH2 0x2A10 JUMP JUMPDEST DUP1 ISZERO PUSH2 0x18E7 JUMPI DUP1 PUSH1 0x1F LT PUSH2 0x18BC JUMPI PUSH2 0x100 DUP1 DUP4 SLOAD DIV MUL DUP4 MSTORE SWAP2 PUSH1 0x20 ADD SWAP2 PUSH2 0x18E7 JUMP JUMPDEST DUP3 ADD SWAP2 SWAP1 PUSH1 0x0 MSTORE PUSH1 0x20 PUSH1 0x0 KECCAK256 SWAP1 JUMPDEST DUP2 SLOAD DUP2 MSTORE SWAP1 PUSH1 0x1 ADD SWAP1 PUSH1 0x20 ADD DUP1 DUP4 GT PUSH2 0x18CA JUMPI DUP3 SWAP1 SUB PUSH1 0x1F AND DUP3 ADD SWAP2 JUMPDEST POP POP POP SWAP2 DUP4 MSTORE POP POP PUSH1 0x6 DUP3 ADD SLOAD PUSH1 0xFF AND ISZERO ISZERO PUSH1 0x20 DUP3 ADD MSTORE PUSH1 0x7 SWAP1 SWAP2 ADD SLOAD PUSH1 0x40 SWAP1 SWAP2 ADD MSTORE DUP4 MLOAD DUP5 SWAP1 DUP5 SWAP1 DUP2 LT PUSH2 0x191E JUMPI PUSH2 0x191E PUSH2 0x2A4A JUMP JUMPDEST PUSH1 0x20 MUL PUSH1 0x20 ADD ADD DUP2 SWAP1 MSTORE POP DUP2 DUP1 PUSH2 0x1934 SWAP1 PUSH2 0x29F7 JUMP JUMPDEST SWAP3 POP POP JUMPDEST PUSH1 0x1 ADD PUSH2 0x17B8 JUMP JUMPDEST PUSH1 0x2 PUSH1 0x0 SLOAD SUB PUSH2 0x1962 JUMPI PUSH1 0x40 MLOAD PUSH3 0x461BCD PUSH1 0xE5 SHL DUP2 MSTORE PUSH1 0x4 ADD PUSH2 0x5D5 SWAP1 PUSH2 0x2A60 JUMP JUMPDEST PUSH1 0x2 PUSH1 0x0 SSTORE CALLER DUP1 PUSH2 0x1977 PUSH1 0x3 DUP1 SLOAD PUSH1 0x1 ADD SWAP1 SSTORE JUMP JUMPDEST DUP4 ISZERO PUSH2 0x1A10 JUMPI PUSH1 0x40 MLOAD PUSH4 0x23B872DD PUSH1 0xE0 SHL DUP2 MSTORE PUSH1 0x1 PUSH1 0x1 PUSH1 0xA0 SHL SUB DUP10 AND SWAP1 PUSH4 0x23B872DD SWAP1 PUSH2 0x19AD SWAP1 CALLER SWAP1 ADDRESS SWAP1 DUP13 SWAP1 PUSH1 0x4 ADD PUSH2 0x2B14 JUMP JUMPDEST PUSH1 0x0 PUSH1 0x40 MLOAD DUP1 DUP4 SUB DUP2 PUSH1 0x0 DUP8 DUP1 EXTCODESIZE ISZERO DUP1 ISZERO PUSH2 0x19C7 JUMPI PUSH1 0x0 DUP1 REVERT JUMPDEST POP GAS CALL ISZERO DUP1 ISZERO PUSH2 0x19DB JUMPI RETURNDATASIZE PUSH1 0x0 DUP1 RETURNDATACOPY RETURNDATASIZE PUSH1 0x0 REVERT JUMPDEST POP POP PUSH1 0x40 MLOAD ADDRESS SWAP5 POP PUSH32 0x3C7ADA5F75657056231FBA463CE7726C722FB5E9879490E912901D83224BE710 SWAP3 POP PUSH1 0x0 SWAP2 POP LOG1 PUSH2 0x1A3C JUMP JUMPDEST PUSH1 0x40 MLOAD CALLER SWAP1 PUSH32 0x5C48C5AA6AFEC31404A1252FCD350B9C72CF469130A46555EC2A5D974713BD1F SWAP1 PUSH1 0x0 SWAP1 LOG2 JUMPDEST PUSH1 0x40 MLOAD DUP1 PUSH2 0x120 ADD PUSH1 0x40 MSTORE DUP1 DUP10 PUSH1 0x1 PUSH1 0x1 PUSH1 0xA0 SHL SUB AND DUP2 MSTORE PUSH1 0x20 ADD DUP9 DUP2 MSTORE PUSH1 0x20 ADD DUP3 PUSH1 0x1 PUSH1 0x1 PUSH1 0xA0 SHL SUB AND DUP2 MSTORE PUSH1 0x20 ADD DUP4 PUSH1 0x1 PUSH1 0x1 PUSH1 0xA0 SHL SUB AND DUP2 MSTORE PUSH1 0x20 ADD DUP8 DUP2 MSTORE PUSH1 0x20 ADD DUP7 DUP2 MSTORE PUSH1 0x20 ADD DUP6 ISZERO ISZERO DUP2 MSTORE PUSH1 0x20 ADD PUSH2 0x1A98 PUSH1 0x3 SLOAD SWAP1 JUMP JUMPDEST DUP2 MSTORE PUSH1 0x20 ADD DUP5 ISZERO ISZERO DUP2 MSTORE POP PUSH1 0x8 PUSH1 0x0 PUSH2 0x1AB0 PUSH1 0x3 SLOAD SWAP1 JUMP JUMPDEST DUP2 MSTORE PUSH1 0x20 DUP1 DUP3 ADD SWAP3 SWAP1 SWAP3 MSTORE PUSH1 0x40 SWAP1 DUP2 ADD PUSH1 0x0 KECCAK256 DUP4 MLOAD DUP2 SLOAD PUSH1 0x1 PUSH1 0x1 PUSH1 0xA0 SHL SUB NOT SWAP1 DUP2 AND PUSH1 0x1 PUSH1 0x1 PUSH1 0xA0 SHL SUB SWAP3 DUP4 AND OR DUP4 SSTORE SWAP4 DUP6 ADD MLOAD PUSH1 0x1 DUP4 ADD SSTORE SWAP2 DUP5 ADD MLOAD PUSH1 0x2 DUP3 ADD DUP1 SLOAD DUP6 AND SWAP2 DUP5 AND SWAP2 SWAP1 SWAP2 OR SWAP1 SSTORE PUSH1 0x60 DUP5 ADD MLOAD PUSH1 0x3 DUP3 ADD DUP1 SLOAD SWAP1 SWAP5 AND SWAP3 AND SWAP2 SWAP1 SWAP2 OR SWAP1 SWAP2 SSTORE PUSH1 0x80 DUP3 ADD MLOAD PUSH1 0x4 DUP3 ADD SSTORE PUSH1 0xA0 DUP3 ADD MLOAD PUSH1 0x5 DUP3 ADD SWAP1 PUSH2 0x1B34 SWAP1 DUP3 PUSH2 0x2C36 JUMP JUMPDEST POP PUSH1 0xC0 DUP3 ADD MLOAD PUSH1 0x6 DUP3 ADD DUP1 SLOAD SWAP2 ISZERO ISZERO PUSH1 0xFF NOT SWAP3 DUP4 AND OR SWAP1 SSTORE PUSH1 0xE0 DUP4 ADD MLOAD PUSH1 0x7 DUP4 ADD SSTORE PUSH2 0x100 SWAP1 SWAP3 ADD MLOAD PUSH1 0x8 SWAP1 SWAP2 ADD DUP1 SLOAD SWAP2 ISZERO ISZERO SWAP2 SWAP1 SWAP3 AND OR SWAP1 SSTORE POP POP PUSH1 0x1 PUSH1 0x0 SSTORE POP POP POP POP POP POP JUMP JUMPDEST PUSH1 0x2 PUSH1 0x0 SLOAD SUB PUSH2 0x1B9F JUMPI PUSH1 0x40 MLOAD PUSH3 0x461BCD PUSH1 0xE5 SHL DUP2 MSTORE PUSH1 0x4 ADD PUSH2 0x5D5 SWAP1 PUSH2 0x2A60 JUMP JUMPDEST PUSH1 0x2 PUSH1 0x0 SWAP1 DUP2 SSTORE DUP2 DUP2 MSTORE PUSH1 0x8 PUSH1 0x20 MSTORE PUSH1 0x40 SWAP1 KECCAK256 PUSH1 0x4 DUP2 ADD SLOAD CALLVALUE LT ISZERO PUSH2 0x1BD6 JUMPI PUSH1 0x40 MLOAD PUSH3 0x461BCD PUSH1 0xE5 SHL DUP2 MSTORE PUSH1 0x4 ADD PUSH2 0x5D5 SWAP1 PUSH2 0x2ACE JUMP JUMPDEST PUSH1 0x2 DUP2 ADD SLOAD PUSH1 0x40 MLOAD CALLER SWAP2 PUSH1 0x1 PUSH1 0x1 PUSH1 0xA0 SHL SUB AND SWAP1 CALLVALUE DUP1 ISZERO PUSH2 0x8FC MUL SWAP2 PUSH1 0x0 DUP2 DUP2 DUP2 DUP6 DUP9 DUP9 CALL SWAP4 POP POP POP POP ISZERO DUP1 ISZERO PUSH2 0x1C11 JUMPI RETURNDATASIZE PUSH1 0x0 DUP1 RETURNDATACOPY RETURNDATASIZE PUSH1 0x0 REVERT JUMPDEST POP PUSH1 0x1 DUP3 ADD SLOAD PUSH1 0x40 MLOAD PUSH4 0x23B872DD PUSH1 0xE0 SHL DUP2 MSTORE PUSH1 0x1 PUSH1 0x1 PUSH1 0xA0 SHL SUB DUP7 AND SWAP2 PUSH4 0x23B872DD SWAP2 PUSH2 0x1C46 SWAP2 ADDRESS SWAP2 DUP7 SWAP2 SWAP1 PUSH1 0x4 ADD PUSH2 0x2B14 JUMP JUMPDEST PUSH1 0x0 PUSH1 0x40 MLOAD DUP1 DUP4 SUB DUP2 PUSH1 0x0 DUP8 DUP1 EXTCODESIZE ISZERO DUP1 ISZERO PUSH2 0x1C60 JUMPI PUSH1 0x0 DUP1 REVERT JUMPDEST POP GAS CALL ISZERO DUP1 ISZERO PUSH2 0x1C74 JUMPI RETURNDATASIZE PUSH1 0x0 DUP1 RETURNDATACOPY RETURNDATASIZE PUSH1 0x0 REVERT JUMPDEST POP POP POP POP PUSH1 0x3 DUP3 ADD DUP1 SLOAD PUSH1 0x1 PUSH1 0x1 PUSH1 0xA0 SHL SUB NOT AND PUSH1 0x1 PUSH1 0x1 PUSH1 0xA0 SHL SUB DUP4 AND SWAP1 DUP2 OR SWAP1 SWAP2 SSTORE PUSH1 0x6 DUP4 ADD DUP1 SLOAD PUSH1 0xFF NOT AND SWAP1 SSTORE PUSH1 0x40 MLOAD PUSH32 0x5C48C5AA6AFEC31404A1252FCD350B9C72CF469130A46555EC2A5D974713BD1F SWAP1 PUSH1 0x0 SWAP1 LOG2 POP POP PUSH1 0x1 PUSH1 0x0 SSTORE POP POP JUMP JUMPDEST PUSH1 0x0 DUP2 DUP2 MSTORE PUSH1 0x9 PUSH1 0x20 MSTORE PUSH1 0x40 DUP1 DUP3 KECCAK256 PUSH1 0x3 ADD SLOAD DUP2 MLOAD PUSH4 0x9EAB5253 PUSH1 0xE0 SHL DUP2 MSTORE SWAP2 MLOAD PUSH1 0x60 SWAP4 PUSH1 0x1 PUSH1 0x1 PUSH1 0xA0 SHL SUB SWAP1 SWAP3 AND SWAP3 PUSH4 0x9EAB5253 SWAP3 PUSH1 0x4 DUP1 DUP4 ADD SWAP4 SWAP2 SWAP3 DUP3 SWAP1 SUB ADD DUP2 DUP7 GAS STATICCALL ISZERO DUP1 ISZERO PUSH2 0x1D2F JUMPI RETURNDATASIZE PUSH1 0x0 DUP1 RETURNDATACOPY RETURNDATASIZE PUSH1 0x0 REVERT JUMPDEST POP POP POP POP PUSH1 0x40 MLOAD RETURNDATASIZE PUSH1 0x0 DUP3 RETURNDATACOPY PUSH1 0x1F RETURNDATASIZE SWAP1 DUP2 ADD PUSH1 0x1F NOT AND DUP3 ADD PUSH1 0x40 MSTORE PUSH2 0x1D57 SWAP2 SWAP1 DUP2 ADD SWAP1 PUSH2 0x2B38 JUMP JUMPDEST SWAP3 SWAP2 POP POP JUMP JUMPDEST PUSH1 0x2 PUSH1 0x0 SLOAD SUB PUSH2 0x1D7F JUMPI PUSH1 0x40 MLOAD PUSH3 0x461BCD PUSH1 0xE5 SHL DUP2 MSTORE PUSH1 0x4 ADD PUSH2 0x5D5 SWAP1 PUSH2 0x2A60 JUMP JUMPDEST PUSH1 0x2 PUSH1 0x0 SSTORE DUP2 PUSH2 0x1DD1 JUMPI PUSH1 0x40 MLOAD PUSH3 0x461BCD PUSH1 0xE5 SHL DUP2 MSTORE PUSH1 0x20 PUSH1 0x4 DUP3 ADD MSTORE PUSH1 0x1C PUSH1 0x24 DUP3 ADD MSTORE PUSH32 0x5072696365206D757374206265206174206C6561737420312077656900000000 PUSH1 0x44 DUP3 ADD MSTORE PUSH1 0x64 ADD PUSH2 0x5D5 JUMP JUMPDEST PUSH1 0x5 SLOAD CALLVALUE EQ PUSH2 0x1E22 JUMPI PUSH1 0x40 MLOAD PUSH3 0x461BCD PUSH1 0xE5 SHL DUP2 MSTORE PUSH1 0x20 PUSH1 0x4 DUP3 ADD DUP2 SWAP1 MSTORE PUSH1 0x24 DUP3 ADD MSTORE PUSH32 0x4E6F7420656E6F75676820657468657220666F72206C697374696E6720666565 PUSH1 0x44 DUP3 ADD MSTORE PUSH1 0x64 ADD PUSH2 0x5D5 JUMP JUMPDEST PUSH1 0x40 MLOAD PUSH4 0x23B872DD PUSH1 0xE0 SHL DUP2 MSTORE PUSH1 0x1 PUSH1 0x1 PUSH1 0xA0 SHL SUB DUP6 AND SWAP1 PUSH4 0x23B872DD SWAP1 PUSH2 0x1E52 SWAP1 CALLER SWAP1 ADDRESS SWAP1 DUP9 SWAP1 PUSH1 0x4 ADD PUSH2 0x2B14 JUMP JUMPDEST PUSH1 0x0 PUSH1 0x40 MLOAD DUP1 DUP4 SUB DUP2 PUSH1 0x0 DUP8 DUP1 EXTCODESIZE ISZERO DUP1 ISZERO PUSH2 0x1E6C JUMPI PUSH1 0x0 DUP1 REVERT JUMPDEST POP GAS CALL ISZERO DUP1 ISZERO PUSH2 0x1E80 JUMPI RETURNDATASIZE PUSH1 0x0 DUP1 RETURNDATACOPY RETURNDATASIZE PUSH1 0x0 REVERT JUMPDEST POP POP PUSH1 0x6 SLOAD PUSH1 0x5 SLOAD PUSH1 0x40 MLOAD PUSH1 0x1 PUSH1 0x1 PUSH1 0xA0 SHL SUB SWAP1 SWAP3 AND SWAP4 POP DUP1 ISZERO PUSH2 0x8FC MUL SWAP3 POP SWAP1 PUSH1 0x0 DUP2 DUP2 DUP2 DUP6 DUP9 DUP9 CALL SWAP4 POP POP POP POP ISZERO DUP1 ISZERO PUSH2 0x1EC0 JUMPI RETURNDATASIZE PUSH1 0x0 DUP1 RETURNDATACOPY RETURNDATASIZE PUSH1 0x0 REVERT JUMPDEST POP PUSH2 0x1ECF PUSH1 0x2 DUP1 SLOAD PUSH1 0x1 ADD SWAP1 SSTORE JUMP JUMPDEST PUSH1 0x40 MLOAD DUP1 PUSH2 0x100 ADD PUSH1 0x40 MSTORE DUP1 DUP6 PUSH1 0x1 PUSH1 0x1 PUSH1 0xA0 SHL SUB AND DUP2 MSTORE PUSH1 0x20 ADD DUP5 DUP2 MSTORE PUSH1 0x20 ADD CALLER PUSH1 0x1 PUSH1 0x1 PUSH1 0xA0 SHL SUB AND DUP2 MSTORE PUSH1 0x20 ADD ADDRESS PUSH1 0x1 PUSH1 0x1 PUSH1 0xA0 SHL SUB AND DUP2 MSTORE PUSH1 0x20 ADD DUP4 DUP2 MSTORE PUSH1 0x20 ADD DUP3 DUP2 MSTORE PUSH1 0x20 ADD PUSH1 0x1 ISZERO ISZERO DUP2 MSTORE PUSH1 0x20 ADD PUSH2 0x1F2C PUSH1 0x2 SLOAD SWAP1 JUMP JUMPDEST SWAP1 MSTORE PUSH1 0x7 PUSH1 0x0 PUSH2 0x1F3B PUSH1 0x2 SLOAD SWAP1 JUMP JUMPDEST DUP2 MSTORE PUSH1 0x20 DUP1 DUP3 ADD SWAP3 SWAP1 SWAP3 MSTORE PUSH1 0x40 SWAP1 DUP2 ADD PUSH1 0x0 KECCAK256 DUP4 MLOAD DUP2 SLOAD PUSH1 0x1 PUSH1 0x1 PUSH1 0xA0 SHL SUB NOT SWAP1 DUP2 AND PUSH1 0x1 PUSH1 0x1 PUSH1 0xA0 SHL SUB SWAP3 DUP4 AND OR DUP4 SSTORE SWAP4 DUP6 ADD MLOAD PUSH1 0x1 DUP4 ADD SSTORE SWAP2 DUP5 ADD MLOAD PUSH1 0x2 DUP3 ADD DUP1 SLOAD DUP6 AND SWAP2 DUP5 AND SWAP2 SWAP1 SWAP2 OR SWAP1 SSTORE PUSH1 0x60 DUP5 ADD MLOAD PUSH1 0x3 DUP3 ADD DUP1 SLOAD SWAP1 SWAP5 AND SWAP3 AND SWAP2 SWAP1 SWAP2 OR SWAP1 SWAP2 SSTORE PUSH1 0x80 DUP3 ADD MLOAD PUSH1 0x4 DUP3 ADD SSTORE PUSH1 0xA0 DUP3 ADD MLOAD PUSH1 0x5 DUP3 ADD SWAP1 PUSH2 0x1FBF SWAP1 DUP3 PUSH2 0x2C36 JUMP JUMPDEST POP PUSH1 0xC0 DUP3 ADD MLOAD PUSH1 0x6 DUP3 ADD DUP1 SLOAD PUSH1 0xFF NOT AND SWAP2 ISZERO ISZERO SWAP2 SWAP1 SWAP2 OR SWAP1 SSTORE PUSH1 0xE0 SWAP1 SWAP2 ADD MLOAD PUSH1 0x7 SWAP1 SWAP2 ADD SSTORE PUSH1 0x40 DUP1 MLOAD PUSH1 0x1 PUSH1 0x1 PUSH1 0xA0 SHL SUB DUP7 AND DUP2 MSTORE PUSH1 0x20 DUP2 ADD DUP6 SWAP1 MSTORE CALLER DUP2 DUP4 ADD MSTORE ADDRESS PUSH1 0x60 DUP3 ADD MSTORE PUSH1 0x80 DUP2 ADD DUP5 SWAP1 MSTORE SWAP1 MLOAD PUSH32 0xA0C6C0D02D86FDACECBAA5FDF5894BAB204E31A778250474108540733A9B8D19 SWAP2 PUSH1 0xA0 SWAP1 DUP3 SWAP1 SUB ADD SWAP1 LOG1 POP POP PUSH1 0x1 PUSH1 0x0 SSTORE POP POP JUMP JUMPDEST PUSH1 0x60 PUSH1 0x0 PUSH2 0x2052 PUSH1 0x4 SLOAD SWAP1 JUMP JUMPDEST SWAP1 POP PUSH1 0x0 DUP1 JUMPDEST DUP3 DUP2 LT ISZERO PUSH2 0x2108 JUMPI PUSH1 0x9 PUSH1 0x0 PUSH2 0x206F DUP4 PUSH1 0x1 PUSH2 0x29E4 JUMP JUMPDEST DUP2 MSTORE PUSH1 0x20 DUP2 ADD SWAP2 SWAP1 SWAP2 MSTORE PUSH1 0x40 SWAP1 DUP2 ADD PUSH1 0x0 KECCAK256 PUSH1 0x3 ADD SLOAD SWAP1 MLOAD PUSH4 0x288C3149 PUSH1 0xE2 SHL DUP2 MSTORE CALLER PUSH1 0x4 DUP3 ADD MSTORE PUSH1 0x1 PUSH1 0x1 PUSH1 0xA0 SHL SUB SWAP1 SWAP2 AND SWAP1 PUSH4 0xA230C524 SWAP1 PUSH1 0x24 ADD PUSH1 0x20 PUSH1 0x40 MLOAD DUP1 DUP4 SUB DUP2 DUP7 GAS STATICCALL ISZERO DUP1 ISZERO PUSH2 0x20C9 JUMPI RETURNDATASIZE PUSH1 0x0 DUP1 RETURNDATACOPY RETURNDATASIZE PUSH1 0x0 REVERT JUMPDEST POP POP POP POP PUSH1 0x40 MLOAD RETURNDATASIZE PUSH1 0x1F NOT PUSH1 0x1F DUP3 ADD AND DUP3 ADD DUP1 PUSH1 0x40 MSTORE POP DUP2 ADD SWAP1 PUSH2 0x20ED SWAP2 SWAP1 PUSH2 0x2A97 JUMP JUMPDEST ISZERO PUSH2 0x2100 JUMPI DUP2 PUSH2 0x20FC DUP2 PUSH2 0x29F7 JUMP JUMPDEST SWAP3 POP POP JUMPDEST PUSH1 0x1 ADD PUSH2 0x2058 JUMP JUMPDEST POP PUSH1 0x0 DUP1 DUP3 PUSH1 0x1 PUSH1 0x1 PUSH1 0x40 SHL SUB DUP2 GT ISZERO PUSH2 0x2124 JUMPI PUSH2 0x2124 PUSH2 0x275D JUMP JUMPDEST PUSH1 0x40 MLOAD SWAP1 DUP1 DUP3 MSTORE DUP1 PUSH1 0x20 MUL PUSH1 0x20 ADD DUP3 ADD PUSH1 0x40 MSTORE DUP1 ISZERO PUSH2 0x215D JUMPI DUP2 PUSH1 0x20 ADD JUMPDEST PUSH2 0x214A PUSH2 0x2386 JUMP JUMPDEST DUP2 MSTORE PUSH1 0x20 ADD SWAP1 PUSH1 0x1 SWAP1 SUB SWAP1 DUP2 PUSH2 0x2142 JUMPI SWAP1 POP JUMPDEST POP SWAP1 POP PUSH1 0x0 JUMPDEST DUP5 DUP2 LT ISZERO PUSH2 0xD15 JUMPI PUSH1 0x9 PUSH1 0x0 PUSH2 0x217A DUP4 PUSH1 0x1 PUSH2 0x29E4 JUMP JUMPDEST DUP2 MSTORE PUSH1 0x20 DUP2 ADD SWAP2 SWAP1 SWAP2 MSTORE PUSH1 0x40 SWAP1 DUP2 ADD PUSH1 0x0 KECCAK256 PUSH1 0x3 ADD SLOAD SWAP1 MLOAD PUSH4 0x288C3149 PUSH1 0xE2 SHL DUP2 MSTORE CALLER PUSH1 0x4 DUP3 ADD MSTORE PUSH1 0x1 PUSH1 0x1 PUSH1 0xA0 SHL SUB SWAP1 SWAP2 AND SWAP1 PUSH4 0xA230C524 SWAP1 PUSH1 0x24 ADD PUSH1 0x20 PUSH1 0x40 MLOAD DUP1 DUP4 SUB DUP2 DUP7 GAS STATICCALL ISZERO DUP1 ISZERO PUSH2 0x21D4 JUMPI RETURNDATASIZE PUSH1 0x0 DUP1 RETURNDATACOPY RETURNDATASIZE PUSH1 0x0 REVERT JUMPDEST POP POP POP POP PUSH1 0x40 MLOAD RETURNDATASIZE PUSH1 0x1F NOT PUSH1 0x1F DUP3 ADD AND DUP3 ADD DUP1 PUSH1 0x40 MSTORE POP DUP2 ADD SWAP1 PUSH2 0x21F8 SWAP2 SWAP1 PUSH2 0x2A97 JUMP JUMPDEST ISZERO PUSH2 0x233B JUMPI PUSH1 0x9 PUSH1 0x0 PUSH2 0x220C DUP4 PUSH1 0x1 PUSH2 0x29E4 JUMP JUMPDEST DUP2 MSTORE PUSH1 0x20 DUP1 DUP3 ADD SWAP3 SWAP1 SWAP3 MSTORE PUSH1 0x40 SWAP1 DUP2 ADD PUSH1 0x0 KECCAK256 DUP2 MLOAD PUSH1 0xE0 DUP2 ADD DUP4 MSTORE DUP2 SLOAD PUSH1 0x1 PUSH1 0x1 PUSH1 0xA0 SHL SUB AND DUP2 MSTORE PUSH1 0x1 DUP3 ADD SLOAD SWAP4 DUP2 ADD SWAP4 SWAP1 SWAP4 MSTORE PUSH1 0x2 DUP2 ADD DUP1 SLOAD SWAP2 SWAP3 DUP5 ADD SWAP2 PUSH2 0x2254 SWAP1 PUSH2 0x2A10 JUMP JUMPDEST DUP1 PUSH1 0x1F ADD PUSH1 0x20 DUP1 SWAP2 DIV MUL PUSH1 0x20 ADD PUSH1 0x40 MLOAD SWAP1 DUP2 ADD PUSH1 0x40 MSTORE DUP1 SWAP3 SWAP2 SWAP1 DUP2 DUP2 MSTORE PUSH1 0x20 ADD DUP3 DUP1 SLOAD PUSH2 0x2280 SWAP1 PUSH2 0x2A10 JUMP JUMPDEST DUP1 ISZERO PUSH2 0x22CD JUMPI DUP1 PUSH1 0x1F LT PUSH2 0x22A2 JUMPI PUSH2 0x100 DUP1 DUP4 SLOAD DIV MUL DUP4 MSTORE SWAP2 PUSH1 0x20 ADD SWAP2 PUSH2 0x22CD JUMP JUMPDEST DUP3 ADD SWAP2 SWAP1 PUSH1 0x0 MSTORE PUSH1 0x20 PUSH1 0x0 KECCAK256 SWAP1 JUMPDEST DUP2 SLOAD DUP2 MSTORE SWAP1 PUSH1 0x1 ADD SWAP1 PUSH1 0x20 ADD DUP1 DUP4 GT PUSH2 0x22B0 JUMPI DUP3 SWAP1 SUB PUSH1 0x1F AND DUP3 ADD SWAP2 JUMPDEST POP POP POP SWAP2 DUP4 MSTORE POP POP PUSH1 0x3 DUP3 ADD SLOAD PUSH1 0x1 PUSH1 0x1 PUSH1 0xA0 SHL SUB AND PUSH1 0x20 DUP3 ADD MSTORE PUSH1 0x4 DUP3 ADD SLOAD PUSH1 0x40 DUP3 ADD MSTORE PUSH1 0x5 DUP3 ADD SLOAD PUSH1 0x60 DUP3 ADD MSTORE PUSH1 0x6 SWAP1 SWAP2 ADD SLOAD PUSH1 0xFF AND ISZERO ISZERO PUSH1 0x80 SWAP1 SWAP2 ADD MSTORE DUP3 MLOAD DUP4 SWAP1 DUP6 SWAP1 DUP2 LT PUSH2 0x2321 JUMPI PUSH2 0x2321 PUSH2 0x2A4A JUMP JUMPDEST PUSH1 0x20 MUL PUSH1 0x20 ADD ADD DUP2 SWAP1 MSTORE POP DUP3 DUP1 PUSH2 0x2337 SWAP1 PUSH2 0x29F7 JUMP JUMPDEST SWAP4 POP POP JUMPDEST PUSH1 0x1 ADD PUSH2 0x2163 JUMP JUMPDEST PUSH1 0x40 DUP1 MLOAD PUSH2 0x100 DUP2 ADD DUP3 MSTORE PUSH1 0x0 DUP1 DUP3 MSTORE PUSH1 0x20 DUP3 ADD DUP2 SWAP1 MSTORE SWAP2 DUP2 ADD DUP3 SWAP1 MSTORE PUSH1 0x60 DUP1 DUP3 ADD DUP4 SWAP1 MSTORE PUSH1 0x80 DUP3 ADD DUP4 SWAP1 MSTORE PUSH1 0xA0 DUP3 ADD MSTORE PUSH1 0xC0 DUP2 ADD DUP3 SWAP1 MSTORE PUSH1 0xE0 DUP2 ADD SWAP2 SWAP1 SWAP2 MSTORE SWAP1 JUMP JUMPDEST PUSH1 0x40 MLOAD DUP1 PUSH1 0xE0 ADD PUSH1 0x40 MSTORE DUP1 PUSH1 0x0 PUSH1 0x1 PUSH1 0x1 PUSH1 0xA0 SHL SUB AND DUP2 MSTORE PUSH1 0x20 ADD PUSH1 0x0 DUP2 MSTORE PUSH1 0x20 ADD PUSH1 0x60 DUP2 MSTORE PUSH1 0x20 ADD PUSH1 0x0 PUSH1 0x1 PUSH1 0x1 PUSH1 0xA0 SHL SUB AND DUP2 MSTORE PUSH1 0x20 ADD PUSH1 0x0 DUP2 MSTORE PUSH1 0x20 ADD PUSH1 0x0 DUP2 MSTORE PUSH1 0x20 ADD PUSH1 0x0 ISZERO ISZERO DUP2 MSTORE POP SWAP1 JUMP JUMPDEST PUSH1 0x40 DUP1 MLOAD PUSH2 0x120 DUP2 ADD DUP3 MSTORE PUSH1 0x0 DUP1 DUP3 MSTORE PUSH1 0x20 DUP3 ADD DUP2 SWAP1 MSTORE SWAP2 DUP2 ADD DUP3 SWAP1 MSTORE PUSH1 0x60 DUP1 DUP3 ADD DUP4 SWAP1 MSTORE PUSH1 0x80 DUP3 ADD DUP4 SWAP1 MSTORE PUSH1 0xA0 DUP3 ADD MSTORE PUSH1 0xC0 DUP2 ADD DUP3 SWAP1 MSTORE PUSH1 0xE0 DUP2 ADD DUP3 SWAP1 MSTORE PUSH2 0x100 DUP2 ADD SWAP2 SWAP1 SWAP2 MSTORE SWAP1 JUMP JUMPDEST PUSH2 0x316 DUP1 PUSH2 0x2CF6 DUP4 CODECOPY ADD SWAP1 JUMP JUMPDEST PUSH1 0x0 DUP2 MLOAD DUP1 DUP5 MSTORE PUSH1 0x0 JUMPDEST DUP2 DUP2 LT ISZERO PUSH2 0x2455 JUMPI PUSH1 0x20 DUP2 DUP6 ADD DUP2 ADD MLOAD DUP7 DUP4 ADD DUP3 ADD MSTORE ADD PUSH2 0x2439 JUMP JUMPDEST POP PUSH1 0x0 PUSH1 0x20 DUP3 DUP7 ADD ADD MSTORE PUSH1 0x20 PUSH1 0x1F NOT PUSH1 0x1F DUP4 ADD AND DUP6 ADD ADD SWAP2 POP POP SWAP3 SWAP2 POP POP JUMP JUMPDEST PUSH1 0x0 PUSH1 0x20 DUP1 DUP4 ADD DUP2 DUP5 MSTORE DUP1 DUP6 MLOAD DUP1 DUP4 MSTORE PUSH1 0x40 SWAP3 POP PUSH1 0x40 DUP7 ADD SWAP2 POP PUSH1 0x40 DUP2 PUSH1 0x5 SHL DUP8 ADD ADD DUP5 DUP9 ADD PUSH1 0x0 JUMPDEST DUP4 DUP2 LT ISZERO PUSH2 0x253D JUMPI DUP9 DUP4 SUB PUSH1 0x3F NOT ADD DUP6 MSTORE DUP2 MLOAD DUP1 MLOAD PUSH1 0x1 PUSH1 0x1 PUSH1 0xA0 SHL SUB SWAP1 DUP2 AND DUP6 MSTORE DUP9 DUP3 ADD MLOAD DUP10 DUP7 ADD MSTORE DUP8 DUP3 ADD MLOAD DUP2 AND DUP9 DUP7 ADD MSTORE PUSH1 0x60 DUP1 DUP4 ADD MLOAD SWAP1 SWAP2 AND SWAP1 DUP6 ADD MSTORE PUSH1 0x80 DUP1 DUP3 ADD MLOAD SWAP1 DUP6 ADD MSTORE PUSH1 0xA0 DUP1 DUP3 ADD MLOAD PUSH2 0x100 DUP3 DUP8 ADD DUP2 SWAP1 MSTORE SWAP2 SWAP1 PUSH2 0x2506 DUP4 DUP9 ADD DUP3 PUSH2 0x242F JUMP JUMPDEST SWAP3 POP POP POP PUSH1 0xC0 DUP1 DUP4 ADD MLOAD PUSH2 0x251D DUP3 DUP9 ADD DUP3 ISZERO ISZERO SWAP1 MSTORE JUMP JUMPDEST POP POP PUSH1 0xE0 SWAP2 DUP3 ADD MLOAD SWAP5 SWAP1 SWAP2 ADD SWAP4 SWAP1 SWAP4 MSTORE SWAP4 DUP7 ADD SWAP4 SWAP1 DUP7 ADD SWAP1 PUSH1 0x1 ADD PUSH2 0x249E JUMP JUMPDEST POP SWAP1 SWAP9 SWAP8 POP POP POP POP POP POP POP POP JUMP JUMPDEST PUSH1 0x1 PUSH1 0x1 PUSH1 0xA0 SHL SUB DUP2 AND DUP2 EQ PUSH2 0x2560 JUMPI PUSH1 0x0 DUP1 REVERT JUMPDEST POP JUMP JUMPDEST PUSH1 0x0 DUP1 PUSH1 0x40 DUP4 DUP6 SUB SLT ISZERO PUSH2 0x2576 JUMPI PUSH1 0x0 DUP1 REVERT JUMPDEST DUP3 CALLDATALOAD PUSH2 0x2581 DUP2 PUSH2 0x254B JUMP JUMPDEST SWAP5 PUSH1 0x20 SWAP4 SWAP1 SWAP4 ADD CALLDATALOAD SWAP4 POP POP POP JUMP JUMPDEST PUSH1 0x0 PUSH1 0x20 DUP3 DUP5 SUB SLT ISZERO PUSH2 0x25A1 JUMPI PUSH1 0x0 DUP1 REVERT JUMPDEST POP CALLDATALOAD SWAP2 SWAP1 POP JUMP JUMPDEST PUSH1 0x0 PUSH1 0x20 DUP1 DUP4 ADD DUP2 DUP5 MSTORE DUP1 DUP6 MLOAD DUP1 DUP4 MSTORE PUSH1 0x40 SWAP3 POP PUSH1 0x40 DUP7 ADD SWAP2 POP PUSH1 0x40 DUP2 PUSH1 0x5 SHL DUP8 ADD ADD DUP5 DUP9 ADD PUSH1 0x0 JUMPDEST DUP4 DUP2 LT ISZERO PUSH2 0x253D JUMPI DUP9 DUP4 SUB PUSH1 0x3F NOT ADD DUP6 MSTORE DUP2 MLOAD DUP1 MLOAD PUSH1 0x1 PUSH1 0x1 PUSH1 0xA0 SHL SUB SWAP1 DUP2 AND DUP6 MSTORE DUP9 DUP3 ADD MLOAD DUP10 DUP7 ADD MSTORE DUP8 DUP3 ADD MLOAD PUSH1 0xE0 DUP10 DUP8 ADD DUP2 SWAP1 MSTORE SWAP2 SWAP1 PUSH2 0x2615 DUP4 DUP9 ADD DUP3 PUSH2 0x242F JUMP JUMPDEST PUSH1 0x60 DUP6 DUP2 ADD MLOAD SWAP1 SWAP4 AND SWAP3 DUP9 ADD SWAP3 SWAP1 SWAP3 MSTORE POP PUSH1 0x80 DUP1 DUP5 ADD MLOAD SWAP1 DUP8 ADD MSTORE PUSH1 0xA0 DUP1 DUP5 ADD MLOAD SWAP1 DUP8 ADD MSTORE PUSH1 0xC0 SWAP3 DUP4 ADD MLOAD ISZERO ISZERO SWAP3 SWAP1 SWAP6 ADD SWAP2 SWAP1 SWAP2 MSTORE POP SWAP4 DUP7 ADD SWAP4 SWAP1 DUP7 ADD SWAP1 PUSH1 0x1 ADD PUSH2 0x25D1 JUMP JUMPDEST PUSH1 0x0 PUSH1 0x20 DUP1 DUP4 ADD DUP2 DUP5 MSTORE DUP1 DUP6 MLOAD DUP1 DUP4 MSTORE PUSH1 0x40 SWAP3 POP PUSH1 0x40 DUP7 ADD SWAP2 POP PUSH1 0x40 DUP2 PUSH1 0x5 SHL DUP8 ADD ADD DUP5 DUP9 ADD PUSH1 0x0 JUMPDEST DUP4 DUP2 LT ISZERO PUSH2 0x253D JUMPI DUP9 DUP4 SUB PUSH1 0x3F NOT ADD DUP6 MSTORE DUP2 MLOAD DUP1 MLOAD PUSH1 0x1 PUSH1 0x1 PUSH1 0xA0 SHL SUB AND DUP5 MSTORE PUSH2 0x120 DUP2 DUP10 ADD MLOAD DUP6 DUP11 ADD MSTORE DUP8 DUP3 ADD MLOAD PUSH1 0x1 PUSH1 0x1 PUSH1 0xA0 SHL SUB DUP2 AND DUP10 DUP8 ADD MSTORE POP PUSH1 0x60 DUP3 DUP2 ADD MLOAD PUSH1 0x1 PUSH1 0x1 PUSH1 0xA0 SHL SUB DUP2 AND DUP8 DUP4 ADD MSTORE POP POP PUSH1 0x80 DUP1 DUP4 ADD MLOAD DUP2 DUP8 ADD MSTORE POP PUSH1 0xA0 DUP1 DUP4 ADD MLOAD DUP3 DUP3 DUP9 ADD MSTORE PUSH2 0x26FA DUP4 DUP9 ADD DUP3 PUSH2 0x242F JUMP JUMPDEST SWAP3 POP POP POP PUSH1 0xC0 DUP1 DUP4 ADD MLOAD PUSH2 0x2711 DUP3 DUP9 ADD DUP3 ISZERO ISZERO SWAP1 MSTORE JUMP JUMPDEST POP POP PUSH1 0xE0 DUP3 DUP2 ADD MLOAD SWAP1 DUP7 ADD MSTORE PUSH2 0x100 SWAP2 DUP3 ADD MLOAD ISZERO ISZERO SWAP2 SWAP1 SWAP5 ADD MSTORE SWAP4 DUP7 ADD SWAP4 SWAP1 DUP7 ADD SWAP1 PUSH1 0x1 ADD PUSH2 0x2684 JUMP JUMPDEST PUSH1 0x0 DUP1 PUSH1 0x40 DUP4 DUP6 SUB SLT ISZERO PUSH2 0x274E JUMPI PUSH1 0x0 DUP1 REVERT JUMPDEST POP POP DUP1 CALLDATALOAD SWAP3 PUSH1 0x20 SWAP1 SWAP2 ADD CALLDATALOAD SWAP2 POP JUMP JUMPDEST PUSH4 0x4E487B71 PUSH1 0xE0 SHL PUSH1 0x0 MSTORE PUSH1 0x41 PUSH1 0x4 MSTORE PUSH1 0x24 PUSH1 0x0 REVERT JUMPDEST PUSH1 0x40 MLOAD PUSH1 0x1F DUP3 ADD PUSH1 0x1F NOT AND DUP2 ADD PUSH1 0x1 PUSH1 0x1 PUSH1 0x40 SHL SUB DUP2 GT DUP3 DUP3 LT OR ISZERO PUSH2 0x279B JUMPI PUSH2 0x279B PUSH2 0x275D JUMP JUMPDEST PUSH1 0x40 MSTORE SWAP2 SWAP1 POP JUMP JUMPDEST PUSH1 0x0 DUP3 PUSH1 0x1F DUP4 ADD SLT PUSH2 0x27B4 JUMPI PUSH1 0x0 DUP1 REVERT JUMPDEST DUP2 CALLDATALOAD PUSH1 0x1 PUSH1 0x1 PUSH1 0x40 SHL SUB DUP2 GT ISZERO PUSH2 0x27CD JUMPI PUSH2 0x27CD PUSH2 0x275D JUMP JUMPDEST PUSH2 0x27E0 PUSH1 0x1F DUP3 ADD PUSH1 0x1F NOT AND PUSH1 0x20 ADD PUSH2 0x2773 JUMP JUMPDEST DUP2 DUP2 MSTORE DUP5 PUSH1 0x20 DUP4 DUP7 ADD ADD GT ISZERO PUSH2 0x27F5 JUMPI PUSH1 0x0 DUP1 REVERT JUMPDEST DUP2 PUSH1 0x20 DUP6 ADD PUSH1 0x20 DUP4 ADD CALLDATACOPY PUSH1 0x0 SWAP2 DUP2 ADD PUSH1 0x20 ADD SWAP2 SWAP1 SWAP2 MSTORE SWAP4 SWAP3 POP POP POP JUMP JUMPDEST DUP1 ISZERO ISZERO DUP2 EQ PUSH2 0x2560 JUMPI PUSH1 0x0 DUP1 REVERT JUMPDEST PUSH1 0x0 DUP1 PUSH1 0x0 DUP1 PUSH1 0x0 PUSH1 0xA0 DUP7 DUP9 SUB SLT ISZERO PUSH2 0x2838 JUMPI PUSH1 0x0 DUP1 REVERT JUMPDEST DUP6 CALLDATALOAD PUSH2 0x2843 DUP2 PUSH2 0x254B JUMP JUMPDEST SWAP5 POP PUSH1 0x20 DUP7 ADD CALLDATALOAD SWAP4 POP PUSH1 0x40 DUP7 ADD CALLDATALOAD PUSH1 0x1 PUSH1 0x1 PUSH1 0x40 SHL SUB DUP2 GT ISZERO PUSH2 0x2865 JUMPI PUSH1 0x0 DUP1 REVERT JUMPDEST PUSH2 0x2871 DUP9 DUP3 DUP10 ADD PUSH2 0x27A3 JUMP JUMPDEST SWAP4 POP POP PUSH1 0x60 DUP7 ADD CALLDATALOAD SWAP2 POP PUSH1 0x80 DUP7 ADD CALLDATALOAD PUSH2 0x2889 DUP2 PUSH2 0x2812 JUMP JUMPDEST DUP1 SWAP2 POP POP SWAP3 SWAP6 POP SWAP3 SWAP6 SWAP1 SWAP4 POP JUMP JUMPDEST PUSH1 0x0 DUP1 PUSH1 0x0 DUP1 PUSH1 0x0 DUP1 PUSH1 0xC0 DUP8 DUP10 SUB SLT ISZERO PUSH2 0x28B0 JUMPI PUSH1 0x0 DUP1 REVERT JUMPDEST DUP7 CALLDATALOAD PUSH2 0x28BB DUP2 PUSH2 0x254B JUMP JUMPDEST SWAP6 POP PUSH1 0x20 DUP8 ADD CALLDATALOAD SWAP5 POP PUSH1 0x40 DUP8 ADD CALLDATALOAD SWAP4 POP PUSH1 0x60 DUP8 ADD CALLDATALOAD PUSH1 0x1 PUSH1 0x1 PUSH1 0x40 SHL SUB DUP2 GT ISZERO PUSH2 0x28E4 JUMPI PUSH1 0x0 DUP1 REVERT JUMPDEST PUSH2 0x28F0 DUP10 DUP3 DUP11 ADD PUSH2 0x27A3 JUMP JUMPDEST SWAP4 POP POP PUSH1 0x80 DUP8 ADD CALLDATALOAD PUSH2 0x2901 DUP2 PUSH2 0x2812 JUMP JUMPDEST SWAP2 POP PUSH1 0xA0 DUP8 ADD CALLDATALOAD PUSH2 0x2911 DUP2 PUSH2 0x2812 JUMP JUMPDEST DUP1 SWAP2 POP POP SWAP3 SWAP6 POP SWAP3 SWAP6 POP SWAP3 SWAP6 JUMP JUMPDEST PUSH1 0x20 DUP1 DUP3 MSTORE DUP3 MLOAD DUP3 DUP3 ADD DUP2 SWAP1 MSTORE PUSH1 0x0 SWAP2 SWAP1 DUP5 DUP3 ADD SWAP1 PUSH1 0x40 DUP6 ADD SWAP1 DUP5 JUMPDEST DUP2 DUP2 LT ISZERO PUSH2 0x2960 JUMPI DUP4 MLOAD PUSH1 0x1 PUSH1 0x1 PUSH1 0xA0 SHL SUB AND DUP4 MSTORE SWAP3 DUP5 ADD SWAP3 SWAP2 DUP5 ADD SWAP2 PUSH1 0x1 ADD PUSH2 0x293B JUMP JUMPDEST POP SWAP1 SWAP7 SWAP6 POP POP POP POP POP POP JUMP JUMPDEST PUSH1 0x0 DUP1 PUSH1 0x0 DUP1 PUSH1 0x80 DUP6 DUP8 SUB SLT ISZERO PUSH2 0x2982 JUMPI PUSH1 0x0 DUP1 REVERT JUMPDEST DUP5 CALLDATALOAD PUSH2 0x298D DUP2 PUSH2 0x254B JUMP JUMPDEST SWAP4 POP PUSH1 0x20 DUP6 ADD CALLDATALOAD SWAP3 POP PUSH1 0x40 DUP6 ADD CALLDATALOAD SWAP2 POP PUSH1 0x60 DUP6 ADD CALLDATALOAD PUSH1 0x1 PUSH1 0x1 PUSH1 0x40 SHL SUB DUP2 GT ISZERO PUSH2 0x29B6 JUMPI PUSH1 0x0 DUP1 REVERT JUMPDEST PUSH2 0x29C2 DUP8 DUP3 DUP9 ADD PUSH2 0x27A3 JUMP JUMPDEST SWAP2 POP POP SWAP3 SWAP6 SWAP2 SWAP5 POP SWAP3 POP JUMP JUMPDEST PUSH4 0x4E487B71 PUSH1 0xE0 SHL PUSH1 0x0 MSTORE PUSH1 0x11 PUSH1 0x4 MSTORE PUSH1 0x24 PUSH1 0x0 REVERT JUMPDEST DUP1 DUP3 ADD DUP1 DUP3 GT ISZERO PUSH2 0x1D57 JUMPI PUSH2 0x1D57 PUSH2 0x29CE JUMP JUMPDEST PUSH1 0x0 PUSH1 0x1 DUP3 ADD PUSH2 0x2A09 JUMPI PUSH2 0x2A09 PUSH2 0x29CE JUMP JUMPDEST POP PUSH1 0x1 ADD SWAP1 JUMP JUMPDEST PUSH1 0x1 DUP2 DUP2 SHR SWAP1 DUP3 AND DUP1 PUSH2 0x2A24 JUMPI PUSH1 0x7F DUP3 AND SWAP2 POP JUMPDEST PUSH1 0x20 DUP3 LT DUP2 SUB PUSH2 0x2A44 JUMPI PUSH4 0x4E487B71 PUSH1 0xE0 SHL PUSH1 0x0 MSTORE PUSH1 0x22 PUSH1 0x4 MSTORE PUSH1 0x24 PUSH1 0x0 REVERT JUMPDEST POP SWAP2 SWAP1 POP JUMP JUMPDEST PUSH4 0x4E487B71 PUSH1 0xE0 SHL PUSH1 0x0 MSTORE PUSH1 0x32 PUSH1 0x4 MSTORE PUSH1 0x24 PUSH1 0x0 REVERT JUMPDEST PUSH1 0x20 DUP1 DUP3 MSTORE PUSH1 0x1F SWAP1 DUP3 ADD MSTORE PUSH32 0x5265656E7472616E637947756172643A207265656E7472616E742063616C6C00 PUSH1 0x40 DUP3 ADD MSTORE PUSH1 0x60 ADD SWAP1 JUMP JUMPDEST PUSH1 0x0 PUSH1 0x20 DUP3 DUP5 SUB SLT ISZERO PUSH2 0x2AA9 JUMPI PUSH1 0x0 DUP1 REVERT JUMPDEST DUP2 MLOAD PUSH2 0x2AB4 DUP2 PUSH2 0x2812 JUMP JUMPDEST SWAP4 SWAP3 POP POP POP JUMP JUMPDEST DUP2 DUP2 SUB DUP2 DUP2 GT ISZERO PUSH2 0x1D57 JUMPI PUSH2 0x1D57 PUSH2 0x29CE JUMP JUMPDEST PUSH1 0x20 DUP1 DUP3 MSTORE PUSH1 0x26 SWAP1 DUP3 ADD MSTORE PUSH32 0x4E6F7420656E6F75676820657468657220746F20636F7665722061736B696E67 PUSH1 0x40 DUP3 ADD MSTORE PUSH6 0x207072696365 PUSH1 0xD0 SHL PUSH1 0x60 DUP3 ADD MSTORE PUSH1 0x80 ADD SWAP1 JUMP JUMPDEST PUSH1 0x1 PUSH1 0x1 PUSH1 0xA0 SHL SUB SWAP4 DUP5 AND DUP2 MSTORE SWAP2 SWAP1 SWAP3 AND PUSH1 0x20 DUP3 ADD MSTORE PUSH1 0x40 DUP2 ADD SWAP2 SWAP1 SWAP2 MSTORE PUSH1 0x60 ADD SWAP1 JUMP JUMPDEST PUSH1 0x0 PUSH1 0x20 DUP1 DUP4 DUP6 SUB SLT ISZERO PUSH2 0x2B4B JUMPI PUSH1 0x0 DUP1 REVERT JUMPDEST DUP3 MLOAD PUSH1 0x1 PUSH1 0x1 PUSH1 0x40 SHL SUB DUP1 DUP3 GT ISZERO PUSH2 0x2B62 JUMPI PUSH1 0x0 DUP1 REVERT JUMPDEST DUP2 DUP6 ADD SWAP2 POP DUP6 PUSH1 0x1F DUP4 ADD SLT PUSH2 0x2B76 JUMPI PUSH1 0x0 DUP1 REVERT JUMPDEST DUP2 MLOAD DUP2 DUP2 GT ISZERO PUSH2 0x2B88 JUMPI PUSH2 0x2B88 PUSH2 0x275D JUMP JUMPDEST DUP1 PUSH1 0x5 SHL SWAP2 POP PUSH2 0x2B99 DUP5 DUP4 ADD PUSH2 0x2773 JUMP JUMPDEST DUP2 DUP2 MSTORE SWAP2 DUP4 ADD DUP5 ADD SWAP2 DUP5 DUP2 ADD SWAP1 DUP9 DUP5 GT ISZERO PUSH2 0x2BB3 JUMPI PUSH1 0x0 DUP1 REVERT JUMPDEST SWAP4 DUP6 ADD SWAP4 JUMPDEST DUP4 DUP6 LT ISZERO PUSH2 0x2BDD JUMPI DUP5 MLOAD SWAP3 POP PUSH2 0x2BCD DUP4 PUSH2 0x254B JUMP JUMPDEST DUP3 DUP3 MSTORE SWAP4 DUP6 ADD SWAP4 SWAP1 DUP6 ADD SWAP1 PUSH2 0x2BB8 JUMP JUMPDEST SWAP9 SWAP8 POP POP POP POP POP POP POP POP JUMP JUMPDEST PUSH1 0x1F DUP3 GT ISZERO PUSH2 0x2C31 JUMPI PUSH1 0x0 DUP2 PUSH1 0x0 MSTORE PUSH1 0x20 PUSH1 0x0 KECCAK256 PUSH1 0x1F DUP6 ADD PUSH1 0x5 SHR DUP2 ADD PUSH1 0x20 DUP7 LT ISZERO PUSH2 0x2C12 JUMPI POP DUP1 JUMPDEST PUSH1 0x1F DUP6 ADD PUSH1 0x5 SHR DUP3 ADD SWAP2 POP JUMPDEST DUP2 DUP2 LT ISZERO PUSH2 0x5AB JUMPI DUP3 DUP2 SSTORE PUSH1 0x1 ADD PUSH2 0x2C1E JUMP JUMPDEST POP POP POP JUMP JUMPDEST DUP2 MLOAD PUSH1 0x1 PUSH1 0x1 PUSH1 0x40 SHL SUB DUP2 GT ISZERO PUSH2 0x2C4F JUMPI PUSH2 0x2C4F PUSH2 0x275D JUMP JUMPDEST PUSH2 0x2C63 DUP2 PUSH2 0x2C5D DUP5 SLOAD PUSH2 0x2A10 JUMP JUMPDEST DUP5 PUSH2 0x2BE9 JUMP JUMPDEST PUSH1 0x20 DUP1 PUSH1 0x1F DUP4 GT PUSH1 0x1 DUP2 EQ PUSH2 0x2C98 JUMPI PUSH1 0x0 DUP5 ISZERO PUSH2 0x2C80 JUMPI POP DUP6 DUP4 ADD MLOAD JUMPDEST PUSH1 0x0 NOT PUSH1 0x3 DUP7 SWAP1 SHL SHR NOT AND PUSH1 0x1 DUP6 SWAP1 SHL OR DUP6 SSTORE PUSH2 0x5AB JUMP JUMPDEST PUSH1 0x0 DUP6 DUP2 MSTORE PUSH1 0x20 DUP2 KECCAK256 PUSH1 0x1F NOT DUP7 AND SWAP2 JUMPDEST DUP3 DUP2 LT ISZERO PUSH2 0x2CC7 JUMPI DUP9 DUP7 ADD MLOAD DUP3 SSTORE SWAP5 DUP5 ADD SWAP5 PUSH1 0x1 SWAP1 SWAP2 ADD SWAP1 DUP5 ADD PUSH2 0x2CA8 JUMP JUMPDEST POP DUP6 DUP3 LT ISZERO PUSH2 0x2CE5 JUMPI DUP8 DUP6 ADD MLOAD PUSH1 0x0 NOT PUSH1 0x3 DUP9 SWAP1 SHL PUSH1 0xF8 AND SHR NOT AND DUP2 SSTORE JUMPDEST POP POP POP POP POP PUSH1 0x1 SWAP1 DUP2 SHL ADD SWAP1 SSTORE POP JUMP INVALID PUSH1 0x80 PUSH1 0x40 MSTORE CALLVALUE DUP1 ISZERO PUSH2 0x10 JUMPI PUSH1 0x0 DUP1 REVERT JUMPDEST POP PUSH2 0x2F6 DUP1 PUSH2 0x20 PUSH1 0x0 CODECOPY PUSH1 0x0 RETURN INVALID PUSH1 0x80 PUSH1 0x40 MSTORE CALLVALUE DUP1 ISZERO PUSH2 0x10 JUMPI PUSH1 0x0 DUP1 REVERT JUMPDEST POP PUSH1 0x4 CALLDATASIZE LT PUSH2 0x57 JUMPI PUSH1 0x0 CALLDATALOAD PUSH1 0xE0 SHR DUP1 PUSH4 0x2DB78D93 EQ PUSH2 0x5C JUMPI DUP1 PUSH4 0x5DAF08CA EQ PUSH2 0x8F JUMPI DUP1 PUSH4 0x9EAB5253 EQ PUSH2 0xBA JUMPI DUP1 PUSH4 0xA230C524 EQ PUSH2 0xCF JUMPI DUP1 PUSH4 0xCA6D56DC EQ PUSH2 0x10A JUMPI JUMPDEST PUSH1 0x0 DUP1 REVERT JUMPDEST PUSH2 0x7C PUSH2 0x6A CALLDATASIZE PUSH1 0x4 PUSH2 0x22A JUMP JUMPDEST PUSH1 0x1 PUSH1 0x20 MSTORE PUSH1 0x0 SWAP1 DUP2 MSTORE PUSH1 0x40 SWAP1 KECCAK256 SLOAD DUP2 JUMP JUMPDEST PUSH1 0x40 MLOAD SWAP1 DUP2 MSTORE PUSH1 0x20 ADD JUMPDEST PUSH1 0x40 MLOAD DUP1 SWAP2 SUB SWAP1 RETURN JUMPDEST PUSH2 0xA2 PUSH2 0x9D CALLDATASIZE PUSH1 0x4 PUSH2 0x25A JUMP JUMPDEST PUSH2 0x11F JUMP JUMPDEST PUSH1 0x40 MLOAD PUSH1 0x1 PUSH1 0x1 PUSH1 0xA0 SHL SUB SWAP1 SWAP2 AND DUP2 MSTORE PUSH1 0x20 ADD PUSH2 0x86 JUMP JUMPDEST PUSH2 0xC2 PUSH2 0x149 JUMP JUMPDEST PUSH1 0x40 MLOAD PUSH2 0x86 SWAP2 SWAP1 PUSH2 0x273 JUMP JUMPDEST PUSH2 0xFA PUSH2 0xDD CALLDATASIZE PUSH1 0x4 PUSH2 0x22A JUMP JUMPDEST PUSH1 0x1 PUSH1 0x1 PUSH1 0xA0 SHL SUB AND PUSH1 0x0 SWAP1 DUP2 MSTORE PUSH1 0x1 PUSH1 0x20 MSTORE PUSH1 0x40 SWAP1 KECCAK256 SLOAD ISZERO ISZERO SWAP1 JUMP JUMPDEST PUSH1 0x40 MLOAD SWAP1 ISZERO ISZERO DUP2 MSTORE PUSH1 0x20 ADD PUSH2 0x86 JUMP JUMPDEST PUSH2 0x11D PUSH2 0x118 CALLDATASIZE PUSH1 0x4 PUSH2 0x22A JUMP JUMPDEST PUSH2 0x1AB JUMP JUMPDEST STOP JUMPDEST PUSH1 0x0 DUP2 DUP2 SLOAD DUP2 LT PUSH2 0x12F JUMPI PUSH1 0x0 DUP1 REVERT JUMPDEST PUSH1 0x0 SWAP2 DUP3 MSTORE PUSH1 0x20 SWAP1 SWAP2 KECCAK256 ADD SLOAD PUSH1 0x1 PUSH1 0x1 PUSH1 0xA0 SHL SUB AND SWAP1 POP DUP2 JUMP JUMPDEST PUSH1 0x60 PUSH1 0x0 DUP1 SLOAD DUP1 PUSH1 0x20 MUL PUSH1 0x20 ADD PUSH1 0x40 MLOAD SWAP1 DUP2 ADD PUSH1 0x40 MSTORE DUP1 SWAP3 SWAP2 SWAP1 DUP2 DUP2 MSTORE PUSH1 0x20 ADD DUP3 DUP1 SLOAD DUP1 ISZERO PUSH2 0x1A1 JUMPI PUSH1 0x20 MUL DUP3 ADD SWAP2 SWAP1 PUSH1 0x0 MSTORE PUSH1 0x20 PUSH1 0x0 KECCAK256 SWAP1 JUMPDEST DUP2 SLOAD PUSH1 0x1 PUSH1 0x1 PUSH1 0xA0 SHL SUB AND DUP2 MSTORE PUSH1 0x1 SWAP1 SWAP2 ADD SWAP1 PUSH1 0x20 ADD DUP1 DUP4 GT PUSH2 0x183 JUMPI JUMPDEST POP POP POP POP POP SWAP1 POP SWAP1 JUMP JUMPDEST PUSH1 0x1 PUSH1 0x1 PUSH1 0xA0 SHL SUB DUP2 AND PUSH1 0x0 SWAP1 DUP2 MSTORE PUSH1 0x1 PUSH1 0x20 MSTORE PUSH1 0x40 DUP2 KECCAK256 SLOAD SWAP1 SUB PUSH2 0x227 JUMPI PUSH1 0x0 DUP1 SLOAD PUSH1 0x1 DUP1 DUP3 ADD DUP4 SSTORE PUSH32 0x290DECD9548B62A8D60345A988386FC84BA6BC95484008F6362F93160EF3E563 SWAP1 SWAP2 ADD DUP1 SLOAD PUSH1 0x1 PUSH1 0x1 PUSH1 0xA0 SHL SUB NOT AND PUSH1 0x1 PUSH1 0x1 PUSH1 0xA0 SHL SUB DUP6 AND SWAP1 DUP2 OR SWAP1 SWAP2 SSTORE DUP3 SLOAD SWAP1 DUP4 MSTORE PUSH1 0x20 SWAP2 SWAP1 SWAP2 MSTORE PUSH1 0x40 SWAP1 SWAP2 KECCAK256 SSTORE JUMPDEST POP JUMP JUMPDEST PUSH1 0x0 PUSH1 0x20 DUP3 DUP5 SUB SLT ISZERO PUSH2 0x23C JUMPI PUSH1 0x0 DUP1 REVERT JUMPDEST DUP2 CALLDATALOAD PUSH1 0x1 PUSH1 0x1 PUSH1 0xA0 SHL SUB DUP2 AND DUP2 EQ PUSH2 0x253 JUMPI PUSH1 0x0 DUP1 REVERT JUMPDEST SWAP4 SWAP3 POP POP POP JUMP JUMPDEST PUSH1 0x0 PUSH1 0x20 DUP3 DUP5 SUB SLT ISZERO PUSH2 0x26C JUMPI PUSH1 0x0 DUP1 REVERT JUMPDEST POP CALLDATALOAD SWAP2 SWAP1 POP JUMP JUMPDEST PUSH1 0x20 DUP1 DUP3 MSTORE DUP3 MLOAD DUP3 DUP3 ADD DUP2 SWAP1 MSTORE PUSH1 0x0 SWAP2 SWAP1 DUP5 DUP3 ADD SWAP1 PUSH1 0x40 DUP6 ADD SWAP1 DUP5 JUMPDEST DUP2 DUP2 LT ISZERO PUSH2 0x2B4 JUMPI DUP4 MLOAD PUSH1 0x1 PUSH1 0x1 PUSH1 0xA0 SHL SUB AND DUP4 MSTORE SWAP3 DUP5 ADD SWAP3 SWAP2 DUP5 ADD SWAP2 PUSH1 0x1 ADD PUSH2 0x28F JUMP JUMPDEST POP SWAP1 SWAP7 SWAP6 POP POP POP POP POP POP JUMP INVALID LOG2 PUSH5 0x6970667358 0x22 SLT KECCAK256 SWAP3 0xC6 0xD9 PUSH2 0x70AA 0xAD 0xAC SGT MLOAD ADDRESS 0x4F PUSH16 0x165EB49993289A11B96FCB0904A81663 RETURNDATASIZE TIMESTAMP 0xB5 PUSH5 0x736F6C6343 STOP ADDMOD OR STOP CALLER LOG2 PUSH5 0x6970667358 0x22 SLT KECCAK256 RETURNDATASIZE STATICCALL PUSH4 0x527B46D9 0xBD TIMESTAMP 0xC8 SWAP12 GAS 0xC3 PUSH9 0x8F8B9D9A0ACE24C63E 0xF7 STATICCALL 0xEC LOG3 CALL NOT 0xC8 CALLDATALOAD CODESIZE PUSH5 0x736F6C6343 STOP ADDMOD OR STOP CALLER ",
  "sha1": "4099f17fdc4a0bed3f60283cfe278b9923805028",
  "source": "// SPDX-License-Identifier: MIT\npragma solidity ^0.8.13;\n\nimport \"@openzeppelin/contracts/utils/Counters.sol\";\nimport \"@openzeppelin/contracts/token/ERC721/ERC721.sol\";\nimport \"@openzeppelin/contracts/utils/Strings.sol\";\nimport \"@openzeppelin/contracts/security/ReentrancyGuard.sol\";\n\n\n\n\ncontract DaoMembers {\n\n    address [] public members;\n    mapping (address => uint256) public indexes;\n\n    function addMember(address _member) public {\n      if(indexes[_member] == 0){\n        members.push(_member);\n        indexes[_member] = members.length;\n      }\n    }\n\n  function isMember(address _member) public view returns(bool){\n    return indexes[_member] !=0;\n  }\n\n  function getMembers() public view returns(address[] memory){\n    return members;\n  }\n\n\n}\n\n\ncontract OaseesMarketplace is ReentrancyGuard {\n\n\n  using Counters for Counters.Counter;\n  Counters.Counter private _nftsSold;\n  Counters.Counter private _nftCount;\n  Counters.Counter private _deviceCount;\n  Counters.Counter private _daoCount;\n  uint256 public LISTING_FEE = 0.0001 ether;\n  address payable private _marketOwner;\n  mapping(uint256 => NFT) private _idToNFT;\n  mapping(uint256 => DEVICE) private _idToDevice;\n  mapping(uint256 => DAO) private _idToDao;\n  mapping (uint256 => mapping(address => bool)) private daoMembers;\n  event Received(address, uint);\n\n  constructor() {\n    _marketOwner = payable(msg.sender);\n  }\n\n  \n  struct DEVICE {\n    address nftContract;\n    uint256 tokenId;\n    address payable seller;\n    address payable owner;\n    uint price;\n    string desc_uri; \n    bool listed;\n    uint256 marketPlaceId;\n    bool isCluster;\n  }\n\n  function makeDevice(address _nftContract, uint256 _tokenId,uint256 _price,string memory _desc_uri,bool listed, bool isCluster) public payable nonReentrant {\n\n\n    address  _owner = msg.sender;\n    address  _seller = msg.sender;\n\n    _deviceCount.increment();\n\n    if(listed){\n      IERC721(_nftContract).transferFrom( msg.sender,address(this),_tokenId);\n      _owner = address(this);\n      emit DeviceListed();\n    }else{\n      emit DeviceSold(msg.sender);\n    }\n\n    _idToDevice[_deviceCount.current()] = DEVICE(\n      _nftContract,\n      _tokenId,\n      payable(_seller), \n      payable(_owner),\n      _price,\n      _desc_uri,\n      listed,\n      _deviceCount.current(),\n      isCluster\n    );\n\n    \n\n  } \n\n  function getListedDevices() public view returns (DEVICE[] memory) {\n    uint256 deviceCount = _deviceCount.current();\n    uint256 listedDevices = 0;\n\n    for (uint i = 0; i < deviceCount; i++) {\n      if (_idToDevice[i + 1].listed) {\n        listedDevices++;\n      }\n    }\n\n\n    DEVICE[] memory devices = new DEVICE[](listedDevices);\n    uint devicesIndex = 0;\n    for (uint i = 0; i < deviceCount; i++) {\n      if (_idToDevice[i + 1].listed) {\n        devices[devicesIndex] = _idToDevice[i + 1];\n        devicesIndex++;\n      }\n    }\n    return devices;\n  }\n\n function buyDevice(address _nftContract, uint256 _tokenId) public payable nonReentrant {\n    DEVICE storage device = _idToDevice[_tokenId];\n    require(msg.value >= device.price, \"Not enough ether to cover asking price\");\n\n    address payable buyer = payable(msg.sender);\n    payable(device.seller).transfer(msg.value);\n    IERC721(_nftContract).transferFrom(address(this), buyer, device.tokenId);\n    device.owner = buyer;\n    device.listed = false;\n\n    emit DeviceSold(buyer);\n  }\n\n\n\n  function getMyDevices() public view returns (DEVICE[] memory) {\n    uint deviceCount = _deviceCount.current();\n    uint myDevicesCount = 0;\n    for (uint i = 0; i < deviceCount; i++) {\n      if (_idToDevice[i + 1].owner == msg.sender) {\n        myDevicesCount++;\n      }\n    }\n\n    DEVICE[] memory devices = new DEVICE[](myDevicesCount);\n    uint deviceIndex = 0;\n    for (uint i = 0; i < deviceCount; i++) {\n      if (_idToDevice[i + 1].owner == msg.sender) {\n        devices[deviceIndex] = _idToDevice[i + 1];\n        deviceIndex++;\n      }\n    }\n    return devices;\n  }\n\n  struct DAO{\n    address nftContract;\n    uint256 tokenId;\n    string desc_uri;\n    DaoMembers members;\n    uint256 marketPlaceId;\n    uint256 clusterTokenId;\n    bool hasCluster;\n  }\n\n\n  event DaoJoined (\n    address indexed member_address,\n    uint256 tokenId\n  );\n\n  event ClusterJoined (\n    address indexed member_address\n  );\n\n\n  function makeDao(address _nftContract, uint256 _tokenId,string memory _desc_uri,uint256 _clusterTokenId, bool _hasCluster) public payable nonReentrant returns(uint256) {\n  \n    _daoCount.increment();\n\n    DaoMembers members = new DaoMembers();\n\n    if(_hasCluster){\n      members.addMember(msg.sender);\n      emit ClusterJoined(msg.sender);\n    }\n    \n    _idToDao[_daoCount.current()] = DAO(\n        _nftContract,\n        _tokenId,\n        _desc_uri,\n        members,\n        _daoCount.current(),\n        _clusterTokenId,\n        _hasCluster\n        );\n\n    emit NewDAO();\n  } \n\n  function getJoinedDaos() public view returns (DAO[] memory){\n    uint daoCount =  _daoCount.current();\n    uint isMemberCount = 0;\n    for(uint i=0; i < daoCount;i++){\n      if(_idToDao[i+1].members.isMember(msg.sender)){\n        isMemberCount++;\n      }  \n\n    } \n\n\n    uint daoIndex = 0;\n    DAO[] memory daos = new DAO[](isMemberCount);\n    \n\n    for(uint i=0; i < daoCount;i++){\n\n      if(_idToDao[i+1].members.isMember(msg.sender)){\n        daos[daoIndex] = _idToDao[i+1];\n        daoIndex++;\n      }  \n\n    }\n\n    return daos;\n  }\n\n\n  function joinDao(uint256 _tokenId) public payable nonReentrant {\n    _idToDao[_tokenId].members.addMember(msg.sender);\n    emit DaoJoined(msg.sender, _idToDao[_tokenId].tokenId);\n  }\n\n  function applyDao(uint256 _marketplaceId, uint256 _tokenId) public payable nonReentrant {\n    _idToDao[_marketplaceId].tokenId = _tokenId;\n    DAO storage dao = _idToDao[_marketplaceId];\n    for (uint i=0 ; i<dao.members.getMembers().length ; i++){\n      emit DaoJoined(dao.members.getMembers()[i],dao.tokenId);\n    }\n  }\n\n  function registerDeviceToCluster(address deviceAddress,uint _tokenId) public {\n    _idToDao[_tokenId].members.addMember(deviceAddress);\n  }\n\n  function registerDeviceToDao(address deviceAddress,uint _tokenId) public {\n    _idToDao[_tokenId].members.addMember(deviceAddress);\n    emit DaoJoined(deviceAddress, _idToDao[_tokenId].tokenId);\n  }\n\n  function getDaoMembers(uint256 _tokenId) public view returns (address[] memory) {\n    return _idToDao[_tokenId].members.getMembers();\n  }\n\n  function getlistedDaos() public view returns (DAO[] memory){\n    \n    uint daoCount =  _daoCount.current();\n    uint isMemberCount = 0;\n    for(uint i=0; i < daoCount;i++){\n      if(_idToDao[i+1].members.isMember(msg.sender)){\n        isMemberCount++;\n      }  \n\n    }  \n\n    uint daoIndex = 0;\n    DAO[] memory daos = new DAO[](daoCount-isMemberCount);\n    \n\n    for(uint i=0; i < daoCount;i++){\n\n      if(!_idToDao[i+1].members.isMember(msg.sender)){\n        daos[daoIndex] = _idToDao[i+1];\n        daoIndex++;\n      }  \n\n    }\n\n    return daos;\n  }\n\n\n  struct NFT {\n    address nftContract;\n    uint256 tokenId;\n    address payable seller;\n    address payable owner;\n    uint256 price;\n    string  desc_uri;\n    bool listed;\n    uint256 marketPlaceId;\n  }\n  event NFTListed(\n    address nftContract,\n    uint256 tokenId,\n    address seller,\n    address owner,\n    uint256 price\n  );\n  event NFTSold(\n    address nftContract,\n    uint256 tokenId,\n    address seller,\n    address indexed owner,\n    uint256 price\n  );\n\n  event NewDAO();\n\n  event DeviceListed();\n\n  event DeviceSold(\n    address indexed owner\n  );\n\n\n\n\n\n  // List the NFT on the marketplace\n  function makeItem(address _nftContract, uint256 _tokenId, uint256 _price, string memory _desc_uri) public payable nonReentrant {\n    require(_price > 0, \"Price must be at least 1 wei\");\n    require(msg.value == LISTING_FEE, \"Not enough ether for listing fee\");\n\n    IERC721(_nftContract).transferFrom(msg.sender, address(this), _tokenId);\n    _marketOwner.transfer(LISTING_FEE);\n    _nftCount.increment();\n\n    _idToNFT[_nftCount.current()] = NFT(\n      _nftContract,\n      _tokenId, \n      payable(msg.sender),\n      payable(address(this)),\n      _price,\n      _desc_uri,\n      true,\n      _nftCount.current()\n    );\n\n    emit NFTListed(_nftContract, _tokenId, msg.sender, address(this), _price);\n  }\n\n  // Buy an NFT\n  function buyNft(address _nftContract, uint256 _tokenId) public payable nonReentrant {\n    NFT storage nft = _idToNFT[_tokenId];\n    require(msg.value >= nft.price, \"Not enough ether to cover asking price\");\n\n    address payable buyer = payable(msg.sender);\n    payable(nft.seller).transfer(msg.value);\n    IERC721(_nftContract).transferFrom(address(this), buyer, nft.tokenId);\n    nft.owner = buyer;\n    nft.listed = false;\n\n    _nftsSold.increment();\n    emit NFTSold(_nftContract, nft.tokenId, nft.seller, buyer, msg.value);\n  }\n\n\n  function getListedNfts() public view returns (NFT[] memory) {\n    uint256 nftCount = _nftCount.current();\n    uint256 unsoldNftsCount = nftCount - _nftsSold.current();\n\n    NFT[] memory nfts = new NFT[](unsoldNftsCount);\n    uint nftsIndex = 0;\n    for (uint i = 0; i < nftCount; i++) {\n      if (_idToNFT[i + 1].listed) {\n        nfts[nftsIndex] = _idToNFT[i + 1];\n        nftsIndex++;\n      }\n    }\n    return nfts;\n  }\n\n  function getMyNfts() public view returns (NFT[] memory) {\n    uint nftCount = _nftCount.current();\n    uint myNftCount = 0;\n    for (uint i = 0; i < nftCount; i++) {\n      if (_idToNFT[i + 1].owner == msg.sender) {\n        myNftCount++;\n      }\n    }\n\n    NFT[] memory nfts = new NFT[](myNftCount);\n    uint nftsIndex = 0;\n    for (uint i = 0; i < nftCount; i++) {\n      if (_idToNFT[i + 1].owner == msg.sender) {\n        nfts[nftsIndex] = _idToNFT[i + 1];\n        nftsIndex++;\n      }\n    }\n    return nfts;\n  }\n\n  function getMyListedNfts() public view returns (NFT[] memory) {\n    uint nftCount = _nftCount.current();\n    uint myListedNftCount = 0;\n    for (uint i = 0; i < nftCount; i++) {\n      if (_idToNFT[i + 1].seller == msg.sender && _idToNFT[i + 1].listed) {\n        myListedNftCount++;\n      }\n    }\n\n    NFT[] memory nfts = new NFT[](myListedNftCount);\n    uint nftsIndex = 0;\n    for (uint i = 0; i < nftCount; i++) {\n      if (_idToNFT[i + 1].seller == msg.sender && _idToNFT[i + 1].listed) {\n        nfts[nftsIndex] = _idToNFT[i + 1];\n        nftsIndex++;\n      }\n    }\n    return nfts;\n  }\n}\n",
  "sourcePath": "contracts/Marketplace.sol",
  "type": "contract"
}